{"contracts/TokenName.sol":{"TokenName":{"abi":[{"inputs":[],"stateMutability":"nonpayable","type":"constructor"},{"inputs":[{"internalType":"address","name":"","type":"address"},{"internalType":"bool","name":"","type":"bool"}],"name":"AlreadyAPairAddress","type":"error"},{"inputs":[{"internalType":"address","name":"","type":"address"},{"internalType":"bool","name":"","type":"bool"}],"name":"AlreadyBlacklisted","type":"error"},{"inputs":[{"internalType":"address","name":"","type":"address"},{"internalType":"bool","name":"","type":"bool"}],"name":"AlreadyExcludedFee","type":"error"},{"inputs":[{"internalType":"uint256","name":"","type":"uint256"}],"name":"AlreadyTxTrigger","type":"error"},{"inputs":[{"internalType":"uint256","name":"","type":"uint256"}],"name":"AlreadyWalletLimit","type":"error"},{"inputs":[{"internalType":"address","name":"","type":"address"},{"internalType":"bool","name":"","type":"bool"}],"name":"AlreadyWalletLimitUnlimited","type":"error"},{"inputs":[{"internalType":"bool","name":"","type":"bool"}],"name":"AlreadyWalletsLimitEnabled","type":"error"},{"inputs":[],"name":"BlacklistedAddress","type":"error"},{"inputs":[],"name":"ExceedsArrayLimit","type":"error"},{"inputs":[],"name":"ExceedsFeesLimit","type":"error"},{"inputs":[],"name":"ExceedsWalletLimit","type":"error"},{"inputs":[],"name":"InsufficientAirdropTokens","type":"error"},{"inputs":[{"internalType":"uint256","name":"","type":"uint256"}],"name":"InsufficientBalance","type":"error"},{"inputs":[],"name":"InsufficientTokenBalanceForApplyingFees","type":"error"},{"inputs":[],"name":"InvalidArrayLength","type":"error"},{"inputs":[],"name":"WalletLimitZero","type":"error"},{"anonymous":false,"inputs":[{"indexed":false,"internalType":"address","name":"previousAdmin","type":"address"},{"indexed":false,"internalType":"address","name":"newAdmin","type":"address"}],"name":"AdminChanged","type":"event"},{"anonymous":false,"inputs":[{"indexed":true,"internalType":"address","name":"owner","type":"address"},{"indexed":true,"internalType":"address","name":"spender","type":"address"},{"indexed":false,"internalType":"uint256","name":"value","type":"uint256"}],"name":"Approval","type":"event"},{"anonymous":false,"inputs":[{"indexed":true,"internalType":"address","name":"beacon","type":"address"}],"name":"BeaconUpgraded","type":"event"},{"anonymous":false,"inputs":[{"indexed":false,"internalType":"address","name":"","type":"address"},{"indexed":false,"internalType":"bool","name":"","type":"bool"}],"name":"Blacklisted","type":"event"},{"anonymous":false,"inputs":[],"name":"EIP712DomainChanged","type":"event"},{"anonymous":false,"inputs":[{"indexed":false,"internalType":"address","name":"","type":"address"},{"indexed":false,"internalType":"bool","name":"","type":"bool"}],"name":"ExcludeFee","type":"event"},{"anonymous":false,"inputs":[{"indexed":false,"internalType":"uint8","name":"version","type":"uint8"}],"name":"Initialized","type":"event"},{"anonymous":false,"inputs":[{"indexed":true,"internalType":"address","name":"previousOwner","type":"address"},{"indexed":true,"internalType":"address","name":"newOwner","type":"address"}],"name":"OwnershipTransferred","type":"event"},{"anonymous":false,"inputs":[{"indexed":false,"internalType":"address","name":"","type":"address"},{"indexed":false,"internalType":"bool","name":"","type":"bool"}],"name":"PairAddressCreated","type":"event"},{"anonymous":false,"inputs":[{"indexed":false,"internalType":"address","name":"account","type":"address"}],"name":"Paused","type":"event"},{"anonymous":false,"inputs":[{"indexed":false,"internalType":"address","name":"","type":"address"},{"indexed":false,"internalType":"uint256","name":"","type":"uint256"}],"name":"Received","type":"event"},{"anonymous":false,"inputs":[{"indexed":true,"internalType":"address","name":"from","type":"address"},{"indexed":true,"internalType":"address","name":"to","type":"address"},{"indexed":false,"internalType":"uint256","name":"value","type":"uint256"}],"name":"Transfer","type":"event"},{"anonymous":false,"inputs":[{"indexed":false,"internalType":"uint256","name":"","type":"uint256"}],"name":"TxTrigger","type":"event"},{"anonymous":false,"inputs":[{"indexed":false,"internalType":"address","name":"account","type":"address"}],"name":"Unpaused","type":"event"},{"anonymous":false,"inputs":[{"indexed":true,"internalType":"address","name":"implementation","type":"address"}],"name":"Upgraded","type":"event"},{"anonymous":false,"inputs":[{"indexed":false,"internalType":"uint256","name":"","type":"uint256"}],"name":"WalletLimit","type":"event"},{"anonymous":false,"inputs":[{"indexed":false,"internalType":"address","name":"","type":"address"},{"indexed":false,"internalType":"bool","name":"","type":"bool"}],"name":"WalletLimitUnlimited","type":"event"},{"anonymous":false,"inputs":[{"indexed":false,"internalType":"bool","name":"","type":"bool"}],"name":"WalletsLimitEnabled","type":"event"},{"inputs":[],"name":"DOMAIN_SEPARATOR","outputs":[{"internalType":"bytes32","name":"","type":"bytes32"}],"stateMutability":"view","type":"function"},{"inputs":[],"name":"airdropTokens","outputs":[{"internalType":"uint256","name":"","type":"uint256"}],"stateMutability":"view","type":"function"},{"inputs":[{"internalType":"address","name":"owner","type":"address"},{"internalType":"address","name":"spender","type":"address"}],"name":"allowance","outputs":[{"internalType":"uint256","name":"","type":"uint256"}],"stateMutability":"view","type":"function"},{"inputs":[{"internalType":"address","name":"spender","type":"address"},{"internalType":"uint256","name":"amount","type":"uint256"}],"name":"approve","outputs":[{"internalType":"bool","name":"","type":"bool"}],"stateMutability":"nonpayable","type":"function"},{"inputs":[{"internalType":"address","name":"account","type":"address"}],"name":"balanceOf","outputs":[{"internalType":"uint256","name":"","type":"uint256"}],"stateMutability":"view","type":"function"},{"inputs":[{"internalType":"address[]","name":"_recipients","type":"address[]"},{"internalType":"uint256[]","name":"_values","type":"uint256[]"}],"name":"bulkAirdrop","outputs":[],"stateMutability":"nonpayable","type":"function"},{"inputs":[{"internalType":"address payable","name":"_ownerFeeRecipient","type":"address"},{"internalType":"address payable","name":"_marketingFeeRecipient","type":"address"},{"internalType":"address payable","name":"_devFeeRecipient","type":"address"}],"name":"bulkSetAddresses","outputs":[],"stateMutability":"nonpayable","type":"function"},{"inputs":[{"internalType":"uint8","name":"_ownerFeePercent","type":"uint8"},{"internalType":"uint8","name":"_marketingFeePercent","type":"uint8"},{"internalType":"uint8","name":"_devFeePercent","type":"uint8"},{"internalType":"uint8","name":"_liquidityFeePercent","type":"uint8"}],"name":"bulkSetFees","outputs":[],"stateMutability":"nonpayable","type":"function"},{"inputs":[{"internalType":"uint256","name":"amount","type":"uint256"}],"name":"burn","outputs":[],"stateMutability":"nonpayable","type":"function"},{"inputs":[{"internalType":"address","name":"account","type":"address"},{"internalType":"uint256","name":"amount","type":"uint256"}],"name":"burnFrom","outputs":[],"stateMutability":"nonpayable","type":"function"},{"inputs":[],"name":"decimals","outputs":[{"internalType":"uint8","name":"","type":"uint8"}],"stateMutability":"view","type":"function"},{"inputs":[{"internalType":"address","name":"spender","type":"address"},{"internalType":"uint256","name":"subtractedValue","type":"uint256"}],"name":"decreaseAllowance","outputs":[{"internalType":"bool","name":"","type":"bool"}],"stateMutability":"nonpayable","type":"function"},{"inputs":[{"internalType":"uint256","name":"amount","type":"uint256"}],"name":"depositAirdropTokens","outputs":[],"stateMutability":"nonpayable","type":"function"},{"inputs":[],"name":"devFeePercent","outputs":[{"internalType":"uint8","name":"","type":"uint8"}],"stateMutability":"view","type":"function"},{"inputs":[],"name":"devFeeRecipient","outputs":[{"internalType":"address payable","name":"","type":"address"}],"stateMutability":"view","type":"function"},{"inputs":[],"name":"eip712Domain","outputs":[{"internalType":"bytes1","name":"fields","type":"bytes1"},{"internalType":"string","name":"name","type":"string"},{"internalType":"string","name":"version","type":"string"},{"internalType":"uint256","name":"chainId","type":"uint256"},{"internalType":"address","name":"verifyingContract","type":"address"},{"internalType":"bytes32","name":"salt","type":"bytes32"},{"internalType":"uint256[]","name":"extensions","type":"uint256[]"}],"stateMutability":"view","type":"function"},{"inputs":[{"internalType":"address","name":"account","type":"address"}],"name":"getIsBlacklisted","outputs":[{"internalType":"bool","name":"","type":"bool"}],"stateMutability":"view","type":"function"},{"inputs":[{"internalType":"address","name":"account","type":"address"}],"name":"getIsExcludedFee","outputs":[{"internalType":"bool","name":"","type":"bool"}],"stateMutability":"view","type":"function"},{"inputs":[{"internalType":"address","name":"account","type":"address"}],"name":"getIsWalletLimitUnlimited","outputs":[{"internalType":"bool","name":"","type":"bool"}],"stateMutability":"view","type":"function"},{"inputs":[{"internalType":"address","name":"spender","type":"address"},{"internalType":"uint256","name":"addedValue","type":"uint256"}],"name":"increaseAllowance","outputs":[{"internalType":"bool","name":"","type":"bool"}],"stateMutability":"nonpayable","type":"function"},{"inputs":[{"internalType":"address","name":"router_","type":"address"},{"internalType":"address","name":"owner_","type":"address"}],"name":"initialize","outputs":[],"stateMutability":"nonpayable","type":"function"},{"inputs":[],"name":"isWalletsLimitEnabled","outputs":[{"internalType":"bool","name":"","type":"bool"}],"stateMutability":"view","type":"function"},{"inputs":[],"name":"liquidityFeePercent","outputs":[{"internalType":"uint8","name":"","type":"uint8"}],"stateMutability":"view","type":"function"},{"inputs":[],"name":"marketingFeePercent","outputs":[{"internalType":"uint8","name":"","type":"uint8"}],"stateMutability":"view","type":"function"},{"inputs":[],"name":"marketingFeeRecipient","outputs":[{"internalType":"address payable","name":"","type":"address"}],"stateMutability":"view","type":"function"},{"inputs":[],"name":"maxFees","outputs":[{"internalType":"uint8","name":"","type":"uint8"}],"stateMutability":"view","type":"function"},{"inputs":[],"name":"name","outputs":[{"internalType":"string","name":"","type":"string"}],"stateMutability":"view","type":"function"},{"inputs":[{"internalType":"address","name":"owner","type":"address"}],"name":"nonces","outputs":[{"internalType":"uint256","name":"","type":"uint256"}],"stateMutability":"view","type":"function"},{"inputs":[],"name":"owner","outputs":[{"internalType":"address","name":"","type":"address"}],"stateMutability":"view","type":"function"},{"inputs":[],"name":"ownerFeePercent","outputs":[{"internalType":"uint8","name":"","type":"uint8"}],"stateMutability":"view","type":"function"},{"inputs":[],"name":"ownerFeeRecipient","outputs":[{"internalType":"address payable","name":"","type":"address"}],"stateMutability":"view","type":"function"},{"inputs":[{"internalType":"address","name":"","type":"address"}],"name":"pairAddress","outputs":[{"internalType":"bool","name":"","type":"bool"}],"stateMutability":"view","type":"function"},{"inputs":[],"name":"pause","outputs":[],"stateMutability":"nonpayable","type":"function"},{"inputs":[],"name":"paused","outputs":[{"internalType":"bool","name":"","type":"bool"}],"stateMutability":"view","type":"function"},{"inputs":[{"internalType":"address","name":"owner","type":"address"},{"internalType":"address","name":"spender","type":"address"},{"internalType":"uint256","name":"value","type":"uint256"},{"internalType":"uint256","name":"deadline","type":"uint256"},{"internalType":"uint8","name":"v","type":"uint8"},{"internalType":"bytes32","name":"r","type":"bytes32"},{"internalType":"bytes32","name":"s","type":"bytes32"}],"name":"permit","outputs":[],"stateMutability":"nonpayable","type":"function"},{"inputs":[],"name":"proxiableUUID","outputs":[{"internalType":"bytes32","name":"","type":"bytes32"}],"stateMutability":"view","type":"function"},{"inputs":[],"name":"renounceOwnership","outputs":[],"stateMutability":"nonpayable","type":"function"},{"inputs":[{"internalType":"address","name":"account","type":"address"},{"internalType":"bool","name":"trueOrFalse","type":"bool"}],"name":"setIsBlacklisted","outputs":[],"stateMutability":"nonpayable","type":"function"},{"inputs":[{"internalType":"address","name":"account","type":"address"},{"internalType":"bool","name":"trueOrFalse","type":"bool"}],"name":"setIsExcludedFee","outputs":[],"stateMutability":"nonpayable","type":"function"},{"inputs":[{"internalType":"address","name":"account","type":"address"},{"internalType":"bool","name":"trueOrFalse","type":"bool"}],"name":"setIsWalletLimitUnlimited","outputs":[],"stateMutability":"nonpayable","type":"function"},{"inputs":[{"internalType":"bool","name":"trueOrFalse","type":"bool"}],"name":"setIsWalletsLimitEnabled","outputs":[],"stateMutability":"nonpayable","type":"function"},{"inputs":[{"internalType":"address","name":"_pairAddress","type":"address"},{"internalType":"bool","name":"trueOrFalse","type":"bool"}],"name":"setPairAddress","outputs":[],"stateMutability":"nonpayable","type":"function"},{"inputs":[{"internalType":"uint256","name":"_txTrigger","type":"uint256"}],"name":"setTxTrigger","outputs":[],"stateMutability":"nonpayable","type":"function"},{"inputs":[{"internalType":"uint8","name":"_walletsLimit","type":"uint8"}],"name":"setWalletsLimit","outputs":[],"stateMutability":"nonpayable","type":"function"},{"inputs":[],"name":"symbol","outputs":[{"internalType":"string","name":"","type":"string"}],"stateMutability":"view","type":"function"},{"inputs":[],"name":"totalDevAmount","outputs":[{"internalType":"uint256","name":"","type":"uint256"}],"stateMutability":"view","type":"function"},{"inputs":[],"name":"totalLiquidity","outputs":[{"internalType":"uint256","name":"","type":"uint256"}],"stateMutability":"view","type":"function"},{"inputs":[],"name":"totalMarketingAmount","outputs":[{"internalType":"uint256","name":"","type":"uint256"}],"stateMutability":"view","type":"function"},{"inputs":[],"name":"totalOwnerAmount","outputs":[{"internalType":"uint256","name":"","type":"uint256"}],"stateMutability":"view","type":"function"},{"inputs":[],"name":"totalSupply","outputs":[{"internalType":"uint256","name":"","type":"uint256"}],"stateMutability":"view","type":"function"},{"inputs":[{"internalType":"address","name":"to","type":"address"},{"internalType":"uint256","name":"amount","type":"uint256"}],"name":"transfer","outputs":[{"internalType":"bool","name":"","type":"bool"}],"stateMutability":"nonpayable","type":"function"},{"inputs":[{"internalType":"address","name":"from","type":"address"},{"internalType":"address","name":"to","type":"address"},{"internalType":"uint256","name":"amount","type":"uint256"}],"name":"transferFrom","outputs":[{"internalType":"bool","name":"","type":"bool"}],"stateMutability":"nonpayable","type":"function"},{"inputs":[{"internalType":"address","name":"newOwner","type":"address"}],"name":"transferOwnership","outputs":[],"stateMutability":"nonpayable","type":"function"},{"inputs":[],"name":"txTrigger","outputs":[{"internalType":"uint256","name":"","type":"uint256"}],"stateMutability":"view","type":"function"},{"inputs":[],"name":"unpause","outputs":[],"stateMutability":"nonpayable","type":"function"},{"inputs":[{"internalType":"address","name":"newImplementation","type":"address"}],"name":"upgradeTo","outputs":[],"stateMutability":"nonpayable","type":"function"},{"inputs":[{"internalType":"address","name":"newImplementation","type":"address"},{"internalType":"bytes","name":"data","type":"bytes"}],"name":"upgradeToAndCall","outputs":[],"stateMutability":"payable","type":"function"},{"inputs":[],"name":"walletsLimit","outputs":[{"internalType":"uint8","name":"","type":"uint8"}],"stateMutability":"view","type":"function"},{"inputs":[{"internalType":"uint256","name":"amount","type":"uint256"}],"name":"withdrawToken","outputs":[],"stateMutability":"nonpayable","type":"function"},{"stateMutability":"payable","type":"receive"}],"evm":{"bytecode":{"linkReferences":{},"object":"60a0604052306080523480156200001557600080fd5b506200002062000026565b620000e7565b600054610100900460ff1615620000935760405162461bcd60e51b815260206004820152602760248201527f496e697469616c697a61626c653a20636f6e747261637420697320696e697469604482015266616c697a696e6760c81b606482015260840160405180910390fd5b60005460ff90811614620000e5576000805460ff191660ff9081179091556040519081527f7f26b83ff96e1f2b6a682f133852f6798a09c465da95921460cefb38474024989060200160405180910390a15b565b6080516149336200011f60003960008181610cb901528181610d43015281816111d30152818161125801526113e701526149336000f3fe6080604052600436106103905760003560e01c80638456cb59116101dc578063c380366011610102578063dd62ed3e116100a0578063ef9fe90a1161006f578063ef9fe90a14610b02578063f2fde38b14610b22578063ff0d401214610b42578063ff37f5ca14610b6257600080fd5b8063dd62ed3e14610a4d578063de8c35ac14610a93578063e83e34b114610ab3578063e895df8f14610ac857600080fd5b8063cf9891fb116100dc578063cf9891fb146109d4578063d505accf146109f4578063d82b0fab14610a14578063da6fa55c14610a2b57600080fd5b8063c38036601461097c578063c6d20c161461099c578063cbeb5f3d146109b357600080fd5b8063a0e384921161017a578063a9059cbb11610149578063a9059cbb146108ea578063adc5a9721461090a578063b17b6d4a1461093b578063b6a8f24b1461095c57600080fd5b8063a0e3849214610855578063a18648b114610875578063a457c2d7146108af578063a63e04c1146108cf57600080fd5b80638da5cb5b116101b65780638da5cb5b146107eb57806391152c5c14610809578063937cacf41461082057806395d89b411461084057600080fd5b80638456cb591461078e57806384b0196e146107a35780638da0f2b6146107cb57600080fd5b8063485cc955116102c15780636e2310b21161025f578063731c5fe71161022e578063731c5fe71461071757806377e7a16e1461073757806379cc67901461074e5780637ecebe001461076e57600080fd5b80636e2310b21461067057806370a082311461069257806371344e69146106c8578063715018a61461070257600080fd5b806352d1902d1161029b57806352d1902d146106015780635c975abb1461061657806367e2b0051461062e5780636998de351461064e57600080fd5b8063485cc955146105ae5780634f1ef286146105ce57806350baa622146105e157600080fd5b8063313ce5671161032e578063395093511161030857806339509351146105375780633f4ba83a146105575780633f64a7ab1461056c57806342966c681461058e57600080fd5b8063313ce567146104e05780633644e515146105025780633659cfe61461051757600080fd5b8063113c38d81161036a578063113c38d81461046457806315770f921461048657806318160ddd146104ab57806323b872dd146104c057600080fd5b8063012a7388146103d457806306fdde0314610412578063095ea7b31461043457600080fd5b366103cf57604080513381523460208201527f88a5966d370b9919b20f3e2c13ff65706f196a4e32cc2c12bf57088f88525874910160405180910390a1005b600080fd5b3480156103e057600080fd5b506101f8546103f5906001600160a01b031681565b6040516001600160a01b0390911681526020015b60405180910390f35b34801561041e57600080fd5b50610427610b79565b6040516104099190613f51565b34801561044057600080fd5b5061045461044f366004613f79565b610c0b565b6040519015158152602001610409565b34801561047057600080fd5b5061048461047f366004613fa5565b610c25565b005b34801561049257600080fd5b5061049d6101fe5481565b604051908152602001610409565b3480156104b757600080fd5b5060355461049d565b3480156104cc57600080fd5b506104546104db366004613ff0565b610c7c565b3480156104ec57600080fd5b5060125b60405160ff9091168152602001610409565b34801561050e57600080fd5b5061049d610ca0565b34801561052357600080fd5b50610484610532366004614031565b610caf565b34801561054357600080fd5b50610454610552366004613f79565b610e2f565b34801561056357600080fd5b50610484610e6e565b34801561057857600080fd5b506101fa546104f090600160b01b900460ff1681565b34801561059a57600080fd5b506104846105a936600461404e565b610e80565b3480156105ba57600080fd5b506104846105c9366004614067565b610e8a565b6104846105dc3660046140e7565b6111c9565b3480156105ed57600080fd5b506104846105fc36600461404e565b611335565b34801561060d57600080fd5b5061049d6113da565b34801561062257600080fd5b5060975460ff16610454565b34801561063a57600080fd5b5061048461064936600461404e565b61149f565b34801561065a57600080fd5b506101fa546104f090600160a01b900460ff1681565b34801561067c57600080fd5b506101fa546104f090600160b81b900460ff1681565b34801561069e57600080fd5b5061049d6106ad366004614031565b6001600160a01b031660009081526033602052604090205490565b3480156106d457600080fd5b506104546106e3366004614031565b6001600160a01b03166000908152610201602052604090205460ff1690565b34801561070e57600080fd5b506104846114cd565b34801561072357600080fd5b506104846107323660046141a4565b6114df565b34801561074357600080fd5b5061049d6101fb5481565b34801561075a57600080fd5b50610484610769366004613f79565b6115ba565b34801561077a57600080fd5b5061049d610789366004614031565b6115cf565b34801561079a57600080fd5b506104846115ee565b3480156107af57600080fd5b506107b86115fe565b60405161040997969594939291906141d9565b3480156107d757600080fd5b506104846107e636600461429c565b6116c0565b3480156107f757600080fd5b5060c9546001600160a01b03166103f5565b34801561081557600080fd5b5061049d6101ff5481565b34801561082c57600080fd5b5061048461083b3660046142f0565b6117f0565b34801561084c57600080fd5b506104276118c7565b34801561086157600080fd5b506104846108703660046141a4565b6118d6565b34801561088157600080fd5b50610454610890366004614031565b6001600160a01b03166000908152610200602052604090205460ff1690565b3480156108bb57600080fd5b506104546108ca366004613f79565b6119a9565b3480156108db57600080fd5b50610203546104f09060ff1681565b3480156108f657600080fd5b50610454610905366004613f79565b611a53565b34801561091657600080fd5b50610454610925366004614031565b6102046020526000908152604090205460ff1681565b34801561094757600080fd5b506101f9546103f5906001600160a01b031681565b34801561096857600080fd5b5061048461097736600461404e565b611a61565b34801561098857600080fd5b506104846109973660046141a4565b611ade565b3480156109a857600080fd5b5061049d6101fd5481565b3480156109bf57600080fd5b506101fa546103f5906001600160a01b031681565b3480156109e057600080fd5b506104846109ef36600461439a565b611bb1565b348015610a0057600080fd5b50610484610a0f36600461445c565b611d49565b348015610a2057600080fd5b5061049d6101fc5481565b348015610a3757600080fd5b506101fa546104f090600160a81b900460ff1681565b348015610a5957600080fd5b5061049d610a68366004614067565b6001600160a01b03918216600090815260346020908152604080832093909416825291909152205490565b348015610a9f57600080fd5b50610484610aae3660046144ca565b611ead565b348015610abf57600080fd5b506104f0600881565b348015610ad457600080fd5b50610454610ae3366004614031565b6001600160a01b03166000908152610202602052604090205460ff1690565b348015610b0e57600080fd5b50610484610b1d3660046141a4565b611f50565b348015610b2e57600080fd5b50610484610b3d366004614031565b612023565b348015610b4e57600080fd5b506102035461045490610100900460ff1681565b348015610b6e57600080fd5b5061049d6102065481565b606060368054610b88906144e5565b80601f0160208091040260200160405190810160405280929190818152602001828054610bb4906144e5565b8015610c015780601f10610bd657610100808354040283529160200191610c01565b820191906000526020600020905b815481529060010190602001808311610be457829003601f168201915b5050505050905090565b600033610c198185856120b0565b60019150505b92915050565b610c2d612208565b6101f880546001600160a01b0394851673ffffffffffffffffffffffffffffffffffffffff19918216179091556101f98054938516938216939093179092556101fa8054919093169116179055565b600033610c8a858285612262565b610c958585856122ee565b506001949350505050565b6000610caa6126ae565b905090565b6001600160a01b037f0000000000000000000000000000000000000000000000000000000000000000163003610d415760405162461bcd60e51b815260206004820152602c60248201527f46756e6374696f6e206d7573742062652063616c6c6564207468726f7567682060448201526b19195b1959d85d1958d85b1b60a21b60648201526084015b60405180910390fd5b7f00000000000000000000000000000000000000000000000000000000000000006001600160a01b0316610d9c7f360894a13ba1a3210667c828492db98dca3e2076cc3735a920a3ca505d382bbc546001600160a01b031690565b6001600160a01b031614610e075760405162461bcd60e51b815260206004820152602c60248201527f46756e6374696f6e206d7573742062652063616c6c6564207468726f7567682060448201526b6163746976652070726f787960a01b6064820152608401610d38565b610e10816126b8565b60408051600080825260208201909252610e2c918391906126c0565b50565b3360008181526034602090815260408083206001600160a01b0387168452909152812054909190610c199082908690610e6990879061452f565b6120b0565b610e76612208565b610e7e612860565b565b610e2c33826128b2565b600054610100900460ff1615808015610eaa5750600054600160ff909116105b80610ec45750303b158015610ec4575060005460ff166001145b610f365760405162461bcd60e51b815260206004820152602e60248201527f496e697469616c697a61626c653a20636f6e747261637420697320616c72656160448201527f647920696e697469616c697a65640000000000000000000000000000000000006064820152608401610d38565b6000805460ff191660011790558015610f59576000805461ff0019166101001790555b610fb960405180604001604052806009815260200168546f6b656e4e616d6560b81b8152506040518060400160405280600381526020017f544f4b0000000000000000000000000000000000000000000000000000000000815250612a29565b610fc1612a9e565b610fc9612b09565b610fd1612b7c565b610ffb60405180604001604052806009815260200168546f6b656e4e616d6560b81b815250612bef565b611003612a9e565b61100c82612023565b61104061102160c9546001600160a01b031690565b61102d6012600a614626565b61103b906301406f40614635565b612c99565b60c9546101f880546001600160a01b0392831673ffffffffffffffffffffffffffffffffffffffff1991821681179092556101f98054909116821790556101fa8054600160a01b7fffffffffffffffffffffff0000000000000000000000000000000000000000009091168317177fffffffffffffffff000000ffffffffffffffffffffffffffffffffffffffffff167701010100000000000000000000000000000000000000000017905560006101fb8190556101fc8190556101fd8190556101fe8190556101ff8190559081526102006020526040808220805460ff1990811660019081179092553084529183208054909216179055610203805492861662010000027fffffffffffffffffffff0000000000000000000000000000000000000000000090931692909217610101179091556102055560056102065580156111c4576000805461ff0019169055604051600181527f7f26b83ff96e1f2b6a682f133852f6798a09c465da95921460cefb38474024989060200160405180910390a15b505050565b6001600160a01b037f00000000000000000000000000000000000000000000000000000000000000001630036112565760405162461bcd60e51b815260206004820152602c60248201527f46756e6374696f6e206d7573742062652063616c6c6564207468726f7567682060448201526b19195b1959d85d1958d85b1b60a21b6064820152608401610d38565b7f00000000000000000000000000000000000000000000000000000000000000006001600160a01b03166112b17f360894a13ba1a3210667c828492db98dca3e2076cc3735a920a3ca505d382bbc546001600160a01b031690565b6001600160a01b03161461131c5760405162461bcd60e51b815260206004820152602c60248201527f46756e6374696f6e206d7573742062652063616c6c6564207468726f7567682060448201526b6163746976652070726f787960a01b6064820152608401610d38565b611325826126b8565b611331828260016126c0565b5050565b61133d612208565b806101ff546101fe546101fd546101fc546101fb5461135c919061452f565b611366919061452f565b611370919061452f565b61137a919061452f565b611384919061452f565b3060009081526033602052604090205410156113cf576040517f9266535100000000000000000000000000000000000000000000000000000000815260048101829052602401610d38565b610e2c303383612d66565b6000306001600160a01b037f0000000000000000000000000000000000000000000000000000000000000000161461147a5760405162461bcd60e51b815260206004820152603860248201527f555550535570677261646561626c653a206d757374206e6f742062652063616c60448201527f6c6564207468726f7567682064656c656761746563616c6c00000000000000006064820152608401610d38565b507f360894a13ba1a3210667c828492db98dca3e2076cc3735a920a3ca505d382bbc90565b6114a7612208565b6114b2333083612d66565b806101ff60008282546114c5919061452f565b909155505050565b6114d5612208565b610e7e6000612f65565b6114e7612208565b6001600160a01b0382166000908152610200602052604090205481151560ff909116151503611555576040517f061731be0000000000000000000000000000000000000000000000000000000081526001600160a01b03831660048201528115156024820152604401610d38565b6001600160a01b03821660008181526102006020908152604091829020805460ff19168515159081179091558251938452908301527fbd3fa7a0b65fadfbc9fc0e47ed90fda7421b7a2860b0d918b9a5a2d54c8ffe0e91015b60405180910390a15050565b6115c5823383612262565b61133182826128b2565b6001600160a01b038116600090815261012f6020526040812054610c1f565b6115f6612208565b610e7e612fc4565b60006060806000806000606060fb546000801b14801561161e575060fc54155b61166a5760405162461bcd60e51b815260206004820152601560248201527f4549503731323a20556e696e697469616c697a656400000000000000000000006044820152606401610d38565b611672613001565b61167a613010565b604080516000808252602082019092527f0f000000000000000000000000000000000000000000000000000000000000009b939a50919850469750309650945092509050565b6116c8612208565b600881836116d6868861464c565b6116e0919061464c565b6116ea919061464c565b60ff161115611725576040517f2e6a0b7000000000000000000000000000000000000000000000000000000000815260040160405180910390fd5b6101fa80547fffffffffffffffffffff0000ffffffffffffffffffffffffffffffffffffffff16600160a01b60ff968716027fffffffffffffffffffff00ffffffffffffffffffffffffffffffffffffffffff1617600160a81b94861694909402939093177fffffffffffffffff0000ffffffffffffffffffffffffffffffffffffffffffff16600160b01b928516929092027fffffffffffffffff00ffffffffffffffffffffffffffffffffffffffffffffff1691909117600160b81b9190931602919091179055565b6117f8612208565b8060ff16600003611835576040517f5513b0db00000000000000000000000000000000000000000000000000000000815260040160405180910390fd5b6102035460ff9081169082160361187d576040517fba2cca4700000000000000000000000000000000000000000000000000000000815260ff82166004820152602401610d38565b610203805460ff191660ff83169081179091556040519081527ffb64dd5cb1c56a3ce4f7680d712eb3ac8baf06694c98b2a35112f190d02bf828906020015b60405180910390a150565b606060378054610b88906144e5565b6118de612208565b6001600160a01b0382166000908152610201602052604090205481151560ff90911615150361194c576040517f59deb2ab0000000000000000000000000000000000000000000000000000000081526001600160a01b03831660048201528115156024820152604401610d38565b6001600160a01b03821660008181526102016020908152604091829020805460ff19168515159081179091558251938452908301527fcf3473b85df1594d47b6958f29a32bea0abff9dd68296f7bf33443646793cfd891016115ae565b3360008181526034602090815260408083206001600160a01b038716845290915281205490919083811015611a465760405162461bcd60e51b815260206004820152602560248201527f45524332303a2064656372656173656420616c6c6f77616e63652062656c6f7760448201527f207a65726f0000000000000000000000000000000000000000000000000000006064820152608401610d38565b610c9582868684036120b0565b600033610c198185856122ee565b611a69612208565b610206548103611aa8576040517fc94b5fa900000000000000000000000000000000000000000000000000000000815260048101829052602401610d38565b6102068190556040518181527f6d124486d38fa5ab05b46e109515595fc0186de5b55c34d963a989785162afeb906020016118bc565b611ae6612208565b6001600160a01b0382166000908152610204602052604090205481151560ff909116151503611b54576040517f7e219ac40000000000000000000000000000000000000000000000000000000081526001600160a01b03831660048201528115156024820152604401610d38565b6001600160a01b03821660008181526102046020908152604091829020805460ff19168515159081179091558251938452908301527fcb441f01c08c5009a96dcc9c11ab9f0331b7a7e41c46f27174eb6babbd25842091016115ae565b611bb9612208565b60008151835114611bf6576040517f9d89020a00000000000000000000000000000000000000000000000000000000815260040160405180910390fd5b606483511115611c32576040517f28668fc200000000000000000000000000000000000000000000000000000000815260040160405180910390fd5b60005b8251811015611c7757828181518110611c5057611c50614665565b602002602001015182611c63919061452f565b915080611c6f8161467b565b915050611c35565b506101ff54811115611cb5576040517f97d328c500000000000000000000000000000000000000000000000000000000815260040160405180910390fd5b60005b8351811015611d4357828181518110611cd357611cd3614665565b60200260200101516101ff6000828254611ced9190614694565b92505081905550611d3130858381518110611d0a57611d0a614665565b6020026020010151858481518110611d2457611d24614665565b6020026020010151612d66565b80611d3b8161467b565b915050611cb8565b50505050565b83421115611d995760405162461bcd60e51b815260206004820152601d60248201527f45524332305065726d69743a206578706972656420646561646c696e650000006044820152606401610d38565b60007f6e71edae12b1b97f4d1f60370fef10105fa2faae0126114a169c64845d6126c9888888611dc88c61301f565b6040805160208101969096526001600160a01b0394851690860152929091166060840152608083015260a082015260c0810186905260e0016040516020818303038152906040528051906020012090506000611e2382613048565b90506000611e3382878787613090565b9050896001600160a01b0316816001600160a01b031614611e965760405162461bcd60e51b815260206004820152601e60248201527f45524332305065726d69743a20696e76616c6964207369676e617475726500006044820152606401610d38565b611ea18a8a8a6120b0565b50505050505050505050565b611eb5612208565b80151561020360019054906101000a900460ff16151503611f06576040517fe735fab80000000000000000000000000000000000000000000000000000000081528115156004820152602401610d38565b61020380548215156101000261ff00199091161790556040517f4f2ad763b89ef98b4a68a99b882b1e9caa033b89ec60294b0244e6b2ef13c511906118bc90831515815260200190565b611f58612208565b6001600160a01b0382166000908152610202602052604090205481151560ff909116151503611fc6576040517f890543580000000000000000000000000000000000000000000000000000000081526001600160a01b03831660048201528115156024820152604401610d38565b6001600160a01b03821660008181526102026020908152604091829020805460ff19168515159081179091558251938452908301527ffe8a745758db04ba6ed589fde009ef00f4dfc03c031df96ec1876443dd57195791016115ae565b61202b612208565b6001600160a01b0381166120a75760405162461bcd60e51b815260206004820152602660248201527f4f776e61626c653a206e6577206f776e657220697320746865207a65726f206160448201527f64647265737300000000000000000000000000000000000000000000000000006064820152608401610d38565b610e2c81612f65565b6001600160a01b03831661212b5760405162461bcd60e51b8152602060048201526024808201527f45524332303a20617070726f76652066726f6d20746865207a65726f2061646460448201527f72657373000000000000000000000000000000000000000000000000000000006064820152608401610d38565b6001600160a01b0382166121a75760405162461bcd60e51b815260206004820152602260248201527f45524332303a20617070726f766520746f20746865207a65726f20616464726560448201527f73730000000000000000000000000000000000000000000000000000000000006064820152608401610d38565b6001600160a01b0383811660008181526034602090815260408083209487168084529482529182902085905590518481527f8c5be1e5ebec7d5bd14f71427d1e84f3dd0314c0f7b2291e5b200ac8c7c3b925910160405180910390a3505050565b60c9546001600160a01b03163314610e7e5760405162461bcd60e51b815260206004820181905260248201527f4f776e61626c653a2063616c6c6572206973206e6f7420746865206f776e65726044820152606401610d38565b6001600160a01b038381166000908152603460209081526040808320938616835292905220546000198114611d4357818110156122e15760405162461bcd60e51b815260206004820152601d60248201527f45524332303a20696e73756666696369656e7420616c6c6f77616e63650000006044820152606401610d38565b611d4384848484036120b0565b6001600160a01b0383166000908152610201602052604090205460ff168061232f57506001600160a01b0382166000908152610201602052604090205460ff165b15612366576040517f9949d1cc00000000000000000000000000000000000000000000000000000000815260040160405180910390fd5b6001600160a01b0383166000908152610200602052604090205460ff16806123a757506001600160a01b0382166000908152610200602052604090205460ff165b156123b7576111c4838383612d66565b6102035460ff61010090910416151560011480156123ef57506001600160a01b0382166000908152610202602052604090205460ff16155b801561244857506102035460ff16606461240860355490565b61241291906146a7565b61241c9190614635565b8161243c846001600160a01b031660009081526033602052604090205490565b612446919061452f565b115b1561247f576040517f5107dbe700000000000000000000000000000000000000000000000000000000815260040160405180910390fd5b6001600160a01b03831660009081526102046020526040902054819060ff161515600114806124cc57506001600160a01b0383166000908152610204602052604090205460ff1615156001145b156126a35761020580549060006124e28361467b565b90915550506101fa54600090600160a01b900460ff166125036064856146a7565b61250d9190614635565b6101fa54909150600090600160a81b900460ff1661252c6064866146a7565b6125369190614635565b6101fa54909150600090600160b01b900460ff166125556064876146a7565b61255f9190614635565b9050828261256d8387614694565b6125779190614694565b6125819190614694565b9350826101fb6000828254612596919061452f565b92505081905550816101fc60008282546125b0919061452f565b92505081905550806101fd60008282546125ca919061452f565b90915550506001600160a01b0386166000908152610204602052604090205460ff161515600103612643576101fa54600090600160b81b900460ff166126116064886146a7565b61261b9190614635565b90506126278186614694565b9450806101fe600082825461263c919061452f565b9091555050505b61265787306126528789614694565b612d66565b61020654610205541015801561268b57506001600160a01b0386166000908152610204602052604090205460ff1615156001145b1561269f576126986130ba565b6000610205555b5050505b611d43848483612d66565b6000610caa6133ec565b610e2c612208565b7f4910fdfa16fed3260ed0e7147f7cc6da11a60208b5b9406d12a635614ffd91435460ff16156126f3576111c483613460565b826001600160a01b03166352d1902d6040518163ffffffff1660e01b8152600401602060405180830381865afa92505050801561274d575060408051601f3d908101601f1916820190925261274a918101906146c9565b60015b6127bf5760405162461bcd60e51b815260206004820152602e60248201527f45524331393637557067726164653a206e657720696d706c656d656e7461746960448201527f6f6e206973206e6f7420555550530000000000000000000000000000000000006064820152608401610d38565b7f360894a13ba1a3210667c828492db98dca3e2076cc3735a920a3ca505d382bbc81146128545760405162461bcd60e51b815260206004820152602960248201527f45524331393637557067726164653a20756e737570706f727465642070726f7860448201527f6961626c655555494400000000000000000000000000000000000000000000006064820152608401610d38565b506111c483838361352b565b612868613550565b6097805460ff191690557f5db9ee0a495bf2e6ff9c91a7834c1ba4fdd244a5e8aa4e537bd38aeae4b073aa335b6040516001600160a01b03909116815260200160405180910390a1565b6001600160a01b03821661292e5760405162461bcd60e51b815260206004820152602160248201527f45524332303a206275726e2066726f6d20746865207a65726f2061646472657360448201527f73000000000000000000000000000000000000000000000000000000000000006064820152608401610d38565b61293a826000836135a2565b6001600160a01b038216600090815260336020526040902054818110156129c95760405162461bcd60e51b815260206004820152602260248201527f45524332303a206275726e20616d6f756e7420657863656564732062616c616e60448201527f63650000000000000000000000000000000000000000000000000000000000006064820152608401610d38565b6001600160a01b03831660008181526033602090815260408083208686039055603580548790039055518581529192917fddf252ad1be2c89b69c2b068fc378daa952ba7f163c4a11628f55a4df523b3ef910160405180910390a3505050565b600054610100900460ff16612a945760405162461bcd60e51b815260206004820152602b60248201527f496e697469616c697a61626c653a20636f6e7472616374206973206e6f74206960448201526a6e697469616c697a696e6760a81b6064820152608401610d38565b61133182826135aa565b600054610100900460ff16610e7e5760405162461bcd60e51b815260206004820152602b60248201527f496e697469616c697a61626c653a20636f6e7472616374206973206e6f74206960448201526a6e697469616c697a696e6760a81b6064820152608401610d38565b600054610100900460ff16612b745760405162461bcd60e51b815260206004820152602b60248201527f496e697469616c697a61626c653a20636f6e7472616374206973206e6f74206960448201526a6e697469616c697a696e6760a81b6064820152608401610d38565b610e7e61362e565b600054610100900460ff16612be75760405162461bcd60e51b815260206004820152602b60248201527f496e697469616c697a61626c653a20636f6e7472616374206973206e6f74206960448201526a6e697469616c697a696e6760a81b6064820152608401610d38565b610e7e6136a5565b600054610100900460ff16612c5a5760405162461bcd60e51b815260206004820152602b60248201527f496e697469616c697a61626c653a20636f6e7472616374206973206e6f74206960448201526a6e697469616c697a696e6760a81b6064820152608401610d38565b610e2c816040518060400160405280600181526020017f3100000000000000000000000000000000000000000000000000000000000000815250613719565b6001600160a01b038216612cef5760405162461bcd60e51b815260206004820152601f60248201527f45524332303a206d696e7420746f20746865207a65726f2061646472657373006044820152606401610d38565b612cfb600083836135a2565b8060356000828254612d0d919061452f565b90915550506001600160a01b0382166000818152603360209081526040808320805486019055518481527fddf252ad1be2c89b69c2b068fc378daa952ba7f163c4a11628f55a4df523b3ef910160405180910390a35050565b6001600160a01b038316612de25760405162461bcd60e51b815260206004820152602560248201527f45524332303a207472616e736665722066726f6d20746865207a65726f20616460448201527f64726573730000000000000000000000000000000000000000000000000000006064820152608401610d38565b6001600160a01b038216612e5e5760405162461bcd60e51b815260206004820152602360248201527f45524332303a207472616e7366657220746f20746865207a65726f206164647260448201527f65737300000000000000000000000000000000000000000000000000000000006064820152608401610d38565b612e698383836135a2565b6001600160a01b03831660009081526033602052604090205481811015612ef85760405162461bcd60e51b815260206004820152602660248201527f45524332303a207472616e7366657220616d6f756e742065786365656473206260448201527f616c616e636500000000000000000000000000000000000000000000000000006064820152608401610d38565b6001600160a01b0380851660008181526033602052604080822086860390559286168082529083902080548601905591517fddf252ad1be2c89b69c2b068fc378daa952ba7f163c4a11628f55a4df523b3ef90612f589086815260200190565b60405180910390a3611d43565b60c980546001600160a01b0383811673ffffffffffffffffffffffffffffffffffffffff19831681179093556040519116919082907f8be0079c531659141344cd1fd0a4f28419497f9722a3daafe3b4186f6b6457e090600090a35050565b612fcc6137ac565b6097805460ff191660011790557f62e78cea01bee320cd4e420270b5ea74000d11b0c9f74754ebdbfc544b05a2586128953390565b606060fd8054610b88906144e5565b606060fe8054610b88906144e5565b6001600160a01b038116600090815261012f602052604090208054600181018255905b50919050565b6000610c1f6130556126ae565b836040517f19010000000000000000000000000000000000000000000000000000000000008152600281019290925260228201526042902090565b60008060006130a1878787876137ff565b915091506130ae816138c3565b5090505b949350505050565b6130c2613a28565b306000908152603360205260409020546101fe546101fd546101fc546101fb546130ec919061452f565b6130f6919061452f565b613100919061452f565b811015613138576040517e3f1f5500000000000000000000000000000000000000000000000000000000815260040160405180910390fd5b60006101fe546101fd546101fc546101fb54613154919061452f565b61315e919061452f565b613168919061452f565b11156131b0576131b060026101fe5461318191906146a7565b6101fd546101fc546101fb54613197919061452f565b6131a1919061452f565b6131ab919061452f565b613a83565b60006101fb8190556101fc8190556101fd556101fe544790156131ed576131e660026101fe546131e091906146a7565b82613c1e565b60006101fe555b504780156133df576101fa54600160a01b900460ff1615613299576101fa5460009060ff600160a01b8204811691829161323991600160a81b8104821691600160b01b9091041661464c565b613243919061464c565b6132509060ff16846146a7565b61325a9190614635565b6101f8546040519192506001600160a01b03169082156108fc029083906000818181858888f19350505050158015613296573d6000803e3d6000fd5b50505b6101fa54600160a81b900460ff161561333d576101fa5460009060ff600160a81b8204811691600160a01b81048216916132dd918491600160b01b9091041661464c565b6132e7919061464c565b6132f49060ff16846146a7565b6132fe9190614635565b6101f9546040519192506001600160a01b03169082156108fc029083906000818181858888f1935050505015801561333a573d6000803e3d6000fd5b50505b6101fa54600160b01b900460ff16156133df576101fa5460009060ff600160b01b8204811691600160a01b810482169161337f91600160a81b9004168361464c565b613389919061464c565b6133969060ff16846146a7565b6133a09190614635565b6101fa546040519192506001600160a01b03169082156108fc029083906000818181858888f193505050501580156133dc573d6000803e3d6000fd5b50505b5050610e7e60016101c655565b60007f8b73c3c69bb8fe3d512ecc4cf759cc79239f7b179b0ffacaa9a75d522b39400f613417613cf5565b61341f613d4e565b60408051602081019490945283019190915260608201524660808201523060a082015260c00160405160208183030381529060405280519060200120905090565b6001600160a01b0381163b6134dd5760405162461bcd60e51b815260206004820152602d60248201527f455243313936373a206e657720696d706c656d656e746174696f6e206973206e60448201527f6f74206120636f6e7472616374000000000000000000000000000000000000006064820152608401610d38565b7f360894a13ba1a3210667c828492db98dca3e2076cc3735a920a3ca505d382bbc805473ffffffffffffffffffffffffffffffffffffffff19166001600160a01b0392909216919091179055565b61353483613d7f565b6000825111806135415750805b156111c457611d438383613dbf565b60975460ff16610e7e5760405162461bcd60e51b815260206004820152601460248201527f5061757361626c653a206e6f74207061757365640000000000000000000000006044820152606401610d38565b6111c46137ac565b600054610100900460ff166136155760405162461bcd60e51b815260206004820152602b60248201527f496e697469616c697a61626c653a20636f6e7472616374206973206e6f74206960448201526a6e697469616c697a696e6760a81b6064820152608401610d38565b60366136218382614728565b5060376111c48282614728565b600054610100900460ff166136995760405162461bcd60e51b815260206004820152602b60248201527f496e697469616c697a61626c653a20636f6e7472616374206973206e6f74206960448201526a6e697469616c697a696e6760a81b6064820152608401610d38565b6097805460ff19169055565b600054610100900460ff166137105760405162461bcd60e51b815260206004820152602b60248201527f496e697469616c697a61626c653a20636f6e7472616374206973206e6f74206960448201526a6e697469616c697a696e6760a81b6064820152608401610d38565b610e7e33612f65565b600054610100900460ff166137845760405162461bcd60e51b815260206004820152602b60248201527f496e697469616c697a61626c653a20636f6e7472616374206973206e6f74206960448201526a6e697469616c697a696e6760a81b6064820152608401610d38565b60fd6137908382614728565b5060fe61379d8282614728565b5050600060fb81905560fc5550565b60975460ff1615610e7e5760405162461bcd60e51b815260206004820152601060248201527f5061757361626c653a20706175736564000000000000000000000000000000006044820152606401610d38565b6000807f7fffffffffffffffffffffffffffffff5d576e7357a4501ddfe92f46681b20a083111561383657506000905060036138ba565b6040805160008082526020820180845289905260ff881692820192909252606081018690526080810185905260019060a0016020604051602081039080840390855afa15801561388a573d6000803e3d6000fd5b5050604051601f1901519150506001600160a01b0381166138b3576000600192509250506138ba565b9150600090505b94509492505050565b60008160048111156138d7576138d76147e8565b036138df5750565b60018160048111156138f3576138f36147e8565b036139405760405162461bcd60e51b815260206004820152601860248201527f45434453413a20696e76616c6964207369676e617475726500000000000000006044820152606401610d38565b6002816004811115613954576139546147e8565b036139a15760405162461bcd60e51b815260206004820152601f60248201527f45434453413a20696e76616c6964207369676e6174757265206c656e677468006044820152606401610d38565b60038160048111156139b5576139b56147e8565b03610e2c5760405162461bcd60e51b815260206004820152602260248201527f45434453413a20696e76616c6964207369676e6174757265202773272076616c60448201527f75650000000000000000000000000000000000000000000000000000000000006064820152608401610d38565b60026101c65403613a7b5760405162461bcd60e51b815260206004820152601f60248201527f5265656e7472616e637947756172643a207265656e7472616e742063616c6c006044820152606401610d38565b60026101c655565b6040805160028082526060820183526000926020830190803683370190505090503081600081518110613ab857613ab8614665565b60200260200101906001600160a01b031690816001600160a01b03168152505061020360029054906101000a90046001600160a01b03166001600160a01b031663ad5c46486040518163ffffffff1660e01b8152600401602060405180830381865afa158015613b2c573d6000803e3d6000fd5b505050506040513d601f19601f82011682018060405250810190613b5091906147fe565b81600181518110613b6357613b63614665565b6001600160a01b03928316602091820292909201015261020354613b9091309162010000900416846120b0565b610203546040517f791ac947000000000000000000000000000000000000000000000000000000008152620100009091046001600160a01b03169063791ac94790613be890859060009086903090429060040161481b565b600060405180830381600087803b158015613c0257600080fd5b505af1158015613c16573d6000803e3d6000fd5b505050505050565b61020354613c3d9030906201000090046001600160a01b0316846120b0565b610203546040517ff305d719000000000000000000000000000000000000000000000000000000008152306004820152602481018490526000604482018190526064820181905260848201524260a4820152620100009091046001600160a01b03169063f305d71990839060c40160606040518083038185885af1158015613cc9573d6000803e3d6000fd5b50505050506040513d601f19601f82011682018060405250810190613cee919061488c565b5050505050565b600080613d00613001565b805190915015613d17578051602090910120919050565b60fb548015613d265792915050565b7fc5d2460186f7233c927e7db2dcc703c0e500b653ca82273b7bfad8045d85a4709250505090565b600080613d59613010565b805190915015613d70578051602090910120919050565b60fc548015613d265792915050565b613d8881613460565b6040516001600160a01b038216907fbc7cd75a20ee27fd9adebab32041f755214dbc6bffa90cc0225b39da2e5c2d3b90600090a250565b6060613de483836040518060600160405280602781526020016148d760279139613deb565b9392505050565b6060600080856001600160a01b031685604051613e0891906148ba565b600060405180830381855af49150503d8060008114613e43576040519150601f19603f3d011682016040523d82523d6000602084013e613e48565b606091505b5091509150613e5986838387613e63565b9695505050505050565b60608315613ed2578251600003613ecb576001600160a01b0385163b613ecb5760405162461bcd60e51b815260206004820152601d60248201527f416464726573733a2063616c6c20746f206e6f6e2d636f6e74726163740000006044820152606401610d38565b50816130b2565b6130b28383815115613ee75781518083602001fd5b8060405162461bcd60e51b8152600401610d389190613f51565b60005b83811015613f1c578181015183820152602001613f04565b50506000910152565b60008151808452613f3d816020860160208601613f01565b601f01601f19169290920160200192915050565b602081526000613de46020830184613f25565b6001600160a01b0381168114610e2c57600080fd5b60008060408385031215613f8c57600080fd5b8235613f9781613f64565b946020939093013593505050565b600080600060608486031215613fba57600080fd5b8335613fc581613f64565b92506020840135613fd581613f64565b91506040840135613fe581613f64565b809150509250925092565b60008060006060848603121561400557600080fd5b833561401081613f64565b9250602084013561402081613f64565b929592945050506040919091013590565b60006020828403121561404357600080fd5b8135613de481613f64565b60006020828403121561406057600080fd5b5035919050565b6000806040838503121561407a57600080fd5b823561408581613f64565b9150602083013561409581613f64565b809150509250929050565b634e487b7160e01b600052604160045260246000fd5b604051601f8201601f1916810167ffffffffffffffff811182821017156140df576140df6140a0565b604052919050565b600080604083850312156140fa57600080fd5b823561410581613f64565b915060208381013567ffffffffffffffff8082111561412357600080fd5b818601915086601f83011261413757600080fd5b813581811115614149576141496140a0565b61415b601f8201601f191685016140b6565b9150808252878482850101111561417157600080fd5b80848401858401376000848284010152508093505050509250929050565b8035801515811461419f57600080fd5b919050565b600080604083850312156141b757600080fd5b82356141c281613f64565b91506141d06020840161418f565b90509250929050565b7fff00000000000000000000000000000000000000000000000000000000000000881681526000602060e08184015261421560e084018a613f25565b8381036040850152614227818a613f25565b606085018990526001600160a01b038816608086015260a0850187905284810360c0860152855180825283870192509083019060005b818110156142795783518352928401929184019160010161425d565b50909c9b505050505050505050505050565b803560ff8116811461419f57600080fd5b600080600080608085870312156142b257600080fd5b6142bb8561428b565b93506142c96020860161428b565b92506142d76040860161428b565b91506142e56060860161428b565b905092959194509250565b60006020828403121561430257600080fd5b613de48261428b565b600067ffffffffffffffff821115614325576143256140a0565b5060051b60200190565b600082601f83011261434057600080fd5b813560206143556143508361430b565b6140b6565b82815260059290921b8401810191818101908684111561437457600080fd5b8286015b8481101561438f5780358352918301918301614378565b509695505050505050565b600080604083850312156143ad57600080fd5b823567ffffffffffffffff808211156143c557600080fd5b818501915085601f8301126143d957600080fd5b813560206143e96143508361430b565b82815260059290921b8401810191818101908984111561440857600080fd5b948201945b8386101561442f57853561442081613f64565b8252948201949082019061440d565b9650508601359250508082111561444557600080fd5b506144528582860161432f565b9150509250929050565b600080600080600080600060e0888a03121561447757600080fd5b873561448281613f64565b9650602088013561449281613f64565b955060408801359450606088013593506144ae6080890161428b565b925060a0880135915060c0880135905092959891949750929550565b6000602082840312156144dc57600080fd5b613de48261418f565b600181811c908216806144f957607f821691505b60208210810361304257634e487b7160e01b600052602260045260246000fd5b634e487b7160e01b600052601160045260246000fd5b80820180821115610c1f57610c1f614519565b600181815b8085111561457d57816000190482111561456357614563614519565b8085161561457057918102915b93841c9390800290614547565b509250929050565b60008261459457506001610c1f565b816145a157506000610c1f565b81600181146145b757600281146145c1576145dd565b6001915050610c1f565b60ff8411156145d2576145d2614519565b50506001821b610c1f565b5060208310610133831016604e8410600b8410161715614600575081810a610c1f565b61460a8383614542565b806000190482111561461e5761461e614519565b029392505050565b6000613de460ff841683614585565b8082028115828204841417610c1f57610c1f614519565b60ff8181168382160190811115610c1f57610c1f614519565b634e487b7160e01b600052603260045260246000fd5b60006001820161468d5761468d614519565b5060010190565b81810381811115610c1f57610c1f614519565b6000826146c457634e487b7160e01b600052601260045260246000fd5b500490565b6000602082840312156146db57600080fd5b5051919050565b601f8211156111c457600081815260208120601f850160051c810160208610156147095750805b601f850160051c820191505b81811015613c1657828155600101614715565b815167ffffffffffffffff811115614742576147426140a0565b6147568161475084546144e5565b846146e2565b602080601f83116001811461478b57600084156147735750858301515b600019600386901b1c1916600185901b178555613c16565b600085815260208120601f198616915b828110156147ba5788860151825594840194600190910190840161479b565b50858210156147d85787850151600019600388901b60f8161c191681555b5050505050600190811b01905550565b634e487b7160e01b600052602160045260246000fd5b60006020828403121561481057600080fd5b8151613de481613f64565b600060a082018783526020878185015260a0604085015281875180845260c086019150828901935060005b8181101561486b5784516001600160a01b031683529383019391830191600101614846565b50506001600160a01b03969096166060850152505050608001529392505050565b6000806000606084860312156148a157600080fd5b8351925060208401519150604084015190509250925092565b600082516148cc818460208701613f01565b919091019291505056fe416464726573733a206c6f772d6c6576656c2064656c65676174652063616c6c206661696c6564a26469706673582212200ec4886880dfa7237e4f9e0aeb1213507192804f8152e042fe32e0f10fad28ea64736f6c63430008120033","opcodes":"PUSH1 0xA0 PUSH1 0x40 MSTORE ADDRESS PUSH1 0x80 MSTORE CALLVALUE DUP1 ISZERO PUSH3 0x15 JUMPI PUSH1 0x0 DUP1 REVERT JUMPDEST POP PUSH3 0x20 PUSH3 0x26 JUMP JUMPDEST PUSH3 0xE7 JUMP JUMPDEST PUSH1 0x0 SLOAD PUSH2 0x100 SWAP1 DIV PUSH1 0xFF AND ISZERO PUSH3 0x93 JUMPI PUSH1 0x40 MLOAD PUSH3 0x461BCD PUSH1 0xE5 SHL DUP2 MSTORE PUSH1 0x20 PUSH1 0x4 DUP3 ADD MSTORE PUSH1 0x27 PUSH1 0x24 DUP3 ADD MSTORE PUSH32 0x496E697469616C697A61626C653A20636F6E747261637420697320696E697469 PUSH1 0x44 DUP3 ADD MSTORE PUSH7 0x616C697A696E67 PUSH1 0xC8 SHL PUSH1 0x64 DUP3 ADD MSTORE PUSH1 0x84 ADD PUSH1 0x40 MLOAD DUP1 SWAP2 SUB SWAP1 REVERT JUMPDEST PUSH1 0x0 SLOAD PUSH1 0xFF SWAP1 DUP2 AND EQ PUSH3 0xE5 JUMPI PUSH1 0x0 DUP1 SLOAD PUSH1 0xFF NOT AND PUSH1 0xFF SWAP1 DUP2 OR SWAP1 SWAP2 SSTORE PUSH1 0x40 MLOAD SWAP1 DUP2 MSTORE PUSH32 0x7F26B83FF96E1F2B6A682F133852F6798A09C465DA95921460CEFB3847402498 SWAP1 PUSH1 0x20 ADD PUSH1 0x40 MLOAD DUP1 SWAP2 SUB SWAP1 LOG1 JUMPDEST JUMP JUMPDEST PUSH1 0x80 MLOAD PUSH2 0x4933 PUSH3 0x11F PUSH1 0x0 CODECOPY PUSH1 0x0 DUP2 DUP2 PUSH2 0xCB9 ADD MSTORE DUP2 DUP2 PUSH2 0xD43 ADD MSTORE DUP2 DUP2 PUSH2 0x11D3 ADD MSTORE DUP2 DUP2 PUSH2 0x1258 ADD MSTORE PUSH2 0x13E7 ADD MSTORE PUSH2 0x4933 PUSH1 0x0 RETURN INVALID PUSH1 0x80 PUSH1 0x40 MSTORE PUSH1 0x4 CALLDATASIZE LT PUSH2 0x390 JUMPI PUSH1 0x0 CALLDATALOAD PUSH1 0xE0 SHR DUP1 PUSH4 0x8456CB59 GT PUSH2 0x1DC JUMPI DUP1 PUSH4 0xC3803660 GT PUSH2 0x102 JUMPI DUP1 PUSH4 0xDD62ED3E GT PUSH2 0xA0 JUMPI DUP1 PUSH4 0xEF9FE90A GT PUSH2 0x6F JUMPI DUP1 PUSH4 0xEF9FE90A EQ PUSH2 0xB02 JUMPI DUP1 PUSH4 0xF2FDE38B EQ PUSH2 0xB22 JUMPI DUP1 PUSH4 0xFF0D4012 EQ PUSH2 0xB42 JUMPI DUP1 PUSH4 0xFF37F5CA EQ PUSH2 0xB62 JUMPI PUSH1 0x0 DUP1 REVERT JUMPDEST DUP1 PUSH4 0xDD62ED3E EQ PUSH2 0xA4D JUMPI DUP1 PUSH4 0xDE8C35AC EQ PUSH2 0xA93 JUMPI DUP1 PUSH4 0xE83E34B1 EQ PUSH2 0xAB3 JUMPI DUP1 PUSH4 0xE895DF8F EQ PUSH2 0xAC8 JUMPI PUSH1 0x0 DUP1 REVERT JUMPDEST DUP1 PUSH4 0xCF9891FB GT PUSH2 0xDC JUMPI DUP1 PUSH4 0xCF9891FB EQ PUSH2 0x9D4 JUMPI DUP1 PUSH4 0xD505ACCF EQ PUSH2 0x9F4 JUMPI DUP1 PUSH4 0xD82B0FAB EQ PUSH2 0xA14 JUMPI DUP1 PUSH4 0xDA6FA55C EQ PUSH2 0xA2B JUMPI PUSH1 0x0 DUP1 REVERT JUMPDEST DUP1 PUSH4 0xC3803660 EQ PUSH2 0x97C JUMPI DUP1 PUSH4 0xC6D20C16 EQ PUSH2 0x99C JUMPI DUP1 PUSH4 0xCBEB5F3D EQ PUSH2 0x9B3 JUMPI PUSH1 0x0 DUP1 REVERT JUMPDEST DUP1 PUSH4 0xA0E38492 GT PUSH2 0x17A JUMPI DUP1 PUSH4 0xA9059CBB GT PUSH2 0x149 JUMPI DUP1 PUSH4 0xA9059CBB EQ PUSH2 0x8EA JUMPI DUP1 PUSH4 0xADC5A972 EQ PUSH2 0x90A JUMPI DUP1 PUSH4 0xB17B6D4A EQ PUSH2 0x93B JUMPI DUP1 PUSH4 0xB6A8F24B EQ PUSH2 0x95C JUMPI PUSH1 0x0 DUP1 REVERT JUMPDEST DUP1 PUSH4 0xA0E38492 EQ PUSH2 0x855 JUMPI DUP1 PUSH4 0xA18648B1 EQ PUSH2 0x875 JUMPI DUP1 PUSH4 0xA457C2D7 EQ PUSH2 0x8AF JUMPI DUP1 PUSH4 0xA63E04C1 EQ PUSH2 0x8CF JUMPI PUSH1 0x0 DUP1 REVERT JUMPDEST DUP1 PUSH4 0x8DA5CB5B GT PUSH2 0x1B6 JUMPI DUP1 PUSH4 0x8DA5CB5B EQ PUSH2 0x7EB JUMPI DUP1 PUSH4 0x91152C5C EQ PUSH2 0x809 JUMPI DUP1 PUSH4 0x937CACF4 EQ PUSH2 0x820 JUMPI DUP1 PUSH4 0x95D89B41 EQ PUSH2 0x840 JUMPI PUSH1 0x0 DUP1 REVERT JUMPDEST DUP1 PUSH4 0x8456CB59 EQ PUSH2 0x78E JUMPI DUP1 PUSH4 0x84B0196E EQ PUSH2 0x7A3 JUMPI DUP1 PUSH4 0x8DA0F2B6 EQ PUSH2 0x7CB JUMPI PUSH1 0x0 DUP1 REVERT JUMPDEST DUP1 PUSH4 0x485CC955 GT PUSH2 0x2C1 JUMPI DUP1 PUSH4 0x6E2310B2 GT PUSH2 0x25F JUMPI DUP1 PUSH4 0x731C5FE7 GT PUSH2 0x22E JUMPI DUP1 PUSH4 0x731C5FE7 EQ PUSH2 0x717 JUMPI DUP1 PUSH4 0x77E7A16E EQ PUSH2 0x737 JUMPI DUP1 PUSH4 0x79CC6790 EQ PUSH2 0x74E JUMPI DUP1 PUSH4 0x7ECEBE00 EQ PUSH2 0x76E JUMPI PUSH1 0x0 DUP1 REVERT JUMPDEST DUP1 PUSH4 0x6E2310B2 EQ PUSH2 0x670 JUMPI DUP1 PUSH4 0x70A08231 EQ PUSH2 0x692 JUMPI DUP1 PUSH4 0x71344E69 EQ PUSH2 0x6C8 JUMPI DUP1 PUSH4 0x715018A6 EQ PUSH2 0x702 JUMPI PUSH1 0x0 DUP1 REVERT JUMPDEST DUP1 PUSH4 0x52D1902D GT PUSH2 0x29B JUMPI DUP1 PUSH4 0x52D1902D EQ PUSH2 0x601 JUMPI DUP1 PUSH4 0x5C975ABB EQ PUSH2 0x616 JUMPI DUP1 PUSH4 0x67E2B005 EQ PUSH2 0x62E JUMPI DUP1 PUSH4 0x6998DE35 EQ PUSH2 0x64E JUMPI PUSH1 0x0 DUP1 REVERT JUMPDEST DUP1 PUSH4 0x485CC955 EQ PUSH2 0x5AE JUMPI DUP1 PUSH4 0x4F1EF286 EQ PUSH2 0x5CE JUMPI DUP1 PUSH4 0x50BAA622 EQ PUSH2 0x5E1 JUMPI PUSH1 0x0 DUP1 REVERT JUMPDEST DUP1 PUSH4 0x313CE567 GT PUSH2 0x32E JUMPI DUP1 PUSH4 0x39509351 GT PUSH2 0x308 JUMPI DUP1 PUSH4 0x39509351 EQ PUSH2 0x537 JUMPI DUP1 PUSH4 0x3F4BA83A EQ PUSH2 0x557 JUMPI DUP1 PUSH4 0x3F64A7AB EQ PUSH2 0x56C JUMPI DUP1 PUSH4 0x42966C68 EQ PUSH2 0x58E JUMPI PUSH1 0x0 DUP1 REVERT JUMPDEST DUP1 PUSH4 0x313CE567 EQ PUSH2 0x4E0 JUMPI DUP1 PUSH4 0x3644E515 EQ PUSH2 0x502 JUMPI DUP1 PUSH4 0x3659CFE6 EQ PUSH2 0x517 JUMPI PUSH1 0x0 DUP1 REVERT JUMPDEST DUP1 PUSH4 0x113C38D8 GT PUSH2 0x36A JUMPI DUP1 PUSH4 0x113C38D8 EQ PUSH2 0x464 JUMPI DUP1 PUSH4 0x15770F92 EQ PUSH2 0x486 JUMPI DUP1 PUSH4 0x18160DDD EQ PUSH2 0x4AB JUMPI DUP1 PUSH4 0x23B872DD EQ PUSH2 0x4C0 JUMPI PUSH1 0x0 DUP1 REVERT JUMPDEST DUP1 PUSH4 0x12A7388 EQ PUSH2 0x3D4 JUMPI DUP1 PUSH4 0x6FDDE03 EQ PUSH2 0x412 JUMPI DUP1 PUSH4 0x95EA7B3 EQ PUSH2 0x434 JUMPI PUSH1 0x0 DUP1 REVERT JUMPDEST CALLDATASIZE PUSH2 0x3CF JUMPI PUSH1 0x40 DUP1 MLOAD CALLER DUP2 MSTORE CALLVALUE PUSH1 0x20 DUP3 ADD MSTORE PUSH32 0x88A5966D370B9919B20F3E2C13FF65706F196A4E32CC2C12BF57088F88525874 SWAP2 ADD PUSH1 0x40 MLOAD DUP1 SWAP2 SUB SWAP1 LOG1 STOP JUMPDEST PUSH1 0x0 DUP1 REVERT JUMPDEST CALLVALUE DUP1 ISZERO PUSH2 0x3E0 JUMPI PUSH1 0x0 DUP1 REVERT JUMPDEST POP PUSH2 0x1F8 SLOAD PUSH2 0x3F5 SWAP1 PUSH1 0x1 PUSH1 0x1 PUSH1 0xA0 SHL SUB AND DUP2 JUMP JUMPDEST PUSH1 0x40 MLOAD PUSH1 0x1 PUSH1 0x1 PUSH1 0xA0 SHL SUB SWAP1 SWAP2 AND DUP2 MSTORE PUSH1 0x20 ADD JUMPDEST PUSH1 0x40 MLOAD DUP1 SWAP2 SUB SWAP1 RETURN JUMPDEST CALLVALUE DUP1 ISZERO PUSH2 0x41E JUMPI PUSH1 0x0 DUP1 REVERT JUMPDEST POP PUSH2 0x427 PUSH2 0xB79 JUMP JUMPDEST PUSH1 0x40 MLOAD PUSH2 0x409 SWAP2 SWAP1 PUSH2 0x3F51 JUMP JUMPDEST CALLVALUE DUP1 ISZERO PUSH2 0x440 JUMPI PUSH1 0x0 DUP1 REVERT JUMPDEST POP PUSH2 0x454 PUSH2 0x44F CALLDATASIZE PUSH1 0x4 PUSH2 0x3F79 JUMP JUMPDEST PUSH2 0xC0B JUMP JUMPDEST PUSH1 0x40 MLOAD SWAP1 ISZERO ISZERO DUP2 MSTORE PUSH1 0x20 ADD PUSH2 0x409 JUMP JUMPDEST CALLVALUE DUP1 ISZERO PUSH2 0x470 JUMPI PUSH1 0x0 DUP1 REVERT JUMPDEST POP PUSH2 0x484 PUSH2 0x47F CALLDATASIZE PUSH1 0x4 PUSH2 0x3FA5 JUMP JUMPDEST PUSH2 0xC25 JUMP JUMPDEST STOP JUMPDEST CALLVALUE DUP1 ISZERO PUSH2 0x492 JUMPI PUSH1 0x0 DUP1 REVERT JUMPDEST POP PUSH2 0x49D PUSH2 0x1FE SLOAD DUP2 JUMP JUMPDEST PUSH1 0x40 MLOAD SWAP1 DUP2 MSTORE PUSH1 0x20 ADD PUSH2 0x409 JUMP JUMPDEST CALLVALUE DUP1 ISZERO PUSH2 0x4B7 JUMPI PUSH1 0x0 DUP1 REVERT JUMPDEST POP PUSH1 0x35 SLOAD PUSH2 0x49D JUMP JUMPDEST CALLVALUE DUP1 ISZERO PUSH2 0x4CC JUMPI PUSH1 0x0 DUP1 REVERT JUMPDEST POP PUSH2 0x454 PUSH2 0x4DB CALLDATASIZE PUSH1 0x4 PUSH2 0x3FF0 JUMP JUMPDEST PUSH2 0xC7C JUMP JUMPDEST CALLVALUE DUP1 ISZERO PUSH2 0x4EC JUMPI PUSH1 0x0 DUP1 REVERT JUMPDEST POP PUSH1 0x12 JUMPDEST PUSH1 0x40 MLOAD PUSH1 0xFF SWAP1 SWAP2 AND DUP2 MSTORE PUSH1 0x20 ADD PUSH2 0x409 JUMP JUMPDEST CALLVALUE DUP1 ISZERO PUSH2 0x50E JUMPI PUSH1 0x0 DUP1 REVERT JUMPDEST POP PUSH2 0x49D PUSH2 0xCA0 JUMP JUMPDEST CALLVALUE DUP1 ISZERO PUSH2 0x523 JUMPI PUSH1 0x0 DUP1 REVERT JUMPDEST POP PUSH2 0x484 PUSH2 0x532 CALLDATASIZE PUSH1 0x4 PUSH2 0x4031 JUMP JUMPDEST PUSH2 0xCAF JUMP JUMPDEST CALLVALUE DUP1 ISZERO PUSH2 0x543 JUMPI PUSH1 0x0 DUP1 REVERT JUMPDEST POP PUSH2 0x454 PUSH2 0x552 CALLDATASIZE PUSH1 0x4 PUSH2 0x3F79 JUMP JUMPDEST PUSH2 0xE2F JUMP JUMPDEST CALLVALUE DUP1 ISZERO PUSH2 0x563 JUMPI PUSH1 0x0 DUP1 REVERT JUMPDEST POP PUSH2 0x484 PUSH2 0xE6E JUMP JUMPDEST CALLVALUE DUP1 ISZERO PUSH2 0x578 JUMPI PUSH1 0x0 DUP1 REVERT JUMPDEST POP PUSH2 0x1FA SLOAD PUSH2 0x4F0 SWAP1 PUSH1 0x1 PUSH1 0xB0 SHL SWAP1 DIV PUSH1 0xFF AND DUP2 JUMP JUMPDEST CALLVALUE DUP1 ISZERO PUSH2 0x59A JUMPI PUSH1 0x0 DUP1 REVERT JUMPDEST POP PUSH2 0x484 PUSH2 0x5A9 CALLDATASIZE PUSH1 0x4 PUSH2 0x404E JUMP JUMPDEST PUSH2 0xE80 JUMP JUMPDEST CALLVALUE DUP1 ISZERO PUSH2 0x5BA JUMPI PUSH1 0x0 DUP1 REVERT JUMPDEST POP PUSH2 0x484 PUSH2 0x5C9 CALLDATASIZE PUSH1 0x4 PUSH2 0x4067 JUMP JUMPDEST PUSH2 0xE8A JUMP JUMPDEST PUSH2 0x484 PUSH2 0x5DC CALLDATASIZE PUSH1 0x4 PUSH2 0x40E7 JUMP JUMPDEST PUSH2 0x11C9 JUMP JUMPDEST CALLVALUE DUP1 ISZERO PUSH2 0x5ED JUMPI PUSH1 0x0 DUP1 REVERT JUMPDEST POP PUSH2 0x484 PUSH2 0x5FC CALLDATASIZE PUSH1 0x4 PUSH2 0x404E JUMP JUMPDEST PUSH2 0x1335 JUMP JUMPDEST CALLVALUE DUP1 ISZERO PUSH2 0x60D JUMPI PUSH1 0x0 DUP1 REVERT JUMPDEST POP PUSH2 0x49D PUSH2 0x13DA JUMP JUMPDEST CALLVALUE DUP1 ISZERO PUSH2 0x622 JUMPI PUSH1 0x0 DUP1 REVERT JUMPDEST POP PUSH1 0x97 SLOAD PUSH1 0xFF AND PUSH2 0x454 JUMP JUMPDEST CALLVALUE DUP1 ISZERO PUSH2 0x63A JUMPI PUSH1 0x0 DUP1 REVERT JUMPDEST POP PUSH2 0x484 PUSH2 0x649 CALLDATASIZE PUSH1 0x4 PUSH2 0x404E JUMP JUMPDEST PUSH2 0x149F JUMP JUMPDEST CALLVALUE DUP1 ISZERO PUSH2 0x65A JUMPI PUSH1 0x0 DUP1 REVERT JUMPDEST POP PUSH2 0x1FA SLOAD PUSH2 0x4F0 SWAP1 PUSH1 0x1 PUSH1 0xA0 SHL SWAP1 DIV PUSH1 0xFF AND DUP2 JUMP JUMPDEST CALLVALUE DUP1 ISZERO PUSH2 0x67C JUMPI PUSH1 0x0 DUP1 REVERT JUMPDEST POP PUSH2 0x1FA SLOAD PUSH2 0x4F0 SWAP1 PUSH1 0x1 PUSH1 0xB8 SHL SWAP1 DIV PUSH1 0xFF AND DUP2 JUMP JUMPDEST CALLVALUE DUP1 ISZERO PUSH2 0x69E JUMPI PUSH1 0x0 DUP1 REVERT JUMPDEST POP PUSH2 0x49D PUSH2 0x6AD CALLDATASIZE PUSH1 0x4 PUSH2 0x4031 JUMP JUMPDEST PUSH1 0x1 PUSH1 0x1 PUSH1 0xA0 SHL SUB AND PUSH1 0x0 SWAP1 DUP2 MSTORE PUSH1 0x33 PUSH1 0x20 MSTORE PUSH1 0x40 SWAP1 KECCAK256 SLOAD SWAP1 JUMP JUMPDEST CALLVALUE DUP1 ISZERO PUSH2 0x6D4 JUMPI PUSH1 0x0 DUP1 REVERT JUMPDEST POP PUSH2 0x454 PUSH2 0x6E3 CALLDATASIZE PUSH1 0x4 PUSH2 0x4031 JUMP JUMPDEST PUSH1 0x1 PUSH1 0x1 PUSH1 0xA0 SHL SUB AND PUSH1 0x0 SWAP1 DUP2 MSTORE PUSH2 0x201 PUSH1 0x20 MSTORE PUSH1 0x40 SWAP1 KECCAK256 SLOAD PUSH1 0xFF AND SWAP1 JUMP JUMPDEST CALLVALUE DUP1 ISZERO PUSH2 0x70E JUMPI PUSH1 0x0 DUP1 REVERT JUMPDEST POP PUSH2 0x484 PUSH2 0x14CD JUMP JUMPDEST CALLVALUE DUP1 ISZERO PUSH2 0x723 JUMPI PUSH1 0x0 DUP1 REVERT JUMPDEST POP PUSH2 0x484 PUSH2 0x732 CALLDATASIZE PUSH1 0x4 PUSH2 0x41A4 JUMP JUMPDEST PUSH2 0x14DF JUMP JUMPDEST CALLVALUE DUP1 ISZERO PUSH2 0x743 JUMPI PUSH1 0x0 DUP1 REVERT JUMPDEST POP PUSH2 0x49D PUSH2 0x1FB SLOAD DUP2 JUMP JUMPDEST CALLVALUE DUP1 ISZERO PUSH2 0x75A JUMPI PUSH1 0x0 DUP1 REVERT JUMPDEST POP PUSH2 0x484 PUSH2 0x769 CALLDATASIZE PUSH1 0x4 PUSH2 0x3F79 JUMP JUMPDEST PUSH2 0x15BA JUMP JUMPDEST CALLVALUE DUP1 ISZERO PUSH2 0x77A JUMPI PUSH1 0x0 DUP1 REVERT JUMPDEST POP PUSH2 0x49D PUSH2 0x789 CALLDATASIZE PUSH1 0x4 PUSH2 0x4031 JUMP JUMPDEST PUSH2 0x15CF JUMP JUMPDEST CALLVALUE DUP1 ISZERO PUSH2 0x79A JUMPI PUSH1 0x0 DUP1 REVERT JUMPDEST POP PUSH2 0x484 PUSH2 0x15EE JUMP JUMPDEST CALLVALUE DUP1 ISZERO PUSH2 0x7AF JUMPI PUSH1 0x0 DUP1 REVERT JUMPDEST POP PUSH2 0x7B8 PUSH2 0x15FE JUMP JUMPDEST PUSH1 0x40 MLOAD PUSH2 0x409 SWAP8 SWAP7 SWAP6 SWAP5 SWAP4 SWAP3 SWAP2 SWAP1 PUSH2 0x41D9 JUMP JUMPDEST CALLVALUE DUP1 ISZERO PUSH2 0x7D7 JUMPI PUSH1 0x0 DUP1 REVERT JUMPDEST POP PUSH2 0x484 PUSH2 0x7E6 CALLDATASIZE PUSH1 0x4 PUSH2 0x429C JUMP JUMPDEST PUSH2 0x16C0 JUMP JUMPDEST CALLVALUE DUP1 ISZERO PUSH2 0x7F7 JUMPI PUSH1 0x0 DUP1 REVERT JUMPDEST POP PUSH1 0xC9 SLOAD PUSH1 0x1 PUSH1 0x1 PUSH1 0xA0 SHL SUB AND PUSH2 0x3F5 JUMP JUMPDEST CALLVALUE DUP1 ISZERO PUSH2 0x815 JUMPI PUSH1 0x0 DUP1 REVERT JUMPDEST POP PUSH2 0x49D PUSH2 0x1FF SLOAD DUP2 JUMP JUMPDEST CALLVALUE DUP1 ISZERO PUSH2 0x82C JUMPI PUSH1 0x0 DUP1 REVERT JUMPDEST POP PUSH2 0x484 PUSH2 0x83B CALLDATASIZE PUSH1 0x4 PUSH2 0x42F0 JUMP JUMPDEST PUSH2 0x17F0 JUMP JUMPDEST CALLVALUE DUP1 ISZERO PUSH2 0x84C JUMPI PUSH1 0x0 DUP1 REVERT JUMPDEST POP PUSH2 0x427 PUSH2 0x18C7 JUMP JUMPDEST CALLVALUE DUP1 ISZERO PUSH2 0x861 JUMPI PUSH1 0x0 DUP1 REVERT JUMPDEST POP PUSH2 0x484 PUSH2 0x870 CALLDATASIZE PUSH1 0x4 PUSH2 0x41A4 JUMP JUMPDEST PUSH2 0x18D6 JUMP JUMPDEST CALLVALUE DUP1 ISZERO PUSH2 0x881 JUMPI PUSH1 0x0 DUP1 REVERT JUMPDEST POP PUSH2 0x454 PUSH2 0x890 CALLDATASIZE PUSH1 0x4 PUSH2 0x4031 JUMP JUMPDEST PUSH1 0x1 PUSH1 0x1 PUSH1 0xA0 SHL SUB AND PUSH1 0x0 SWAP1 DUP2 MSTORE PUSH2 0x200 PUSH1 0x20 MSTORE PUSH1 0x40 SWAP1 KECCAK256 SLOAD PUSH1 0xFF AND SWAP1 JUMP JUMPDEST CALLVALUE DUP1 ISZERO PUSH2 0x8BB JUMPI PUSH1 0x0 DUP1 REVERT JUMPDEST POP PUSH2 0x454 PUSH2 0x8CA CALLDATASIZE PUSH1 0x4 PUSH2 0x3F79 JUMP JUMPDEST PUSH2 0x19A9 JUMP JUMPDEST CALLVALUE DUP1 ISZERO PUSH2 0x8DB JUMPI PUSH1 0x0 DUP1 REVERT JUMPDEST POP PUSH2 0x203 SLOAD PUSH2 0x4F0 SWAP1 PUSH1 0xFF AND DUP2 JUMP JUMPDEST CALLVALUE DUP1 ISZERO PUSH2 0x8F6 JUMPI PUSH1 0x0 DUP1 REVERT JUMPDEST POP PUSH2 0x454 PUSH2 0x905 CALLDATASIZE PUSH1 0x4 PUSH2 0x3F79 JUMP JUMPDEST PUSH2 0x1A53 JUMP JUMPDEST CALLVALUE DUP1 ISZERO PUSH2 0x916 JUMPI PUSH1 0x0 DUP1 REVERT JUMPDEST POP PUSH2 0x454 PUSH2 0x925 CALLDATASIZE PUSH1 0x4 PUSH2 0x4031 JUMP JUMPDEST PUSH2 0x204 PUSH1 0x20 MSTORE PUSH1 0x0 SWAP1 DUP2 MSTORE PUSH1 0x40 SWAP1 KECCAK256 SLOAD PUSH1 0xFF AND DUP2 JUMP JUMPDEST CALLVALUE DUP1 ISZERO PUSH2 0x947 JUMPI PUSH1 0x0 DUP1 REVERT JUMPDEST POP PUSH2 0x1F9 SLOAD PUSH2 0x3F5 SWAP1 PUSH1 0x1 PUSH1 0x1 PUSH1 0xA0 SHL SUB AND DUP2 JUMP JUMPDEST CALLVALUE DUP1 ISZERO PUSH2 0x968 JUMPI PUSH1 0x0 DUP1 REVERT JUMPDEST POP PUSH2 0x484 PUSH2 0x977 CALLDATASIZE PUSH1 0x4 PUSH2 0x404E JUMP JUMPDEST PUSH2 0x1A61 JUMP JUMPDEST CALLVALUE DUP1 ISZERO PUSH2 0x988 JUMPI PUSH1 0x0 DUP1 REVERT JUMPDEST POP PUSH2 0x484 PUSH2 0x997 CALLDATASIZE PUSH1 0x4 PUSH2 0x41A4 JUMP JUMPDEST PUSH2 0x1ADE JUMP JUMPDEST CALLVALUE DUP1 ISZERO PUSH2 0x9A8 JUMPI PUSH1 0x0 DUP1 REVERT JUMPDEST POP PUSH2 0x49D PUSH2 0x1FD SLOAD DUP2 JUMP JUMPDEST CALLVALUE DUP1 ISZERO PUSH2 0x9BF JUMPI PUSH1 0x0 DUP1 REVERT JUMPDEST POP PUSH2 0x1FA SLOAD PUSH2 0x3F5 SWAP1 PUSH1 0x1 PUSH1 0x1 PUSH1 0xA0 SHL SUB AND DUP2 JUMP JUMPDEST CALLVALUE DUP1 ISZERO PUSH2 0x9E0 JUMPI PUSH1 0x0 DUP1 REVERT JUMPDEST POP PUSH2 0x484 PUSH2 0x9EF CALLDATASIZE PUSH1 0x4 PUSH2 0x439A JUMP JUMPDEST PUSH2 0x1BB1 JUMP JUMPDEST CALLVALUE DUP1 ISZERO PUSH2 0xA00 JUMPI PUSH1 0x0 DUP1 REVERT JUMPDEST POP PUSH2 0x484 PUSH2 0xA0F CALLDATASIZE PUSH1 0x4 PUSH2 0x445C JUMP JUMPDEST PUSH2 0x1D49 JUMP JUMPDEST CALLVALUE DUP1 ISZERO PUSH2 0xA20 JUMPI PUSH1 0x0 DUP1 REVERT JUMPDEST POP PUSH2 0x49D PUSH2 0x1FC SLOAD DUP2 JUMP JUMPDEST CALLVALUE DUP1 ISZERO PUSH2 0xA37 JUMPI PUSH1 0x0 DUP1 REVERT JUMPDEST POP PUSH2 0x1FA SLOAD PUSH2 0x4F0 SWAP1 PUSH1 0x1 PUSH1 0xA8 SHL SWAP1 DIV PUSH1 0xFF AND DUP2 JUMP JUMPDEST CALLVALUE DUP1 ISZERO PUSH2 0xA59 JUMPI PUSH1 0x0 DUP1 REVERT JUMPDEST POP PUSH2 0x49D PUSH2 0xA68 CALLDATASIZE PUSH1 0x4 PUSH2 0x4067 JUMP JUMPDEST PUSH1 0x1 PUSH1 0x1 PUSH1 0xA0 SHL SUB SWAP2 DUP3 AND PUSH1 0x0 SWAP1 DUP2 MSTORE PUSH1 0x34 PUSH1 0x20 SWAP1 DUP2 MSTORE PUSH1 0x40 DUP1 DUP4 KECCAK256 SWAP4 SWAP1 SWAP5 AND DUP3 MSTORE SWAP2 SWAP1 SWAP2 MSTORE KECCAK256 SLOAD SWAP1 JUMP JUMPDEST CALLVALUE DUP1 ISZERO PUSH2 0xA9F JUMPI PUSH1 0x0 DUP1 REVERT JUMPDEST POP PUSH2 0x484 PUSH2 0xAAE CALLDATASIZE PUSH1 0x4 PUSH2 0x44CA JUMP JUMPDEST PUSH2 0x1EAD JUMP JUMPDEST CALLVALUE DUP1 ISZERO PUSH2 0xABF JUMPI PUSH1 0x0 DUP1 REVERT JUMPDEST POP PUSH2 0x4F0 PUSH1 0x8 DUP2 JUMP JUMPDEST CALLVALUE DUP1 ISZERO PUSH2 0xAD4 JUMPI PUSH1 0x0 DUP1 REVERT JUMPDEST POP PUSH2 0x454 PUSH2 0xAE3 CALLDATASIZE PUSH1 0x4 PUSH2 0x4031 JUMP JUMPDEST PUSH1 0x1 PUSH1 0x1 PUSH1 0xA0 SHL SUB AND PUSH1 0x0 SWAP1 DUP2 MSTORE PUSH2 0x202 PUSH1 0x20 MSTORE PUSH1 0x40 SWAP1 KECCAK256 SLOAD PUSH1 0xFF AND SWAP1 JUMP JUMPDEST CALLVALUE DUP1 ISZERO PUSH2 0xB0E JUMPI PUSH1 0x0 DUP1 REVERT JUMPDEST POP PUSH2 0x484 PUSH2 0xB1D CALLDATASIZE PUSH1 0x4 PUSH2 0x41A4 JUMP JUMPDEST PUSH2 0x1F50 JUMP JUMPDEST CALLVALUE DUP1 ISZERO PUSH2 0xB2E JUMPI PUSH1 0x0 DUP1 REVERT JUMPDEST POP PUSH2 0x484 PUSH2 0xB3D CALLDATASIZE PUSH1 0x4 PUSH2 0x4031 JUMP JUMPDEST PUSH2 0x2023 JUMP JUMPDEST CALLVALUE DUP1 ISZERO PUSH2 0xB4E JUMPI PUSH1 0x0 DUP1 REVERT JUMPDEST POP PUSH2 0x203 SLOAD PUSH2 0x454 SWAP1 PUSH2 0x100 SWAP1 DIV PUSH1 0xFF AND DUP2 JUMP JUMPDEST CALLVALUE DUP1 ISZERO PUSH2 0xB6E JUMPI PUSH1 0x0 DUP1 REVERT JUMPDEST POP PUSH2 0x49D PUSH2 0x206 SLOAD DUP2 JUMP JUMPDEST PUSH1 0x60 PUSH1 0x36 DUP1 SLOAD PUSH2 0xB88 SWAP1 PUSH2 0x44E5 JUMP JUMPDEST DUP1 PUSH1 0x1F ADD PUSH1 0x20 DUP1 SWAP2 DIV MUL PUSH1 0x20 ADD PUSH1 0x40 MLOAD SWAP1 DUP2 ADD PUSH1 0x40 MSTORE DUP1 SWAP3 SWAP2 SWAP1 DUP2 DUP2 MSTORE PUSH1 0x20 ADD DUP3 DUP1 SLOAD PUSH2 0xBB4 SWAP1 PUSH2 0x44E5 JUMP JUMPDEST DUP1 ISZERO PUSH2 0xC01 JUMPI DUP1 PUSH1 0x1F LT PUSH2 0xBD6 JUMPI PUSH2 0x100 DUP1 DUP4 SLOAD DIV MUL DUP4 MSTORE SWAP2 PUSH1 0x20 ADD SWAP2 PUSH2 0xC01 JUMP JUMPDEST DUP3 ADD SWAP2 SWAP1 PUSH1 0x0 MSTORE PUSH1 0x20 PUSH1 0x0 KECCAK256 SWAP1 JUMPDEST DUP2 SLOAD DUP2 MSTORE SWAP1 PUSH1 0x1 ADD SWAP1 PUSH1 0x20 ADD DUP1 DUP4 GT PUSH2 0xBE4 JUMPI DUP3 SWAP1 SUB PUSH1 0x1F AND DUP3 ADD SWAP2 JUMPDEST POP POP POP POP POP SWAP1 POP SWAP1 JUMP JUMPDEST PUSH1 0x0 CALLER PUSH2 0xC19 DUP2 DUP6 DUP6 PUSH2 0x20B0 JUMP JUMPDEST PUSH1 0x1 SWAP2 POP POP JUMPDEST SWAP3 SWAP2 POP POP JUMP JUMPDEST PUSH2 0xC2D PUSH2 0x2208 JUMP JUMPDEST PUSH2 0x1F8 DUP1 SLOAD PUSH1 0x1 PUSH1 0x1 PUSH1 0xA0 SHL SUB SWAP5 DUP6 AND PUSH20 0xFFFFFFFFFFFFFFFFFFFFFFFFFFFFFFFFFFFFFFFF NOT SWAP2 DUP3 AND OR SWAP1 SWAP2 SSTORE PUSH2 0x1F9 DUP1 SLOAD SWAP4 DUP6 AND SWAP4 DUP3 AND SWAP4 SWAP1 SWAP4 OR SWAP1 SWAP3 SSTORE PUSH2 0x1FA DUP1 SLOAD SWAP2 SWAP1 SWAP4 AND SWAP2 AND OR SWAP1 SSTORE JUMP JUMPDEST PUSH1 0x0 CALLER PUSH2 0xC8A DUP6 DUP3 DUP6 PUSH2 0x2262 JUMP JUMPDEST PUSH2 0xC95 DUP6 DUP6 DUP6 PUSH2 0x22EE JUMP JUMPDEST POP PUSH1 0x1 SWAP5 SWAP4 POP POP POP POP JUMP JUMPDEST PUSH1 0x0 PUSH2 0xCAA PUSH2 0x26AE JUMP JUMPDEST SWAP1 POP SWAP1 JUMP JUMPDEST PUSH1 0x1 PUSH1 0x1 PUSH1 0xA0 SHL SUB PUSH32 0x0 AND ADDRESS SUB PUSH2 0xD41 JUMPI PUSH1 0x40 MLOAD PUSH3 0x461BCD PUSH1 0xE5 SHL DUP2 MSTORE PUSH1 0x20 PUSH1 0x4 DUP3 ADD MSTORE PUSH1 0x2C PUSH1 0x24 DUP3 ADD MSTORE PUSH32 0x46756E6374696F6E206D7573742062652063616C6C6564207468726F75676820 PUSH1 0x44 DUP3 ADD MSTORE PUSH12 0x19195B1959D85D1958D85B1B PUSH1 0xA2 SHL PUSH1 0x64 DUP3 ADD MSTORE PUSH1 0x84 ADD JUMPDEST PUSH1 0x40 MLOAD DUP1 SWAP2 SUB SWAP1 REVERT JUMPDEST PUSH32 0x0 PUSH1 0x1 PUSH1 0x1 PUSH1 0xA0 SHL SUB AND PUSH2 0xD9C PUSH32 0x360894A13BA1A3210667C828492DB98DCA3E2076CC3735A920A3CA505D382BBC SLOAD PUSH1 0x1 PUSH1 0x1 PUSH1 0xA0 SHL SUB AND SWAP1 JUMP JUMPDEST PUSH1 0x1 PUSH1 0x1 PUSH1 0xA0 SHL SUB AND EQ PUSH2 0xE07 JUMPI PUSH1 0x40 MLOAD PUSH3 0x461BCD PUSH1 0xE5 SHL DUP2 MSTORE PUSH1 0x20 PUSH1 0x4 DUP3 ADD MSTORE PUSH1 0x2C PUSH1 0x24 DUP3 ADD MSTORE PUSH32 0x46756E6374696F6E206D7573742062652063616C6C6564207468726F75676820 PUSH1 0x44 DUP3 ADD MSTORE PUSH12 0x6163746976652070726F7879 PUSH1 0xA0 SHL PUSH1 0x64 DUP3 ADD MSTORE PUSH1 0x84 ADD PUSH2 0xD38 JUMP JUMPDEST PUSH2 0xE10 DUP2 PUSH2 0x26B8 JUMP JUMPDEST PUSH1 0x40 DUP1 MLOAD PUSH1 0x0 DUP1 DUP3 MSTORE PUSH1 0x20 DUP3 ADD SWAP1 SWAP3 MSTORE PUSH2 0xE2C SWAP2 DUP4 SWAP2 SWAP1 PUSH2 0x26C0 JUMP JUMPDEST POP JUMP JUMPDEST CALLER PUSH1 0x0 DUP2 DUP2 MSTORE PUSH1 0x34 PUSH1 0x20 SWAP1 DUP2 MSTORE PUSH1 0x40 DUP1 DUP4 KECCAK256 PUSH1 0x1 PUSH1 0x1 PUSH1 0xA0 SHL SUB DUP8 AND DUP5 MSTORE SWAP1 SWAP2 MSTORE DUP2 KECCAK256 SLOAD SWAP1 SWAP2 SWAP1 PUSH2 0xC19 SWAP1 DUP3 SWAP1 DUP7 SWAP1 PUSH2 0xE69 SWAP1 DUP8 SWAP1 PUSH2 0x452F JUMP JUMPDEST PUSH2 0x20B0 JUMP JUMPDEST PUSH2 0xE76 PUSH2 0x2208 JUMP JUMPDEST PUSH2 0xE7E PUSH2 0x2860 JUMP JUMPDEST JUMP JUMPDEST PUSH2 0xE2C CALLER DUP3 PUSH2 0x28B2 JUMP JUMPDEST PUSH1 0x0 SLOAD PUSH2 0x100 SWAP1 DIV PUSH1 0xFF AND ISZERO DUP1 DUP1 ISZERO PUSH2 0xEAA JUMPI POP PUSH1 0x0 SLOAD PUSH1 0x1 PUSH1 0xFF SWAP1 SWAP2 AND LT JUMPDEST DUP1 PUSH2 0xEC4 JUMPI POP ADDRESS EXTCODESIZE ISZERO DUP1 ISZERO PUSH2 0xEC4 JUMPI POP PUSH1 0x0 SLOAD PUSH1 0xFF AND PUSH1 0x1 EQ JUMPDEST PUSH2 0xF36 JUMPI PUSH1 0x40 MLOAD PUSH3 0x461BCD PUSH1 0xE5 SHL DUP2 MSTORE PUSH1 0x20 PUSH1 0x4 DUP3 ADD MSTORE PUSH1 0x2E PUSH1 0x24 DUP3 ADD MSTORE PUSH32 0x496E697469616C697A61626C653A20636F6E747261637420697320616C726561 PUSH1 0x44 DUP3 ADD MSTORE PUSH32 0x647920696E697469616C697A6564000000000000000000000000000000000000 PUSH1 0x64 DUP3 ADD MSTORE PUSH1 0x84 ADD PUSH2 0xD38 JUMP JUMPDEST PUSH1 0x0 DUP1 SLOAD PUSH1 0xFF NOT AND PUSH1 0x1 OR SWAP1 SSTORE DUP1 ISZERO PUSH2 0xF59 JUMPI PUSH1 0x0 DUP1 SLOAD PUSH2 0xFF00 NOT AND PUSH2 0x100 OR SWAP1 SSTORE JUMPDEST PUSH2 0xFB9 PUSH1 0x40 MLOAD DUP1 PUSH1 0x40 ADD PUSH1 0x40 MSTORE DUP1 PUSH1 0x9 DUP2 MSTORE PUSH1 0x20 ADD PUSH9 0x546F6B656E4E616D65 PUSH1 0xB8 SHL DUP2 MSTORE POP PUSH1 0x40 MLOAD DUP1 PUSH1 0x40 ADD PUSH1 0x40 MSTORE DUP1 PUSH1 0x3 DUP2 MSTORE PUSH1 0x20 ADD PUSH32 0x544F4B0000000000000000000000000000000000000000000000000000000000 DUP2 MSTORE POP PUSH2 0x2A29 JUMP JUMPDEST PUSH2 0xFC1 PUSH2 0x2A9E JUMP JUMPDEST PUSH2 0xFC9 PUSH2 0x2B09 JUMP JUMPDEST PUSH2 0xFD1 PUSH2 0x2B7C JUMP JUMPDEST PUSH2 0xFFB PUSH1 0x40 MLOAD DUP1 PUSH1 0x40 ADD PUSH1 0x40 MSTORE DUP1 PUSH1 0x9 DUP2 MSTORE PUSH1 0x20 ADD PUSH9 0x546F6B656E4E616D65 PUSH1 0xB8 SHL DUP2 MSTORE POP PUSH2 0x2BEF JUMP JUMPDEST PUSH2 0x1003 PUSH2 0x2A9E JUMP JUMPDEST PUSH2 0x100C DUP3 PUSH2 0x2023 JUMP JUMPDEST PUSH2 0x1040 PUSH2 0x1021 PUSH1 0xC9 SLOAD PUSH1 0x1 PUSH1 0x1 PUSH1 0xA0 SHL SUB AND SWAP1 JUMP JUMPDEST PUSH2 0x102D PUSH1 0x12 PUSH1 0xA PUSH2 0x4626 JUMP JUMPDEST PUSH2 0x103B SWAP1 PUSH4 0x1406F40 PUSH2 0x4635 JUMP JUMPDEST PUSH2 0x2C99 JUMP JUMPDEST PUSH1 0xC9 SLOAD PUSH2 0x1F8 DUP1 SLOAD PUSH1 0x1 PUSH1 0x1 PUSH1 0xA0 SHL SUB SWAP3 DUP4 AND PUSH20 0xFFFFFFFFFFFFFFFFFFFFFFFFFFFFFFFFFFFFFFFF NOT SWAP2 DUP3 AND DUP2 OR SWAP1 SWAP3 SSTORE PUSH2 0x1F9 DUP1 SLOAD SWAP1 SWAP2 AND DUP3 OR SWAP1 SSTORE PUSH2 0x1FA DUP1 SLOAD PUSH1 0x1 PUSH1 0xA0 SHL PUSH32 0xFFFFFFFFFFFFFFFFFFFFFF000000000000000000000000000000000000000000 SWAP1 SWAP2 AND DUP4 OR OR PUSH32 0xFFFFFFFFFFFFFFFF000000FFFFFFFFFFFFFFFFFFFFFFFFFFFFFFFFFFFFFFFFFF AND PUSH24 0x10101000000000000000000000000000000000000000000 OR SWAP1 SSTORE PUSH1 0x0 PUSH2 0x1FB DUP2 SWAP1 SSTORE PUSH2 0x1FC DUP2 SWAP1 SSTORE PUSH2 0x1FD DUP2 SWAP1 SSTORE PUSH2 0x1FE DUP2 SWAP1 SSTORE PUSH2 0x1FF DUP2 SWAP1 SSTORE SWAP1 DUP2 MSTORE PUSH2 0x200 PUSH1 0x20 MSTORE PUSH1 0x40 DUP1 DUP3 KECCAK256 DUP1 SLOAD PUSH1 0xFF NOT SWAP1 DUP2 AND PUSH1 0x1 SWAP1 DUP2 OR SWAP1 SWAP3 SSTORE ADDRESS DUP5 MSTORE SWAP2 DUP4 KECCAK256 DUP1 SLOAD SWAP1 SWAP3 AND OR SWAP1 SSTORE PUSH2 0x203 DUP1 SLOAD SWAP3 DUP7 AND PUSH3 0x10000 MUL PUSH32 0xFFFFFFFFFFFFFFFFFFFF00000000000000000000000000000000000000000000 SWAP1 SWAP4 AND SWAP3 SWAP1 SWAP3 OR PUSH2 0x101 OR SWAP1 SWAP2 SSTORE PUSH2 0x205 SSTORE PUSH1 0x5 PUSH2 0x206 SSTORE DUP1 ISZERO PUSH2 0x11C4 JUMPI PUSH1 0x0 DUP1 SLOAD PUSH2 0xFF00 NOT AND SWAP1 SSTORE PUSH1 0x40 MLOAD PUSH1 0x1 DUP2 MSTORE PUSH32 0x7F26B83FF96E1F2B6A682F133852F6798A09C465DA95921460CEFB3847402498 SWAP1 PUSH1 0x20 ADD PUSH1 0x40 MLOAD DUP1 SWAP2 SUB SWAP1 LOG1 JUMPDEST POP POP POP JUMP JUMPDEST PUSH1 0x1 PUSH1 0x1 PUSH1 0xA0 SHL SUB PUSH32 0x0 AND ADDRESS SUB PUSH2 0x1256 JUMPI PUSH1 0x40 MLOAD PUSH3 0x461BCD PUSH1 0xE5 SHL DUP2 MSTORE PUSH1 0x20 PUSH1 0x4 DUP3 ADD MSTORE PUSH1 0x2C PUSH1 0x24 DUP3 ADD MSTORE PUSH32 0x46756E6374696F6E206D7573742062652063616C6C6564207468726F75676820 PUSH1 0x44 DUP3 ADD MSTORE PUSH12 0x19195B1959D85D1958D85B1B PUSH1 0xA2 SHL PUSH1 0x64 DUP3 ADD MSTORE PUSH1 0x84 ADD PUSH2 0xD38 JUMP JUMPDEST PUSH32 0x0 PUSH1 0x1 PUSH1 0x1 PUSH1 0xA0 SHL SUB AND PUSH2 0x12B1 PUSH32 0x360894A13BA1A3210667C828492DB98DCA3E2076CC3735A920A3CA505D382BBC SLOAD PUSH1 0x1 PUSH1 0x1 PUSH1 0xA0 SHL SUB AND SWAP1 JUMP JUMPDEST PUSH1 0x1 PUSH1 0x1 PUSH1 0xA0 SHL SUB AND EQ PUSH2 0x131C JUMPI PUSH1 0x40 MLOAD PUSH3 0x461BCD PUSH1 0xE5 SHL DUP2 MSTORE PUSH1 0x20 PUSH1 0x4 DUP3 ADD MSTORE PUSH1 0x2C PUSH1 0x24 DUP3 ADD MSTORE PUSH32 0x46756E6374696F6E206D7573742062652063616C6C6564207468726F75676820 PUSH1 0x44 DUP3 ADD MSTORE PUSH12 0x6163746976652070726F7879 PUSH1 0xA0 SHL PUSH1 0x64 DUP3 ADD MSTORE PUSH1 0x84 ADD PUSH2 0xD38 JUMP JUMPDEST PUSH2 0x1325 DUP3 PUSH2 0x26B8 JUMP JUMPDEST PUSH2 0x1331 DUP3 DUP3 PUSH1 0x1 PUSH2 0x26C0 JUMP JUMPDEST POP POP JUMP JUMPDEST PUSH2 0x133D PUSH2 0x2208 JUMP JUMPDEST DUP1 PUSH2 0x1FF SLOAD PUSH2 0x1FE SLOAD PUSH2 0x1FD SLOAD PUSH2 0x1FC SLOAD PUSH2 0x1FB SLOAD PUSH2 0x135C SWAP2 SWAP1 PUSH2 0x452F JUMP JUMPDEST PUSH2 0x1366 SWAP2 SWAP1 PUSH2 0x452F JUMP JUMPDEST PUSH2 0x1370 SWAP2 SWAP1 PUSH2 0x452F JUMP JUMPDEST PUSH2 0x137A SWAP2 SWAP1 PUSH2 0x452F JUMP JUMPDEST PUSH2 0x1384 SWAP2 SWAP1 PUSH2 0x452F JUMP JUMPDEST ADDRESS PUSH1 0x0 SWAP1 DUP2 MSTORE PUSH1 0x33 PUSH1 0x20 MSTORE PUSH1 0x40 SWAP1 KECCAK256 SLOAD LT ISZERO PUSH2 0x13CF JUMPI PUSH1 0x40 MLOAD PUSH32 0x9266535100000000000000000000000000000000000000000000000000000000 DUP2 MSTORE PUSH1 0x4 DUP2 ADD DUP3 SWAP1 MSTORE PUSH1 0x24 ADD PUSH2 0xD38 JUMP JUMPDEST PUSH2 0xE2C ADDRESS CALLER DUP4 PUSH2 0x2D66 JUMP JUMPDEST PUSH1 0x0 ADDRESS PUSH1 0x1 PUSH1 0x1 PUSH1 0xA0 SHL SUB PUSH32 0x0 AND EQ PUSH2 0x147A JUMPI PUSH1 0x40 MLOAD PUSH3 0x461BCD PUSH1 0xE5 SHL DUP2 MSTORE PUSH1 0x20 PUSH1 0x4 DUP3 ADD MSTORE PUSH1 0x38 PUSH1 0x24 DUP3 ADD MSTORE PUSH32 0x555550535570677261646561626C653A206D757374206E6F742062652063616C PUSH1 0x44 DUP3 ADD MSTORE PUSH32 0x6C6564207468726F7567682064656C656761746563616C6C0000000000000000 PUSH1 0x64 DUP3 ADD MSTORE PUSH1 0x84 ADD PUSH2 0xD38 JUMP JUMPDEST POP PUSH32 0x360894A13BA1A3210667C828492DB98DCA3E2076CC3735A920A3CA505D382BBC SWAP1 JUMP JUMPDEST PUSH2 0x14A7 PUSH2 0x2208 JUMP JUMPDEST PUSH2 0x14B2 CALLER ADDRESS DUP4 PUSH2 0x2D66 JUMP JUMPDEST DUP1 PUSH2 0x1FF PUSH1 0x0 DUP3 DUP3 SLOAD PUSH2 0x14C5 SWAP2 SWAP1 PUSH2 0x452F JUMP JUMPDEST SWAP1 SWAP2 SSTORE POP POP POP JUMP JUMPDEST PUSH2 0x14D5 PUSH2 0x2208 JUMP JUMPDEST PUSH2 0xE7E PUSH1 0x0 PUSH2 0x2F65 JUMP JUMPDEST PUSH2 0x14E7 PUSH2 0x2208 JUMP JUMPDEST PUSH1 0x1 PUSH1 0x1 PUSH1 0xA0 SHL SUB DUP3 AND PUSH1 0x0 SWAP1 DUP2 MSTORE PUSH2 0x200 PUSH1 0x20 MSTORE PUSH1 0x40 SWAP1 KECCAK256 SLOAD DUP2 ISZERO ISZERO PUSH1 0xFF SWAP1 SWAP2 AND ISZERO ISZERO SUB PUSH2 0x1555 JUMPI PUSH1 0x40 MLOAD PUSH32 0x61731BE00000000000000000000000000000000000000000000000000000000 DUP2 MSTORE PUSH1 0x1 PUSH1 0x1 PUSH1 0xA0 SHL SUB DUP4 AND PUSH1 0x4 DUP3 ADD MSTORE DUP2 ISZERO ISZERO PUSH1 0x24 DUP3 ADD MSTORE PUSH1 0x44 ADD PUSH2 0xD38 JUMP JUMPDEST PUSH1 0x1 PUSH1 0x1 PUSH1 0xA0 SHL SUB DUP3 AND PUSH1 0x0 DUP2 DUP2 MSTORE PUSH2 0x200 PUSH1 0x20 SWAP1 DUP2 MSTORE PUSH1 0x40 SWAP2 DUP3 SWAP1 KECCAK256 DUP1 SLOAD PUSH1 0xFF NOT AND DUP6 ISZERO ISZERO SWAP1 DUP2 OR SWAP1 SWAP2 SSTORE DUP3 MLOAD SWAP4 DUP5 MSTORE SWAP1 DUP4 ADD MSTORE PUSH32 0xBD3FA7A0B65FADFBC9FC0E47ED90FDA7421B7A2860B0D918B9A5A2D54C8FFE0E SWAP2 ADD JUMPDEST PUSH1 0x40 MLOAD DUP1 SWAP2 SUB SWAP1 LOG1 POP POP JUMP JUMPDEST PUSH2 0x15C5 DUP3 CALLER DUP4 PUSH2 0x2262 JUMP JUMPDEST PUSH2 0x1331 DUP3 DUP3 PUSH2 0x28B2 JUMP JUMPDEST PUSH1 0x1 PUSH1 0x1 PUSH1 0xA0 SHL SUB DUP2 AND PUSH1 0x0 SWAP1 DUP2 MSTORE PUSH2 0x12F PUSH1 0x20 MSTORE PUSH1 0x40 DUP2 KECCAK256 SLOAD PUSH2 0xC1F JUMP JUMPDEST PUSH2 0x15F6 PUSH2 0x2208 JUMP JUMPDEST PUSH2 0xE7E PUSH2 0x2FC4 JUMP JUMPDEST PUSH1 0x0 PUSH1 0x60 DUP1 PUSH1 0x0 DUP1 PUSH1 0x0 PUSH1 0x60 PUSH1 0xFB SLOAD PUSH1 0x0 DUP1 SHL EQ DUP1 ISZERO PUSH2 0x161E JUMPI POP PUSH1 0xFC SLOAD ISZERO JUMPDEST PUSH2 0x166A JUMPI PUSH1 0x40 MLOAD PUSH3 0x461BCD PUSH1 0xE5 SHL DUP2 MSTORE PUSH1 0x20 PUSH1 0x4 DUP3 ADD MSTORE PUSH1 0x15 PUSH1 0x24 DUP3 ADD MSTORE PUSH32 0x4549503731323A20556E696E697469616C697A65640000000000000000000000 PUSH1 0x44 DUP3 ADD MSTORE PUSH1 0x64 ADD PUSH2 0xD38 JUMP JUMPDEST PUSH2 0x1672 PUSH2 0x3001 JUMP JUMPDEST PUSH2 0x167A PUSH2 0x3010 JUMP JUMPDEST PUSH1 0x40 DUP1 MLOAD PUSH1 0x0 DUP1 DUP3 MSTORE PUSH1 0x20 DUP3 ADD SWAP1 SWAP3 MSTORE PUSH32 0xF00000000000000000000000000000000000000000000000000000000000000 SWAP12 SWAP4 SWAP11 POP SWAP2 SWAP9 POP CHAINID SWAP8 POP ADDRESS SWAP7 POP SWAP5 POP SWAP3 POP SWAP1 POP JUMP JUMPDEST PUSH2 0x16C8 PUSH2 0x2208 JUMP JUMPDEST PUSH1 0x8 DUP2 DUP4 PUSH2 0x16D6 DUP7 DUP9 PUSH2 0x464C JUMP JUMPDEST PUSH2 0x16E0 SWAP2 SWAP1 PUSH2 0x464C JUMP JUMPDEST PUSH2 0x16EA SWAP2 SWAP1 PUSH2 0x464C JUMP JUMPDEST PUSH1 0xFF AND GT ISZERO PUSH2 0x1725 JUMPI PUSH1 0x40 MLOAD PUSH32 0x2E6A0B7000000000000000000000000000000000000000000000000000000000 DUP2 MSTORE PUSH1 0x4 ADD PUSH1 0x40 MLOAD DUP1 SWAP2 SUB SWAP1 REVERT JUMPDEST PUSH2 0x1FA DUP1 SLOAD PUSH32 0xFFFFFFFFFFFFFFFFFFFF0000FFFFFFFFFFFFFFFFFFFFFFFFFFFFFFFFFFFFFFFF AND PUSH1 0x1 PUSH1 0xA0 SHL PUSH1 0xFF SWAP7 DUP8 AND MUL PUSH32 0xFFFFFFFFFFFFFFFFFFFF00FFFFFFFFFFFFFFFFFFFFFFFFFFFFFFFFFFFFFFFFFF AND OR PUSH1 0x1 PUSH1 0xA8 SHL SWAP5 DUP7 AND SWAP5 SWAP1 SWAP5 MUL SWAP4 SWAP1 SWAP4 OR PUSH32 0xFFFFFFFFFFFFFFFF0000FFFFFFFFFFFFFFFFFFFFFFFFFFFFFFFFFFFFFFFFFFFF AND PUSH1 0x1 PUSH1 0xB0 SHL SWAP3 DUP6 AND SWAP3 SWAP1 SWAP3 MUL PUSH32 0xFFFFFFFFFFFFFFFF00FFFFFFFFFFFFFFFFFFFFFFFFFFFFFFFFFFFFFFFFFFFFFF AND SWAP2 SWAP1 SWAP2 OR PUSH1 0x1 PUSH1 0xB8 SHL SWAP2 SWAP1 SWAP4 AND MUL SWAP2 SWAP1 SWAP2 OR SWAP1 SSTORE JUMP JUMPDEST PUSH2 0x17F8 PUSH2 0x2208 JUMP JUMPDEST DUP1 PUSH1 0xFF AND PUSH1 0x0 SUB PUSH2 0x1835 JUMPI PUSH1 0x40 MLOAD PUSH32 0x5513B0DB00000000000000000000000000000000000000000000000000000000 DUP2 MSTORE PUSH1 0x4 ADD PUSH1 0x40 MLOAD DUP1 SWAP2 SUB SWAP1 REVERT JUMPDEST PUSH2 0x203 SLOAD PUSH1 0xFF SWAP1 DUP2 AND SWAP1 DUP3 AND SUB PUSH2 0x187D JUMPI PUSH1 0x40 MLOAD PUSH32 0xBA2CCA4700000000000000000000000000000000000000000000000000000000 DUP2 MSTORE PUSH1 0xFF DUP3 AND PUSH1 0x4 DUP3 ADD MSTORE PUSH1 0x24 ADD PUSH2 0xD38 JUMP JUMPDEST PUSH2 0x203 DUP1 SLOAD PUSH1 0xFF NOT AND PUSH1 0xFF DUP4 AND SWAP1 DUP2 OR SWAP1 SWAP2 SSTORE PUSH1 0x40 MLOAD SWAP1 DUP2 MSTORE PUSH32 0xFB64DD5CB1C56A3CE4F7680D712EB3AC8BAF06694C98B2A35112F190D02BF828 SWAP1 PUSH1 0x20 ADD JUMPDEST PUSH1 0x40 MLOAD DUP1 SWAP2 SUB SWAP1 LOG1 POP JUMP JUMPDEST PUSH1 0x60 PUSH1 0x37 DUP1 SLOAD PUSH2 0xB88 SWAP1 PUSH2 0x44E5 JUMP JUMPDEST PUSH2 0x18DE PUSH2 0x2208 JUMP JUMPDEST PUSH1 0x1 PUSH1 0x1 PUSH1 0xA0 SHL SUB DUP3 AND PUSH1 0x0 SWAP1 DUP2 MSTORE PUSH2 0x201 PUSH1 0x20 MSTORE PUSH1 0x40 SWAP1 KECCAK256 SLOAD DUP2 ISZERO ISZERO PUSH1 0xFF SWAP1 SWAP2 AND ISZERO ISZERO SUB PUSH2 0x194C JUMPI PUSH1 0x40 MLOAD PUSH32 0x59DEB2AB00000000000000000000000000000000000000000000000000000000 DUP2 MSTORE PUSH1 0x1 PUSH1 0x1 PUSH1 0xA0 SHL SUB DUP4 AND PUSH1 0x4 DUP3 ADD MSTORE DUP2 ISZERO ISZERO PUSH1 0x24 DUP3 ADD MSTORE PUSH1 0x44 ADD PUSH2 0xD38 JUMP JUMPDEST PUSH1 0x1 PUSH1 0x1 PUSH1 0xA0 SHL SUB DUP3 AND PUSH1 0x0 DUP2 DUP2 MSTORE PUSH2 0x201 PUSH1 0x20 SWAP1 DUP2 MSTORE PUSH1 0x40 SWAP2 DUP3 SWAP1 KECCAK256 DUP1 SLOAD PUSH1 0xFF NOT AND DUP6 ISZERO ISZERO SWAP1 DUP2 OR SWAP1 SWAP2 SSTORE DUP3 MLOAD SWAP4 DUP5 MSTORE SWAP1 DUP4 ADD MSTORE PUSH32 0xCF3473B85DF1594D47B6958F29A32BEA0ABFF9DD68296F7BF33443646793CFD8 SWAP2 ADD PUSH2 0x15AE JUMP JUMPDEST CALLER PUSH1 0x0 DUP2 DUP2 MSTORE PUSH1 0x34 PUSH1 0x20 SWAP1 DUP2 MSTORE PUSH1 0x40 DUP1 DUP4 KECCAK256 PUSH1 0x1 PUSH1 0x1 PUSH1 0xA0 SHL SUB DUP8 AND DUP5 MSTORE SWAP1 SWAP2 MSTORE DUP2 KECCAK256 SLOAD SWAP1 SWAP2 SWAP1 DUP4 DUP2 LT ISZERO PUSH2 0x1A46 JUMPI PUSH1 0x40 MLOAD PUSH3 0x461BCD PUSH1 0xE5 SHL DUP2 MSTORE PUSH1 0x20 PUSH1 0x4 DUP3 ADD MSTORE PUSH1 0x25 PUSH1 0x24 DUP3 ADD MSTORE PUSH32 0x45524332303A2064656372656173656420616C6C6F77616E63652062656C6F77 PUSH1 0x44 DUP3 ADD MSTORE PUSH32 0x207A65726F000000000000000000000000000000000000000000000000000000 PUSH1 0x64 DUP3 ADD MSTORE PUSH1 0x84 ADD PUSH2 0xD38 JUMP JUMPDEST PUSH2 0xC95 DUP3 DUP7 DUP7 DUP5 SUB PUSH2 0x20B0 JUMP JUMPDEST PUSH1 0x0 CALLER PUSH2 0xC19 DUP2 DUP6 DUP6 PUSH2 0x22EE JUMP JUMPDEST PUSH2 0x1A69 PUSH2 0x2208 JUMP JUMPDEST PUSH2 0x206 SLOAD DUP2 SUB PUSH2 0x1AA8 JUMPI PUSH1 0x40 MLOAD PUSH32 0xC94B5FA900000000000000000000000000000000000000000000000000000000 DUP2 MSTORE PUSH1 0x4 DUP2 ADD DUP3 SWAP1 MSTORE PUSH1 0x24 ADD PUSH2 0xD38 JUMP JUMPDEST PUSH2 0x206 DUP2 SWAP1 SSTORE PUSH1 0x40 MLOAD DUP2 DUP2 MSTORE PUSH32 0x6D124486D38FA5AB05B46E109515595FC0186DE5B55C34D963A989785162AFEB SWAP1 PUSH1 0x20 ADD PUSH2 0x18BC JUMP JUMPDEST PUSH2 0x1AE6 PUSH2 0x2208 JUMP JUMPDEST PUSH1 0x1 PUSH1 0x1 PUSH1 0xA0 SHL SUB DUP3 AND PUSH1 0x0 SWAP1 DUP2 MSTORE PUSH2 0x204 PUSH1 0x20 MSTORE PUSH1 0x40 SWAP1 KECCAK256 SLOAD DUP2 ISZERO ISZERO PUSH1 0xFF SWAP1 SWAP2 AND ISZERO ISZERO SUB PUSH2 0x1B54 JUMPI PUSH1 0x40 MLOAD PUSH32 0x7E219AC400000000000000000000000000000000000000000000000000000000 DUP2 MSTORE PUSH1 0x1 PUSH1 0x1 PUSH1 0xA0 SHL SUB DUP4 AND PUSH1 0x4 DUP3 ADD MSTORE DUP2 ISZERO ISZERO PUSH1 0x24 DUP3 ADD MSTORE PUSH1 0x44 ADD PUSH2 0xD38 JUMP JUMPDEST PUSH1 0x1 PUSH1 0x1 PUSH1 0xA0 SHL SUB DUP3 AND PUSH1 0x0 DUP2 DUP2 MSTORE PUSH2 0x204 PUSH1 0x20 SWAP1 DUP2 MSTORE PUSH1 0x40 SWAP2 DUP3 SWAP1 KECCAK256 DUP1 SLOAD PUSH1 0xFF NOT AND DUP6 ISZERO ISZERO SWAP1 DUP2 OR SWAP1 SWAP2 SSTORE DUP3 MLOAD SWAP4 DUP5 MSTORE SWAP1 DUP4 ADD MSTORE PUSH32 0xCB441F01C08C5009A96DCC9C11AB9F0331B7A7E41C46F27174EB6BABBD258420 SWAP2 ADD PUSH2 0x15AE JUMP JUMPDEST PUSH2 0x1BB9 PUSH2 0x2208 JUMP JUMPDEST PUSH1 0x0 DUP2 MLOAD DUP4 MLOAD EQ PUSH2 0x1BF6 JUMPI PUSH1 0x40 MLOAD PUSH32 0x9D89020A00000000000000000000000000000000000000000000000000000000 DUP2 MSTORE PUSH1 0x4 ADD PUSH1 0x40 MLOAD DUP1 SWAP2 SUB SWAP1 REVERT JUMPDEST PUSH1 0x64 DUP4 MLOAD GT ISZERO PUSH2 0x1C32 JUMPI PUSH1 0x40 MLOAD PUSH32 0x28668FC200000000000000000000000000000000000000000000000000000000 DUP2 MSTORE PUSH1 0x4 ADD PUSH1 0x40 MLOAD DUP1 SWAP2 SUB SWAP1 REVERT JUMPDEST PUSH1 0x0 JUMPDEST DUP3 MLOAD DUP2 LT ISZERO PUSH2 0x1C77 JUMPI DUP3 DUP2 DUP2 MLOAD DUP2 LT PUSH2 0x1C50 JUMPI PUSH2 0x1C50 PUSH2 0x4665 JUMP JUMPDEST PUSH1 0x20 MUL PUSH1 0x20 ADD ADD MLOAD DUP3 PUSH2 0x1C63 SWAP2 SWAP1 PUSH2 0x452F JUMP JUMPDEST SWAP2 POP DUP1 PUSH2 0x1C6F DUP2 PUSH2 0x467B JUMP JUMPDEST SWAP2 POP POP PUSH2 0x1C35 JUMP JUMPDEST POP PUSH2 0x1FF SLOAD DUP2 GT ISZERO PUSH2 0x1CB5 JUMPI PUSH1 0x40 MLOAD PUSH32 0x97D328C500000000000000000000000000000000000000000000000000000000 DUP2 MSTORE PUSH1 0x4 ADD PUSH1 0x40 MLOAD DUP1 SWAP2 SUB SWAP1 REVERT JUMPDEST PUSH1 0x0 JUMPDEST DUP4 MLOAD DUP2 LT ISZERO PUSH2 0x1D43 JUMPI DUP3 DUP2 DUP2 MLOAD DUP2 LT PUSH2 0x1CD3 JUMPI PUSH2 0x1CD3 PUSH2 0x4665 JUMP JUMPDEST PUSH1 0x20 MUL PUSH1 0x20 ADD ADD MLOAD PUSH2 0x1FF PUSH1 0x0 DUP3 DUP3 SLOAD PUSH2 0x1CED SWAP2 SWAP1 PUSH2 0x4694 JUMP JUMPDEST SWAP3 POP POP DUP2 SWAP1 SSTORE POP PUSH2 0x1D31 ADDRESS DUP6 DUP4 DUP2 MLOAD DUP2 LT PUSH2 0x1D0A JUMPI PUSH2 0x1D0A PUSH2 0x4665 JUMP JUMPDEST PUSH1 0x20 MUL PUSH1 0x20 ADD ADD MLOAD DUP6 DUP5 DUP2 MLOAD DUP2 LT PUSH2 0x1D24 JUMPI PUSH2 0x1D24 PUSH2 0x4665 JUMP JUMPDEST PUSH1 0x20 MUL PUSH1 0x20 ADD ADD MLOAD PUSH2 0x2D66 JUMP JUMPDEST DUP1 PUSH2 0x1D3B DUP2 PUSH2 0x467B JUMP JUMPDEST SWAP2 POP POP PUSH2 0x1CB8 JUMP JUMPDEST POP POP POP POP JUMP JUMPDEST DUP4 TIMESTAMP GT ISZERO PUSH2 0x1D99 JUMPI PUSH1 0x40 MLOAD PUSH3 0x461BCD PUSH1 0xE5 SHL DUP2 MSTORE PUSH1 0x20 PUSH1 0x4 DUP3 ADD MSTORE PUSH1 0x1D PUSH1 0x24 DUP3 ADD MSTORE PUSH32 0x45524332305065726D69743A206578706972656420646561646C696E65000000 PUSH1 0x44 DUP3 ADD MSTORE PUSH1 0x64 ADD PUSH2 0xD38 JUMP JUMPDEST PUSH1 0x0 PUSH32 0x6E71EDAE12B1B97F4D1F60370FEF10105FA2FAAE0126114A169C64845D6126C9 DUP9 DUP9 DUP9 PUSH2 0x1DC8 DUP13 PUSH2 0x301F JUMP JUMPDEST PUSH1 0x40 DUP1 MLOAD PUSH1 0x20 DUP2 ADD SWAP7 SWAP1 SWAP7 MSTORE PUSH1 0x1 PUSH1 0x1 PUSH1 0xA0 SHL SUB SWAP5 DUP6 AND SWAP1 DUP7 ADD MSTORE SWAP3 SWAP1 SWAP2 AND PUSH1 0x60 DUP5 ADD MSTORE PUSH1 0x80 DUP4 ADD MSTORE PUSH1 0xA0 DUP3 ADD MSTORE PUSH1 0xC0 DUP2 ADD DUP7 SWAP1 MSTORE PUSH1 0xE0 ADD PUSH1 0x40 MLOAD PUSH1 0x20 DUP2 DUP4 SUB SUB DUP2 MSTORE SWAP1 PUSH1 0x40 MSTORE DUP1 MLOAD SWAP1 PUSH1 0x20 ADD KECCAK256 SWAP1 POP PUSH1 0x0 PUSH2 0x1E23 DUP3 PUSH2 0x3048 JUMP JUMPDEST SWAP1 POP PUSH1 0x0 PUSH2 0x1E33 DUP3 DUP8 DUP8 DUP8 PUSH2 0x3090 JUMP JUMPDEST SWAP1 POP DUP10 PUSH1 0x1 PUSH1 0x1 PUSH1 0xA0 SHL SUB AND DUP2 PUSH1 0x1 PUSH1 0x1 PUSH1 0xA0 SHL SUB AND EQ PUSH2 0x1E96 JUMPI PUSH1 0x40 MLOAD PUSH3 0x461BCD PUSH1 0xE5 SHL DUP2 MSTORE PUSH1 0x20 PUSH1 0x4 DUP3 ADD MSTORE PUSH1 0x1E PUSH1 0x24 DUP3 ADD MSTORE PUSH32 0x45524332305065726D69743A20696E76616C6964207369676E61747572650000 PUSH1 0x44 DUP3 ADD MSTORE PUSH1 0x64 ADD PUSH2 0xD38 JUMP JUMPDEST PUSH2 0x1EA1 DUP11 DUP11 DUP11 PUSH2 0x20B0 JUMP JUMPDEST POP POP POP POP POP POP POP POP POP POP JUMP JUMPDEST PUSH2 0x1EB5 PUSH2 0x2208 JUMP JUMPDEST DUP1 ISZERO ISZERO PUSH2 0x203 PUSH1 0x1 SWAP1 SLOAD SWAP1 PUSH2 0x100 EXP SWAP1 DIV PUSH1 0xFF AND ISZERO ISZERO SUB PUSH2 0x1F06 JUMPI PUSH1 0x40 MLOAD PUSH32 0xE735FAB800000000000000000000000000000000000000000000000000000000 DUP2 MSTORE DUP2 ISZERO ISZERO PUSH1 0x4 DUP3 ADD MSTORE PUSH1 0x24 ADD PUSH2 0xD38 JUMP JUMPDEST PUSH2 0x203 DUP1 SLOAD DUP3 ISZERO ISZERO PUSH2 0x100 MUL PUSH2 0xFF00 NOT SWAP1 SWAP2 AND OR SWAP1 SSTORE PUSH1 0x40 MLOAD PUSH32 0x4F2AD763B89EF98B4A68A99B882B1E9CAA033B89EC60294B0244E6B2EF13C511 SWAP1 PUSH2 0x18BC SWAP1 DUP4 ISZERO ISZERO DUP2 MSTORE PUSH1 0x20 ADD SWAP1 JUMP JUMPDEST PUSH2 0x1F58 PUSH2 0x2208 JUMP JUMPDEST PUSH1 0x1 PUSH1 0x1 PUSH1 0xA0 SHL SUB DUP3 AND PUSH1 0x0 SWAP1 DUP2 MSTORE PUSH2 0x202 PUSH1 0x20 MSTORE PUSH1 0x40 SWAP1 KECCAK256 SLOAD DUP2 ISZERO ISZERO PUSH1 0xFF SWAP1 SWAP2 AND ISZERO ISZERO SUB PUSH2 0x1FC6 JUMPI PUSH1 0x40 MLOAD PUSH32 0x8905435800000000000000000000000000000000000000000000000000000000 DUP2 MSTORE PUSH1 0x1 PUSH1 0x1 PUSH1 0xA0 SHL SUB DUP4 AND PUSH1 0x4 DUP3 ADD MSTORE DUP2 ISZERO ISZERO PUSH1 0x24 DUP3 ADD MSTORE PUSH1 0x44 ADD PUSH2 0xD38 JUMP JUMPDEST PUSH1 0x1 PUSH1 0x1 PUSH1 0xA0 SHL SUB DUP3 AND PUSH1 0x0 DUP2 DUP2 MSTORE PUSH2 0x202 PUSH1 0x20 SWAP1 DUP2 MSTORE PUSH1 0x40 SWAP2 DUP3 SWAP1 KECCAK256 DUP1 SLOAD PUSH1 0xFF NOT AND DUP6 ISZERO ISZERO SWAP1 DUP2 OR SWAP1 SWAP2 SSTORE DUP3 MLOAD SWAP4 DUP5 MSTORE SWAP1 DUP4 ADD MSTORE PUSH32 0xFE8A745758DB04BA6ED589FDE009EF00F4DFC03C031DF96EC1876443DD571957 SWAP2 ADD PUSH2 0x15AE JUMP JUMPDEST PUSH2 0x202B PUSH2 0x2208 JUMP JUMPDEST PUSH1 0x1 PUSH1 0x1 PUSH1 0xA0 SHL SUB DUP2 AND PUSH2 0x20A7 JUMPI PUSH1 0x40 MLOAD PUSH3 0x461BCD PUSH1 0xE5 SHL DUP2 MSTORE PUSH1 0x20 PUSH1 0x4 DUP3 ADD MSTORE PUSH1 0x26 PUSH1 0x24 DUP3 ADD MSTORE PUSH32 0x4F776E61626C653A206E6577206F776E657220697320746865207A65726F2061 PUSH1 0x44 DUP3 ADD MSTORE PUSH32 0x6464726573730000000000000000000000000000000000000000000000000000 PUSH1 0x64 DUP3 ADD MSTORE PUSH1 0x84 ADD PUSH2 0xD38 JUMP JUMPDEST PUSH2 0xE2C DUP2 PUSH2 0x2F65 JUMP JUMPDEST PUSH1 0x1 PUSH1 0x1 PUSH1 0xA0 SHL SUB DUP4 AND PUSH2 0x212B JUMPI PUSH1 0x40 MLOAD PUSH3 0x461BCD PUSH1 0xE5 SHL DUP2 MSTORE PUSH1 0x20 PUSH1 0x4 DUP3 ADD MSTORE PUSH1 0x24 DUP1 DUP3 ADD MSTORE PUSH32 0x45524332303A20617070726F76652066726F6D20746865207A65726F20616464 PUSH1 0x44 DUP3 ADD MSTORE PUSH32 0x7265737300000000000000000000000000000000000000000000000000000000 PUSH1 0x64 DUP3 ADD MSTORE PUSH1 0x84 ADD PUSH2 0xD38 JUMP JUMPDEST PUSH1 0x1 PUSH1 0x1 PUSH1 0xA0 SHL SUB DUP3 AND PUSH2 0x21A7 JUMPI PUSH1 0x40 MLOAD PUSH3 0x461BCD PUSH1 0xE5 SHL DUP2 MSTORE PUSH1 0x20 PUSH1 0x4 DUP3 ADD MSTORE PUSH1 0x22 PUSH1 0x24 DUP3 ADD MSTORE PUSH32 0x45524332303A20617070726F766520746F20746865207A65726F206164647265 PUSH1 0x44 DUP3 ADD MSTORE PUSH32 0x7373000000000000000000000000000000000000000000000000000000000000 PUSH1 0x64 DUP3 ADD MSTORE PUSH1 0x84 ADD PUSH2 0xD38 JUMP JUMPDEST PUSH1 0x1 PUSH1 0x1 PUSH1 0xA0 SHL SUB DUP4 DUP2 AND PUSH1 0x0 DUP2 DUP2 MSTORE PUSH1 0x34 PUSH1 0x20 SWAP1 DUP2 MSTORE PUSH1 0x40 DUP1 DUP4 KECCAK256 SWAP5 DUP8 AND DUP1 DUP5 MSTORE SWAP5 DUP3 MSTORE SWAP2 DUP3 SWAP1 KECCAK256 DUP6 SWAP1 SSTORE SWAP1 MLOAD DUP5 DUP2 MSTORE PUSH32 0x8C5BE1E5EBEC7D5BD14F71427D1E84F3DD0314C0F7B2291E5B200AC8C7C3B925 SWAP2 ADD PUSH1 0x40 MLOAD DUP1 SWAP2 SUB SWAP1 LOG3 POP POP POP JUMP JUMPDEST PUSH1 0xC9 SLOAD PUSH1 0x1 PUSH1 0x1 PUSH1 0xA0 SHL SUB AND CALLER EQ PUSH2 0xE7E JUMPI PUSH1 0x40 MLOAD PUSH3 0x461BCD PUSH1 0xE5 SHL DUP2 MSTORE PUSH1 0x20 PUSH1 0x4 DUP3 ADD DUP2 SWAP1 MSTORE PUSH1 0x24 DUP3 ADD MSTORE PUSH32 0x4F776E61626C653A2063616C6C6572206973206E6F7420746865206F776E6572 PUSH1 0x44 DUP3 ADD MSTORE PUSH1 0x64 ADD PUSH2 0xD38 JUMP JUMPDEST PUSH1 0x1 PUSH1 0x1 PUSH1 0xA0 SHL SUB DUP4 DUP2 AND PUSH1 0x0 SWAP1 DUP2 MSTORE PUSH1 0x34 PUSH1 0x20 SWAP1 DUP2 MSTORE PUSH1 0x40 DUP1 DUP4 KECCAK256 SWAP4 DUP7 AND DUP4 MSTORE SWAP3 SWAP1 MSTORE KECCAK256 SLOAD PUSH1 0x0 NOT DUP2 EQ PUSH2 0x1D43 JUMPI DUP2 DUP2 LT ISZERO PUSH2 0x22E1 JUMPI PUSH1 0x40 MLOAD PUSH3 0x461BCD PUSH1 0xE5 SHL DUP2 MSTORE PUSH1 0x20 PUSH1 0x4 DUP3 ADD MSTORE PUSH1 0x1D PUSH1 0x24 DUP3 ADD MSTORE PUSH32 0x45524332303A20696E73756666696369656E7420616C6C6F77616E6365000000 PUSH1 0x44 DUP3 ADD MSTORE PUSH1 0x64 ADD PUSH2 0xD38 JUMP JUMPDEST PUSH2 0x1D43 DUP5 DUP5 DUP5 DUP5 SUB PUSH2 0x20B0 JUMP JUMPDEST PUSH1 0x1 PUSH1 0x1 PUSH1 0xA0 SHL SUB DUP4 AND PUSH1 0x0 SWAP1 DUP2 MSTORE PUSH2 0x201 PUSH1 0x20 MSTORE PUSH1 0x40 SWAP1 KECCAK256 SLOAD PUSH1 0xFF AND DUP1 PUSH2 0x232F JUMPI POP PUSH1 0x1 PUSH1 0x1 PUSH1 0xA0 SHL SUB DUP3 AND PUSH1 0x0 SWAP1 DUP2 MSTORE PUSH2 0x201 PUSH1 0x20 MSTORE PUSH1 0x40 SWAP1 KECCAK256 SLOAD PUSH1 0xFF AND JUMPDEST ISZERO PUSH2 0x2366 JUMPI PUSH1 0x40 MLOAD PUSH32 0x9949D1CC00000000000000000000000000000000000000000000000000000000 DUP2 MSTORE PUSH1 0x4 ADD PUSH1 0x40 MLOAD DUP1 SWAP2 SUB SWAP1 REVERT JUMPDEST PUSH1 0x1 PUSH1 0x1 PUSH1 0xA0 SHL SUB DUP4 AND PUSH1 0x0 SWAP1 DUP2 MSTORE PUSH2 0x200 PUSH1 0x20 MSTORE PUSH1 0x40 SWAP1 KECCAK256 SLOAD PUSH1 0xFF AND DUP1 PUSH2 0x23A7 JUMPI POP PUSH1 0x1 PUSH1 0x1 PUSH1 0xA0 SHL SUB DUP3 AND PUSH1 0x0 SWAP1 DUP2 MSTORE PUSH2 0x200 PUSH1 0x20 MSTORE PUSH1 0x40 SWAP1 KECCAK256 SLOAD PUSH1 0xFF AND JUMPDEST ISZERO PUSH2 0x23B7 JUMPI PUSH2 0x11C4 DUP4 DUP4 DUP4 PUSH2 0x2D66 JUMP JUMPDEST PUSH2 0x203 SLOAD PUSH1 0xFF PUSH2 0x100 SWAP1 SWAP2 DIV AND ISZERO ISZERO PUSH1 0x1 EQ DUP1 ISZERO PUSH2 0x23EF JUMPI POP PUSH1 0x1 PUSH1 0x1 PUSH1 0xA0 SHL SUB DUP3 AND PUSH1 0x0 SWAP1 DUP2 MSTORE PUSH2 0x202 PUSH1 0x20 MSTORE PUSH1 0x40 SWAP1 KECCAK256 SLOAD PUSH1 0xFF AND ISZERO JUMPDEST DUP1 ISZERO PUSH2 0x2448 JUMPI POP PUSH2 0x203 SLOAD PUSH1 0xFF AND PUSH1 0x64 PUSH2 0x2408 PUSH1 0x35 SLOAD SWAP1 JUMP JUMPDEST PUSH2 0x2412 SWAP2 SWAP1 PUSH2 0x46A7 JUMP JUMPDEST PUSH2 0x241C SWAP2 SWAP1 PUSH2 0x4635 JUMP JUMPDEST DUP2 PUSH2 0x243C DUP5 PUSH1 0x1 PUSH1 0x1 PUSH1 0xA0 SHL SUB AND PUSH1 0x0 SWAP1 DUP2 MSTORE PUSH1 0x33 PUSH1 0x20 MSTORE PUSH1 0x40 SWAP1 KECCAK256 SLOAD SWAP1 JUMP JUMPDEST PUSH2 0x2446 SWAP2 SWAP1 PUSH2 0x452F JUMP JUMPDEST GT JUMPDEST ISZERO PUSH2 0x247F JUMPI PUSH1 0x40 MLOAD PUSH32 0x5107DBE700000000000000000000000000000000000000000000000000000000 DUP2 MSTORE PUSH1 0x4 ADD PUSH1 0x40 MLOAD DUP1 SWAP2 SUB SWAP1 REVERT JUMPDEST PUSH1 0x1 PUSH1 0x1 PUSH1 0xA0 SHL SUB DUP4 AND PUSH1 0x0 SWAP1 DUP2 MSTORE PUSH2 0x204 PUSH1 0x20 MSTORE PUSH1 0x40 SWAP1 KECCAK256 SLOAD DUP2 SWAP1 PUSH1 0xFF AND ISZERO ISZERO PUSH1 0x1 EQ DUP1 PUSH2 0x24CC JUMPI POP PUSH1 0x1 PUSH1 0x1 PUSH1 0xA0 SHL SUB DUP4 AND PUSH1 0x0 SWAP1 DUP2 MSTORE PUSH2 0x204 PUSH1 0x20 MSTORE PUSH1 0x40 SWAP1 KECCAK256 SLOAD PUSH1 0xFF AND ISZERO ISZERO PUSH1 0x1 EQ JUMPDEST ISZERO PUSH2 0x26A3 JUMPI PUSH2 0x205 DUP1 SLOAD SWAP1 PUSH1 0x0 PUSH2 0x24E2 DUP4 PUSH2 0x467B JUMP JUMPDEST SWAP1 SWAP2 SSTORE POP POP PUSH2 0x1FA SLOAD PUSH1 0x0 SWAP1 PUSH1 0x1 PUSH1 0xA0 SHL SWAP1 DIV PUSH1 0xFF AND PUSH2 0x2503 PUSH1 0x64 DUP6 PUSH2 0x46A7 JUMP JUMPDEST PUSH2 0x250D SWAP2 SWAP1 PUSH2 0x4635 JUMP JUMPDEST PUSH2 0x1FA SLOAD SWAP1 SWAP2 POP PUSH1 0x0 SWAP1 PUSH1 0x1 PUSH1 0xA8 SHL SWAP1 DIV PUSH1 0xFF AND PUSH2 0x252C PUSH1 0x64 DUP7 PUSH2 0x46A7 JUMP JUMPDEST PUSH2 0x2536 SWAP2 SWAP1 PUSH2 0x4635 JUMP JUMPDEST PUSH2 0x1FA SLOAD SWAP1 SWAP2 POP PUSH1 0x0 SWAP1 PUSH1 0x1 PUSH1 0xB0 SHL SWAP1 DIV PUSH1 0xFF AND PUSH2 0x2555 PUSH1 0x64 DUP8 PUSH2 0x46A7 JUMP JUMPDEST PUSH2 0x255F SWAP2 SWAP1 PUSH2 0x4635 JUMP JUMPDEST SWAP1 POP DUP3 DUP3 PUSH2 0x256D DUP4 DUP8 PUSH2 0x4694 JUMP JUMPDEST PUSH2 0x2577 SWAP2 SWAP1 PUSH2 0x4694 JUMP JUMPDEST PUSH2 0x2581 SWAP2 SWAP1 PUSH2 0x4694 JUMP JUMPDEST SWAP4 POP DUP3 PUSH2 0x1FB PUSH1 0x0 DUP3 DUP3 SLOAD PUSH2 0x2596 SWAP2 SWAP1 PUSH2 0x452F JUMP JUMPDEST SWAP3 POP POP DUP2 SWAP1 SSTORE POP DUP2 PUSH2 0x1FC PUSH1 0x0 DUP3 DUP3 SLOAD PUSH2 0x25B0 SWAP2 SWAP1 PUSH2 0x452F JUMP JUMPDEST SWAP3 POP POP DUP2 SWAP1 SSTORE POP DUP1 PUSH2 0x1FD PUSH1 0x0 DUP3 DUP3 SLOAD PUSH2 0x25CA SWAP2 SWAP1 PUSH2 0x452F JUMP JUMPDEST SWAP1 SWAP2 SSTORE POP POP PUSH1 0x1 PUSH1 0x1 PUSH1 0xA0 SHL SUB DUP7 AND PUSH1 0x0 SWAP1 DUP2 MSTORE PUSH2 0x204 PUSH1 0x20 MSTORE PUSH1 0x40 SWAP1 KECCAK256 SLOAD PUSH1 0xFF AND ISZERO ISZERO PUSH1 0x1 SUB PUSH2 0x2643 JUMPI PUSH2 0x1FA SLOAD PUSH1 0x0 SWAP1 PUSH1 0x1 PUSH1 0xB8 SHL SWAP1 DIV PUSH1 0xFF AND PUSH2 0x2611 PUSH1 0x64 DUP9 PUSH2 0x46A7 JUMP JUMPDEST PUSH2 0x261B SWAP2 SWAP1 PUSH2 0x4635 JUMP JUMPDEST SWAP1 POP PUSH2 0x2627 DUP2 DUP7 PUSH2 0x4694 JUMP JUMPDEST SWAP5 POP DUP1 PUSH2 0x1FE PUSH1 0x0 DUP3 DUP3 SLOAD PUSH2 0x263C SWAP2 SWAP1 PUSH2 0x452F JUMP JUMPDEST SWAP1 SWAP2 SSTORE POP POP POP JUMPDEST PUSH2 0x2657 DUP8 ADDRESS PUSH2 0x2652 DUP8 DUP10 PUSH2 0x4694 JUMP JUMPDEST PUSH2 0x2D66 JUMP JUMPDEST PUSH2 0x206 SLOAD PUSH2 0x205 SLOAD LT ISZERO DUP1 ISZERO PUSH2 0x268B JUMPI POP PUSH1 0x1 PUSH1 0x1 PUSH1 0xA0 SHL SUB DUP7 AND PUSH1 0x0 SWAP1 DUP2 MSTORE PUSH2 0x204 PUSH1 0x20 MSTORE PUSH1 0x40 SWAP1 KECCAK256 SLOAD PUSH1 0xFF AND ISZERO ISZERO PUSH1 0x1 EQ JUMPDEST ISZERO PUSH2 0x269F JUMPI PUSH2 0x2698 PUSH2 0x30BA JUMP JUMPDEST PUSH1 0x0 PUSH2 0x205 SSTORE JUMPDEST POP POP POP JUMPDEST PUSH2 0x1D43 DUP5 DUP5 DUP4 PUSH2 0x2D66 JUMP JUMPDEST PUSH1 0x0 PUSH2 0xCAA PUSH2 0x33EC JUMP JUMPDEST PUSH2 0xE2C PUSH2 0x2208 JUMP JUMPDEST PUSH32 0x4910FDFA16FED3260ED0E7147F7CC6DA11A60208B5B9406D12A635614FFD9143 SLOAD PUSH1 0xFF AND ISZERO PUSH2 0x26F3 JUMPI PUSH2 0x11C4 DUP4 PUSH2 0x3460 JUMP JUMPDEST DUP3 PUSH1 0x1 PUSH1 0x1 PUSH1 0xA0 SHL SUB AND PUSH4 0x52D1902D PUSH1 0x40 MLOAD DUP2 PUSH4 0xFFFFFFFF AND PUSH1 0xE0 SHL DUP2 MSTORE PUSH1 0x4 ADD PUSH1 0x20 PUSH1 0x40 MLOAD DUP1 DUP4 SUB DUP2 DUP7 GAS STATICCALL SWAP3 POP POP POP DUP1 ISZERO PUSH2 0x274D JUMPI POP PUSH1 0x40 DUP1 MLOAD PUSH1 0x1F RETURNDATASIZE SWAP1 DUP2 ADD PUSH1 0x1F NOT AND DUP3 ADD SWAP1 SWAP3 MSTORE PUSH2 0x274A SWAP2 DUP2 ADD SWAP1 PUSH2 0x46C9 JUMP JUMPDEST PUSH1 0x1 JUMPDEST PUSH2 0x27BF JUMPI PUSH1 0x40 MLOAD PUSH3 0x461BCD PUSH1 0xE5 SHL DUP2 MSTORE PUSH1 0x20 PUSH1 0x4 DUP3 ADD MSTORE PUSH1 0x2E PUSH1 0x24 DUP3 ADD MSTORE PUSH32 0x45524331393637557067726164653A206E657720696D706C656D656E74617469 PUSH1 0x44 DUP3 ADD MSTORE PUSH32 0x6F6E206973206E6F742055555053000000000000000000000000000000000000 PUSH1 0x64 DUP3 ADD MSTORE PUSH1 0x84 ADD PUSH2 0xD38 JUMP JUMPDEST PUSH32 0x360894A13BA1A3210667C828492DB98DCA3E2076CC3735A920A3CA505D382BBC DUP2 EQ PUSH2 0x2854 JUMPI PUSH1 0x40 MLOAD PUSH3 0x461BCD PUSH1 0xE5 SHL DUP2 MSTORE PUSH1 0x20 PUSH1 0x4 DUP3 ADD MSTORE PUSH1 0x29 PUSH1 0x24 DUP3 ADD MSTORE PUSH32 0x45524331393637557067726164653A20756E737570706F727465642070726F78 PUSH1 0x44 DUP3 ADD MSTORE PUSH32 0x6961626C65555549440000000000000000000000000000000000000000000000 PUSH1 0x64 DUP3 ADD MSTORE PUSH1 0x84 ADD PUSH2 0xD38 JUMP JUMPDEST POP PUSH2 0x11C4 DUP4 DUP4 DUP4 PUSH2 0x352B JUMP JUMPDEST PUSH2 0x2868 PUSH2 0x3550 JUMP JUMPDEST PUSH1 0x97 DUP1 SLOAD PUSH1 0xFF NOT AND SWAP1 SSTORE PUSH32 0x5DB9EE0A495BF2E6FF9C91A7834C1BA4FDD244A5E8AA4E537BD38AEAE4B073AA CALLER JUMPDEST PUSH1 0x40 MLOAD PUSH1 0x1 PUSH1 0x1 PUSH1 0xA0 SHL SUB SWAP1 SWAP2 AND DUP2 MSTORE PUSH1 0x20 ADD PUSH1 0x40 MLOAD DUP1 SWAP2 SUB SWAP1 LOG1 JUMP JUMPDEST PUSH1 0x1 PUSH1 0x1 PUSH1 0xA0 SHL SUB DUP3 AND PUSH2 0x292E JUMPI PUSH1 0x40 MLOAD PUSH3 0x461BCD PUSH1 0xE5 SHL DUP2 MSTORE PUSH1 0x20 PUSH1 0x4 DUP3 ADD MSTORE PUSH1 0x21 PUSH1 0x24 DUP3 ADD MSTORE PUSH32 0x45524332303A206275726E2066726F6D20746865207A65726F20616464726573 PUSH1 0x44 DUP3 ADD MSTORE PUSH32 0x7300000000000000000000000000000000000000000000000000000000000000 PUSH1 0x64 DUP3 ADD MSTORE PUSH1 0x84 ADD PUSH2 0xD38 JUMP JUMPDEST PUSH2 0x293A DUP3 PUSH1 0x0 DUP4 PUSH2 0x35A2 JUMP JUMPDEST PUSH1 0x1 PUSH1 0x1 PUSH1 0xA0 SHL SUB DUP3 AND PUSH1 0x0 SWAP1 DUP2 MSTORE PUSH1 0x33 PUSH1 0x20 MSTORE PUSH1 0x40 SWAP1 KECCAK256 SLOAD DUP2 DUP2 LT ISZERO PUSH2 0x29C9 JUMPI PUSH1 0x40 MLOAD PUSH3 0x461BCD PUSH1 0xE5 SHL DUP2 MSTORE PUSH1 0x20 PUSH1 0x4 DUP3 ADD MSTORE PUSH1 0x22 PUSH1 0x24 DUP3 ADD MSTORE PUSH32 0x45524332303A206275726E20616D6F756E7420657863656564732062616C616E PUSH1 0x44 DUP3 ADD MSTORE PUSH32 0x6365000000000000000000000000000000000000000000000000000000000000 PUSH1 0x64 DUP3 ADD MSTORE PUSH1 0x84 ADD PUSH2 0xD38 JUMP JUMPDEST PUSH1 0x1 PUSH1 0x1 PUSH1 0xA0 SHL SUB DUP4 AND PUSH1 0x0 DUP2 DUP2 MSTORE PUSH1 0x33 PUSH1 0x20 SWAP1 DUP2 MSTORE PUSH1 0x40 DUP1 DUP4 KECCAK256 DUP7 DUP7 SUB SWAP1 SSTORE PUSH1 0x35 DUP1 SLOAD DUP8 SWAP1 SUB SWAP1 SSTORE MLOAD DUP6 DUP2 MSTORE SWAP2 SWAP3 SWAP2 PUSH32 0xDDF252AD1BE2C89B69C2B068FC378DAA952BA7F163C4A11628F55A4DF523B3EF SWAP2 ADD PUSH1 0x40 MLOAD DUP1 SWAP2 SUB SWAP1 LOG3 POP POP POP JUMP JUMPDEST PUSH1 0x0 SLOAD PUSH2 0x100 SWAP1 DIV PUSH1 0xFF AND PUSH2 0x2A94 JUMPI PUSH1 0x40 MLOAD PUSH3 0x461BCD PUSH1 0xE5 SHL DUP2 MSTORE PUSH1 0x20 PUSH1 0x4 DUP3 ADD MSTORE PUSH1 0x2B PUSH1 0x24 DUP3 ADD MSTORE PUSH32 0x496E697469616C697A61626C653A20636F6E7472616374206973206E6F742069 PUSH1 0x44 DUP3 ADD MSTORE PUSH11 0x6E697469616C697A696E67 PUSH1 0xA8 SHL PUSH1 0x64 DUP3 ADD MSTORE PUSH1 0x84 ADD PUSH2 0xD38 JUMP JUMPDEST PUSH2 0x1331 DUP3 DUP3 PUSH2 0x35AA JUMP JUMPDEST PUSH1 0x0 SLOAD PUSH2 0x100 SWAP1 DIV PUSH1 0xFF AND PUSH2 0xE7E JUMPI PUSH1 0x40 MLOAD PUSH3 0x461BCD PUSH1 0xE5 SHL DUP2 MSTORE PUSH1 0x20 PUSH1 0x4 DUP3 ADD MSTORE PUSH1 0x2B PUSH1 0x24 DUP3 ADD MSTORE PUSH32 0x496E697469616C697A61626C653A20636F6E7472616374206973206E6F742069 PUSH1 0x44 DUP3 ADD MSTORE PUSH11 0x6E697469616C697A696E67 PUSH1 0xA8 SHL PUSH1 0x64 DUP3 ADD MSTORE PUSH1 0x84 ADD PUSH2 0xD38 JUMP JUMPDEST PUSH1 0x0 SLOAD PUSH2 0x100 SWAP1 DIV PUSH1 0xFF AND PUSH2 0x2B74 JUMPI PUSH1 0x40 MLOAD PUSH3 0x461BCD PUSH1 0xE5 SHL DUP2 MSTORE PUSH1 0x20 PUSH1 0x4 DUP3 ADD MSTORE PUSH1 0x2B PUSH1 0x24 DUP3 ADD MSTORE PUSH32 0x496E697469616C697A61626C653A20636F6E7472616374206973206E6F742069 PUSH1 0x44 DUP3 ADD MSTORE PUSH11 0x6E697469616C697A696E67 PUSH1 0xA8 SHL PUSH1 0x64 DUP3 ADD MSTORE PUSH1 0x84 ADD PUSH2 0xD38 JUMP JUMPDEST PUSH2 0xE7E PUSH2 0x362E JUMP JUMPDEST PUSH1 0x0 SLOAD PUSH2 0x100 SWAP1 DIV PUSH1 0xFF AND PUSH2 0x2BE7 JUMPI PUSH1 0x40 MLOAD PUSH3 0x461BCD PUSH1 0xE5 SHL DUP2 MSTORE PUSH1 0x20 PUSH1 0x4 DUP3 ADD MSTORE PUSH1 0x2B PUSH1 0x24 DUP3 ADD MSTORE PUSH32 0x496E697469616C697A61626C653A20636F6E7472616374206973206E6F742069 PUSH1 0x44 DUP3 ADD MSTORE PUSH11 0x6E697469616C697A696E67 PUSH1 0xA8 SHL PUSH1 0x64 DUP3 ADD MSTORE PUSH1 0x84 ADD PUSH2 0xD38 JUMP JUMPDEST PUSH2 0xE7E PUSH2 0x36A5 JUMP JUMPDEST PUSH1 0x0 SLOAD PUSH2 0x100 SWAP1 DIV PUSH1 0xFF AND PUSH2 0x2C5A JUMPI PUSH1 0x40 MLOAD PUSH3 0x461BCD PUSH1 0xE5 SHL DUP2 MSTORE PUSH1 0x20 PUSH1 0x4 DUP3 ADD MSTORE PUSH1 0x2B PUSH1 0x24 DUP3 ADD MSTORE PUSH32 0x496E697469616C697A61626C653A20636F6E7472616374206973206E6F742069 PUSH1 0x44 DUP3 ADD MSTORE PUSH11 0x6E697469616C697A696E67 PUSH1 0xA8 SHL PUSH1 0x64 DUP3 ADD MSTORE PUSH1 0x84 ADD PUSH2 0xD38 JUMP JUMPDEST PUSH2 0xE2C DUP2 PUSH1 0x40 MLOAD DUP1 PUSH1 0x40 ADD PUSH1 0x40 MSTORE DUP1 PUSH1 0x1 DUP2 MSTORE PUSH1 0x20 ADD PUSH32 0x3100000000000000000000000000000000000000000000000000000000000000 DUP2 MSTORE POP PUSH2 0x3719 JUMP JUMPDEST PUSH1 0x1 PUSH1 0x1 PUSH1 0xA0 SHL SUB DUP3 AND PUSH2 0x2CEF JUMPI PUSH1 0x40 MLOAD PUSH3 0x461BCD PUSH1 0xE5 SHL DUP2 MSTORE PUSH1 0x20 PUSH1 0x4 DUP3 ADD MSTORE PUSH1 0x1F PUSH1 0x24 DUP3 ADD MSTORE PUSH32 0x45524332303A206D696E7420746F20746865207A65726F206164647265737300 PUSH1 0x44 DUP3 ADD MSTORE PUSH1 0x64 ADD PUSH2 0xD38 JUMP JUMPDEST PUSH2 0x2CFB PUSH1 0x0 DUP4 DUP4 PUSH2 0x35A2 JUMP JUMPDEST DUP1 PUSH1 0x35 PUSH1 0x0 DUP3 DUP3 SLOAD PUSH2 0x2D0D SWAP2 SWAP1 PUSH2 0x452F JUMP JUMPDEST SWAP1 SWAP2 SSTORE POP POP PUSH1 0x1 PUSH1 0x1 PUSH1 0xA0 SHL SUB DUP3 AND PUSH1 0x0 DUP2 DUP2 MSTORE PUSH1 0x33 PUSH1 0x20 SWAP1 DUP2 MSTORE PUSH1 0x40 DUP1 DUP4 KECCAK256 DUP1 SLOAD DUP7 ADD SWAP1 SSTORE MLOAD DUP5 DUP2 MSTORE PUSH32 0xDDF252AD1BE2C89B69C2B068FC378DAA952BA7F163C4A11628F55A4DF523B3EF SWAP2 ADD PUSH1 0x40 MLOAD DUP1 SWAP2 SUB SWAP1 LOG3 POP POP JUMP JUMPDEST PUSH1 0x1 PUSH1 0x1 PUSH1 0xA0 SHL SUB DUP4 AND PUSH2 0x2DE2 JUMPI PUSH1 0x40 MLOAD PUSH3 0x461BCD PUSH1 0xE5 SHL DUP2 MSTORE PUSH1 0x20 PUSH1 0x4 DUP3 ADD MSTORE PUSH1 0x25 PUSH1 0x24 DUP3 ADD MSTORE PUSH32 0x45524332303A207472616E736665722066726F6D20746865207A65726F206164 PUSH1 0x44 DUP3 ADD MSTORE PUSH32 0x6472657373000000000000000000000000000000000000000000000000000000 PUSH1 0x64 DUP3 ADD MSTORE PUSH1 0x84 ADD PUSH2 0xD38 JUMP JUMPDEST PUSH1 0x1 PUSH1 0x1 PUSH1 0xA0 SHL SUB DUP3 AND PUSH2 0x2E5E JUMPI PUSH1 0x40 MLOAD PUSH3 0x461BCD PUSH1 0xE5 SHL DUP2 MSTORE PUSH1 0x20 PUSH1 0x4 DUP3 ADD MSTORE PUSH1 0x23 PUSH1 0x24 DUP3 ADD MSTORE PUSH32 0x45524332303A207472616E7366657220746F20746865207A65726F2061646472 PUSH1 0x44 DUP3 ADD MSTORE PUSH32 0x6573730000000000000000000000000000000000000000000000000000000000 PUSH1 0x64 DUP3 ADD MSTORE PUSH1 0x84 ADD PUSH2 0xD38 JUMP JUMPDEST PUSH2 0x2E69 DUP4 DUP4 DUP4 PUSH2 0x35A2 JUMP JUMPDEST PUSH1 0x1 PUSH1 0x1 PUSH1 0xA0 SHL SUB DUP4 AND PUSH1 0x0 SWAP1 DUP2 MSTORE PUSH1 0x33 PUSH1 0x20 MSTORE PUSH1 0x40 SWAP1 KECCAK256 SLOAD DUP2 DUP2 LT ISZERO PUSH2 0x2EF8 JUMPI PUSH1 0x40 MLOAD PUSH3 0x461BCD PUSH1 0xE5 SHL DUP2 MSTORE PUSH1 0x20 PUSH1 0x4 DUP3 ADD MSTORE PUSH1 0x26 PUSH1 0x24 DUP3 ADD MSTORE PUSH32 0x45524332303A207472616E7366657220616D6F756E7420657863656564732062 PUSH1 0x44 DUP3 ADD MSTORE PUSH32 0x616C616E63650000000000000000000000000000000000000000000000000000 PUSH1 0x64 DUP3 ADD MSTORE PUSH1 0x84 ADD PUSH2 0xD38 JUMP JUMPDEST PUSH1 0x1 PUSH1 0x1 PUSH1 0xA0 SHL SUB DUP1 DUP6 AND PUSH1 0x0 DUP2 DUP2 MSTORE PUSH1 0x33 PUSH1 0x20 MSTORE PUSH1 0x40 DUP1 DUP3 KECCAK256 DUP7 DUP7 SUB SWAP1 SSTORE SWAP3 DUP7 AND DUP1 DUP3 MSTORE SWAP1 DUP4 SWAP1 KECCAK256 DUP1 SLOAD DUP7 ADD SWAP1 SSTORE SWAP2 MLOAD PUSH32 0xDDF252AD1BE2C89B69C2B068FC378DAA952BA7F163C4A11628F55A4DF523B3EF SWAP1 PUSH2 0x2F58 SWAP1 DUP7 DUP2 MSTORE PUSH1 0x20 ADD SWAP1 JUMP JUMPDEST PUSH1 0x40 MLOAD DUP1 SWAP2 SUB SWAP1 LOG3 PUSH2 0x1D43 JUMP JUMPDEST PUSH1 0xC9 DUP1 SLOAD PUSH1 0x1 PUSH1 0x1 PUSH1 0xA0 SHL SUB DUP4 DUP2 AND PUSH20 0xFFFFFFFFFFFFFFFFFFFFFFFFFFFFFFFFFFFFFFFF NOT DUP4 AND DUP2 OR SWAP1 SWAP4 SSTORE PUSH1 0x40 MLOAD SWAP2 AND SWAP2 SWAP1 DUP3 SWAP1 PUSH32 0x8BE0079C531659141344CD1FD0A4F28419497F9722A3DAAFE3B4186F6B6457E0 SWAP1 PUSH1 0x0 SWAP1 LOG3 POP POP JUMP JUMPDEST PUSH2 0x2FCC PUSH2 0x37AC JUMP JUMPDEST PUSH1 0x97 DUP1 SLOAD PUSH1 0xFF NOT AND PUSH1 0x1 OR SWAP1 SSTORE PUSH32 0x62E78CEA01BEE320CD4E420270B5EA74000D11B0C9F74754EBDBFC544B05A258 PUSH2 0x2895 CALLER SWAP1 JUMP JUMPDEST PUSH1 0x60 PUSH1 0xFD DUP1 SLOAD PUSH2 0xB88 SWAP1 PUSH2 0x44E5 JUMP JUMPDEST PUSH1 0x60 PUSH1 0xFE DUP1 SLOAD PUSH2 0xB88 SWAP1 PUSH2 0x44E5 JUMP JUMPDEST PUSH1 0x1 PUSH1 0x1 PUSH1 0xA0 SHL SUB DUP2 AND PUSH1 0x0 SWAP1 DUP2 MSTORE PUSH2 0x12F PUSH1 0x20 MSTORE PUSH1 0x40 SWAP1 KECCAK256 DUP1 SLOAD PUSH1 0x1 DUP2 ADD DUP3 SSTORE SWAP1 JUMPDEST POP SWAP2 SWAP1 POP JUMP JUMPDEST PUSH1 0x0 PUSH2 0xC1F PUSH2 0x3055 PUSH2 0x26AE JUMP JUMPDEST DUP4 PUSH1 0x40 MLOAD PUSH32 0x1901000000000000000000000000000000000000000000000000000000000000 DUP2 MSTORE PUSH1 0x2 DUP2 ADD SWAP3 SWAP1 SWAP3 MSTORE PUSH1 0x22 DUP3 ADD MSTORE PUSH1 0x42 SWAP1 KECCAK256 SWAP1 JUMP JUMPDEST PUSH1 0x0 DUP1 PUSH1 0x0 PUSH2 0x30A1 DUP8 DUP8 DUP8 DUP8 PUSH2 0x37FF JUMP JUMPDEST SWAP2 POP SWAP2 POP PUSH2 0x30AE DUP2 PUSH2 0x38C3 JUMP JUMPDEST POP SWAP1 POP JUMPDEST SWAP5 SWAP4 POP POP POP POP JUMP JUMPDEST PUSH2 0x30C2 PUSH2 0x3A28 JUMP JUMPDEST ADDRESS PUSH1 0x0 SWAP1 DUP2 MSTORE PUSH1 0x33 PUSH1 0x20 MSTORE PUSH1 0x40 SWAP1 KECCAK256 SLOAD PUSH2 0x1FE SLOAD PUSH2 0x1FD SLOAD PUSH2 0x1FC SLOAD PUSH2 0x1FB SLOAD PUSH2 0x30EC SWAP2 SWAP1 PUSH2 0x452F JUMP JUMPDEST PUSH2 0x30F6 SWAP2 SWAP1 PUSH2 0x452F JUMP JUMPDEST PUSH2 0x3100 SWAP2 SWAP1 PUSH2 0x452F JUMP JUMPDEST DUP2 LT ISZERO PUSH2 0x3138 JUMPI PUSH1 0x40 MLOAD PUSH31 0x3F1F5500000000000000000000000000000000000000000000000000000000 DUP2 MSTORE PUSH1 0x4 ADD PUSH1 0x40 MLOAD DUP1 SWAP2 SUB SWAP1 REVERT JUMPDEST PUSH1 0x0 PUSH2 0x1FE SLOAD PUSH2 0x1FD SLOAD PUSH2 0x1FC SLOAD PUSH2 0x1FB SLOAD PUSH2 0x3154 SWAP2 SWAP1 PUSH2 0x452F JUMP JUMPDEST PUSH2 0x315E SWAP2 SWAP1 PUSH2 0x452F JUMP JUMPDEST PUSH2 0x3168 SWAP2 SWAP1 PUSH2 0x452F JUMP JUMPDEST GT ISZERO PUSH2 0x31B0 JUMPI PUSH2 0x31B0 PUSH1 0x2 PUSH2 0x1FE SLOAD PUSH2 0x3181 SWAP2 SWAP1 PUSH2 0x46A7 JUMP JUMPDEST PUSH2 0x1FD SLOAD PUSH2 0x1FC SLOAD PUSH2 0x1FB SLOAD PUSH2 0x3197 SWAP2 SWAP1 PUSH2 0x452F JUMP JUMPDEST PUSH2 0x31A1 SWAP2 SWAP1 PUSH2 0x452F JUMP JUMPDEST PUSH2 0x31AB SWAP2 SWAP1 PUSH2 0x452F JUMP JUMPDEST PUSH2 0x3A83 JUMP JUMPDEST PUSH1 0x0 PUSH2 0x1FB DUP2 SWAP1 SSTORE PUSH2 0x1FC DUP2 SWAP1 SSTORE PUSH2 0x1FD SSTORE PUSH2 0x1FE SLOAD SELFBALANCE SWAP1 ISZERO PUSH2 0x31ED JUMPI PUSH2 0x31E6 PUSH1 0x2 PUSH2 0x1FE SLOAD PUSH2 0x31E0 SWAP2 SWAP1 PUSH2 0x46A7 JUMP JUMPDEST DUP3 PUSH2 0x3C1E JUMP JUMPDEST PUSH1 0x0 PUSH2 0x1FE SSTORE JUMPDEST POP SELFBALANCE DUP1 ISZERO PUSH2 0x33DF JUMPI PUSH2 0x1FA SLOAD PUSH1 0x1 PUSH1 0xA0 SHL SWAP1 DIV PUSH1 0xFF AND ISZERO PUSH2 0x3299 JUMPI PUSH2 0x1FA SLOAD PUSH1 0x0 SWAP1 PUSH1 0xFF PUSH1 0x1 PUSH1 0xA0 SHL DUP3 DIV DUP2 AND SWAP2 DUP3 SWAP2 PUSH2 0x3239 SWAP2 PUSH1 0x1 PUSH1 0xA8 SHL DUP2 DIV DUP3 AND SWAP2 PUSH1 0x1 PUSH1 0xB0 SHL SWAP1 SWAP2 DIV AND PUSH2 0x464C JUMP JUMPDEST PUSH2 0x3243 SWAP2 SWAP1 PUSH2 0x464C JUMP JUMPDEST PUSH2 0x3250 SWAP1 PUSH1 0xFF AND DUP5 PUSH2 0x46A7 JUMP JUMPDEST PUSH2 0x325A SWAP2 SWAP1 PUSH2 0x4635 JUMP JUMPDEST PUSH2 0x1F8 SLOAD PUSH1 0x40 MLOAD SWAP2 SWAP3 POP PUSH1 0x1 PUSH1 0x1 PUSH1 0xA0 SHL SUB AND SWAP1 DUP3 ISZERO PUSH2 0x8FC MUL SWAP1 DUP4 SWAP1 PUSH1 0x0 DUP2 DUP2 DUP2 DUP6 DUP9 DUP9 CALL SWAP4 POP POP POP POP ISZERO DUP1 ISZERO PUSH2 0x3296 JUMPI RETURNDATASIZE PUSH1 0x0 DUP1 RETURNDATACOPY RETURNDATASIZE PUSH1 0x0 REVERT JUMPDEST POP POP JUMPDEST PUSH2 0x1FA SLOAD PUSH1 0x1 PUSH1 0xA8 SHL SWAP1 DIV PUSH1 0xFF AND ISZERO PUSH2 0x333D JUMPI PUSH2 0x1FA SLOAD PUSH1 0x0 SWAP1 PUSH1 0xFF PUSH1 0x1 PUSH1 0xA8 SHL DUP3 DIV DUP2 AND SWAP2 PUSH1 0x1 PUSH1 0xA0 SHL DUP2 DIV DUP3 AND SWAP2 PUSH2 0x32DD SWAP2 DUP5 SWAP2 PUSH1 0x1 PUSH1 0xB0 SHL SWAP1 SWAP2 DIV AND PUSH2 0x464C JUMP JUMPDEST PUSH2 0x32E7 SWAP2 SWAP1 PUSH2 0x464C JUMP JUMPDEST PUSH2 0x32F4 SWAP1 PUSH1 0xFF AND DUP5 PUSH2 0x46A7 JUMP JUMPDEST PUSH2 0x32FE SWAP2 SWAP1 PUSH2 0x4635 JUMP JUMPDEST PUSH2 0x1F9 SLOAD PUSH1 0x40 MLOAD SWAP2 SWAP3 POP PUSH1 0x1 PUSH1 0x1 PUSH1 0xA0 SHL SUB AND SWAP1 DUP3 ISZERO PUSH2 0x8FC MUL SWAP1 DUP4 SWAP1 PUSH1 0x0 DUP2 DUP2 DUP2 DUP6 DUP9 DUP9 CALL SWAP4 POP POP POP POP ISZERO DUP1 ISZERO PUSH2 0x333A JUMPI RETURNDATASIZE PUSH1 0x0 DUP1 RETURNDATACOPY RETURNDATASIZE PUSH1 0x0 REVERT JUMPDEST POP POP JUMPDEST PUSH2 0x1FA SLOAD PUSH1 0x1 PUSH1 0xB0 SHL SWAP1 DIV PUSH1 0xFF AND ISZERO PUSH2 0x33DF JUMPI PUSH2 0x1FA SLOAD PUSH1 0x0 SWAP1 PUSH1 0xFF PUSH1 0x1 PUSH1 0xB0 SHL DUP3 DIV DUP2 AND SWAP2 PUSH1 0x1 PUSH1 0xA0 SHL DUP2 DIV DUP3 AND SWAP2 PUSH2 0x337F SWAP2 PUSH1 0x1 PUSH1 0xA8 SHL SWAP1 DIV AND DUP4 PUSH2 0x464C JUMP JUMPDEST PUSH2 0x3389 SWAP2 SWAP1 PUSH2 0x464C JUMP JUMPDEST PUSH2 0x3396 SWAP1 PUSH1 0xFF AND DUP5 PUSH2 0x46A7 JUMP JUMPDEST PUSH2 0x33A0 SWAP2 SWAP1 PUSH2 0x4635 JUMP JUMPDEST PUSH2 0x1FA SLOAD PUSH1 0x40 MLOAD SWAP2 SWAP3 POP PUSH1 0x1 PUSH1 0x1 PUSH1 0xA0 SHL SUB AND SWAP1 DUP3 ISZERO PUSH2 0x8FC MUL SWAP1 DUP4 SWAP1 PUSH1 0x0 DUP2 DUP2 DUP2 DUP6 DUP9 DUP9 CALL SWAP4 POP POP POP POP ISZERO DUP1 ISZERO PUSH2 0x33DC JUMPI RETURNDATASIZE PUSH1 0x0 DUP1 RETURNDATACOPY RETURNDATASIZE PUSH1 0x0 REVERT JUMPDEST POP POP JUMPDEST POP POP PUSH2 0xE7E PUSH1 0x1 PUSH2 0x1C6 SSTORE JUMP JUMPDEST PUSH1 0x0 PUSH32 0x8B73C3C69BB8FE3D512ECC4CF759CC79239F7B179B0FFACAA9A75D522B39400F PUSH2 0x3417 PUSH2 0x3CF5 JUMP JUMPDEST PUSH2 0x341F PUSH2 0x3D4E JUMP JUMPDEST PUSH1 0x40 DUP1 MLOAD PUSH1 0x20 DUP2 ADD SWAP5 SWAP1 SWAP5 MSTORE DUP4 ADD SWAP2 SWAP1 SWAP2 MSTORE PUSH1 0x60 DUP3 ADD MSTORE CHAINID PUSH1 0x80 DUP3 ADD MSTORE ADDRESS PUSH1 0xA0 DUP3 ADD MSTORE PUSH1 0xC0 ADD PUSH1 0x40 MLOAD PUSH1 0x20 DUP2 DUP4 SUB SUB DUP2 MSTORE SWAP1 PUSH1 0x40 MSTORE DUP1 MLOAD SWAP1 PUSH1 0x20 ADD KECCAK256 SWAP1 POP SWAP1 JUMP JUMPDEST PUSH1 0x1 PUSH1 0x1 PUSH1 0xA0 SHL SUB DUP2 AND EXTCODESIZE PUSH2 0x34DD JUMPI PUSH1 0x40 MLOAD PUSH3 0x461BCD PUSH1 0xE5 SHL DUP2 MSTORE PUSH1 0x20 PUSH1 0x4 DUP3 ADD MSTORE PUSH1 0x2D PUSH1 0x24 DUP3 ADD MSTORE PUSH32 0x455243313936373A206E657720696D706C656D656E746174696F6E206973206E PUSH1 0x44 DUP3 ADD MSTORE PUSH32 0x6F74206120636F6E747261637400000000000000000000000000000000000000 PUSH1 0x64 DUP3 ADD MSTORE PUSH1 0x84 ADD PUSH2 0xD38 JUMP JUMPDEST PUSH32 0x360894A13BA1A3210667C828492DB98DCA3E2076CC3735A920A3CA505D382BBC DUP1 SLOAD PUSH20 0xFFFFFFFFFFFFFFFFFFFFFFFFFFFFFFFFFFFFFFFF NOT AND PUSH1 0x1 PUSH1 0x1 PUSH1 0xA0 SHL SUB SWAP3 SWAP1 SWAP3 AND SWAP2 SWAP1 SWAP2 OR SWAP1 SSTORE JUMP JUMPDEST PUSH2 0x3534 DUP4 PUSH2 0x3D7F JUMP JUMPDEST PUSH1 0x0 DUP3 MLOAD GT DUP1 PUSH2 0x3541 JUMPI POP DUP1 JUMPDEST ISZERO PUSH2 0x11C4 JUMPI PUSH2 0x1D43 DUP4 DUP4 PUSH2 0x3DBF JUMP JUMPDEST PUSH1 0x97 SLOAD PUSH1 0xFF AND PUSH2 0xE7E JUMPI PUSH1 0x40 MLOAD PUSH3 0x461BCD PUSH1 0xE5 SHL DUP2 MSTORE PUSH1 0x20 PUSH1 0x4 DUP3 ADD MSTORE PUSH1 0x14 PUSH1 0x24 DUP3 ADD MSTORE PUSH32 0x5061757361626C653A206E6F7420706175736564000000000000000000000000 PUSH1 0x44 DUP3 ADD MSTORE PUSH1 0x64 ADD PUSH2 0xD38 JUMP JUMPDEST PUSH2 0x11C4 PUSH2 0x37AC JUMP JUMPDEST PUSH1 0x0 SLOAD PUSH2 0x100 SWAP1 DIV PUSH1 0xFF AND PUSH2 0x3615 JUMPI PUSH1 0x40 MLOAD PUSH3 0x461BCD PUSH1 0xE5 SHL DUP2 MSTORE PUSH1 0x20 PUSH1 0x4 DUP3 ADD MSTORE PUSH1 0x2B PUSH1 0x24 DUP3 ADD MSTORE PUSH32 0x496E697469616C697A61626C653A20636F6E7472616374206973206E6F742069 PUSH1 0x44 DUP3 ADD MSTORE PUSH11 0x6E697469616C697A696E67 PUSH1 0xA8 SHL PUSH1 0x64 DUP3 ADD MSTORE PUSH1 0x84 ADD PUSH2 0xD38 JUMP JUMPDEST PUSH1 0x36 PUSH2 0x3621 DUP4 DUP3 PUSH2 0x4728 JUMP JUMPDEST POP PUSH1 0x37 PUSH2 0x11C4 DUP3 DUP3 PUSH2 0x4728 JUMP JUMPDEST PUSH1 0x0 SLOAD PUSH2 0x100 SWAP1 DIV PUSH1 0xFF AND PUSH2 0x3699 JUMPI PUSH1 0x40 MLOAD PUSH3 0x461BCD PUSH1 0xE5 SHL DUP2 MSTORE PUSH1 0x20 PUSH1 0x4 DUP3 ADD MSTORE PUSH1 0x2B PUSH1 0x24 DUP3 ADD MSTORE PUSH32 0x496E697469616C697A61626C653A20636F6E7472616374206973206E6F742069 PUSH1 0x44 DUP3 ADD MSTORE PUSH11 0x6E697469616C697A696E67 PUSH1 0xA8 SHL PUSH1 0x64 DUP3 ADD MSTORE PUSH1 0x84 ADD PUSH2 0xD38 JUMP JUMPDEST PUSH1 0x97 DUP1 SLOAD PUSH1 0xFF NOT AND SWAP1 SSTORE JUMP JUMPDEST PUSH1 0x0 SLOAD PUSH2 0x100 SWAP1 DIV PUSH1 0xFF AND PUSH2 0x3710 JUMPI PUSH1 0x40 MLOAD PUSH3 0x461BCD PUSH1 0xE5 SHL DUP2 MSTORE PUSH1 0x20 PUSH1 0x4 DUP3 ADD MSTORE PUSH1 0x2B PUSH1 0x24 DUP3 ADD MSTORE PUSH32 0x496E697469616C697A61626C653A20636F6E7472616374206973206E6F742069 PUSH1 0x44 DUP3 ADD MSTORE PUSH11 0x6E697469616C697A696E67 PUSH1 0xA8 SHL PUSH1 0x64 DUP3 ADD MSTORE PUSH1 0x84 ADD PUSH2 0xD38 JUMP JUMPDEST PUSH2 0xE7E CALLER PUSH2 0x2F65 JUMP JUMPDEST PUSH1 0x0 SLOAD PUSH2 0x100 SWAP1 DIV PUSH1 0xFF AND PUSH2 0x3784 JUMPI PUSH1 0x40 MLOAD PUSH3 0x461BCD PUSH1 0xE5 SHL DUP2 MSTORE PUSH1 0x20 PUSH1 0x4 DUP3 ADD MSTORE PUSH1 0x2B PUSH1 0x24 DUP3 ADD MSTORE PUSH32 0x496E697469616C697A61626C653A20636F6E7472616374206973206E6F742069 PUSH1 0x44 DUP3 ADD MSTORE PUSH11 0x6E697469616C697A696E67 PUSH1 0xA8 SHL PUSH1 0x64 DUP3 ADD MSTORE PUSH1 0x84 ADD PUSH2 0xD38 JUMP JUMPDEST PUSH1 0xFD PUSH2 0x3790 DUP4 DUP3 PUSH2 0x4728 JUMP JUMPDEST POP PUSH1 0xFE PUSH2 0x379D DUP3 DUP3 PUSH2 0x4728 JUMP JUMPDEST POP POP PUSH1 0x0 PUSH1 0xFB DUP2 SWAP1 SSTORE PUSH1 0xFC SSTORE POP JUMP JUMPDEST PUSH1 0x97 SLOAD PUSH1 0xFF AND ISZERO PUSH2 0xE7E JUMPI PUSH1 0x40 MLOAD PUSH3 0x461BCD PUSH1 0xE5 SHL DUP2 MSTORE PUSH1 0x20 PUSH1 0x4 DUP3 ADD MSTORE PUSH1 0x10 PUSH1 0x24 DUP3 ADD MSTORE PUSH32 0x5061757361626C653A2070617573656400000000000000000000000000000000 PUSH1 0x44 DUP3 ADD MSTORE PUSH1 0x64 ADD PUSH2 0xD38 JUMP JUMPDEST PUSH1 0x0 DUP1 PUSH32 0x7FFFFFFFFFFFFFFFFFFFFFFFFFFFFFFF5D576E7357A4501DDFE92F46681B20A0 DUP4 GT ISZERO PUSH2 0x3836 JUMPI POP PUSH1 0x0 SWAP1 POP PUSH1 0x3 PUSH2 0x38BA JUMP JUMPDEST PUSH1 0x40 DUP1 MLOAD PUSH1 0x0 DUP1 DUP3 MSTORE PUSH1 0x20 DUP3 ADD DUP1 DUP5 MSTORE DUP10 SWAP1 MSTORE PUSH1 0xFF DUP9 AND SWAP3 DUP3 ADD SWAP3 SWAP1 SWAP3 MSTORE PUSH1 0x60 DUP2 ADD DUP7 SWAP1 MSTORE PUSH1 0x80 DUP2 ADD DUP6 SWAP1 MSTORE PUSH1 0x1 SWAP1 PUSH1 0xA0 ADD PUSH1 0x20 PUSH1 0x40 MLOAD PUSH1 0x20 DUP2 SUB SWAP1 DUP1 DUP5 SUB SWAP1 DUP6 GAS STATICCALL ISZERO DUP1 ISZERO PUSH2 0x388A JUMPI RETURNDATASIZE PUSH1 0x0 DUP1 RETURNDATACOPY RETURNDATASIZE PUSH1 0x0 REVERT JUMPDEST POP POP PUSH1 0x40 MLOAD PUSH1 0x1F NOT ADD MLOAD SWAP2 POP POP PUSH1 0x1 PUSH1 0x1 PUSH1 0xA0 SHL SUB DUP2 AND PUSH2 0x38B3 JUMPI PUSH1 0x0 PUSH1 0x1 SWAP3 POP SWAP3 POP POP PUSH2 0x38BA JUMP JUMPDEST SWAP2 POP PUSH1 0x0 SWAP1 POP JUMPDEST SWAP5 POP SWAP5 SWAP3 POP POP POP JUMP JUMPDEST PUSH1 0x0 DUP2 PUSH1 0x4 DUP2 GT ISZERO PUSH2 0x38D7 JUMPI PUSH2 0x38D7 PUSH2 0x47E8 JUMP JUMPDEST SUB PUSH2 0x38DF JUMPI POP JUMP JUMPDEST PUSH1 0x1 DUP2 PUSH1 0x4 DUP2 GT ISZERO PUSH2 0x38F3 JUMPI PUSH2 0x38F3 PUSH2 0x47E8 JUMP JUMPDEST SUB PUSH2 0x3940 JUMPI PUSH1 0x40 MLOAD PUSH3 0x461BCD PUSH1 0xE5 SHL DUP2 MSTORE PUSH1 0x20 PUSH1 0x4 DUP3 ADD MSTORE PUSH1 0x18 PUSH1 0x24 DUP3 ADD MSTORE PUSH32 0x45434453413A20696E76616C6964207369676E61747572650000000000000000 PUSH1 0x44 DUP3 ADD MSTORE PUSH1 0x64 ADD PUSH2 0xD38 JUMP JUMPDEST PUSH1 0x2 DUP2 PUSH1 0x4 DUP2 GT ISZERO PUSH2 0x3954 JUMPI PUSH2 0x3954 PUSH2 0x47E8 JUMP JUMPDEST SUB PUSH2 0x39A1 JUMPI PUSH1 0x40 MLOAD PUSH3 0x461BCD PUSH1 0xE5 SHL DUP2 MSTORE PUSH1 0x20 PUSH1 0x4 DUP3 ADD MSTORE PUSH1 0x1F PUSH1 0x24 DUP3 ADD MSTORE PUSH32 0x45434453413A20696E76616C6964207369676E6174757265206C656E67746800 PUSH1 0x44 DUP3 ADD MSTORE PUSH1 0x64 ADD PUSH2 0xD38 JUMP JUMPDEST PUSH1 0x3 DUP2 PUSH1 0x4 DUP2 GT ISZERO PUSH2 0x39B5 JUMPI PUSH2 0x39B5 PUSH2 0x47E8 JUMP JUMPDEST SUB PUSH2 0xE2C JUMPI PUSH1 0x40 MLOAD PUSH3 0x461BCD PUSH1 0xE5 SHL DUP2 MSTORE PUSH1 0x20 PUSH1 0x4 DUP3 ADD MSTORE PUSH1 0x22 PUSH1 0x24 DUP3 ADD MSTORE PUSH32 0x45434453413A20696E76616C6964207369676E6174757265202773272076616C PUSH1 0x44 DUP3 ADD MSTORE PUSH32 0x7565000000000000000000000000000000000000000000000000000000000000 PUSH1 0x64 DUP3 ADD MSTORE PUSH1 0x84 ADD PUSH2 0xD38 JUMP JUMPDEST PUSH1 0x2 PUSH2 0x1C6 SLOAD SUB PUSH2 0x3A7B JUMPI PUSH1 0x40 MLOAD PUSH3 0x461BCD PUSH1 0xE5 SHL DUP2 MSTORE PUSH1 0x20 PUSH1 0x4 DUP3 ADD MSTORE PUSH1 0x1F PUSH1 0x24 DUP3 ADD MSTORE PUSH32 0x5265656E7472616E637947756172643A207265656E7472616E742063616C6C00 PUSH1 0x44 DUP3 ADD MSTORE PUSH1 0x64 ADD PUSH2 0xD38 JUMP JUMPDEST PUSH1 0x2 PUSH2 0x1C6 SSTORE JUMP JUMPDEST PUSH1 0x40 DUP1 MLOAD PUSH1 0x2 DUP1 DUP3 MSTORE PUSH1 0x60 DUP3 ADD DUP4 MSTORE PUSH1 0x0 SWAP3 PUSH1 0x20 DUP4 ADD SWAP1 DUP1 CALLDATASIZE DUP4 CALLDATACOPY ADD SWAP1 POP POP SWAP1 POP ADDRESS DUP2 PUSH1 0x0 DUP2 MLOAD DUP2 LT PUSH2 0x3AB8 JUMPI PUSH2 0x3AB8 PUSH2 0x4665 JUMP JUMPDEST PUSH1 0x20 MUL PUSH1 0x20 ADD ADD SWAP1 PUSH1 0x1 PUSH1 0x1 PUSH1 0xA0 SHL SUB AND SWAP1 DUP2 PUSH1 0x1 PUSH1 0x1 PUSH1 0xA0 SHL SUB AND DUP2 MSTORE POP POP PUSH2 0x203 PUSH1 0x2 SWAP1 SLOAD SWAP1 PUSH2 0x100 EXP SWAP1 DIV PUSH1 0x1 PUSH1 0x1 PUSH1 0xA0 SHL SUB AND PUSH1 0x1 PUSH1 0x1 PUSH1 0xA0 SHL SUB AND PUSH4 0xAD5C4648 PUSH1 0x40 MLOAD DUP2 PUSH4 0xFFFFFFFF AND PUSH1 0xE0 SHL DUP2 MSTORE PUSH1 0x4 ADD PUSH1 0x20 PUSH1 0x40 MLOAD DUP1 DUP4 SUB DUP2 DUP7 GAS STATICCALL ISZERO DUP1 ISZERO PUSH2 0x3B2C JUMPI RETURNDATASIZE PUSH1 0x0 DUP1 RETURNDATACOPY RETURNDATASIZE PUSH1 0x0 REVERT JUMPDEST POP POP POP POP PUSH1 0x40 MLOAD RETURNDATASIZE PUSH1 0x1F NOT PUSH1 0x1F DUP3 ADD AND DUP3 ADD DUP1 PUSH1 0x40 MSTORE POP DUP2 ADD SWAP1 PUSH2 0x3B50 SWAP2 SWAP1 PUSH2 0x47FE JUMP JUMPDEST DUP2 PUSH1 0x1 DUP2 MLOAD DUP2 LT PUSH2 0x3B63 JUMPI PUSH2 0x3B63 PUSH2 0x4665 JUMP JUMPDEST PUSH1 0x1 PUSH1 0x1 PUSH1 0xA0 SHL SUB SWAP3 DUP4 AND PUSH1 0x20 SWAP2 DUP3 MUL SWAP3 SWAP1 SWAP3 ADD ADD MSTORE PUSH2 0x203 SLOAD PUSH2 0x3B90 SWAP2 ADDRESS SWAP2 PUSH3 0x10000 SWAP1 DIV AND DUP5 PUSH2 0x20B0 JUMP JUMPDEST PUSH2 0x203 SLOAD PUSH1 0x40 MLOAD PUSH32 0x791AC94700000000000000000000000000000000000000000000000000000000 DUP2 MSTORE PUSH3 0x10000 SWAP1 SWAP2 DIV PUSH1 0x1 PUSH1 0x1 PUSH1 0xA0 SHL SUB AND SWAP1 PUSH4 0x791AC947 SWAP1 PUSH2 0x3BE8 SWAP1 DUP6 SWAP1 PUSH1 0x0 SWAP1 DUP7 SWAP1 ADDRESS SWAP1 TIMESTAMP SWAP1 PUSH1 0x4 ADD PUSH2 0x481B JUMP JUMPDEST PUSH1 0x0 PUSH1 0x40 MLOAD DUP1 DUP4 SUB DUP2 PUSH1 0x0 DUP8 DUP1 EXTCODESIZE ISZERO DUP1 ISZERO PUSH2 0x3C02 JUMPI PUSH1 0x0 DUP1 REVERT JUMPDEST POP GAS CALL ISZERO DUP1 ISZERO PUSH2 0x3C16 JUMPI RETURNDATASIZE PUSH1 0x0 DUP1 RETURNDATACOPY RETURNDATASIZE PUSH1 0x0 REVERT JUMPDEST POP POP POP POP POP POP JUMP JUMPDEST PUSH2 0x203 SLOAD PUSH2 0x3C3D SWAP1 ADDRESS SWAP1 PUSH3 0x10000 SWAP1 DIV PUSH1 0x1 PUSH1 0x1 PUSH1 0xA0 SHL SUB AND DUP5 PUSH2 0x20B0 JUMP JUMPDEST PUSH2 0x203 SLOAD PUSH1 0x40 MLOAD PUSH32 0xF305D71900000000000000000000000000000000000000000000000000000000 DUP2 MSTORE ADDRESS PUSH1 0x4 DUP3 ADD MSTORE PUSH1 0x24 DUP2 ADD DUP5 SWAP1 MSTORE PUSH1 0x0 PUSH1 0x44 DUP3 ADD DUP2 SWAP1 MSTORE PUSH1 0x64 DUP3 ADD DUP2 SWAP1 MSTORE PUSH1 0x84 DUP3 ADD MSTORE TIMESTAMP PUSH1 0xA4 DUP3 ADD MSTORE PUSH3 0x10000 SWAP1 SWAP2 DIV PUSH1 0x1 PUSH1 0x1 PUSH1 0xA0 SHL SUB AND SWAP1 PUSH4 0xF305D719 SWAP1 DUP4 SWAP1 PUSH1 0xC4 ADD PUSH1 0x60 PUSH1 0x40 MLOAD DUP1 DUP4 SUB DUP2 DUP6 DUP9 GAS CALL ISZERO DUP1 ISZERO PUSH2 0x3CC9 JUMPI RETURNDATASIZE PUSH1 0x0 DUP1 RETURNDATACOPY RETURNDATASIZE PUSH1 0x0 REVERT JUMPDEST POP POP POP POP POP PUSH1 0x40 MLOAD RETURNDATASIZE PUSH1 0x1F NOT PUSH1 0x1F DUP3 ADD AND DUP3 ADD DUP1 PUSH1 0x40 MSTORE POP DUP2 ADD SWAP1 PUSH2 0x3CEE SWAP2 SWAP1 PUSH2 0x488C JUMP JUMPDEST POP POP POP POP POP JUMP JUMPDEST PUSH1 0x0 DUP1 PUSH2 0x3D00 PUSH2 0x3001 JUMP JUMPDEST DUP1 MLOAD SWAP1 SWAP2 POP ISZERO PUSH2 0x3D17 JUMPI DUP1 MLOAD PUSH1 0x20 SWAP1 SWAP2 ADD KECCAK256 SWAP2 SWAP1 POP JUMP JUMPDEST PUSH1 0xFB SLOAD DUP1 ISZERO PUSH2 0x3D26 JUMPI SWAP3 SWAP2 POP POP JUMP JUMPDEST PUSH32 0xC5D2460186F7233C927E7DB2DCC703C0E500B653CA82273B7BFAD8045D85A470 SWAP3 POP POP POP SWAP1 JUMP JUMPDEST PUSH1 0x0 DUP1 PUSH2 0x3D59 PUSH2 0x3010 JUMP JUMPDEST DUP1 MLOAD SWAP1 SWAP2 POP ISZERO PUSH2 0x3D70 JUMPI DUP1 MLOAD PUSH1 0x20 SWAP1 SWAP2 ADD KECCAK256 SWAP2 SWAP1 POP JUMP JUMPDEST PUSH1 0xFC SLOAD DUP1 ISZERO PUSH2 0x3D26 JUMPI SWAP3 SWAP2 POP POP JUMP JUMPDEST PUSH2 0x3D88 DUP2 PUSH2 0x3460 JUMP JUMPDEST PUSH1 0x40 MLOAD PUSH1 0x1 PUSH1 0x1 PUSH1 0xA0 SHL SUB DUP3 AND SWAP1 PUSH32 0xBC7CD75A20EE27FD9ADEBAB32041F755214DBC6BFFA90CC0225B39DA2E5C2D3B SWAP1 PUSH1 0x0 SWAP1 LOG2 POP JUMP JUMPDEST PUSH1 0x60 PUSH2 0x3DE4 DUP4 DUP4 PUSH1 0x40 MLOAD DUP1 PUSH1 0x60 ADD PUSH1 0x40 MSTORE DUP1 PUSH1 0x27 DUP2 MSTORE PUSH1 0x20 ADD PUSH2 0x48D7 PUSH1 0x27 SWAP2 CODECOPY PUSH2 0x3DEB JUMP JUMPDEST SWAP4 SWAP3 POP POP POP JUMP JUMPDEST PUSH1 0x60 PUSH1 0x0 DUP1 DUP6 PUSH1 0x1 PUSH1 0x1 PUSH1 0xA0 SHL SUB AND DUP6 PUSH1 0x40 MLOAD PUSH2 0x3E08 SWAP2 SWAP1 PUSH2 0x48BA JUMP JUMPDEST PUSH1 0x0 PUSH1 0x40 MLOAD DUP1 DUP4 SUB DUP2 DUP6 GAS DELEGATECALL SWAP2 POP POP RETURNDATASIZE DUP1 PUSH1 0x0 DUP2 EQ PUSH2 0x3E43 JUMPI PUSH1 0x40 MLOAD SWAP2 POP PUSH1 0x1F NOT PUSH1 0x3F RETURNDATASIZE ADD AND DUP3 ADD PUSH1 0x40 MSTORE RETURNDATASIZE DUP3 MSTORE RETURNDATASIZE PUSH1 0x0 PUSH1 0x20 DUP5 ADD RETURNDATACOPY PUSH2 0x3E48 JUMP JUMPDEST PUSH1 0x60 SWAP2 POP JUMPDEST POP SWAP2 POP SWAP2 POP PUSH2 0x3E59 DUP7 DUP4 DUP4 DUP8 PUSH2 0x3E63 JUMP JUMPDEST SWAP7 SWAP6 POP POP POP POP POP POP JUMP JUMPDEST PUSH1 0x60 DUP4 ISZERO PUSH2 0x3ED2 JUMPI DUP3 MLOAD PUSH1 0x0 SUB PUSH2 0x3ECB JUMPI PUSH1 0x1 PUSH1 0x1 PUSH1 0xA0 SHL SUB DUP6 AND EXTCODESIZE PUSH2 0x3ECB JUMPI PUSH1 0x40 MLOAD PUSH3 0x461BCD PUSH1 0xE5 SHL DUP2 MSTORE PUSH1 0x20 PUSH1 0x4 DUP3 ADD MSTORE PUSH1 0x1D PUSH1 0x24 DUP3 ADD MSTORE PUSH32 0x416464726573733A2063616C6C20746F206E6F6E2D636F6E7472616374000000 PUSH1 0x44 DUP3 ADD MSTORE PUSH1 0x64 ADD PUSH2 0xD38 JUMP JUMPDEST POP DUP2 PUSH2 0x30B2 JUMP JUMPDEST PUSH2 0x30B2 DUP4 DUP4 DUP2 MLOAD ISZERO PUSH2 0x3EE7 JUMPI DUP2 MLOAD DUP1 DUP4 PUSH1 0x20 ADD REVERT JUMPDEST DUP1 PUSH1 0x40 MLOAD PUSH3 0x461BCD PUSH1 0xE5 SHL DUP2 MSTORE PUSH1 0x4 ADD PUSH2 0xD38 SWAP2 SWAP1 PUSH2 0x3F51 JUMP JUMPDEST PUSH1 0x0 JUMPDEST DUP4 DUP2 LT ISZERO PUSH2 0x3F1C JUMPI DUP2 DUP2 ADD MLOAD DUP4 DUP3 ADD MSTORE PUSH1 0x20 ADD PUSH2 0x3F04 JUMP JUMPDEST POP POP PUSH1 0x0 SWAP2 ADD MSTORE JUMP JUMPDEST PUSH1 0x0 DUP2 MLOAD DUP1 DUP5 MSTORE PUSH2 0x3F3D DUP2 PUSH1 0x20 DUP7 ADD PUSH1 0x20 DUP7 ADD PUSH2 0x3F01 JUMP JUMPDEST PUSH1 0x1F ADD PUSH1 0x1F NOT AND SWAP3 SWAP1 SWAP3 ADD PUSH1 0x20 ADD SWAP3 SWAP2 POP POP JUMP JUMPDEST PUSH1 0x20 DUP2 MSTORE PUSH1 0x0 PUSH2 0x3DE4 PUSH1 0x20 DUP4 ADD DUP5 PUSH2 0x3F25 JUMP JUMPDEST PUSH1 0x1 PUSH1 0x1 PUSH1 0xA0 SHL SUB DUP2 AND DUP2 EQ PUSH2 0xE2C JUMPI PUSH1 0x0 DUP1 REVERT JUMPDEST PUSH1 0x0 DUP1 PUSH1 0x40 DUP4 DUP6 SUB SLT ISZERO PUSH2 0x3F8C JUMPI PUSH1 0x0 DUP1 REVERT JUMPDEST DUP3 CALLDATALOAD PUSH2 0x3F97 DUP2 PUSH2 0x3F64 JUMP JUMPDEST SWAP5 PUSH1 0x20 SWAP4 SWAP1 SWAP4 ADD CALLDATALOAD SWAP4 POP POP POP JUMP JUMPDEST PUSH1 0x0 DUP1 PUSH1 0x0 PUSH1 0x60 DUP5 DUP7 SUB SLT ISZERO PUSH2 0x3FBA JUMPI PUSH1 0x0 DUP1 REVERT JUMPDEST DUP4 CALLDATALOAD PUSH2 0x3FC5 DUP2 PUSH2 0x3F64 JUMP JUMPDEST SWAP3 POP PUSH1 0x20 DUP5 ADD CALLDATALOAD PUSH2 0x3FD5 DUP2 PUSH2 0x3F64 JUMP JUMPDEST SWAP2 POP PUSH1 0x40 DUP5 ADD CALLDATALOAD PUSH2 0x3FE5 DUP2 PUSH2 0x3F64 JUMP JUMPDEST DUP1 SWAP2 POP POP SWAP3 POP SWAP3 POP SWAP3 JUMP JUMPDEST PUSH1 0x0 DUP1 PUSH1 0x0 PUSH1 0x60 DUP5 DUP7 SUB SLT ISZERO PUSH2 0x4005 JUMPI PUSH1 0x0 DUP1 REVERT JUMPDEST DUP4 CALLDATALOAD PUSH2 0x4010 DUP2 PUSH2 0x3F64 JUMP JUMPDEST SWAP3 POP PUSH1 0x20 DUP5 ADD CALLDATALOAD PUSH2 0x4020 DUP2 PUSH2 0x3F64 JUMP JUMPDEST SWAP3 SWAP6 SWAP3 SWAP5 POP POP POP PUSH1 0x40 SWAP2 SWAP1 SWAP2 ADD CALLDATALOAD SWAP1 JUMP JUMPDEST PUSH1 0x0 PUSH1 0x20 DUP3 DUP5 SUB SLT ISZERO PUSH2 0x4043 JUMPI PUSH1 0x0 DUP1 REVERT JUMPDEST DUP2 CALLDATALOAD PUSH2 0x3DE4 DUP2 PUSH2 0x3F64 JUMP JUMPDEST PUSH1 0x0 PUSH1 0x20 DUP3 DUP5 SUB SLT ISZERO PUSH2 0x4060 JUMPI PUSH1 0x0 DUP1 REVERT JUMPDEST POP CALLDATALOAD SWAP2 SWAP1 POP JUMP JUMPDEST PUSH1 0x0 DUP1 PUSH1 0x40 DUP4 DUP6 SUB SLT ISZERO PUSH2 0x407A JUMPI PUSH1 0x0 DUP1 REVERT JUMPDEST DUP3 CALLDATALOAD PUSH2 0x4085 DUP2 PUSH2 0x3F64 JUMP JUMPDEST SWAP2 POP PUSH1 0x20 DUP4 ADD CALLDATALOAD PUSH2 0x4095 DUP2 PUSH2 0x3F64 JUMP JUMPDEST DUP1 SWAP2 POP POP SWAP3 POP SWAP3 SWAP1 POP JUMP JUMPDEST PUSH4 0x4E487B71 PUSH1 0xE0 SHL PUSH1 0x0 MSTORE PUSH1 0x41 PUSH1 0x4 MSTORE PUSH1 0x24 PUSH1 0x0 REVERT JUMPDEST PUSH1 0x40 MLOAD PUSH1 0x1F DUP3 ADD PUSH1 0x1F NOT AND DUP2 ADD PUSH8 0xFFFFFFFFFFFFFFFF DUP2 GT DUP3 DUP3 LT OR ISZERO PUSH2 0x40DF JUMPI PUSH2 0x40DF PUSH2 0x40A0 JUMP JUMPDEST PUSH1 0x40 MSTORE SWAP2 SWAP1 POP JUMP JUMPDEST PUSH1 0x0 DUP1 PUSH1 0x40 DUP4 DUP6 SUB SLT ISZERO PUSH2 0x40FA JUMPI PUSH1 0x0 DUP1 REVERT JUMPDEST DUP3 CALLDATALOAD PUSH2 0x4105 DUP2 PUSH2 0x3F64 JUMP JUMPDEST SWAP2 POP PUSH1 0x20 DUP4 DUP2 ADD CALLDATALOAD PUSH8 0xFFFFFFFFFFFFFFFF DUP1 DUP3 GT ISZERO PUSH2 0x4123 JUMPI PUSH1 0x0 DUP1 REVERT JUMPDEST DUP2 DUP7 ADD SWAP2 POP DUP7 PUSH1 0x1F DUP4 ADD SLT PUSH2 0x4137 JUMPI PUSH1 0x0 DUP1 REVERT JUMPDEST DUP2 CALLDATALOAD DUP2 DUP2 GT ISZERO PUSH2 0x4149 JUMPI PUSH2 0x4149 PUSH2 0x40A0 JUMP JUMPDEST PUSH2 0x415B PUSH1 0x1F DUP3 ADD PUSH1 0x1F NOT AND DUP6 ADD PUSH2 0x40B6 JUMP JUMPDEST SWAP2 POP DUP1 DUP3 MSTORE DUP8 DUP5 DUP3 DUP6 ADD ADD GT ISZERO PUSH2 0x4171 JUMPI PUSH1 0x0 DUP1 REVERT JUMPDEST DUP1 DUP5 DUP5 ADD DUP6 DUP5 ADD CALLDATACOPY PUSH1 0x0 DUP5 DUP3 DUP5 ADD ADD MSTORE POP DUP1 SWAP4 POP POP POP POP SWAP3 POP SWAP3 SWAP1 POP JUMP JUMPDEST DUP1 CALLDATALOAD DUP1 ISZERO ISZERO DUP2 EQ PUSH2 0x419F JUMPI PUSH1 0x0 DUP1 REVERT JUMPDEST SWAP2 SWAP1 POP JUMP JUMPDEST PUSH1 0x0 DUP1 PUSH1 0x40 DUP4 DUP6 SUB SLT ISZERO PUSH2 0x41B7 JUMPI PUSH1 0x0 DUP1 REVERT JUMPDEST DUP3 CALLDATALOAD PUSH2 0x41C2 DUP2 PUSH2 0x3F64 JUMP JUMPDEST SWAP2 POP PUSH2 0x41D0 PUSH1 0x20 DUP5 ADD PUSH2 0x418F JUMP JUMPDEST SWAP1 POP SWAP3 POP SWAP3 SWAP1 POP JUMP JUMPDEST PUSH32 0xFF00000000000000000000000000000000000000000000000000000000000000 DUP9 AND DUP2 MSTORE PUSH1 0x0 PUSH1 0x20 PUSH1 0xE0 DUP2 DUP5 ADD MSTORE PUSH2 0x4215 PUSH1 0xE0 DUP5 ADD DUP11 PUSH2 0x3F25 JUMP JUMPDEST DUP4 DUP2 SUB PUSH1 0x40 DUP6 ADD MSTORE PUSH2 0x4227 DUP2 DUP11 PUSH2 0x3F25 JUMP JUMPDEST PUSH1 0x60 DUP6 ADD DUP10 SWAP1 MSTORE PUSH1 0x1 PUSH1 0x1 PUSH1 0xA0 SHL SUB DUP9 AND PUSH1 0x80 DUP7 ADD MSTORE PUSH1 0xA0 DUP6 ADD DUP8 SWAP1 MSTORE DUP5 DUP2 SUB PUSH1 0xC0 DUP7 ADD MSTORE DUP6 MLOAD DUP1 DUP3 MSTORE DUP4 DUP8 ADD SWAP3 POP SWAP1 DUP4 ADD SWAP1 PUSH1 0x0 JUMPDEST DUP2 DUP2 LT ISZERO PUSH2 0x4279 JUMPI DUP4 MLOAD DUP4 MSTORE SWAP3 DUP5 ADD SWAP3 SWAP2 DUP5 ADD SWAP2 PUSH1 0x1 ADD PUSH2 0x425D JUMP JUMPDEST POP SWAP1 SWAP13 SWAP12 POP POP POP POP POP POP POP POP POP POP POP POP JUMP JUMPDEST DUP1 CALLDATALOAD PUSH1 0xFF DUP2 AND DUP2 EQ PUSH2 0x419F JUMPI PUSH1 0x0 DUP1 REVERT JUMPDEST PUSH1 0x0 DUP1 PUSH1 0x0 DUP1 PUSH1 0x80 DUP6 DUP8 SUB SLT ISZERO PUSH2 0x42B2 JUMPI PUSH1 0x0 DUP1 REVERT JUMPDEST PUSH2 0x42BB DUP6 PUSH2 0x428B JUMP JUMPDEST SWAP4 POP PUSH2 0x42C9 PUSH1 0x20 DUP7 ADD PUSH2 0x428B JUMP JUMPDEST SWAP3 POP PUSH2 0x42D7 PUSH1 0x40 DUP7 ADD PUSH2 0x428B JUMP JUMPDEST SWAP2 POP PUSH2 0x42E5 PUSH1 0x60 DUP7 ADD PUSH2 0x428B JUMP JUMPDEST SWAP1 POP SWAP3 SWAP6 SWAP2 SWAP5 POP SWAP3 POP JUMP JUMPDEST PUSH1 0x0 PUSH1 0x20 DUP3 DUP5 SUB SLT ISZERO PUSH2 0x4302 JUMPI PUSH1 0x0 DUP1 REVERT JUMPDEST PUSH2 0x3DE4 DUP3 PUSH2 0x428B JUMP JUMPDEST PUSH1 0x0 PUSH8 0xFFFFFFFFFFFFFFFF DUP3 GT ISZERO PUSH2 0x4325 JUMPI PUSH2 0x4325 PUSH2 0x40A0 JUMP JUMPDEST POP PUSH1 0x5 SHL PUSH1 0x20 ADD SWAP1 JUMP JUMPDEST PUSH1 0x0 DUP3 PUSH1 0x1F DUP4 ADD SLT PUSH2 0x4340 JUMPI PUSH1 0x0 DUP1 REVERT JUMPDEST DUP2 CALLDATALOAD PUSH1 0x20 PUSH2 0x4355 PUSH2 0x4350 DUP4 PUSH2 0x430B JUMP JUMPDEST PUSH2 0x40B6 JUMP JUMPDEST DUP3 DUP2 MSTORE PUSH1 0x5 SWAP3 SWAP1 SWAP3 SHL DUP5 ADD DUP2 ADD SWAP2 DUP2 DUP2 ADD SWAP1 DUP7 DUP5 GT ISZERO PUSH2 0x4374 JUMPI PUSH1 0x0 DUP1 REVERT JUMPDEST DUP3 DUP7 ADD JUMPDEST DUP5 DUP2 LT ISZERO PUSH2 0x438F JUMPI DUP1 CALLDATALOAD DUP4 MSTORE SWAP2 DUP4 ADD SWAP2 DUP4 ADD PUSH2 0x4378 JUMP JUMPDEST POP SWAP7 SWAP6 POP POP POP POP POP POP JUMP JUMPDEST PUSH1 0x0 DUP1 PUSH1 0x40 DUP4 DUP6 SUB SLT ISZERO PUSH2 0x43AD JUMPI PUSH1 0x0 DUP1 REVERT JUMPDEST DUP3 CALLDATALOAD PUSH8 0xFFFFFFFFFFFFFFFF DUP1 DUP3 GT ISZERO PUSH2 0x43C5 JUMPI PUSH1 0x0 DUP1 REVERT JUMPDEST DUP2 DUP6 ADD SWAP2 POP DUP6 PUSH1 0x1F DUP4 ADD SLT PUSH2 0x43D9 JUMPI PUSH1 0x0 DUP1 REVERT JUMPDEST DUP2 CALLDATALOAD PUSH1 0x20 PUSH2 0x43E9 PUSH2 0x4350 DUP4 PUSH2 0x430B JUMP JUMPDEST DUP3 DUP2 MSTORE PUSH1 0x5 SWAP3 SWAP1 SWAP3 SHL DUP5 ADD DUP2 ADD SWAP2 DUP2 DUP2 ADD SWAP1 DUP10 DUP5 GT ISZERO PUSH2 0x4408 JUMPI PUSH1 0x0 DUP1 REVERT JUMPDEST SWAP5 DUP3 ADD SWAP5 JUMPDEST DUP4 DUP7 LT ISZERO PUSH2 0x442F JUMPI DUP6 CALLDATALOAD PUSH2 0x4420 DUP2 PUSH2 0x3F64 JUMP JUMPDEST DUP3 MSTORE SWAP5 DUP3 ADD SWAP5 SWAP1 DUP3 ADD SWAP1 PUSH2 0x440D JUMP JUMPDEST SWAP7 POP POP DUP7 ADD CALLDATALOAD SWAP3 POP POP DUP1 DUP3 GT ISZERO PUSH2 0x4445 JUMPI PUSH1 0x0 DUP1 REVERT JUMPDEST POP PUSH2 0x4452 DUP6 DUP3 DUP7 ADD PUSH2 0x432F JUMP JUMPDEST SWAP2 POP POP SWAP3 POP SWAP3 SWAP1 POP JUMP JUMPDEST PUSH1 0x0 DUP1 PUSH1 0x0 DUP1 PUSH1 0x0 DUP1 PUSH1 0x0 PUSH1 0xE0 DUP9 DUP11 SUB SLT ISZERO PUSH2 0x4477 JUMPI PUSH1 0x0 DUP1 REVERT JUMPDEST DUP8 CALLDATALOAD PUSH2 0x4482 DUP2 PUSH2 0x3F64 JUMP JUMPDEST SWAP7 POP PUSH1 0x20 DUP9 ADD CALLDATALOAD PUSH2 0x4492 DUP2 PUSH2 0x3F64 JUMP JUMPDEST SWAP6 POP PUSH1 0x40 DUP9 ADD CALLDATALOAD SWAP5 POP PUSH1 0x60 DUP9 ADD CALLDATALOAD SWAP4 POP PUSH2 0x44AE PUSH1 0x80 DUP10 ADD PUSH2 0x428B JUMP JUMPDEST SWAP3 POP PUSH1 0xA0 DUP9 ADD CALLDATALOAD SWAP2 POP PUSH1 0xC0 DUP9 ADD CALLDATALOAD SWAP1 POP SWAP3 SWAP6 SWAP9 SWAP2 SWAP5 SWAP8 POP SWAP3 SWAP6 POP JUMP JUMPDEST PUSH1 0x0 PUSH1 0x20 DUP3 DUP5 SUB SLT ISZERO PUSH2 0x44DC JUMPI PUSH1 0x0 DUP1 REVERT JUMPDEST PUSH2 0x3DE4 DUP3 PUSH2 0x418F JUMP JUMPDEST PUSH1 0x1 DUP2 DUP2 SHR SWAP1 DUP3 AND DUP1 PUSH2 0x44F9 JUMPI PUSH1 0x7F DUP3 AND SWAP2 POP JUMPDEST PUSH1 0x20 DUP3 LT DUP2 SUB PUSH2 0x3042 JUMPI PUSH4 0x4E487B71 PUSH1 0xE0 SHL PUSH1 0x0 MSTORE PUSH1 0x22 PUSH1 0x4 MSTORE PUSH1 0x24 PUSH1 0x0 REVERT JUMPDEST PUSH4 0x4E487B71 PUSH1 0xE0 SHL PUSH1 0x0 MSTORE PUSH1 0x11 PUSH1 0x4 MSTORE PUSH1 0x24 PUSH1 0x0 REVERT JUMPDEST DUP1 DUP3 ADD DUP1 DUP3 GT ISZERO PUSH2 0xC1F JUMPI PUSH2 0xC1F PUSH2 0x4519 JUMP JUMPDEST PUSH1 0x1 DUP2 DUP2 JUMPDEST DUP1 DUP6 GT ISZERO PUSH2 0x457D JUMPI DUP2 PUSH1 0x0 NOT DIV DUP3 GT ISZERO PUSH2 0x4563 JUMPI PUSH2 0x4563 PUSH2 0x4519 JUMP JUMPDEST DUP1 DUP6 AND ISZERO PUSH2 0x4570 JUMPI SWAP2 DUP2 MUL SWAP2 JUMPDEST SWAP4 DUP5 SHR SWAP4 SWAP1 DUP1 MUL SWAP1 PUSH2 0x4547 JUMP JUMPDEST POP SWAP3 POP SWAP3 SWAP1 POP JUMP JUMPDEST PUSH1 0x0 DUP3 PUSH2 0x4594 JUMPI POP PUSH1 0x1 PUSH2 0xC1F JUMP JUMPDEST DUP2 PUSH2 0x45A1 JUMPI POP PUSH1 0x0 PUSH2 0xC1F JUMP JUMPDEST DUP2 PUSH1 0x1 DUP2 EQ PUSH2 0x45B7 JUMPI PUSH1 0x2 DUP2 EQ PUSH2 0x45C1 JUMPI PUSH2 0x45DD JUMP JUMPDEST PUSH1 0x1 SWAP2 POP POP PUSH2 0xC1F JUMP JUMPDEST PUSH1 0xFF DUP5 GT ISZERO PUSH2 0x45D2 JUMPI PUSH2 0x45D2 PUSH2 0x4519 JUMP JUMPDEST POP POP PUSH1 0x1 DUP3 SHL PUSH2 0xC1F JUMP JUMPDEST POP PUSH1 0x20 DUP4 LT PUSH2 0x133 DUP4 LT AND PUSH1 0x4E DUP5 LT PUSH1 0xB DUP5 LT AND OR ISZERO PUSH2 0x4600 JUMPI POP DUP2 DUP2 EXP PUSH2 0xC1F JUMP JUMPDEST PUSH2 0x460A DUP4 DUP4 PUSH2 0x4542 JUMP JUMPDEST DUP1 PUSH1 0x0 NOT DIV DUP3 GT ISZERO PUSH2 0x461E JUMPI PUSH2 0x461E PUSH2 0x4519 JUMP JUMPDEST MUL SWAP4 SWAP3 POP POP POP JUMP JUMPDEST PUSH1 0x0 PUSH2 0x3DE4 PUSH1 0xFF DUP5 AND DUP4 PUSH2 0x4585 JUMP JUMPDEST DUP1 DUP3 MUL DUP2 ISZERO DUP3 DUP3 DIV DUP5 EQ OR PUSH2 0xC1F JUMPI PUSH2 0xC1F PUSH2 0x4519 JUMP JUMPDEST PUSH1 0xFF DUP2 DUP2 AND DUP4 DUP3 AND ADD SWAP1 DUP2 GT ISZERO PUSH2 0xC1F JUMPI PUSH2 0xC1F PUSH2 0x4519 JUMP JUMPDEST PUSH4 0x4E487B71 PUSH1 0xE0 SHL PUSH1 0x0 MSTORE PUSH1 0x32 PUSH1 0x4 MSTORE PUSH1 0x24 PUSH1 0x0 REVERT JUMPDEST PUSH1 0x0 PUSH1 0x1 DUP3 ADD PUSH2 0x468D JUMPI PUSH2 0x468D PUSH2 0x4519 JUMP JUMPDEST POP PUSH1 0x1 ADD SWAP1 JUMP JUMPDEST DUP2 DUP2 SUB DUP2 DUP2 GT ISZERO PUSH2 0xC1F JUMPI PUSH2 0xC1F PUSH2 0x4519 JUMP JUMPDEST PUSH1 0x0 DUP3 PUSH2 0x46C4 JUMPI PUSH4 0x4E487B71 PUSH1 0xE0 SHL PUSH1 0x0 MSTORE PUSH1 0x12 PUSH1 0x4 MSTORE PUSH1 0x24 PUSH1 0x0 REVERT JUMPDEST POP DIV SWAP1 JUMP JUMPDEST PUSH1 0x0 PUSH1 0x20 DUP3 DUP5 SUB SLT ISZERO PUSH2 0x46DB JUMPI PUSH1 0x0 DUP1 REVERT JUMPDEST POP MLOAD SWAP2 SWAP1 POP JUMP JUMPDEST PUSH1 0x1F DUP3 GT ISZERO PUSH2 0x11C4 JUMPI PUSH1 0x0 DUP2 DUP2 MSTORE PUSH1 0x20 DUP2 KECCAK256 PUSH1 0x1F DUP6 ADD PUSH1 0x5 SHR DUP2 ADD PUSH1 0x20 DUP7 LT ISZERO PUSH2 0x4709 JUMPI POP DUP1 JUMPDEST PUSH1 0x1F DUP6 ADD PUSH1 0x5 SHR DUP3 ADD SWAP2 POP JUMPDEST DUP2 DUP2 LT ISZERO PUSH2 0x3C16 JUMPI DUP3 DUP2 SSTORE PUSH1 0x1 ADD PUSH2 0x4715 JUMP JUMPDEST DUP2 MLOAD PUSH8 0xFFFFFFFFFFFFFFFF DUP2 GT ISZERO PUSH2 0x4742 JUMPI PUSH2 0x4742 PUSH2 0x40A0 JUMP JUMPDEST PUSH2 0x4756 DUP2 PUSH2 0x4750 DUP5 SLOAD PUSH2 0x44E5 JUMP JUMPDEST DUP5 PUSH2 0x46E2 JUMP JUMPDEST PUSH1 0x20 DUP1 PUSH1 0x1F DUP4 GT PUSH1 0x1 DUP2 EQ PUSH2 0x478B JUMPI PUSH1 0x0 DUP5 ISZERO PUSH2 0x4773 JUMPI POP DUP6 DUP4 ADD MLOAD JUMPDEST PUSH1 0x0 NOT PUSH1 0x3 DUP7 SWAP1 SHL SHR NOT AND PUSH1 0x1 DUP6 SWAP1 SHL OR DUP6 SSTORE PUSH2 0x3C16 JUMP JUMPDEST PUSH1 0x0 DUP6 DUP2 MSTORE PUSH1 0x20 DUP2 KECCAK256 PUSH1 0x1F NOT DUP7 AND SWAP2 JUMPDEST DUP3 DUP2 LT ISZERO PUSH2 0x47BA JUMPI DUP9 DUP7 ADD MLOAD DUP3 SSTORE SWAP5 DUP5 ADD SWAP5 PUSH1 0x1 SWAP1 SWAP2 ADD SWAP1 DUP5 ADD PUSH2 0x479B JUMP JUMPDEST POP DUP6 DUP3 LT ISZERO PUSH2 0x47D8 JUMPI DUP8 DUP6 ADD MLOAD PUSH1 0x0 NOT PUSH1 0x3 DUP9 SWAP1 SHL PUSH1 0xF8 AND SHR NOT AND DUP2 SSTORE JUMPDEST POP POP POP POP POP PUSH1 0x1 SWAP1 DUP2 SHL ADD SWAP1 SSTORE POP JUMP JUMPDEST PUSH4 0x4E487B71 PUSH1 0xE0 SHL PUSH1 0x0 MSTORE PUSH1 0x21 PUSH1 0x4 MSTORE PUSH1 0x24 PUSH1 0x0 REVERT JUMPDEST PUSH1 0x0 PUSH1 0x20 DUP3 DUP5 SUB SLT ISZERO PUSH2 0x4810 JUMPI PUSH1 0x0 DUP1 REVERT JUMPDEST DUP2 MLOAD PUSH2 0x3DE4 DUP2 PUSH2 0x3F64 JUMP JUMPDEST PUSH1 0x0 PUSH1 0xA0 DUP3 ADD DUP8 DUP4 MSTORE PUSH1 0x20 DUP8 DUP2 DUP6 ADD MSTORE PUSH1 0xA0 PUSH1 0x40 DUP6 ADD MSTORE DUP2 DUP8 MLOAD DUP1 DUP5 MSTORE PUSH1 0xC0 DUP7 ADD SWAP2 POP DUP3 DUP10 ADD SWAP4 POP PUSH1 0x0 JUMPDEST DUP2 DUP2 LT ISZERO PUSH2 0x486B JUMPI DUP5 MLOAD PUSH1 0x1 PUSH1 0x1 PUSH1 0xA0 SHL SUB AND DUP4 MSTORE SWAP4 DUP4 ADD SWAP4 SWAP2 DUP4 ADD SWAP2 PUSH1 0x1 ADD PUSH2 0x4846 JUMP JUMPDEST POP POP PUSH1 0x1 PUSH1 0x1 PUSH1 0xA0 SHL SUB SWAP7 SWAP1 SWAP7 AND PUSH1 0x60 DUP6 ADD MSTORE POP POP POP PUSH1 0x80 ADD MSTORE SWAP4 SWAP3 POP POP POP JUMP JUMPDEST PUSH1 0x0 DUP1 PUSH1 0x0 PUSH1 0x60 DUP5 DUP7 SUB SLT ISZERO PUSH2 0x48A1 JUMPI PUSH1 0x0 DUP1 REVERT JUMPDEST DUP4 MLOAD SWAP3 POP PUSH1 0x20 DUP5 ADD MLOAD SWAP2 POP PUSH1 0x40 DUP5 ADD MLOAD SWAP1 POP SWAP3 POP SWAP3 POP SWAP3 JUMP JUMPDEST PUSH1 0x0 DUP3 MLOAD PUSH2 0x48CC DUP2 DUP5 PUSH1 0x20 DUP8 ADD PUSH2 0x3F01 JUMP JUMPDEST SWAP2 SWAP1 SWAP2 ADD SWAP3 SWAP2 POP POP JUMP INVALID COINBASE PUSH5 0x6472657373 GASPRICE KECCAK256 PUSH13 0x6F772D6C6576656C2064656C65 PUSH8 0x6174652063616C6C KECCAK256 PUSH7 0x61696C6564A264 PUSH10 0x706673582212200EC488 PUSH9 0x80DFA7237E4F9E0AEB SLT SGT POP PUSH18 0x92804F8152E042FE32E0F10FAD28EA64736F PUSH13 0x63430008120033000000000000 "},"methodIdentifiers":{"DOMAIN_SEPARATOR()":"3644e515","airdropTokens()":"91152c5c","allowance(address,address)":"dd62ed3e","approve(address,uint256)":"095ea7b3","balanceOf(address)":"70a08231","bulkAirdrop(address[],uint256[])":"cf9891fb","bulkSetAddresses(address,address,address)":"113c38d8","bulkSetFees(uint8,uint8,uint8,uint8)":"8da0f2b6","burn(uint256)":"42966c68","burnFrom(address,uint256)":"79cc6790","decimals()":"313ce567","decreaseAllowance(address,uint256)":"a457c2d7","depositAirdropTokens(uint256)":"67e2b005","devFeePercent()":"3f64a7ab","devFeeRecipient()":"cbeb5f3d","eip712Domain()":"84b0196e","getIsBlacklisted(address)":"71344e69","getIsExcludedFee(address)":"a18648b1","getIsWalletLimitUnlimited(address)":"e895df8f","increaseAllowance(address,uint256)":"39509351","initialize(address,address)":"485cc955","isWalletsLimitEnabled()":"ff0d4012","liquidityFeePercent()":"6e2310b2","marketingFeePercent()":"da6fa55c","marketingFeeRecipient()":"b17b6d4a","maxFees()":"e83e34b1","name()":"06fdde03","nonces(address)":"7ecebe00","owner()":"8da5cb5b","ownerFeePercent()":"6998de35","ownerFeeRecipient()":"012a7388","pairAddress(address)":"adc5a972","pause()":"8456cb59","paused()":"5c975abb","permit(address,address,uint256,uint256,uint8,bytes32,bytes32)":"d505accf","proxiableUUID()":"52d1902d","renounceOwnership()":"715018a6","setIsBlacklisted(address,bool)":"a0e38492","setIsExcludedFee(address,bool)":"731c5fe7","setIsWalletLimitUnlimited(address,bool)":"ef9fe90a","setIsWalletsLimitEnabled(bool)":"de8c35ac","setPairAddress(address,bool)":"c3803660","setTxTrigger(uint256)":"b6a8f24b","setWalletsLimit(uint8)":"937cacf4","symbol()":"95d89b41","totalDevAmount()":"c6d20c16","totalLiquidity()":"15770f92","totalMarketingAmount()":"d82b0fab","totalOwnerAmount()":"77e7a16e","totalSupply()":"18160ddd","transfer(address,uint256)":"a9059cbb","transferFrom(address,address,uint256)":"23b872dd","transferOwnership(address)":"f2fde38b","txTrigger()":"ff37f5ca","unpause()":"3f4ba83a","upgradeTo(address)":"3659cfe6","upgradeToAndCall(address,bytes)":"4f1ef286","walletsLimit()":"a63e04c1","withdrawToken(uint256)":"50baa622"}},"storageLayout":{"storage":[{"astId":528,"contract":"contracts/TokenName.sol:TokenName","label":"_initialized","offset":0,"slot":"0","type":"t_uint8"},{"astId":531,"contract":"contracts/TokenName.sol:TokenName","label":"_initializing","offset":1,"slot":"0","type":"t_bool"},{"astId":2417,"contract":"contracts/TokenName.sol:TokenName","label":"__gap","offset":0,"slot":"1","type":"t_array(t_uint256)50_storage"},{"astId":1056,"contract":"contracts/TokenName.sol:TokenName","label":"_balances","offset":0,"slot":"51","type":"t_mapping(t_address,t_uint256)"},{"astId":1062,"contract":"contracts/TokenName.sol:TokenName","label":"_allowances","offset":0,"slot":"52","type":"t_mapping(t_address,t_mapping(t_address,t_uint256))"},{"astId":1064,"contract":"contracts/TokenName.sol:TokenName","label":"_totalSupply","offset":0,"slot":"53","type":"t_uint256"},{"astId":1066,"contract":"contracts/TokenName.sol:TokenName","label":"_name","offset":0,"slot":"54","type":"t_string_storage"},{"astId":1068,"contract":"contracts/TokenName.sol:TokenName","label":"_symbol","offset":0,"slot":"55","type":"t_string_storage"},{"astId":1648,"contract":"contracts/TokenName.sol:TokenName","label":"__gap","offset":0,"slot":"56","type":"t_array(t_uint256)45_storage"},{"astId":1790,"contract":"contracts/TokenName.sol:TokenName","label":"__gap","offset":0,"slot":"101","type":"t_array(t_uint256)50_storage"},{"astId":847,"contract":"contracts/TokenName.sol:TokenName","label":"_paused","offset":0,"slot":"151","type":"t_bool"},{"astId":952,"contract":"contracts/TokenName.sol:TokenName","label":"__gap","offset":0,"slot":"152","type":"t_array(t_uint256)49_storage"},{"astId":10,"contract":"contracts/TokenName.sol:TokenName","label":"_owner","offset":0,"slot":"201","type":"t_address"},{"astId":130,"contract":"contracts/TokenName.sol:TokenName","label":"__gap","offset":0,"slot":"202","type":"t_array(t_uint256)49_storage"},{"astId":3215,"contract":"contracts/TokenName.sol:TokenName","label":"_hashedName","offset":0,"slot":"251","type":"t_bytes32"},{"astId":3218,"contract":"contracts/TokenName.sol:TokenName","label":"_hashedVersion","offset":0,"slot":"252","type":"t_bytes32"},{"astId":3220,"contract":"contracts/TokenName.sol:TokenName","label":"_name","offset":0,"slot":"253","type":"t_string_storage"},{"astId":3222,"contract":"contracts/TokenName.sol:TokenName","label":"_version","offset":0,"slot":"254","type":"t_string_storage"},{"astId":3480,"contract":"contracts/TokenName.sol:TokenName","label":"__gap","offset":0,"slot":"255","type":"t_array(t_uint256)48_storage"},{"astId":1817,"contract":"contracts/TokenName.sol:TokenName","label":"_nonces","offset":0,"slot":"303","type":"t_mapping(t_address,t_struct(Counter)2424_storage)"},{"astId":1825,"contract":"contracts/TokenName.sol:TokenName","label":"_PERMIT_TYPEHASH_DEPRECATED_SLOT","offset":0,"slot":"304","type":"t_bytes32"},{"astId":1981,"contract":"contracts/TokenName.sol:TokenName","label":"__gap","offset":0,"slot":"305","type":"t_array(t_uint256)49_storage"},{"astId":510,"contract":"contracts/TokenName.sol:TokenName","label":"__gap","offset":0,"slot":"354","type":"t_array(t_uint256)50_storage"},{"astId":825,"contract":"contracts/TokenName.sol:TokenName","label":"__gap","offset":0,"slot":"404","type":"t_array(t_uint256)50_storage"},{"astId":967,"contract":"contracts/TokenName.sol:TokenName","label":"_status","offset":0,"slot":"454","type":"t_uint256"},{"astId":1036,"contract":"contracts/TokenName.sol:TokenName","label":"__gap","offset":0,"slot":"455","type":"t_array(t_uint256)49_storage"},{"astId":5040,"contract":"contracts/TokenName.sol:TokenName","label":"ownerFeeRecipient","offset":0,"slot":"504","type":"t_address_payable"},{"astId":5042,"contract":"contracts/TokenName.sol:TokenName","label":"marketingFeeRecipient","offset":0,"slot":"505","type":"t_address_payable"},{"astId":5044,"contract":"contracts/TokenName.sol:TokenName","label":"devFeeRecipient","offset":0,"slot":"506","type":"t_address_payable"},{"astId":5046,"contract":"contracts/TokenName.sol:TokenName","label":"ownerFeePercent","offset":20,"slot":"506","type":"t_uint8"},{"astId":5048,"contract":"contracts/TokenName.sol:TokenName","label":"marketingFeePercent","offset":21,"slot":"506","type":"t_uint8"},{"astId":5050,"contract":"contracts/TokenName.sol:TokenName","label":"devFeePercent","offset":22,"slot":"506","type":"t_uint8"},{"astId":5052,"contract":"contracts/TokenName.sol:TokenName","label":"liquidityFeePercent","offset":23,"slot":"506","type":"t_uint8"},{"astId":5057,"contract":"contracts/TokenName.sol:TokenName","label":"totalOwnerAmount","offset":0,"slot":"507","type":"t_uint256"},{"astId":5059,"contract":"contracts/TokenName.sol:TokenName","label":"totalMarketingAmount","offset":0,"slot":"508","type":"t_uint256"},{"astId":5061,"contract":"contracts/TokenName.sol:TokenName","label":"totalDevAmount","offset":0,"slot":"509","type":"t_uint256"},{"astId":5063,"contract":"contracts/TokenName.sol:TokenName","label":"totalLiquidity","offset":0,"slot":"510","type":"t_uint256"},{"astId":5065,"contract":"contracts/TokenName.sol:TokenName","label":"airdropTokens","offset":0,"slot":"511","type":"t_uint256"},{"astId":5069,"contract":"contracts/TokenName.sol:TokenName","label":"isExcludedFee","offset":0,"slot":"512","type":"t_mapping(t_address,t_bool)"},{"astId":5073,"contract":"contracts/TokenName.sol:TokenName","label":"isBlacklisted","offset":0,"slot":"513","type":"t_mapping(t_address,t_bool)"},{"astId":5077,"contract":"contracts/TokenName.sol:TokenName","label":"isWalletLimitUnlimited","offset":0,"slot":"514","type":"t_mapping(t_address,t_bool)"},{"astId":5079,"contract":"contracts/TokenName.sol:TokenName","label":"walletsLimit","offset":0,"slot":"515","type":"t_uint8"},{"astId":5081,"contract":"contracts/TokenName.sol:TokenName","label":"isWalletsLimitEnabled","offset":1,"slot":"515","type":"t_bool"},{"astId":5084,"contract":"contracts/TokenName.sol:TokenName","label":"uniswapV2Router","offset":2,"slot":"515","type":"t_contract(IUniswapV2Router02)4911"},{"astId":5088,"contract":"contracts/TokenName.sol:TokenName","label":"pairAddress","offset":0,"slot":"516","type":"t_mapping(t_address,t_bool)"},{"astId":5090,"contract":"contracts/TokenName.sol:TokenName","label":"txCounter","offset":0,"slot":"517","type":"t_uint256"},{"astId":5092,"contract":"contracts/TokenName.sol:TokenName","label":"txTrigger","offset":0,"slot":"518","type":"t_uint256"}],"types":{"t_address":{"encoding":"inplace","label":"address","numberOfBytes":"20"},"t_address_payable":{"encoding":"inplace","label":"address payable","numberOfBytes":"20"},"t_array(t_uint256)45_storage":{"base":"t_uint256","encoding":"inplace","label":"uint256[45]","numberOfBytes":"1440"},"t_array(t_uint256)48_storage":{"base":"t_uint256","encoding":"inplace","label":"uint256[48]","numberOfBytes":"1536"},"t_array(t_uint256)49_storage":{"base":"t_uint256","encoding":"inplace","label":"uint256[49]","numberOfBytes":"1568"},"t_array(t_uint256)50_storage":{"base":"t_uint256","encoding":"inplace","label":"uint256[50]","numberOfBytes":"1600"},"t_bool":{"encoding":"inplace","label":"bool","numberOfBytes":"1"},"t_bytes32":{"encoding":"inplace","label":"bytes32","numberOfBytes":"32"},"t_contract(IUniswapV2Router02)4911":{"encoding":"inplace","label":"contract IUniswapV2Router02","numberOfBytes":"20"},"t_mapping(t_address,t_bool)":{"encoding":"mapping","key":"t_address","label":"mapping(address => bool)","numberOfBytes":"32","value":"t_bool"},"t_mapping(t_address,t_mapping(t_address,t_uint256))":{"encoding":"mapping","key":"t_address","label":"mapping(address => mapping(address => uint256))","numberOfBytes":"32","value":"t_mapping(t_address,t_uint256)"},"t_mapping(t_address,t_struct(Counter)2424_storage)":{"encoding":"mapping","key":"t_address","label":"mapping(address => struct CountersUpgradeable.Counter)","numberOfBytes":"32","value":"t_struct(Counter)2424_storage"},"t_mapping(t_address,t_uint256)":{"encoding":"mapping","key":"t_address","label":"mapping(address => uint256)","numberOfBytes":"32","value":"t_uint256"},"t_string_storage":{"encoding":"bytes","label":"string","numberOfBytes":"32"},"t_struct(Counter)2424_storage":{"encoding":"inplace","label":"struct CountersUpgradeable.Counter","members":[{"astId":2423,"contract":"contracts/TokenName.sol:TokenName","label":"_value","offset":0,"slot":"0","type":"t_uint256"}],"numberOfBytes":"32"},"t_uint256":{"encoding":"inplace","label":"uint256","numberOfBytes":"32"},"t_uint8":{"encoding":"inplace","label":"uint8","numberOfBytes":"1"}}}}}}