{"contracts/TokenNameTwo.sol":{"TokenNameTwo":{"abi":[{"inputs":[{"internalType":"address","name":"router_","type":"address"}],"stateMutability":"nonpayable","type":"constructor"},{"inputs":[{"internalType":"address","name":"_pairAddress","type":"address"},{"internalType":"bool","name":"isPairAddress","type":"bool"}],"name":"AlreadyAPairAddress","type":"error"},{"inputs":[{"internalType":"address","name":"account","type":"address"},{"internalType":"bool","name":"excluded","type":"bool"}],"name":"AlreadyBlacklisted","type":"error"},{"inputs":[{"internalType":"address","name":"account","type":"address"},{"internalType":"bool","name":"excluded","type":"bool"}],"name":"AlreadyExcludedFee","type":"error"},{"inputs":[],"name":"BlacklistedAddress","type":"error"},{"inputs":[],"name":"ExceedsArrayLimit","type":"error"},{"inputs":[],"name":"ExceedsFeesLimit","type":"error"},{"inputs":[],"name":"ExceedsWalletLimit","type":"error"},{"inputs":[],"name":"InsufficientAirdropTokens","type":"error"},{"inputs":[],"name":"InvalidArrayLength","type":"error"},{"anonymous":false,"inputs":[{"indexed":true,"internalType":"address","name":"owner","type":"address"},{"indexed":true,"internalType":"address","name":"spender","type":"address"},{"indexed":false,"internalType":"uint256","name":"value","type":"uint256"}],"name":"Approval","type":"event"},{"anonymous":false,"inputs":[{"indexed":false,"internalType":"address","name":"account","type":"address"},{"indexed":false,"internalType":"bool","name":"blacklisted","type":"bool"}],"name":"Blacklisted","type":"event"},{"anonymous":false,"inputs":[{"indexed":false,"internalType":"address","name":"account","type":"address"},{"indexed":false,"internalType":"bool","name":"excluded","type":"bool"}],"name":"ExcludeFee","type":"event"},{"anonymous":false,"inputs":[{"indexed":false,"internalType":"address","name":"_pairAddress","type":"address"},{"indexed":false,"internalType":"bool","name":"isPairAddress","type":"bool"}],"name":"PairAddressCreated","type":"event"},{"anonymous":false,"inputs":[{"indexed":false,"internalType":"address","name":"account","type":"address"}],"name":"Paused","type":"event"},{"anonymous":false,"inputs":[{"indexed":true,"internalType":"bytes32","name":"role","type":"bytes32"},{"indexed":true,"internalType":"bytes32","name":"previousAdminRole","type":"bytes32"},{"indexed":true,"internalType":"bytes32","name":"newAdminRole","type":"bytes32"}],"name":"RoleAdminChanged","type":"event"},{"anonymous":false,"inputs":[{"indexed":true,"internalType":"bytes32","name":"role","type":"bytes32"},{"indexed":true,"internalType":"address","name":"account","type":"address"},{"indexed":true,"internalType":"address","name":"sender","type":"address"}],"name":"RoleGranted","type":"event"},{"anonymous":false,"inputs":[{"indexed":true,"internalType":"bytes32","name":"role","type":"bytes32"},{"indexed":true,"internalType":"address","name":"account","type":"address"},{"indexed":true,"internalType":"address","name":"sender","type":"address"}],"name":"RoleRevoked","type":"event"},{"anonymous":false,"inputs":[{"indexed":true,"internalType":"address","name":"from","type":"address"},{"indexed":true,"internalType":"address","name":"to","type":"address"},{"indexed":false,"internalType":"uint256","name":"value","type":"uint256"}],"name":"Transfer","type":"event"},{"anonymous":false,"inputs":[{"indexed":false,"internalType":"address","name":"account","type":"address"}],"name":"Unpaused","type":"event"},{"inputs":[],"name":"DEFAULT_ADMIN_ROLE","outputs":[{"internalType":"bytes32","name":"","type":"bytes32"}],"stateMutability":"view","type":"function"},{"inputs":[],"name":"PAUSER_ROLE","outputs":[{"internalType":"bytes32","name":"","type":"bytes32"}],"stateMutability":"view","type":"function"},{"inputs":[],"name":"UPGRADER_ROLE","outputs":[{"internalType":"bytes32","name":"","type":"bytes32"}],"stateMutability":"view","type":"function"},{"inputs":[{"internalType":"address","name":"recipient","type":"address"},{"internalType":"uint256","name":"amount","type":"uint256"}],"name":"airdrop","outputs":[],"stateMutability":"nonpayable","type":"function"},{"inputs":[],"name":"airdropTokens","outputs":[{"internalType":"uint256","name":"","type":"uint256"}],"stateMutability":"view","type":"function"},{"inputs":[{"internalType":"address","name":"owner","type":"address"},{"internalType":"address","name":"spender","type":"address"}],"name":"allowance","outputs":[{"internalType":"uint256","name":"","type":"uint256"}],"stateMutability":"view","type":"function"},{"inputs":[{"internalType":"address","name":"spender","type":"address"},{"internalType":"uint256","name":"amount","type":"uint256"}],"name":"approve","outputs":[{"internalType":"bool","name":"","type":"bool"}],"stateMutability":"nonpayable","type":"function"},{"inputs":[{"internalType":"address","name":"account","type":"address"}],"name":"balanceOf","outputs":[{"internalType":"uint256","name":"","type":"uint256"}],"stateMutability":"view","type":"function"},{"inputs":[{"internalType":"address[]","name":"_recipients","type":"address[]"},{"internalType":"uint256[]","name":"_values","type":"uint256[]"}],"name":"bulkAirdrop","outputs":[],"stateMutability":"nonpayable","type":"function"},{"inputs":[{"internalType":"address payable","name":"_ownerFeeRecipient","type":"address"},{"internalType":"address payable","name":"_marketingFeeRecipient","type":"address"},{"internalType":"address payable","name":"_devFeeRecipient","type":"address"}],"name":"bulkSetAddresses","outputs":[],"stateMutability":"nonpayable","type":"function"},{"inputs":[{"internalType":"uint256","name":"_ownerFeePercent","type":"uint256"},{"internalType":"uint256","name":"_marketingFeePercent","type":"uint256"},{"internalType":"uint256","name":"_devFeePercent","type":"uint256"},{"internalType":"uint256","name":"_liquidityFeePercent","type":"uint256"}],"name":"bulkSetFees","outputs":[],"stateMutability":"nonpayable","type":"function"},{"inputs":[{"internalType":"uint256","name":"amount","type":"uint256"}],"name":"burn","outputs":[],"stateMutability":"nonpayable","type":"function"},{"inputs":[{"internalType":"address","name":"account","type":"address"},{"internalType":"uint256","name":"amount","type":"uint256"}],"name":"burnFrom","outputs":[],"stateMutability":"nonpayable","type":"function"},{"inputs":[],"name":"decimals","outputs":[{"internalType":"uint8","name":"","type":"uint8"}],"stateMutability":"view","type":"function"},{"inputs":[{"internalType":"address","name":"spender","type":"address"},{"internalType":"uint256","name":"subtractedValue","type":"uint256"}],"name":"decreaseAllowance","outputs":[{"internalType":"bool","name":"","type":"bool"}],"stateMutability":"nonpayable","type":"function"},{"inputs":[{"internalType":"uint256","name":"amount","type":"uint256"}],"name":"depositAirdropTokens","outputs":[],"stateMutability":"nonpayable","type":"function"},{"inputs":[],"name":"devFeePercent","outputs":[{"internalType":"uint256","name":"","type":"uint256"}],"stateMutability":"view","type":"function"},{"inputs":[],"name":"devFeeRecipient","outputs":[{"internalType":"address payable","name":"","type":"address"}],"stateMutability":"view","type":"function"},{"inputs":[{"internalType":"address","name":"account","type":"address"}],"name":"getIsBlacklisted","outputs":[{"internalType":"bool","name":"","type":"bool"}],"stateMutability":"view","type":"function"},{"inputs":[{"internalType":"address","name":"account","type":"address"}],"name":"getIsExcludedFee","outputs":[{"internalType":"bool","name":"","type":"bool"}],"stateMutability":"view","type":"function"},{"inputs":[{"internalType":"bytes32","name":"role","type":"bytes32"}],"name":"getRoleAdmin","outputs":[{"internalType":"bytes32","name":"","type":"bytes32"}],"stateMutability":"view","type":"function"},{"inputs":[{"internalType":"bytes32","name":"role","type":"bytes32"},{"internalType":"address","name":"account","type":"address"}],"name":"grantRole","outputs":[],"stateMutability":"nonpayable","type":"function"},{"inputs":[{"internalType":"bytes32","name":"role","type":"bytes32"},{"internalType":"address","name":"account","type":"address"}],"name":"hasRole","outputs":[{"internalType":"bool","name":"","type":"bool"}],"stateMutability":"view","type":"function"},{"inputs":[{"internalType":"address","name":"spender","type":"address"},{"internalType":"uint256","name":"addedValue","type":"uint256"}],"name":"increaseAllowance","outputs":[{"internalType":"bool","name":"","type":"bool"}],"stateMutability":"nonpayable","type":"function"},{"inputs":[],"name":"liquidityFeePercent","outputs":[{"internalType":"uint256","name":"","type":"uint256"}],"stateMutability":"view","type":"function"},{"inputs":[],"name":"marketingFeePercent","outputs":[{"internalType":"uint256","name":"","type":"uint256"}],"stateMutability":"view","type":"function"},{"inputs":[],"name":"marketingFeeRecipient","outputs":[{"internalType":"address payable","name":"","type":"address"}],"stateMutability":"view","type":"function"},{"inputs":[],"name":"name","outputs":[{"internalType":"string","name":"","type":"string"}],"stateMutability":"view","type":"function"},{"inputs":[],"name":"ownerFeePercent","outputs":[{"internalType":"uint256","name":"","type":"uint256"}],"stateMutability":"view","type":"function"},{"inputs":[],"name":"ownerFeeRecipient","outputs":[{"internalType":"address payable","name":"","type":"address"}],"stateMutability":"view","type":"function"},{"inputs":[],"name":"pairAddr","outputs":[{"internalType":"address","name":"","type":"address"}],"stateMutability":"view","type":"function"},{"inputs":[{"internalType":"address","name":"","type":"address"}],"name":"pairAddress","outputs":[{"internalType":"bool","name":"","type":"bool"}],"stateMutability":"view","type":"function"},{"inputs":[],"name":"pause","outputs":[],"stateMutability":"nonpayable","type":"function"},{"inputs":[],"name":"paused","outputs":[{"internalType":"bool","name":"","type":"bool"}],"stateMutability":"view","type":"function"},{"inputs":[{"internalType":"bytes32","name":"role","type":"bytes32"},{"internalType":"address","name":"account","type":"address"}],"name":"renounceRole","outputs":[],"stateMutability":"nonpayable","type":"function"},{"inputs":[{"internalType":"bytes32","name":"role","type":"bytes32"},{"internalType":"address","name":"account","type":"address"}],"name":"revokeRole","outputs":[],"stateMutability":"nonpayable","type":"function"},{"inputs":[{"internalType":"address","name":"account","type":"address"},{"internalType":"bool","name":"excluded","type":"bool"}],"name":"setIsBlacklisted","outputs":[],"stateMutability":"nonpayable","type":"function"},{"inputs":[{"internalType":"address","name":"account","type":"address"},{"internalType":"bool","name":"excluded","type":"bool"}],"name":"setIsExcludedFee","outputs":[],"stateMutability":"nonpayable","type":"function"},{"inputs":[{"internalType":"address","name":"_pairAddress","type":"address"},{"internalType":"bool","name":"isPairAddress","type":"bool"}],"name":"setPairAddress","outputs":[],"stateMutability":"nonpayable","type":"function"},{"inputs":[{"internalType":"bytes4","name":"interfaceId","type":"bytes4"}],"name":"supportsInterface","outputs":[{"internalType":"bool","name":"","type":"bool"}],"stateMutability":"view","type":"function"},{"inputs":[],"name":"symbol","outputs":[{"internalType":"string","name":"","type":"string"}],"stateMutability":"view","type":"function"},{"inputs":[],"name":"totalDevAmount","outputs":[{"internalType":"uint256","name":"","type":"uint256"}],"stateMutability":"view","type":"function"},{"inputs":[],"name":"totalLiquidity","outputs":[{"internalType":"uint256","name":"","type":"uint256"}],"stateMutability":"view","type":"function"},{"inputs":[],"name":"totalMarketingAmount","outputs":[{"internalType":"uint256","name":"","type":"uint256"}],"stateMutability":"view","type":"function"},{"inputs":[],"name":"totalOwnerAmount","outputs":[{"internalType":"uint256","name":"","type":"uint256"}],"stateMutability":"view","type":"function"},{"inputs":[],"name":"totalSupply","outputs":[{"internalType":"uint256","name":"","type":"uint256"}],"stateMutability":"view","type":"function"},{"inputs":[{"internalType":"address","name":"to","type":"address"},{"internalType":"uint256","name":"amount","type":"uint256"}],"name":"transfer","outputs":[{"internalType":"bool","name":"","type":"bool"}],"stateMutability":"nonpayable","type":"function"},{"inputs":[{"internalType":"address","name":"from","type":"address"},{"internalType":"address","name":"to","type":"address"},{"internalType":"uint256","name":"amount","type":"uint256"}],"name":"transferFrom","outputs":[{"internalType":"bool","name":"","type":"bool"}],"stateMutability":"nonpayable","type":"function"},{"inputs":[],"name":"unpause","outputs":[],"stateMutability":"nonpayable","type":"function"}],"evm":{"bytecode":{"linkReferences":{},"object":"60806040523480156200001157600080fd5b5060405162002ff338038062002ff383398101604081905262000034916200053f565b6040518060400160405280600c81526020016b546f6b656e4e616d6554776f60a01b815250604051806040016040528060038152602001624d544b60e81b815250816003908162000086919062000615565b50600462000095828262000615565b50506005805460ff19169055506001600755620000d033620000ba6012600a620007f4565b620000ca906301406f4062000805565b62000341565b620000dd60003362000417565b620001097f65d7a28e3265b37a6474929f336521b332c1681b933f6cb9f3376673440d862a3362000417565b600880546001600160a01b03199081163390811790925560098054821683179055600a80548216909217909155601980546001600160a01b0384169216821790556040805163c45a015560e01b8152905163c45a0155916004808201926020929091908290030181865afa15801562000186573d6000803e3d6000fd5b505050506040513d601f19601f82011682018060405250810190620001ac91906200053f565b6001600160a01b031663c9c6539630601960009054906101000a90046001600160a01b03166001600160a01b031663ad5c46486040518163ffffffff1660e01b8152600401602060405180830381865afa1580156200020f573d6000803e3d6000fd5b505050506040513d601f19601f820116820180604052508101906200023591906200053f565b6040516001600160e01b031960e085901b1681526001600160a01b039283166004820152911660248201526044016020604051808303816000875af115801562000283573d6000803e3d6000fd5b505050506040513d601f19601f82011682018060405250810190620002a991906200053f565b600b80546001600160a01b0319166001600160a01b039290921691821790556000908152600c60209081526040808320805460ff199081166001908117909255600d859055600e829055600f8290556010829055601182905560128590556013859055601485905560158590553385526016909352818420805484168217905530845290832080549092161790556018555062000835565b6001600160a01b0382166200039d5760405162461bcd60e51b815260206004820152601f60248201527f45524332303a206d696e7420746f20746865207a65726f20616464726573730060448201526064015b60405180910390fd5b620003ab60008383620004a1565b8060026000828254620003bf91906200081f565b90915550506001600160a01b038216600081815260208181526040808320805486019055518481527fddf252ad1be2c89b69c2b068fc378daa952ba7f163c4a11628f55a4df523b3ef910160405180910390a35b5050565b620004238282620004c8565b620004135760008281526006602090815260408083206001600160a01b03851684529091529020805460ff191660011790556200045d3390565b6001600160a01b0316816001600160a01b0316837f2f8788117e7eff1d82e926ec794901d17c78024a50270940304540a733656f0d60405160405180910390a45050565b620004ab620004f5565b620004c3838383620004c360201b620009ba1760201c565b505050565b60008281526006602090815260408083206001600160a01b038516845290915290205460ff165b92915050565b60055460ff16156200053d5760405162461bcd60e51b815260206004820152601060248201526f14185d5cd8589b194e881c185d5cd95960821b604482015260640162000394565b565b6000602082840312156200055257600080fd5b81516001600160a01b03811681146200056a57600080fd5b9392505050565b634e487b7160e01b600052604160045260246000fd5b600181811c908216806200059c57607f821691505b602082108103620005bd57634e487b7160e01b600052602260045260246000fd5b50919050565b601f821115620004c357600081815260208120601f850160051c81016020861015620005ec5750805b601f850160051c820191505b818110156200060d57828155600101620005f8565b505050505050565b81516001600160401b0381111562000631576200063162000571565b620006498162000642845462000587565b84620005c3565b602080601f831160018114620006815760008415620006685750858301515b600019600386901b1c1916600185901b1785556200060d565b600085815260208120601f198616915b82811015620006b25788860151825594840194600190910190840162000691565b5085821015620006d15787850151600019600388901b60f8161c191681555b5050505050600190811b01905550565b634e487b7160e01b600052601160045260246000fd5b600181815b80851115620007385781600019048211156200071c576200071c620006e1565b808516156200072a57918102915b93841c9390800290620006fc565b509250929050565b6000826200075157506001620004ef565b816200076057506000620004ef565b81600181146200077957600281146200078457620007a4565b6001915050620004ef565b60ff841115620007985762000798620006e1565b50506001821b620004ef565b5060208310610133831016604e8410600b8410161715620007c9575081810a620004ef565b620007d58383620006f7565b8060001904821115620007ec57620007ec620006e1565b029392505050565b60006200056a60ff84168362000740565b8082028115828204841417620004ef57620004ef620006e1565b80820180821115620004ef57620004ef620006e1565b6127ae80620008456000396000f3fe608060405234801561001057600080fd5b506004361061032b5760003560e01c8063731c5fe7116101b2578063a9059cbb116100f9578063cf9891fb116100a2578063da6fa55c1161007c578063da6fa55c146106c1578063dd62ed3e146106ca578063e63ab1e914610703578063f72c0d8b1461072a57600080fd5b8063cf9891fb14610692578063d547741f146106a5578063d82b0fab146106b857600080fd5b8063c3803660116100d3578063c380366014610663578063c6d20c1614610676578063cbeb5f3d1461067f57600080fd5b8063a9059cbb1461061a578063adc5a9721461062d578063b17b6d4a1461065057600080fd5b806391d148541161015b578063a18648b111610135578063a18648b1146105d3578063a217fddf146105ff578063a457c2d71461060757600080fd5b806391d148541461057f57806395d89b41146105b8578063a0e38492146105c057600080fd5b80638456cb591161018c5780638456cb591461055b5780638ba4cc3c1461056357806391152c5c1461057657600080fd5b8063731c5fe71461052c57806377e7a16e1461053f57806379cc67901461054857600080fd5b806336568abe116102765780635c975abb1161021f5780636e2310b2116101f95780636e2310b2146104ce57806370a08231146104d757806371344e691461050057600080fd5b80635c975abb146104a757806367e2b005146104b25780636998de35146104c557600080fd5b80633f64a7ab116102505780633f64a7ab1461047857806342966c68146104815780634f4fc99b1461049457600080fd5b806336568abe1461044a578063395093511461045d5780633f4ba83a1461047057600080fd5b806315770f92116102d8578063248a9ca3116102b2578063248a9ca3146104055780632f2ff15d14610428578063313ce5671461043b57600080fd5b806315770f92146103d357806318160ddd146103ea57806323b872dd146103f257600080fd5b806306fdde031161030957806306fdde0314610398578063095ea7b3146103ad578063113c38d8146103c057600080fd5b8063012a73881461033057806301ffc9a7146103605780630548094714610383575b600080fd5b600854610343906001600160a01b031681565b6040516001600160a01b0390911681526020015b60405180910390f35b61037361036e36600461214f565b610751565b6040519015158152602001610357565b610396610391366004612191565b6107ea565b005b6103a0610864565b60405161035791906121e7565b6103736103bb36600461222f565b6108f6565b6103966103ce36600461225b565b61090e565b6103dc60155481565b604051908152602001610357565b6002546103dc565b6103736104003660046122a6565b610971565b6103dc6104133660046122e7565b60009081526006602052604090206001015490565b610396610436366004612300565b610995565b60405160128152602001610357565b610396610458366004612300565b6109bf565b61037361046b36600461222f565b610a50565b610396610a8f565b6103dc60105481565b61039661048f3660046122e7565b610ac4565b600b54610343906001600160a01b031681565b60055460ff16610373565b6103966104c03660046122e7565b610ace565b6103dc600e5481565b6103dc60115481565b6103dc6104e5366004612330565b6001600160a01b031660009081526020819052604090205490565b61037361050e366004612330565b6001600160a01b031660009081526017602052604090205460ff1690565b61039661053a36600461234d565b610aff565b6103dc60145481565b61039661055636600461222f565b610bdc565b610396610bf1565b61039661057136600461222f565b610c23565b6103dc60185481565b61037361058d366004612300565b60009182526006602090815260408084206001600160a01b0393909316845291905290205460ff1690565b6103a0610c2e565b6103966105ce36600461234d565b610c3d565b6103736105e1366004612330565b6001600160a01b031660009081526016602052604090205460ff1690565b6103dc600081565b61037361061536600461222f565b610d11565b61037361062836600461222f565b610dbb565b61037361063b366004612330565b600c6020526000908152604090205460ff1681565b600954610343906001600160a01b031681565b61039661067136600461234d565b610dc9565b6103dc60125481565b600a54610343906001600160a01b031681565b6103966106a0366004612456565b610e9d565b6103966106b3366004612300565b611036565b6103dc60135481565b6103dc600f5481565b6103dc6106d8366004612518565b6001600160a01b03918216600090815260016020908152604080832093909416825291909152205490565b6103dc7f65d7a28e3265b37a6474929f336521b332c1681b933f6cb9f3376673440d862a81565b6103dc7f189ab7a9244df0848122154315af71fe140f3db0fe014031783b0946b8c9d2e381565b60007fffffffff0000000000000000000000000000000000000000000000000000000082167f7965db0b0000000000000000000000000000000000000000000000000000000014806107e457507f01ffc9a7000000000000000000000000000000000000000000000000000000007fffffffff000000000000000000000000000000000000000000000000000000008316145b92915050565b60006107f58161105b565b60088284610803878961255c565b61080d919061255c565b610817919061255c565b111561084f576040517f2e6a0b7000000000000000000000000000000000000000000000000000000000815260040160405180910390fd5b50600e93909355600f91909155601055601155565b6060600380546108739061256f565b80601f016020809104026020016040519081016040528092919081815260200182805461089f9061256f565b80156108ec5780601f106108c1576101008083540402835291602001916108ec565b820191906000526020600020905b8154815290600101906020018083116108cf57829003601f168201915b5050505050905090565b600033610904818585611065565b5060019392505050565b60006109198161105b565b50600880546001600160a01b039485167fffffffffffffffffffffffff0000000000000000000000000000000000000000918216179091556009805493851693821693909317909255600a8054919093169116179055565b60003361097f8582856111bd565b61098a85858561124f565b506001949350505050565b6000828152600660205260409020600101546109b08161105b565b6109ba83836116c5565b505050565b6001600160a01b0381163314610a425760405162461bcd60e51b815260206004820152602f60248201527f416363657373436f6e74726f6c3a2063616e206f6e6c792072656e6f756e636560448201527f20726f6c657320666f722073656c66000000000000000000000000000000000060648201526084015b60405180910390fd5b610a4c8282611767565b5050565b3360008181526001602090815260408083206001600160a01b03871684529091528120549091906109049082908690610a8a90879061255c565b611065565b7f65d7a28e3265b37a6474929f336521b332c1681b933f6cb9f3376673440d862a610ab98161105b565b610ac16117ea565b50565b610ac1338261183c565b6000610ad98161105b565b610ae43330846119b1565b8160186000828254610af6919061255c565b90915550505050565b6000610b0a8161105b565b6001600160a01b03831660009081526016602052604090205482151560ff909116151503610b77576040517f061731be0000000000000000000000000000000000000000000000000000000081526001600160a01b03841660048201528215156024820152604401610a39565b6001600160a01b038316600081815260166020908152604091829020805460ff19168615159081179091558251938452908301527fbd3fa7a0b65fadfbc9fc0e47ed90fda7421b7a2860b0d918b9a5a2d54c8ffe0e91015b60405180910390a1505050565b610be78233836111bd565b610a4c828261183c565b7f65d7a28e3265b37a6474929f336521b332c1681b933f6cb9f3376673440d862a610c1b8161105b565b610ac1611ba9565b610a4c3383836119b1565b6060600480546108739061256f565b6000610c488161105b565b6001600160a01b03831660009081526017602052604090205482151560ff909116151503610cb5576040517f59deb2ab0000000000000000000000000000000000000000000000000000000081526001600160a01b03841660048201528215156024820152604401610a39565b6001600160a01b038316600081815260176020908152604091829020805460ff19168615159081179091558251938452908301527fcf3473b85df1594d47b6958f29a32bea0abff9dd68296f7bf33443646793cfd89101610bcf565b3360008181526001602090815260408083206001600160a01b038716845290915281205490919083811015610dae5760405162461bcd60e51b815260206004820152602560248201527f45524332303a2064656372656173656420616c6c6f77616e63652062656c6f7760448201527f207a65726f0000000000000000000000000000000000000000000000000000006064820152608401610a39565b61098a8286868403611065565b60003361090481858561124f565b6000610dd48161105b565b6001600160a01b0383166000908152600c602052604090205482151560ff909116151503610e41576040517f7e219ac40000000000000000000000000000000000000000000000000000000081526001600160a01b03841660048201528215156024820152604401610a39565b6001600160a01b0383166000818152600c6020908152604091829020805460ff19168615159081179091558251938452908301527fcb441f01c08c5009a96dcc9c11ab9f0331b7a7e41c46f27174eb6babbd2584209101610bcf565b6000610ea88161105b565b60008251845114610ee5576040517f9d89020a00000000000000000000000000000000000000000000000000000000815260040160405180910390fd5b606484511115610f21576040517f28668fc200000000000000000000000000000000000000000000000000000000815260040160405180910390fd5b60005b8351811015610f6657838181518110610f3f57610f3f6125a9565b602002602001015182610f52919061255c565b915080610f5e816125bf565b915050610f24565b50601854811115610fa3576040517f97d328c500000000000000000000000000000000000000000000000000000000815260040160405180910390fd5b60005b845181101561102f57838181518110610fc157610fc16125a9565b602002602001015160186000828254610fda91906125d8565b9091555061101d905033868381518110610ff657610ff66125a9565b6020026020010151868481518110611010576110106125a9565b60200260200101516119b1565b80611027816125bf565b915050610fa6565b5050505050565b6000828152600660205260409020600101546110518161105b565b6109ba8383611767565b610ac18133611be6565b6001600160a01b0383166110e05760405162461bcd60e51b8152602060048201526024808201527f45524332303a20617070726f76652066726f6d20746865207a65726f2061646460448201527f72657373000000000000000000000000000000000000000000000000000000006064820152608401610a39565b6001600160a01b03821661115c5760405162461bcd60e51b815260206004820152602260248201527f45524332303a20617070726f766520746f20746865207a65726f20616464726560448201527f73730000000000000000000000000000000000000000000000000000000000006064820152608401610a39565b6001600160a01b0383811660008181526001602090815260408083209487168084529482529182902085905590518481527f8c5be1e5ebec7d5bd14f71427d1e84f3dd0314c0f7b2291e5b200ac8c7c3b925910160405180910390a3505050565b6001600160a01b038381166000908152600160209081526040808320938616835292905220546000198114611249578181101561123c5760405162461bcd60e51b815260206004820152601d60248201527f45524332303a20696e73756666696369656e7420616c6c6f77616e63650000006044820152606401610a39565b6112498484848403611065565b50505050565b6001600160a01b03831660009081526017602052604090205460ff168061128e57506001600160a01b03821660009081526017602052604090205460ff165b156112c5576040517f9949d1cc00000000000000000000000000000000000000000000000000000000815260040160405180910390fd5b6001600160a01b03831660009081526016602052604090205460ff168061130457506001600160a01b03821660009081526016602052604090205460ff165b15611314576109ba8383836119b1565b606461131f60025490565b61132991906125eb565b81611349846001600160a01b031660009081526020819052604090205490565b611353919061255c565b111561138b576040517f5107dbe700000000000000000000000000000000000000000000000000000000815260040160405180910390fd5b6001600160a01b0383166000908152600c6020526040902054819060ff161515600114806113d657506001600160a01b0383166000908152600c602052604090205460ff1615156001145b156116ba57600d80549060006113eb836125bf565b90915550506010546000906114016064856125eb565b61140b919061260d565b90506000600f5460648561141f91906125eb565b611429919061260d565b90506000600e5460648661143d91906125eb565b611447919061260d565b9050808261145585876125d8565b61145f91906125d8565b61146991906125d8565b9350826012600082825461147d919061255c565b925050819055508160136000828254611496919061255c565b9250508190555080601460008282546114af919061255c565b90915550506001600160a01b0386166000908152600c602052604090205460ff16151560010361151b576011546000906114ea6064886125eb565b6114f4919061260d565b905061150081866125d8565b94508060156000828254611514919061255c565b9091555050505b6005600d54106116a2576000600d5560155460145460135460125461155e9392916115459161255c565b61154f919061255c565b611559919061255c565b611c5b565b60105447906000906115716064846125eb565b61157b919061260d565b90506000600f5460648461158f91906125eb565b611599919061260d565b90506000600e546064856115ad91906125eb565b6115b7919061260d565b600a546040519192506001600160a01b03169084156108fc029085906000818181858888f193505050501580156115f2573d6000803e3d6000fd5b506009546040516001600160a01b039091169083156108fc029084906000818181858888f1935050505015801561162d573d6000803e3d6000fd5b506008546040516001600160a01b039091169082156108fc029083906000818181858888f19350505050158015611668573d6000803e3d6000fd5b506015541561168957600047905061168281601554611de7565b5060006015555b5050600060128190556013819055601455506116b69050565b6116b687306116b187896125d8565b6119b1565b5050505b6112498484836119b1565b60008281526006602090815260408083206001600160a01b038516845290915290205460ff16610a4c5760008281526006602090815260408083206001600160a01b03851684529091529020805460ff191660011790556117233390565b6001600160a01b0316816001600160a01b0316837f2f8788117e7eff1d82e926ec794901d17c78024a50270940304540a733656f0d60405160405180910390a45050565b60008281526006602090815260408083206001600160a01b038516845290915290205460ff1615610a4c5760008281526006602090815260408083206001600160a01b0385168085529252808320805460ff1916905551339285917ff6391f5c32d9c69d2a47ea670b442974b53935d1edc7fd64eb21e047a839171b9190a45050565b6117f2611eaa565b6005805460ff191690557f5db9ee0a495bf2e6ff9c91a7834c1ba4fdd244a5e8aa4e537bd38aeae4b073aa335b6040516001600160a01b03909116815260200160405180910390a1565b6001600160a01b0382166118b85760405162461bcd60e51b815260206004820152602160248201527f45524332303a206275726e2066726f6d20746865207a65726f2061646472657360448201527f73000000000000000000000000000000000000000000000000000000000000006064820152608401610a39565b6118c482600083611efe565b6001600160a01b038216600090815260208190526040902054818110156119535760405162461bcd60e51b815260206004820152602260248201527f45524332303a206275726e20616d6f756e7420657863656564732062616c616e60448201527f63650000000000000000000000000000000000000000000000000000000000006064820152608401610a39565b6001600160a01b0383166000818152602081815260408083208686039055600280548790039055518581529192917fddf252ad1be2c89b69c2b068fc378daa952ba7f163c4a11628f55a4df523b3ef910160405180910390a3505050565b6001600160a01b038316611a2d5760405162461bcd60e51b815260206004820152602560248201527f45524332303a207472616e736665722066726f6d20746865207a65726f20616460448201527f64726573730000000000000000000000000000000000000000000000000000006064820152608401610a39565b6001600160a01b038216611aa95760405162461bcd60e51b815260206004820152602360248201527f45524332303a207472616e7366657220746f20746865207a65726f206164647260448201527f65737300000000000000000000000000000000000000000000000000000000006064820152608401610a39565b611ab4838383611efe565b6001600160a01b03831660009081526020819052604090205481811015611b435760405162461bcd60e51b815260206004820152602660248201527f45524332303a207472616e7366657220616d6f756e742065786365656473206260448201527f616c616e636500000000000000000000000000000000000000000000000000006064820152608401610a39565b6001600160a01b03848116600081815260208181526040808320878703905593871680835291849020805487019055925185815290927fddf252ad1be2c89b69c2b068fc378daa952ba7f163c4a11628f55a4df523b3ef910160405180910390a3611249565b611bb1611f02565b6005805460ff191660011790557f62e78cea01bee320cd4e420270b5ea74000d11b0c9f74754ebdbfc544b05a25861181f3390565b60008281526006602090815260408083206001600160a01b038516845290915290205460ff16610a4c57611c1981611f55565b611c24836020611f67565b604051602001611c35929190612624565b60408051601f198184030181529082905262461bcd60e51b8252610a39916004016121e7565b6040805160028082526060820183526000926020830190803683370190505090503081600081518110611c9057611c906125a9565b6001600160a01b03928316602091820292909201810191909152601954604080517fad5c46480000000000000000000000000000000000000000000000000000000081529051919093169263ad5c46489260048083019391928290030181865afa158015611d02573d6000803e3d6000fd5b505050506040513d601f19601f82011682018060405250810190611d2691906126a5565b81600181518110611d3957611d396125a9565b6001600160a01b039283166020918202929092010152601954611d5f9130911684611065565b6019546040517f791ac9470000000000000000000000000000000000000000000000000000000081526001600160a01b039091169063791ac94790611db19085906000908690309042906004016126c2565b600060405180830381600087803b158015611dcb57600080fd5b505af1158015611ddf573d6000803e3d6000fd5b505050505050565b601954611dff9030906001600160a01b031684611065565b6019546040517ff305d719000000000000000000000000000000000000000000000000000000008152306004820152602481018490526000604482018190526064820181905260848201524260a48201526001600160a01b039091169063f305d71990839060c40160606040518083038185885af1158015611e85573d6000803e3d6000fd5b50505050506040513d601f19601f8201168201806040525081019061102f9190612733565b60055460ff16611efc5760405162461bcd60e51b815260206004820152601460248201527f5061757361626c653a206e6f74207061757365640000000000000000000000006044820152606401610a39565b565b6109ba5b60055460ff1615611efc5760405162461bcd60e51b815260206004820152601060248201527f5061757361626c653a20706175736564000000000000000000000000000000006044820152606401610a39565b60606107e46001600160a01b03831660145b60606000611f7683600261260d565b611f8190600261255c565b67ffffffffffffffff811115611f9957611f99612380565b6040519080825280601f01601f191660200182016040528015611fc3576020820181803683370190505b5090507f300000000000000000000000000000000000000000000000000000000000000081600081518110611ffa57611ffa6125a9565b60200101906001600160f81b031916908160001a9053507f780000000000000000000000000000000000000000000000000000000000000081600181518110612045576120456125a9565b60200101906001600160f81b031916908160001a905350600061206984600261260d565b61207490600161255c565b90505b60018111156120f9577f303132333435363738396162636465660000000000000000000000000000000085600f16601081106120b5576120b56125a9565b1a60f81b8282815181106120cb576120cb6125a9565b60200101906001600160f81b031916908160001a90535060049490941c936120f281612761565b9050612077565b5083156121485760405162461bcd60e51b815260206004820181905260248201527f537472696e67733a20686578206c656e67746820696e73756666696369656e746044820152606401610a39565b9392505050565b60006020828403121561216157600080fd5b81357fffffffff000000000000000000000000000000000000000000000000000000008116811461214857600080fd5b600080600080608085870312156121a757600080fd5b5050823594602084013594506040840135936060013592509050565b60005b838110156121de5781810151838201526020016121c6565b50506000910152565b60208152600082518060208401526122068160408501602087016121c3565b601f01601f19169190910160400192915050565b6001600160a01b0381168114610ac157600080fd5b6000806040838503121561224257600080fd5b823561224d8161221a565b946020939093013593505050565b60008060006060848603121561227057600080fd5b833561227b8161221a565b9250602084013561228b8161221a565b9150604084013561229b8161221a565b809150509250925092565b6000806000606084860312156122bb57600080fd5b83356122c68161221a565b925060208401356122d68161221a565b929592945050506040919091013590565b6000602082840312156122f957600080fd5b5035919050565b6000806040838503121561231357600080fd5b8235915060208301356123258161221a565b809150509250929050565b60006020828403121561234257600080fd5b81356121488161221a565b6000806040838503121561236057600080fd5b823561236b8161221a565b91506020830135801515811461232557600080fd5b634e487b7160e01b600052604160045260246000fd5b604051601f8201601f1916810167ffffffffffffffff811182821017156123bf576123bf612380565b604052919050565b600067ffffffffffffffff8211156123e1576123e1612380565b5060051b60200190565b600082601f8301126123fc57600080fd5b8135602061241161240c836123c7565b612396565b82815260059290921b8401810191818101908684111561243057600080fd5b8286015b8481101561244b5780358352918301918301612434565b509695505050505050565b6000806040838503121561246957600080fd5b823567ffffffffffffffff8082111561248157600080fd5b818501915085601f83011261249557600080fd5b813560206124a561240c836123c7565b82815260059290921b840181019181810190898411156124c457600080fd5b948201945b838610156124eb5785356124dc8161221a565b825294820194908201906124c9565b9650508601359250508082111561250157600080fd5b5061250e858286016123eb565b9150509250929050565b6000806040838503121561252b57600080fd5b82356125368161221a565b915060208301356123258161221a565b634e487b7160e01b600052601160045260246000fd5b808201808211156107e4576107e4612546565b600181811c9082168061258357607f821691505b6020821081036125a357634e487b7160e01b600052602260045260246000fd5b50919050565b634e487b7160e01b600052603260045260246000fd5b6000600182016125d1576125d1612546565b5060010190565b818103818111156107e4576107e4612546565b60008261260857634e487b7160e01b600052601260045260246000fd5b500490565b80820281158282048414176107e4576107e4612546565b7f416363657373436f6e74726f6c3a206163636f756e742000000000000000000081526000835161265c8160178501602088016121c3565b7f206973206d697373696e6720726f6c652000000000000000000000000000000060179184019182015283516126998160288401602088016121c3565b01602801949350505050565b6000602082840312156126b757600080fd5b81516121488161221a565b600060a082018783526020878185015260a0604085015281875180845260c086019150828901935060005b818110156127125784516001600160a01b0316835293830193918301916001016126ed565b50506001600160a01b03969096166060850152505050608001529392505050565b60008060006060848603121561274857600080fd5b8351925060208401519150604084015190509250925092565b60008161277057612770612546565b50600019019056fea2646970667358221220f55498ebe59b7c117b6cd925be47b6c732ebdd1b4ba617e41a5ef8d717aa601864736f6c63430008120033","opcodes":"PUSH1 0x80 PUSH1 0x40 MSTORE CALLVALUE DUP1 ISZERO PUSH3 0x11 JUMPI PUSH1 0x0 DUP1 REVERT JUMPDEST POP PUSH1 0x40 MLOAD PUSH3 0x2FF3 CODESIZE SUB DUP1 PUSH3 0x2FF3 DUP4 CODECOPY DUP2 ADD PUSH1 0x40 DUP2 SWAP1 MSTORE PUSH3 0x34 SWAP2 PUSH3 0x53F JUMP JUMPDEST PUSH1 0x40 MLOAD DUP1 PUSH1 0x40 ADD PUSH1 0x40 MSTORE DUP1 PUSH1 0xC DUP2 MSTORE PUSH1 0x20 ADD PUSH12 0x546F6B656E4E616D6554776F PUSH1 0xA0 SHL DUP2 MSTORE POP PUSH1 0x40 MLOAD DUP1 PUSH1 0x40 ADD PUSH1 0x40 MSTORE DUP1 PUSH1 0x3 DUP2 MSTORE PUSH1 0x20 ADD PUSH3 0x4D544B PUSH1 0xE8 SHL DUP2 MSTORE POP DUP2 PUSH1 0x3 SWAP1 DUP2 PUSH3 0x86 SWAP2 SWAP1 PUSH3 0x615 JUMP JUMPDEST POP PUSH1 0x4 PUSH3 0x95 DUP3 DUP3 PUSH3 0x615 JUMP JUMPDEST POP POP PUSH1 0x5 DUP1 SLOAD PUSH1 0xFF NOT AND SWAP1 SSTORE POP PUSH1 0x1 PUSH1 0x7 SSTORE PUSH3 0xD0 CALLER PUSH3 0xBA PUSH1 0x12 PUSH1 0xA PUSH3 0x7F4 JUMP JUMPDEST PUSH3 0xCA SWAP1 PUSH4 0x1406F40 PUSH3 0x805 JUMP JUMPDEST PUSH3 0x341 JUMP JUMPDEST PUSH3 0xDD PUSH1 0x0 CALLER PUSH3 0x417 JUMP JUMPDEST PUSH3 0x109 PUSH32 0x65D7A28E3265B37A6474929F336521B332C1681B933F6CB9F3376673440D862A CALLER PUSH3 0x417 JUMP JUMPDEST PUSH1 0x8 DUP1 SLOAD PUSH1 0x1 PUSH1 0x1 PUSH1 0xA0 SHL SUB NOT SWAP1 DUP2 AND CALLER SWAP1 DUP2 OR SWAP1 SWAP3 SSTORE PUSH1 0x9 DUP1 SLOAD DUP3 AND DUP4 OR SWAP1 SSTORE PUSH1 0xA DUP1 SLOAD DUP3 AND SWAP1 SWAP3 OR SWAP1 SWAP2 SSTORE PUSH1 0x19 DUP1 SLOAD PUSH1 0x1 PUSH1 0x1 PUSH1 0xA0 SHL SUB DUP5 AND SWAP3 AND DUP3 OR SWAP1 SSTORE PUSH1 0x40 DUP1 MLOAD PUSH4 0xC45A0155 PUSH1 0xE0 SHL DUP2 MSTORE SWAP1 MLOAD PUSH4 0xC45A0155 SWAP2 PUSH1 0x4 DUP1 DUP3 ADD SWAP3 PUSH1 0x20 SWAP3 SWAP1 SWAP2 SWAP1 DUP3 SWAP1 SUB ADD DUP2 DUP7 GAS STATICCALL ISZERO DUP1 ISZERO PUSH3 0x186 JUMPI RETURNDATASIZE PUSH1 0x0 DUP1 RETURNDATACOPY RETURNDATASIZE PUSH1 0x0 REVERT JUMPDEST POP POP POP POP PUSH1 0x40 MLOAD RETURNDATASIZE PUSH1 0x1F NOT PUSH1 0x1F DUP3 ADD AND DUP3 ADD DUP1 PUSH1 0x40 MSTORE POP DUP2 ADD SWAP1 PUSH3 0x1AC SWAP2 SWAP1 PUSH3 0x53F JUMP JUMPDEST PUSH1 0x1 PUSH1 0x1 PUSH1 0xA0 SHL SUB AND PUSH4 0xC9C65396 ADDRESS PUSH1 0x19 PUSH1 0x0 SWAP1 SLOAD SWAP1 PUSH2 0x100 EXP SWAP1 DIV PUSH1 0x1 PUSH1 0x1 PUSH1 0xA0 SHL SUB AND PUSH1 0x1 PUSH1 0x1 PUSH1 0xA0 SHL SUB AND PUSH4 0xAD5C4648 PUSH1 0x40 MLOAD DUP2 PUSH4 0xFFFFFFFF AND PUSH1 0xE0 SHL DUP2 MSTORE PUSH1 0x4 ADD PUSH1 0x20 PUSH1 0x40 MLOAD DUP1 DUP4 SUB DUP2 DUP7 GAS STATICCALL ISZERO DUP1 ISZERO PUSH3 0x20F JUMPI RETURNDATASIZE PUSH1 0x0 DUP1 RETURNDATACOPY RETURNDATASIZE PUSH1 0x0 REVERT JUMPDEST POP POP POP POP PUSH1 0x40 MLOAD RETURNDATASIZE PUSH1 0x1F NOT PUSH1 0x1F DUP3 ADD AND DUP3 ADD DUP1 PUSH1 0x40 MSTORE POP DUP2 ADD SWAP1 PUSH3 0x235 SWAP2 SWAP1 PUSH3 0x53F JUMP JUMPDEST PUSH1 0x40 MLOAD PUSH1 0x1 PUSH1 0x1 PUSH1 0xE0 SHL SUB NOT PUSH1 0xE0 DUP6 SWAP1 SHL AND DUP2 MSTORE PUSH1 0x1 PUSH1 0x1 PUSH1 0xA0 SHL SUB SWAP3 DUP4 AND PUSH1 0x4 DUP3 ADD MSTORE SWAP2 AND PUSH1 0x24 DUP3 ADD MSTORE PUSH1 0x44 ADD PUSH1 0x20 PUSH1 0x40 MLOAD DUP1 DUP4 SUB DUP2 PUSH1 0x0 DUP8 GAS CALL ISZERO DUP1 ISZERO PUSH3 0x283 JUMPI RETURNDATASIZE PUSH1 0x0 DUP1 RETURNDATACOPY RETURNDATASIZE PUSH1 0x0 REVERT JUMPDEST POP POP POP POP PUSH1 0x40 MLOAD RETURNDATASIZE PUSH1 0x1F NOT PUSH1 0x1F DUP3 ADD AND DUP3 ADD DUP1 PUSH1 0x40 MSTORE POP DUP2 ADD SWAP1 PUSH3 0x2A9 SWAP2 SWAP1 PUSH3 0x53F JUMP JUMPDEST PUSH1 0xB DUP1 SLOAD PUSH1 0x1 PUSH1 0x1 PUSH1 0xA0 SHL SUB NOT AND PUSH1 0x1 PUSH1 0x1 PUSH1 0xA0 SHL SUB SWAP3 SWAP1 SWAP3 AND SWAP2 DUP3 OR SWAP1 SSTORE PUSH1 0x0 SWAP1 DUP2 MSTORE PUSH1 0xC PUSH1 0x20 SWAP1 DUP2 MSTORE PUSH1 0x40 DUP1 DUP4 KECCAK256 DUP1 SLOAD PUSH1 0xFF NOT SWAP1 DUP2 AND PUSH1 0x1 SWAP1 DUP2 OR SWAP1 SWAP3 SSTORE PUSH1 0xD DUP6 SWAP1 SSTORE PUSH1 0xE DUP3 SWAP1 SSTORE PUSH1 0xF DUP3 SWAP1 SSTORE PUSH1 0x10 DUP3 SWAP1 SSTORE PUSH1 0x11 DUP3 SWAP1 SSTORE PUSH1 0x12 DUP6 SWAP1 SSTORE PUSH1 0x13 DUP6 SWAP1 SSTORE PUSH1 0x14 DUP6 SWAP1 SSTORE PUSH1 0x15 DUP6 SWAP1 SSTORE CALLER DUP6 MSTORE PUSH1 0x16 SWAP1 SWAP4 MSTORE DUP2 DUP5 KECCAK256 DUP1 SLOAD DUP5 AND DUP3 OR SWAP1 SSTORE ADDRESS DUP5 MSTORE SWAP1 DUP4 KECCAK256 DUP1 SLOAD SWAP1 SWAP3 AND OR SWAP1 SSTORE PUSH1 0x18 SSTORE POP PUSH3 0x835 JUMP JUMPDEST PUSH1 0x1 PUSH1 0x1 PUSH1 0xA0 SHL SUB DUP3 AND PUSH3 0x39D JUMPI PUSH1 0x40 MLOAD PUSH3 0x461BCD PUSH1 0xE5 SHL DUP2 MSTORE PUSH1 0x20 PUSH1 0x4 DUP3 ADD MSTORE PUSH1 0x1F PUSH1 0x24 DUP3 ADD MSTORE PUSH32 0x45524332303A206D696E7420746F20746865207A65726F206164647265737300 PUSH1 0x44 DUP3 ADD MSTORE PUSH1 0x64 ADD JUMPDEST PUSH1 0x40 MLOAD DUP1 SWAP2 SUB SWAP1 REVERT JUMPDEST PUSH3 0x3AB PUSH1 0x0 DUP4 DUP4 PUSH3 0x4A1 JUMP JUMPDEST DUP1 PUSH1 0x2 PUSH1 0x0 DUP3 DUP3 SLOAD PUSH3 0x3BF SWAP2 SWAP1 PUSH3 0x81F JUMP JUMPDEST SWAP1 SWAP2 SSTORE POP POP PUSH1 0x1 PUSH1 0x1 PUSH1 0xA0 SHL SUB DUP3 AND PUSH1 0x0 DUP2 DUP2 MSTORE PUSH1 0x20 DUP2 DUP2 MSTORE PUSH1 0x40 DUP1 DUP4 KECCAK256 DUP1 SLOAD DUP7 ADD SWAP1 SSTORE MLOAD DUP5 DUP2 MSTORE PUSH32 0xDDF252AD1BE2C89B69C2B068FC378DAA952BA7F163C4A11628F55A4DF523B3EF SWAP2 ADD PUSH1 0x40 MLOAD DUP1 SWAP2 SUB SWAP1 LOG3 JUMPDEST POP POP JUMP JUMPDEST PUSH3 0x423 DUP3 DUP3 PUSH3 0x4C8 JUMP JUMPDEST PUSH3 0x413 JUMPI PUSH1 0x0 DUP3 DUP2 MSTORE PUSH1 0x6 PUSH1 0x20 SWAP1 DUP2 MSTORE PUSH1 0x40 DUP1 DUP4 KECCAK256 PUSH1 0x1 PUSH1 0x1 PUSH1 0xA0 SHL SUB DUP6 AND DUP5 MSTORE SWAP1 SWAP2 MSTORE SWAP1 KECCAK256 DUP1 SLOAD PUSH1 0xFF NOT AND PUSH1 0x1 OR SWAP1 SSTORE PUSH3 0x45D CALLER SWAP1 JUMP JUMPDEST PUSH1 0x1 PUSH1 0x1 PUSH1 0xA0 SHL SUB AND DUP2 PUSH1 0x1 PUSH1 0x1 PUSH1 0xA0 SHL SUB AND DUP4 PUSH32 0x2F8788117E7EFF1D82E926EC794901D17C78024A50270940304540A733656F0D PUSH1 0x40 MLOAD PUSH1 0x40 MLOAD DUP1 SWAP2 SUB SWAP1 LOG4 POP POP JUMP JUMPDEST PUSH3 0x4AB PUSH3 0x4F5 JUMP JUMPDEST PUSH3 0x4C3 DUP4 DUP4 DUP4 PUSH3 0x4C3 PUSH1 0x20 SHL PUSH3 0x9BA OR PUSH1 0x20 SHR JUMP JUMPDEST POP POP POP JUMP JUMPDEST PUSH1 0x0 DUP3 DUP2 MSTORE PUSH1 0x6 PUSH1 0x20 SWAP1 DUP2 MSTORE PUSH1 0x40 DUP1 DUP4 KECCAK256 PUSH1 0x1 PUSH1 0x1 PUSH1 0xA0 SHL SUB DUP6 AND DUP5 MSTORE SWAP1 SWAP2 MSTORE SWAP1 KECCAK256 SLOAD PUSH1 0xFF AND JUMPDEST SWAP3 SWAP2 POP POP JUMP JUMPDEST PUSH1 0x5 SLOAD PUSH1 0xFF AND ISZERO PUSH3 0x53D JUMPI PUSH1 0x40 MLOAD PUSH3 0x461BCD PUSH1 0xE5 SHL DUP2 MSTORE PUSH1 0x20 PUSH1 0x4 DUP3 ADD MSTORE PUSH1 0x10 PUSH1 0x24 DUP3 ADD MSTORE PUSH16 0x14185D5CD8589B194E881C185D5CD959 PUSH1 0x82 SHL PUSH1 0x44 DUP3 ADD MSTORE PUSH1 0x64 ADD PUSH3 0x394 JUMP JUMPDEST JUMP JUMPDEST PUSH1 0x0 PUSH1 0x20 DUP3 DUP5 SUB SLT ISZERO PUSH3 0x552 JUMPI PUSH1 0x0 DUP1 REVERT JUMPDEST DUP2 MLOAD PUSH1 0x1 PUSH1 0x1 PUSH1 0xA0 SHL SUB DUP2 AND DUP2 EQ PUSH3 0x56A JUMPI PUSH1 0x0 DUP1 REVERT JUMPDEST SWAP4 SWAP3 POP POP POP JUMP JUMPDEST PUSH4 0x4E487B71 PUSH1 0xE0 SHL PUSH1 0x0 MSTORE PUSH1 0x41 PUSH1 0x4 MSTORE PUSH1 0x24 PUSH1 0x0 REVERT JUMPDEST PUSH1 0x1 DUP2 DUP2 SHR SWAP1 DUP3 AND DUP1 PUSH3 0x59C JUMPI PUSH1 0x7F DUP3 AND SWAP2 POP JUMPDEST PUSH1 0x20 DUP3 LT DUP2 SUB PUSH3 0x5BD JUMPI PUSH4 0x4E487B71 PUSH1 0xE0 SHL PUSH1 0x0 MSTORE PUSH1 0x22 PUSH1 0x4 MSTORE PUSH1 0x24 PUSH1 0x0 REVERT JUMPDEST POP SWAP2 SWAP1 POP JUMP JUMPDEST PUSH1 0x1F DUP3 GT ISZERO PUSH3 0x4C3 JUMPI PUSH1 0x0 DUP2 DUP2 MSTORE PUSH1 0x20 DUP2 KECCAK256 PUSH1 0x1F DUP6 ADD PUSH1 0x5 SHR DUP2 ADD PUSH1 0x20 DUP7 LT ISZERO PUSH3 0x5EC JUMPI POP DUP1 JUMPDEST PUSH1 0x1F DUP6 ADD PUSH1 0x5 SHR DUP3 ADD SWAP2 POP JUMPDEST DUP2 DUP2 LT ISZERO PUSH3 0x60D JUMPI DUP3 DUP2 SSTORE PUSH1 0x1 ADD PUSH3 0x5F8 JUMP JUMPDEST POP POP POP POP POP POP JUMP JUMPDEST DUP2 MLOAD PUSH1 0x1 PUSH1 0x1 PUSH1 0x40 SHL SUB DUP2 GT ISZERO PUSH3 0x631 JUMPI PUSH3 0x631 PUSH3 0x571 JUMP JUMPDEST PUSH3 0x649 DUP2 PUSH3 0x642 DUP5 SLOAD PUSH3 0x587 JUMP JUMPDEST DUP5 PUSH3 0x5C3 JUMP JUMPDEST PUSH1 0x20 DUP1 PUSH1 0x1F DUP4 GT PUSH1 0x1 DUP2 EQ PUSH3 0x681 JUMPI PUSH1 0x0 DUP5 ISZERO PUSH3 0x668 JUMPI POP DUP6 DUP4 ADD MLOAD JUMPDEST PUSH1 0x0 NOT PUSH1 0x3 DUP7 SWAP1 SHL SHR NOT AND PUSH1 0x1 DUP6 SWAP1 SHL OR DUP6 SSTORE PUSH3 0x60D JUMP JUMPDEST PUSH1 0x0 DUP6 DUP2 MSTORE PUSH1 0x20 DUP2 KECCAK256 PUSH1 0x1F NOT DUP7 AND SWAP2 JUMPDEST DUP3 DUP2 LT ISZERO PUSH3 0x6B2 JUMPI DUP9 DUP7 ADD MLOAD DUP3 SSTORE SWAP5 DUP5 ADD SWAP5 PUSH1 0x1 SWAP1 SWAP2 ADD SWAP1 DUP5 ADD PUSH3 0x691 JUMP JUMPDEST POP DUP6 DUP3 LT ISZERO PUSH3 0x6D1 JUMPI DUP8 DUP6 ADD MLOAD PUSH1 0x0 NOT PUSH1 0x3 DUP9 SWAP1 SHL PUSH1 0xF8 AND SHR NOT AND DUP2 SSTORE JUMPDEST POP POP POP POP POP PUSH1 0x1 SWAP1 DUP2 SHL ADD SWAP1 SSTORE POP JUMP JUMPDEST PUSH4 0x4E487B71 PUSH1 0xE0 SHL PUSH1 0x0 MSTORE PUSH1 0x11 PUSH1 0x4 MSTORE PUSH1 0x24 PUSH1 0x0 REVERT JUMPDEST PUSH1 0x1 DUP2 DUP2 JUMPDEST DUP1 DUP6 GT ISZERO PUSH3 0x738 JUMPI DUP2 PUSH1 0x0 NOT DIV DUP3 GT ISZERO PUSH3 0x71C JUMPI PUSH3 0x71C PUSH3 0x6E1 JUMP JUMPDEST DUP1 DUP6 AND ISZERO PUSH3 0x72A JUMPI SWAP2 DUP2 MUL SWAP2 JUMPDEST SWAP4 DUP5 SHR SWAP4 SWAP1 DUP1 MUL SWAP1 PUSH3 0x6FC JUMP JUMPDEST POP SWAP3 POP SWAP3 SWAP1 POP JUMP JUMPDEST PUSH1 0x0 DUP3 PUSH3 0x751 JUMPI POP PUSH1 0x1 PUSH3 0x4EF JUMP JUMPDEST DUP2 PUSH3 0x760 JUMPI POP PUSH1 0x0 PUSH3 0x4EF JUMP JUMPDEST DUP2 PUSH1 0x1 DUP2 EQ PUSH3 0x779 JUMPI PUSH1 0x2 DUP2 EQ PUSH3 0x784 JUMPI PUSH3 0x7A4 JUMP JUMPDEST PUSH1 0x1 SWAP2 POP POP PUSH3 0x4EF JUMP JUMPDEST PUSH1 0xFF DUP5 GT ISZERO PUSH3 0x798 JUMPI PUSH3 0x798 PUSH3 0x6E1 JUMP JUMPDEST POP POP PUSH1 0x1 DUP3 SHL PUSH3 0x4EF JUMP JUMPDEST POP PUSH1 0x20 DUP4 LT PUSH2 0x133 DUP4 LT AND PUSH1 0x4E DUP5 LT PUSH1 0xB DUP5 LT AND OR ISZERO PUSH3 0x7C9 JUMPI POP DUP2 DUP2 EXP PUSH3 0x4EF JUMP JUMPDEST PUSH3 0x7D5 DUP4 DUP4 PUSH3 0x6F7 JUMP JUMPDEST DUP1 PUSH1 0x0 NOT DIV DUP3 GT ISZERO PUSH3 0x7EC JUMPI PUSH3 0x7EC PUSH3 0x6E1 JUMP JUMPDEST MUL SWAP4 SWAP3 POP POP POP JUMP JUMPDEST PUSH1 0x0 PUSH3 0x56A PUSH1 0xFF DUP5 AND DUP4 PUSH3 0x740 JUMP JUMPDEST DUP1 DUP3 MUL DUP2 ISZERO DUP3 DUP3 DIV DUP5 EQ OR PUSH3 0x4EF JUMPI PUSH3 0x4EF PUSH3 0x6E1 JUMP JUMPDEST DUP1 DUP3 ADD DUP1 DUP3 GT ISZERO PUSH3 0x4EF JUMPI PUSH3 0x4EF PUSH3 0x6E1 JUMP JUMPDEST PUSH2 0x27AE DUP1 PUSH3 0x845 PUSH1 0x0 CODECOPY PUSH1 0x0 RETURN INVALID PUSH1 0x80 PUSH1 0x40 MSTORE CALLVALUE DUP1 ISZERO PUSH2 0x10 JUMPI PUSH1 0x0 DUP1 REVERT JUMPDEST POP PUSH1 0x4 CALLDATASIZE LT PUSH2 0x32B JUMPI PUSH1 0x0 CALLDATALOAD PUSH1 0xE0 SHR DUP1 PUSH4 0x731C5FE7 GT PUSH2 0x1B2 JUMPI DUP1 PUSH4 0xA9059CBB GT PUSH2 0xF9 JUMPI DUP1 PUSH4 0xCF9891FB GT PUSH2 0xA2 JUMPI DUP1 PUSH4 0xDA6FA55C GT PUSH2 0x7C JUMPI DUP1 PUSH4 0xDA6FA55C EQ PUSH2 0x6C1 JUMPI DUP1 PUSH4 0xDD62ED3E EQ PUSH2 0x6CA JUMPI DUP1 PUSH4 0xE63AB1E9 EQ PUSH2 0x703 JUMPI DUP1 PUSH4 0xF72C0D8B EQ PUSH2 0x72A JUMPI PUSH1 0x0 DUP1 REVERT JUMPDEST DUP1 PUSH4 0xCF9891FB EQ PUSH2 0x692 JUMPI DUP1 PUSH4 0xD547741F EQ PUSH2 0x6A5 JUMPI DUP1 PUSH4 0xD82B0FAB EQ PUSH2 0x6B8 JUMPI PUSH1 0x0 DUP1 REVERT JUMPDEST DUP1 PUSH4 0xC3803660 GT PUSH2 0xD3 JUMPI DUP1 PUSH4 0xC3803660 EQ PUSH2 0x663 JUMPI DUP1 PUSH4 0xC6D20C16 EQ PUSH2 0x676 JUMPI DUP1 PUSH4 0xCBEB5F3D EQ PUSH2 0x67F JUMPI PUSH1 0x0 DUP1 REVERT JUMPDEST DUP1 PUSH4 0xA9059CBB EQ PUSH2 0x61A JUMPI DUP1 PUSH4 0xADC5A972 EQ PUSH2 0x62D JUMPI DUP1 PUSH4 0xB17B6D4A EQ PUSH2 0x650 JUMPI PUSH1 0x0 DUP1 REVERT JUMPDEST DUP1 PUSH4 0x91D14854 GT PUSH2 0x15B JUMPI DUP1 PUSH4 0xA18648B1 GT PUSH2 0x135 JUMPI DUP1 PUSH4 0xA18648B1 EQ PUSH2 0x5D3 JUMPI DUP1 PUSH4 0xA217FDDF EQ PUSH2 0x5FF JUMPI DUP1 PUSH4 0xA457C2D7 EQ PUSH2 0x607 JUMPI PUSH1 0x0 DUP1 REVERT JUMPDEST DUP1 PUSH4 0x91D14854 EQ PUSH2 0x57F JUMPI DUP1 PUSH4 0x95D89B41 EQ PUSH2 0x5B8 JUMPI DUP1 PUSH4 0xA0E38492 EQ PUSH2 0x5C0 JUMPI PUSH1 0x0 DUP1 REVERT JUMPDEST DUP1 PUSH4 0x8456CB59 GT PUSH2 0x18C JUMPI DUP1 PUSH4 0x8456CB59 EQ PUSH2 0x55B JUMPI DUP1 PUSH4 0x8BA4CC3C EQ PUSH2 0x563 JUMPI DUP1 PUSH4 0x91152C5C EQ PUSH2 0x576 JUMPI PUSH1 0x0 DUP1 REVERT JUMPDEST DUP1 PUSH4 0x731C5FE7 EQ PUSH2 0x52C JUMPI DUP1 PUSH4 0x77E7A16E EQ PUSH2 0x53F JUMPI DUP1 PUSH4 0x79CC6790 EQ PUSH2 0x548 JUMPI PUSH1 0x0 DUP1 REVERT JUMPDEST DUP1 PUSH4 0x36568ABE GT PUSH2 0x276 JUMPI DUP1 PUSH4 0x5C975ABB GT PUSH2 0x21F JUMPI DUP1 PUSH4 0x6E2310B2 GT PUSH2 0x1F9 JUMPI DUP1 PUSH4 0x6E2310B2 EQ PUSH2 0x4CE JUMPI DUP1 PUSH4 0x70A08231 EQ PUSH2 0x4D7 JUMPI DUP1 PUSH4 0x71344E69 EQ PUSH2 0x500 JUMPI PUSH1 0x0 DUP1 REVERT JUMPDEST DUP1 PUSH4 0x5C975ABB EQ PUSH2 0x4A7 JUMPI DUP1 PUSH4 0x67E2B005 EQ PUSH2 0x4B2 JUMPI DUP1 PUSH4 0x6998DE35 EQ PUSH2 0x4C5 JUMPI PUSH1 0x0 DUP1 REVERT JUMPDEST DUP1 PUSH4 0x3F64A7AB GT PUSH2 0x250 JUMPI DUP1 PUSH4 0x3F64A7AB EQ PUSH2 0x478 JUMPI DUP1 PUSH4 0x42966C68 EQ PUSH2 0x481 JUMPI DUP1 PUSH4 0x4F4FC99B EQ PUSH2 0x494 JUMPI PUSH1 0x0 DUP1 REVERT JUMPDEST DUP1 PUSH4 0x36568ABE EQ PUSH2 0x44A JUMPI DUP1 PUSH4 0x39509351 EQ PUSH2 0x45D JUMPI DUP1 PUSH4 0x3F4BA83A EQ PUSH2 0x470 JUMPI PUSH1 0x0 DUP1 REVERT JUMPDEST DUP1 PUSH4 0x15770F92 GT PUSH2 0x2D8 JUMPI DUP1 PUSH4 0x248A9CA3 GT PUSH2 0x2B2 JUMPI DUP1 PUSH4 0x248A9CA3 EQ PUSH2 0x405 JUMPI DUP1 PUSH4 0x2F2FF15D EQ PUSH2 0x428 JUMPI DUP1 PUSH4 0x313CE567 EQ PUSH2 0x43B JUMPI PUSH1 0x0 DUP1 REVERT JUMPDEST DUP1 PUSH4 0x15770F92 EQ PUSH2 0x3D3 JUMPI DUP1 PUSH4 0x18160DDD EQ PUSH2 0x3EA JUMPI DUP1 PUSH4 0x23B872DD EQ PUSH2 0x3F2 JUMPI PUSH1 0x0 DUP1 REVERT JUMPDEST DUP1 PUSH4 0x6FDDE03 GT PUSH2 0x309 JUMPI DUP1 PUSH4 0x6FDDE03 EQ PUSH2 0x398 JUMPI DUP1 PUSH4 0x95EA7B3 EQ PUSH2 0x3AD JUMPI DUP1 PUSH4 0x113C38D8 EQ PUSH2 0x3C0 JUMPI PUSH1 0x0 DUP1 REVERT JUMPDEST DUP1 PUSH4 0x12A7388 EQ PUSH2 0x330 JUMPI DUP1 PUSH4 0x1FFC9A7 EQ PUSH2 0x360 JUMPI DUP1 PUSH4 0x5480947 EQ PUSH2 0x383 JUMPI JUMPDEST PUSH1 0x0 DUP1 REVERT JUMPDEST PUSH1 0x8 SLOAD PUSH2 0x343 SWAP1 PUSH1 0x1 PUSH1 0x1 PUSH1 0xA0 SHL SUB AND DUP2 JUMP JUMPDEST PUSH1 0x40 MLOAD PUSH1 0x1 PUSH1 0x1 PUSH1 0xA0 SHL SUB SWAP1 SWAP2 AND DUP2 MSTORE PUSH1 0x20 ADD JUMPDEST PUSH1 0x40 MLOAD DUP1 SWAP2 SUB SWAP1 RETURN JUMPDEST PUSH2 0x373 PUSH2 0x36E CALLDATASIZE PUSH1 0x4 PUSH2 0x214F JUMP JUMPDEST PUSH2 0x751 JUMP JUMPDEST PUSH1 0x40 MLOAD SWAP1 ISZERO ISZERO DUP2 MSTORE PUSH1 0x20 ADD PUSH2 0x357 JUMP JUMPDEST PUSH2 0x396 PUSH2 0x391 CALLDATASIZE PUSH1 0x4 PUSH2 0x2191 JUMP JUMPDEST PUSH2 0x7EA JUMP JUMPDEST STOP JUMPDEST PUSH2 0x3A0 PUSH2 0x864 JUMP JUMPDEST PUSH1 0x40 MLOAD PUSH2 0x357 SWAP2 SWAP1 PUSH2 0x21E7 JUMP JUMPDEST PUSH2 0x373 PUSH2 0x3BB CALLDATASIZE PUSH1 0x4 PUSH2 0x222F JUMP JUMPDEST PUSH2 0x8F6 JUMP JUMPDEST PUSH2 0x396 PUSH2 0x3CE CALLDATASIZE PUSH1 0x4 PUSH2 0x225B JUMP JUMPDEST PUSH2 0x90E JUMP JUMPDEST PUSH2 0x3DC PUSH1 0x15 SLOAD DUP2 JUMP JUMPDEST PUSH1 0x40 MLOAD SWAP1 DUP2 MSTORE PUSH1 0x20 ADD PUSH2 0x357 JUMP JUMPDEST PUSH1 0x2 SLOAD PUSH2 0x3DC JUMP JUMPDEST PUSH2 0x373 PUSH2 0x400 CALLDATASIZE PUSH1 0x4 PUSH2 0x22A6 JUMP JUMPDEST PUSH2 0x971 JUMP JUMPDEST PUSH2 0x3DC PUSH2 0x413 CALLDATASIZE PUSH1 0x4 PUSH2 0x22E7 JUMP JUMPDEST PUSH1 0x0 SWAP1 DUP2 MSTORE PUSH1 0x6 PUSH1 0x20 MSTORE PUSH1 0x40 SWAP1 KECCAK256 PUSH1 0x1 ADD SLOAD SWAP1 JUMP JUMPDEST PUSH2 0x396 PUSH2 0x436 CALLDATASIZE PUSH1 0x4 PUSH2 0x2300 JUMP JUMPDEST PUSH2 0x995 JUMP JUMPDEST PUSH1 0x40 MLOAD PUSH1 0x12 DUP2 MSTORE PUSH1 0x20 ADD PUSH2 0x357 JUMP JUMPDEST PUSH2 0x396 PUSH2 0x458 CALLDATASIZE PUSH1 0x4 PUSH2 0x2300 JUMP JUMPDEST PUSH2 0x9BF JUMP JUMPDEST PUSH2 0x373 PUSH2 0x46B CALLDATASIZE PUSH1 0x4 PUSH2 0x222F JUMP JUMPDEST PUSH2 0xA50 JUMP JUMPDEST PUSH2 0x396 PUSH2 0xA8F JUMP JUMPDEST PUSH2 0x3DC PUSH1 0x10 SLOAD DUP2 JUMP JUMPDEST PUSH2 0x396 PUSH2 0x48F CALLDATASIZE PUSH1 0x4 PUSH2 0x22E7 JUMP JUMPDEST PUSH2 0xAC4 JUMP JUMPDEST PUSH1 0xB SLOAD PUSH2 0x343 SWAP1 PUSH1 0x1 PUSH1 0x1 PUSH1 0xA0 SHL SUB AND DUP2 JUMP JUMPDEST PUSH1 0x5 SLOAD PUSH1 0xFF AND PUSH2 0x373 JUMP JUMPDEST PUSH2 0x396 PUSH2 0x4C0 CALLDATASIZE PUSH1 0x4 PUSH2 0x22E7 JUMP JUMPDEST PUSH2 0xACE JUMP JUMPDEST PUSH2 0x3DC PUSH1 0xE SLOAD DUP2 JUMP JUMPDEST PUSH2 0x3DC PUSH1 0x11 SLOAD DUP2 JUMP JUMPDEST PUSH2 0x3DC PUSH2 0x4E5 CALLDATASIZE PUSH1 0x4 PUSH2 0x2330 JUMP JUMPDEST PUSH1 0x1 PUSH1 0x1 PUSH1 0xA0 SHL SUB AND PUSH1 0x0 SWAP1 DUP2 MSTORE PUSH1 0x20 DUP2 SWAP1 MSTORE PUSH1 0x40 SWAP1 KECCAK256 SLOAD SWAP1 JUMP JUMPDEST PUSH2 0x373 PUSH2 0x50E CALLDATASIZE PUSH1 0x4 PUSH2 0x2330 JUMP JUMPDEST PUSH1 0x1 PUSH1 0x1 PUSH1 0xA0 SHL SUB AND PUSH1 0x0 SWAP1 DUP2 MSTORE PUSH1 0x17 PUSH1 0x20 MSTORE PUSH1 0x40 SWAP1 KECCAK256 SLOAD PUSH1 0xFF AND SWAP1 JUMP JUMPDEST PUSH2 0x396 PUSH2 0x53A CALLDATASIZE PUSH1 0x4 PUSH2 0x234D JUMP JUMPDEST PUSH2 0xAFF JUMP JUMPDEST PUSH2 0x3DC PUSH1 0x14 SLOAD DUP2 JUMP JUMPDEST PUSH2 0x396 PUSH2 0x556 CALLDATASIZE PUSH1 0x4 PUSH2 0x222F JUMP JUMPDEST PUSH2 0xBDC JUMP JUMPDEST PUSH2 0x396 PUSH2 0xBF1 JUMP JUMPDEST PUSH2 0x396 PUSH2 0x571 CALLDATASIZE PUSH1 0x4 PUSH2 0x222F JUMP JUMPDEST PUSH2 0xC23 JUMP JUMPDEST PUSH2 0x3DC PUSH1 0x18 SLOAD DUP2 JUMP JUMPDEST PUSH2 0x373 PUSH2 0x58D CALLDATASIZE PUSH1 0x4 PUSH2 0x2300 JUMP JUMPDEST PUSH1 0x0 SWAP2 DUP3 MSTORE PUSH1 0x6 PUSH1 0x20 SWAP1 DUP2 MSTORE PUSH1 0x40 DUP1 DUP5 KECCAK256 PUSH1 0x1 PUSH1 0x1 PUSH1 0xA0 SHL SUB SWAP4 SWAP1 SWAP4 AND DUP5 MSTORE SWAP2 SWAP1 MSTORE SWAP1 KECCAK256 SLOAD PUSH1 0xFF AND SWAP1 JUMP JUMPDEST PUSH2 0x3A0 PUSH2 0xC2E JUMP JUMPDEST PUSH2 0x396 PUSH2 0x5CE CALLDATASIZE PUSH1 0x4 PUSH2 0x234D JUMP JUMPDEST PUSH2 0xC3D JUMP JUMPDEST PUSH2 0x373 PUSH2 0x5E1 CALLDATASIZE PUSH1 0x4 PUSH2 0x2330 JUMP JUMPDEST PUSH1 0x1 PUSH1 0x1 PUSH1 0xA0 SHL SUB AND PUSH1 0x0 SWAP1 DUP2 MSTORE PUSH1 0x16 PUSH1 0x20 MSTORE PUSH1 0x40 SWAP1 KECCAK256 SLOAD PUSH1 0xFF AND SWAP1 JUMP JUMPDEST PUSH2 0x3DC PUSH1 0x0 DUP2 JUMP JUMPDEST PUSH2 0x373 PUSH2 0x615 CALLDATASIZE PUSH1 0x4 PUSH2 0x222F JUMP JUMPDEST PUSH2 0xD11 JUMP JUMPDEST PUSH2 0x373 PUSH2 0x628 CALLDATASIZE PUSH1 0x4 PUSH2 0x222F JUMP JUMPDEST PUSH2 0xDBB JUMP JUMPDEST PUSH2 0x373 PUSH2 0x63B CALLDATASIZE PUSH1 0x4 PUSH2 0x2330 JUMP JUMPDEST PUSH1 0xC PUSH1 0x20 MSTORE PUSH1 0x0 SWAP1 DUP2 MSTORE PUSH1 0x40 SWAP1 KECCAK256 SLOAD PUSH1 0xFF AND DUP2 JUMP JUMPDEST PUSH1 0x9 SLOAD PUSH2 0x343 SWAP1 PUSH1 0x1 PUSH1 0x1 PUSH1 0xA0 SHL SUB AND DUP2 JUMP JUMPDEST PUSH2 0x396 PUSH2 0x671 CALLDATASIZE PUSH1 0x4 PUSH2 0x234D JUMP JUMPDEST PUSH2 0xDC9 JUMP JUMPDEST PUSH2 0x3DC PUSH1 0x12 SLOAD DUP2 JUMP JUMPDEST PUSH1 0xA SLOAD PUSH2 0x343 SWAP1 PUSH1 0x1 PUSH1 0x1 PUSH1 0xA0 SHL SUB AND DUP2 JUMP JUMPDEST PUSH2 0x396 PUSH2 0x6A0 CALLDATASIZE PUSH1 0x4 PUSH2 0x2456 JUMP JUMPDEST PUSH2 0xE9D JUMP JUMPDEST PUSH2 0x396 PUSH2 0x6B3 CALLDATASIZE PUSH1 0x4 PUSH2 0x2300 JUMP JUMPDEST PUSH2 0x1036 JUMP JUMPDEST PUSH2 0x3DC PUSH1 0x13 SLOAD DUP2 JUMP JUMPDEST PUSH2 0x3DC PUSH1 0xF SLOAD DUP2 JUMP JUMPDEST PUSH2 0x3DC PUSH2 0x6D8 CALLDATASIZE PUSH1 0x4 PUSH2 0x2518 JUMP JUMPDEST PUSH1 0x1 PUSH1 0x1 PUSH1 0xA0 SHL SUB SWAP2 DUP3 AND PUSH1 0x0 SWAP1 DUP2 MSTORE PUSH1 0x1 PUSH1 0x20 SWAP1 DUP2 MSTORE PUSH1 0x40 DUP1 DUP4 KECCAK256 SWAP4 SWAP1 SWAP5 AND DUP3 MSTORE SWAP2 SWAP1 SWAP2 MSTORE KECCAK256 SLOAD SWAP1 JUMP JUMPDEST PUSH2 0x3DC PUSH32 0x65D7A28E3265B37A6474929F336521B332C1681B933F6CB9F3376673440D862A DUP2 JUMP JUMPDEST PUSH2 0x3DC PUSH32 0x189AB7A9244DF0848122154315AF71FE140F3DB0FE014031783B0946B8C9D2E3 DUP2 JUMP JUMPDEST PUSH1 0x0 PUSH32 0xFFFFFFFF00000000000000000000000000000000000000000000000000000000 DUP3 AND PUSH32 0x7965DB0B00000000000000000000000000000000000000000000000000000000 EQ DUP1 PUSH2 0x7E4 JUMPI POP PUSH32 0x1FFC9A700000000000000000000000000000000000000000000000000000000 PUSH32 0xFFFFFFFF00000000000000000000000000000000000000000000000000000000 DUP4 AND EQ JUMPDEST SWAP3 SWAP2 POP POP JUMP JUMPDEST PUSH1 0x0 PUSH2 0x7F5 DUP2 PUSH2 0x105B JUMP JUMPDEST PUSH1 0x8 DUP3 DUP5 PUSH2 0x803 DUP8 DUP10 PUSH2 0x255C JUMP JUMPDEST PUSH2 0x80D SWAP2 SWAP1 PUSH2 0x255C JUMP JUMPDEST PUSH2 0x817 SWAP2 SWAP1 PUSH2 0x255C JUMP JUMPDEST GT ISZERO PUSH2 0x84F JUMPI PUSH1 0x40 MLOAD PUSH32 0x2E6A0B7000000000000000000000000000000000000000000000000000000000 DUP2 MSTORE PUSH1 0x4 ADD PUSH1 0x40 MLOAD DUP1 SWAP2 SUB SWAP1 REVERT JUMPDEST POP PUSH1 0xE SWAP4 SWAP1 SWAP4 SSTORE PUSH1 0xF SWAP2 SWAP1 SWAP2 SSTORE PUSH1 0x10 SSTORE PUSH1 0x11 SSTORE JUMP JUMPDEST PUSH1 0x60 PUSH1 0x3 DUP1 SLOAD PUSH2 0x873 SWAP1 PUSH2 0x256F JUMP JUMPDEST DUP1 PUSH1 0x1F ADD PUSH1 0x20 DUP1 SWAP2 DIV MUL PUSH1 0x20 ADD PUSH1 0x40 MLOAD SWAP1 DUP2 ADD PUSH1 0x40 MSTORE DUP1 SWAP3 SWAP2 SWAP1 DUP2 DUP2 MSTORE PUSH1 0x20 ADD DUP3 DUP1 SLOAD PUSH2 0x89F SWAP1 PUSH2 0x256F JUMP JUMPDEST DUP1 ISZERO PUSH2 0x8EC JUMPI DUP1 PUSH1 0x1F LT PUSH2 0x8C1 JUMPI PUSH2 0x100 DUP1 DUP4 SLOAD DIV MUL DUP4 MSTORE SWAP2 PUSH1 0x20 ADD SWAP2 PUSH2 0x8EC JUMP JUMPDEST DUP3 ADD SWAP2 SWAP1 PUSH1 0x0 MSTORE PUSH1 0x20 PUSH1 0x0 KECCAK256 SWAP1 JUMPDEST DUP2 SLOAD DUP2 MSTORE SWAP1 PUSH1 0x1 ADD SWAP1 PUSH1 0x20 ADD DUP1 DUP4 GT PUSH2 0x8CF JUMPI DUP3 SWAP1 SUB PUSH1 0x1F AND DUP3 ADD SWAP2 JUMPDEST POP POP POP POP POP SWAP1 POP SWAP1 JUMP JUMPDEST PUSH1 0x0 CALLER PUSH2 0x904 DUP2 DUP6 DUP6 PUSH2 0x1065 JUMP JUMPDEST POP PUSH1 0x1 SWAP4 SWAP3 POP POP POP JUMP JUMPDEST PUSH1 0x0 PUSH2 0x919 DUP2 PUSH2 0x105B JUMP JUMPDEST POP PUSH1 0x8 DUP1 SLOAD PUSH1 0x1 PUSH1 0x1 PUSH1 0xA0 SHL SUB SWAP5 DUP6 AND PUSH32 0xFFFFFFFFFFFFFFFFFFFFFFFF0000000000000000000000000000000000000000 SWAP2 DUP3 AND OR SWAP1 SWAP2 SSTORE PUSH1 0x9 DUP1 SLOAD SWAP4 DUP6 AND SWAP4 DUP3 AND SWAP4 SWAP1 SWAP4 OR SWAP1 SWAP3 SSTORE PUSH1 0xA DUP1 SLOAD SWAP2 SWAP1 SWAP4 AND SWAP2 AND OR SWAP1 SSTORE JUMP JUMPDEST PUSH1 0x0 CALLER PUSH2 0x97F DUP6 DUP3 DUP6 PUSH2 0x11BD JUMP JUMPDEST PUSH2 0x98A DUP6 DUP6 DUP6 PUSH2 0x124F JUMP JUMPDEST POP PUSH1 0x1 SWAP5 SWAP4 POP POP POP POP JUMP JUMPDEST PUSH1 0x0 DUP3 DUP2 MSTORE PUSH1 0x6 PUSH1 0x20 MSTORE PUSH1 0x40 SWAP1 KECCAK256 PUSH1 0x1 ADD SLOAD PUSH2 0x9B0 DUP2 PUSH2 0x105B JUMP JUMPDEST PUSH2 0x9BA DUP4 DUP4 PUSH2 0x16C5 JUMP JUMPDEST POP POP POP JUMP JUMPDEST PUSH1 0x1 PUSH1 0x1 PUSH1 0xA0 SHL SUB DUP2 AND CALLER EQ PUSH2 0xA42 JUMPI PUSH1 0x40 MLOAD PUSH3 0x461BCD PUSH1 0xE5 SHL DUP2 MSTORE PUSH1 0x20 PUSH1 0x4 DUP3 ADD MSTORE PUSH1 0x2F PUSH1 0x24 DUP3 ADD MSTORE PUSH32 0x416363657373436F6E74726F6C3A2063616E206F6E6C792072656E6F756E6365 PUSH1 0x44 DUP3 ADD MSTORE PUSH32 0x20726F6C657320666F722073656C660000000000000000000000000000000000 PUSH1 0x64 DUP3 ADD MSTORE PUSH1 0x84 ADD JUMPDEST PUSH1 0x40 MLOAD DUP1 SWAP2 SUB SWAP1 REVERT JUMPDEST PUSH2 0xA4C DUP3 DUP3 PUSH2 0x1767 JUMP JUMPDEST POP POP JUMP JUMPDEST CALLER PUSH1 0x0 DUP2 DUP2 MSTORE PUSH1 0x1 PUSH1 0x20 SWAP1 DUP2 MSTORE PUSH1 0x40 DUP1 DUP4 KECCAK256 PUSH1 0x1 PUSH1 0x1 PUSH1 0xA0 SHL SUB DUP8 AND DUP5 MSTORE SWAP1 SWAP2 MSTORE DUP2 KECCAK256 SLOAD SWAP1 SWAP2 SWAP1 PUSH2 0x904 SWAP1 DUP3 SWAP1 DUP7 SWAP1 PUSH2 0xA8A SWAP1 DUP8 SWAP1 PUSH2 0x255C JUMP JUMPDEST PUSH2 0x1065 JUMP JUMPDEST PUSH32 0x65D7A28E3265B37A6474929F336521B332C1681B933F6CB9F3376673440D862A PUSH2 0xAB9 DUP2 PUSH2 0x105B JUMP JUMPDEST PUSH2 0xAC1 PUSH2 0x17EA JUMP JUMPDEST POP JUMP JUMPDEST PUSH2 0xAC1 CALLER DUP3 PUSH2 0x183C JUMP JUMPDEST PUSH1 0x0 PUSH2 0xAD9 DUP2 PUSH2 0x105B JUMP JUMPDEST PUSH2 0xAE4 CALLER ADDRESS DUP5 PUSH2 0x19B1 JUMP JUMPDEST DUP2 PUSH1 0x18 PUSH1 0x0 DUP3 DUP3 SLOAD PUSH2 0xAF6 SWAP2 SWAP1 PUSH2 0x255C JUMP JUMPDEST SWAP1 SWAP2 SSTORE POP POP POP POP JUMP JUMPDEST PUSH1 0x0 PUSH2 0xB0A DUP2 PUSH2 0x105B JUMP JUMPDEST PUSH1 0x1 PUSH1 0x1 PUSH1 0xA0 SHL SUB DUP4 AND PUSH1 0x0 SWAP1 DUP2 MSTORE PUSH1 0x16 PUSH1 0x20 MSTORE PUSH1 0x40 SWAP1 KECCAK256 SLOAD DUP3 ISZERO ISZERO PUSH1 0xFF SWAP1 SWAP2 AND ISZERO ISZERO SUB PUSH2 0xB77 JUMPI PUSH1 0x40 MLOAD PUSH32 0x61731BE00000000000000000000000000000000000000000000000000000000 DUP2 MSTORE PUSH1 0x1 PUSH1 0x1 PUSH1 0xA0 SHL SUB DUP5 AND PUSH1 0x4 DUP3 ADD MSTORE DUP3 ISZERO ISZERO PUSH1 0x24 DUP3 ADD MSTORE PUSH1 0x44 ADD PUSH2 0xA39 JUMP JUMPDEST PUSH1 0x1 PUSH1 0x1 PUSH1 0xA0 SHL SUB DUP4 AND PUSH1 0x0 DUP2 DUP2 MSTORE PUSH1 0x16 PUSH1 0x20 SWAP1 DUP2 MSTORE PUSH1 0x40 SWAP2 DUP3 SWAP1 KECCAK256 DUP1 SLOAD PUSH1 0xFF NOT AND DUP7 ISZERO ISZERO SWAP1 DUP2 OR SWAP1 SWAP2 SSTORE DUP3 MLOAD SWAP4 DUP5 MSTORE SWAP1 DUP4 ADD MSTORE PUSH32 0xBD3FA7A0B65FADFBC9FC0E47ED90FDA7421B7A2860B0D918B9A5A2D54C8FFE0E SWAP2 ADD JUMPDEST PUSH1 0x40 MLOAD DUP1 SWAP2 SUB SWAP1 LOG1 POP POP POP JUMP JUMPDEST PUSH2 0xBE7 DUP3 CALLER DUP4 PUSH2 0x11BD JUMP JUMPDEST PUSH2 0xA4C DUP3 DUP3 PUSH2 0x183C JUMP JUMPDEST PUSH32 0x65D7A28E3265B37A6474929F336521B332C1681B933F6CB9F3376673440D862A PUSH2 0xC1B DUP2 PUSH2 0x105B JUMP JUMPDEST PUSH2 0xAC1 PUSH2 0x1BA9 JUMP JUMPDEST PUSH2 0xA4C CALLER DUP4 DUP4 PUSH2 0x19B1 JUMP JUMPDEST PUSH1 0x60 PUSH1 0x4 DUP1 SLOAD PUSH2 0x873 SWAP1 PUSH2 0x256F JUMP JUMPDEST PUSH1 0x0 PUSH2 0xC48 DUP2 PUSH2 0x105B JUMP JUMPDEST PUSH1 0x1 PUSH1 0x1 PUSH1 0xA0 SHL SUB DUP4 AND PUSH1 0x0 SWAP1 DUP2 MSTORE PUSH1 0x17 PUSH1 0x20 MSTORE PUSH1 0x40 SWAP1 KECCAK256 SLOAD DUP3 ISZERO ISZERO PUSH1 0xFF SWAP1 SWAP2 AND ISZERO ISZERO SUB PUSH2 0xCB5 JUMPI PUSH1 0x40 MLOAD PUSH32 0x59DEB2AB00000000000000000000000000000000000000000000000000000000 DUP2 MSTORE PUSH1 0x1 PUSH1 0x1 PUSH1 0xA0 SHL SUB DUP5 AND PUSH1 0x4 DUP3 ADD MSTORE DUP3 ISZERO ISZERO PUSH1 0x24 DUP3 ADD MSTORE PUSH1 0x44 ADD PUSH2 0xA39 JUMP JUMPDEST PUSH1 0x1 PUSH1 0x1 PUSH1 0xA0 SHL SUB DUP4 AND PUSH1 0x0 DUP2 DUP2 MSTORE PUSH1 0x17 PUSH1 0x20 SWAP1 DUP2 MSTORE PUSH1 0x40 SWAP2 DUP3 SWAP1 KECCAK256 DUP1 SLOAD PUSH1 0xFF NOT AND DUP7 ISZERO ISZERO SWAP1 DUP2 OR SWAP1 SWAP2 SSTORE DUP3 MLOAD SWAP4 DUP5 MSTORE SWAP1 DUP4 ADD MSTORE PUSH32 0xCF3473B85DF1594D47B6958F29A32BEA0ABFF9DD68296F7BF33443646793CFD8 SWAP2 ADD PUSH2 0xBCF JUMP JUMPDEST CALLER PUSH1 0x0 DUP2 DUP2 MSTORE PUSH1 0x1 PUSH1 0x20 SWAP1 DUP2 MSTORE PUSH1 0x40 DUP1 DUP4 KECCAK256 PUSH1 0x1 PUSH1 0x1 PUSH1 0xA0 SHL SUB DUP8 AND DUP5 MSTORE SWAP1 SWAP2 MSTORE DUP2 KECCAK256 SLOAD SWAP1 SWAP2 SWAP1 DUP4 DUP2 LT ISZERO PUSH2 0xDAE JUMPI PUSH1 0x40 MLOAD PUSH3 0x461BCD PUSH1 0xE5 SHL DUP2 MSTORE PUSH1 0x20 PUSH1 0x4 DUP3 ADD MSTORE PUSH1 0x25 PUSH1 0x24 DUP3 ADD MSTORE PUSH32 0x45524332303A2064656372656173656420616C6C6F77616E63652062656C6F77 PUSH1 0x44 DUP3 ADD MSTORE PUSH32 0x207A65726F000000000000000000000000000000000000000000000000000000 PUSH1 0x64 DUP3 ADD MSTORE PUSH1 0x84 ADD PUSH2 0xA39 JUMP JUMPDEST PUSH2 0x98A DUP3 DUP7 DUP7 DUP5 SUB PUSH2 0x1065 JUMP JUMPDEST PUSH1 0x0 CALLER PUSH2 0x904 DUP2 DUP6 DUP6 PUSH2 0x124F JUMP JUMPDEST PUSH1 0x0 PUSH2 0xDD4 DUP2 PUSH2 0x105B JUMP JUMPDEST PUSH1 0x1 PUSH1 0x1 PUSH1 0xA0 SHL SUB DUP4 AND PUSH1 0x0 SWAP1 DUP2 MSTORE PUSH1 0xC PUSH1 0x20 MSTORE PUSH1 0x40 SWAP1 KECCAK256 SLOAD DUP3 ISZERO ISZERO PUSH1 0xFF SWAP1 SWAP2 AND ISZERO ISZERO SUB PUSH2 0xE41 JUMPI PUSH1 0x40 MLOAD PUSH32 0x7E219AC400000000000000000000000000000000000000000000000000000000 DUP2 MSTORE PUSH1 0x1 PUSH1 0x1 PUSH1 0xA0 SHL SUB DUP5 AND PUSH1 0x4 DUP3 ADD MSTORE DUP3 ISZERO ISZERO PUSH1 0x24 DUP3 ADD MSTORE PUSH1 0x44 ADD PUSH2 0xA39 JUMP JUMPDEST PUSH1 0x1 PUSH1 0x1 PUSH1 0xA0 SHL SUB DUP4 AND PUSH1 0x0 DUP2 DUP2 MSTORE PUSH1 0xC PUSH1 0x20 SWAP1 DUP2 MSTORE PUSH1 0x40 SWAP2 DUP3 SWAP1 KECCAK256 DUP1 SLOAD PUSH1 0xFF NOT AND DUP7 ISZERO ISZERO SWAP1 DUP2 OR SWAP1 SWAP2 SSTORE DUP3 MLOAD SWAP4 DUP5 MSTORE SWAP1 DUP4 ADD MSTORE PUSH32 0xCB441F01C08C5009A96DCC9C11AB9F0331B7A7E41C46F27174EB6BABBD258420 SWAP2 ADD PUSH2 0xBCF JUMP JUMPDEST PUSH1 0x0 PUSH2 0xEA8 DUP2 PUSH2 0x105B JUMP JUMPDEST PUSH1 0x0 DUP3 MLOAD DUP5 MLOAD EQ PUSH2 0xEE5 JUMPI PUSH1 0x40 MLOAD PUSH32 0x9D89020A00000000000000000000000000000000000000000000000000000000 DUP2 MSTORE PUSH1 0x4 ADD PUSH1 0x40 MLOAD DUP1 SWAP2 SUB SWAP1 REVERT JUMPDEST PUSH1 0x64 DUP5 MLOAD GT ISZERO PUSH2 0xF21 JUMPI PUSH1 0x40 MLOAD PUSH32 0x28668FC200000000000000000000000000000000000000000000000000000000 DUP2 MSTORE PUSH1 0x4 ADD PUSH1 0x40 MLOAD DUP1 SWAP2 SUB SWAP1 REVERT JUMPDEST PUSH1 0x0 JUMPDEST DUP4 MLOAD DUP2 LT ISZERO PUSH2 0xF66 JUMPI DUP4 DUP2 DUP2 MLOAD DUP2 LT PUSH2 0xF3F JUMPI PUSH2 0xF3F PUSH2 0x25A9 JUMP JUMPDEST PUSH1 0x20 MUL PUSH1 0x20 ADD ADD MLOAD DUP3 PUSH2 0xF52 SWAP2 SWAP1 PUSH2 0x255C JUMP JUMPDEST SWAP2 POP DUP1 PUSH2 0xF5E DUP2 PUSH2 0x25BF JUMP JUMPDEST SWAP2 POP POP PUSH2 0xF24 JUMP JUMPDEST POP PUSH1 0x18 SLOAD DUP2 GT ISZERO PUSH2 0xFA3 JUMPI PUSH1 0x40 MLOAD PUSH32 0x97D328C500000000000000000000000000000000000000000000000000000000 DUP2 MSTORE PUSH1 0x4 ADD PUSH1 0x40 MLOAD DUP1 SWAP2 SUB SWAP1 REVERT JUMPDEST PUSH1 0x0 JUMPDEST DUP5 MLOAD DUP2 LT ISZERO PUSH2 0x102F JUMPI DUP4 DUP2 DUP2 MLOAD DUP2 LT PUSH2 0xFC1 JUMPI PUSH2 0xFC1 PUSH2 0x25A9 JUMP JUMPDEST PUSH1 0x20 MUL PUSH1 0x20 ADD ADD MLOAD PUSH1 0x18 PUSH1 0x0 DUP3 DUP3 SLOAD PUSH2 0xFDA SWAP2 SWAP1 PUSH2 0x25D8 JUMP JUMPDEST SWAP1 SWAP2 SSTORE POP PUSH2 0x101D SWAP1 POP CALLER DUP7 DUP4 DUP2 MLOAD DUP2 LT PUSH2 0xFF6 JUMPI PUSH2 0xFF6 PUSH2 0x25A9 JUMP JUMPDEST PUSH1 0x20 MUL PUSH1 0x20 ADD ADD MLOAD DUP7 DUP5 DUP2 MLOAD DUP2 LT PUSH2 0x1010 JUMPI PUSH2 0x1010 PUSH2 0x25A9 JUMP JUMPDEST PUSH1 0x20 MUL PUSH1 0x20 ADD ADD MLOAD PUSH2 0x19B1 JUMP JUMPDEST DUP1 PUSH2 0x1027 DUP2 PUSH2 0x25BF JUMP JUMPDEST SWAP2 POP POP PUSH2 0xFA6 JUMP JUMPDEST POP POP POP POP POP JUMP JUMPDEST PUSH1 0x0 DUP3 DUP2 MSTORE PUSH1 0x6 PUSH1 0x20 MSTORE PUSH1 0x40 SWAP1 KECCAK256 PUSH1 0x1 ADD SLOAD PUSH2 0x1051 DUP2 PUSH2 0x105B JUMP JUMPDEST PUSH2 0x9BA DUP4 DUP4 PUSH2 0x1767 JUMP JUMPDEST PUSH2 0xAC1 DUP2 CALLER PUSH2 0x1BE6 JUMP JUMPDEST PUSH1 0x1 PUSH1 0x1 PUSH1 0xA0 SHL SUB DUP4 AND PUSH2 0x10E0 JUMPI PUSH1 0x40 MLOAD PUSH3 0x461BCD PUSH1 0xE5 SHL DUP2 MSTORE PUSH1 0x20 PUSH1 0x4 DUP3 ADD MSTORE PUSH1 0x24 DUP1 DUP3 ADD MSTORE PUSH32 0x45524332303A20617070726F76652066726F6D20746865207A65726F20616464 PUSH1 0x44 DUP3 ADD MSTORE PUSH32 0x7265737300000000000000000000000000000000000000000000000000000000 PUSH1 0x64 DUP3 ADD MSTORE PUSH1 0x84 ADD PUSH2 0xA39 JUMP JUMPDEST PUSH1 0x1 PUSH1 0x1 PUSH1 0xA0 SHL SUB DUP3 AND PUSH2 0x115C JUMPI PUSH1 0x40 MLOAD PUSH3 0x461BCD PUSH1 0xE5 SHL DUP2 MSTORE PUSH1 0x20 PUSH1 0x4 DUP3 ADD MSTORE PUSH1 0x22 PUSH1 0x24 DUP3 ADD MSTORE PUSH32 0x45524332303A20617070726F766520746F20746865207A65726F206164647265 PUSH1 0x44 DUP3 ADD MSTORE PUSH32 0x7373000000000000000000000000000000000000000000000000000000000000 PUSH1 0x64 DUP3 ADD MSTORE PUSH1 0x84 ADD PUSH2 0xA39 JUMP JUMPDEST PUSH1 0x1 PUSH1 0x1 PUSH1 0xA0 SHL SUB DUP4 DUP2 AND PUSH1 0x0 DUP2 DUP2 MSTORE PUSH1 0x1 PUSH1 0x20 SWAP1 DUP2 MSTORE PUSH1 0x40 DUP1 DUP4 KECCAK256 SWAP5 DUP8 AND DUP1 DUP5 MSTORE SWAP5 DUP3 MSTORE SWAP2 DUP3 SWAP1 KECCAK256 DUP6 SWAP1 SSTORE SWAP1 MLOAD DUP5 DUP2 MSTORE PUSH32 0x8C5BE1E5EBEC7D5BD14F71427D1E84F3DD0314C0F7B2291E5B200AC8C7C3B925 SWAP2 ADD PUSH1 0x40 MLOAD DUP1 SWAP2 SUB SWAP1 LOG3 POP POP POP JUMP JUMPDEST PUSH1 0x1 PUSH1 0x1 PUSH1 0xA0 SHL SUB DUP4 DUP2 AND PUSH1 0x0 SWAP1 DUP2 MSTORE PUSH1 0x1 PUSH1 0x20 SWAP1 DUP2 MSTORE PUSH1 0x40 DUP1 DUP4 KECCAK256 SWAP4 DUP7 AND DUP4 MSTORE SWAP3 SWAP1 MSTORE KECCAK256 SLOAD PUSH1 0x0 NOT DUP2 EQ PUSH2 0x1249 JUMPI DUP2 DUP2 LT ISZERO PUSH2 0x123C JUMPI PUSH1 0x40 MLOAD PUSH3 0x461BCD PUSH1 0xE5 SHL DUP2 MSTORE PUSH1 0x20 PUSH1 0x4 DUP3 ADD MSTORE PUSH1 0x1D PUSH1 0x24 DUP3 ADD MSTORE PUSH32 0x45524332303A20696E73756666696369656E7420616C6C6F77616E6365000000 PUSH1 0x44 DUP3 ADD MSTORE PUSH1 0x64 ADD PUSH2 0xA39 JUMP JUMPDEST PUSH2 0x1249 DUP5 DUP5 DUP5 DUP5 SUB PUSH2 0x1065 JUMP JUMPDEST POP POP POP POP JUMP JUMPDEST PUSH1 0x1 PUSH1 0x1 PUSH1 0xA0 SHL SUB DUP4 AND PUSH1 0x0 SWAP1 DUP2 MSTORE PUSH1 0x17 PUSH1 0x20 MSTORE PUSH1 0x40 SWAP1 KECCAK256 SLOAD PUSH1 0xFF AND DUP1 PUSH2 0x128E JUMPI POP PUSH1 0x1 PUSH1 0x1 PUSH1 0xA0 SHL SUB DUP3 AND PUSH1 0x0 SWAP1 DUP2 MSTORE PUSH1 0x17 PUSH1 0x20 MSTORE PUSH1 0x40 SWAP1 KECCAK256 SLOAD PUSH1 0xFF AND JUMPDEST ISZERO PUSH2 0x12C5 JUMPI PUSH1 0x40 MLOAD PUSH32 0x9949D1CC00000000000000000000000000000000000000000000000000000000 DUP2 MSTORE PUSH1 0x4 ADD PUSH1 0x40 MLOAD DUP1 SWAP2 SUB SWAP1 REVERT JUMPDEST PUSH1 0x1 PUSH1 0x1 PUSH1 0xA0 SHL SUB DUP4 AND PUSH1 0x0 SWAP1 DUP2 MSTORE PUSH1 0x16 PUSH1 0x20 MSTORE PUSH1 0x40 SWAP1 KECCAK256 SLOAD PUSH1 0xFF AND DUP1 PUSH2 0x1304 JUMPI POP PUSH1 0x1 PUSH1 0x1 PUSH1 0xA0 SHL SUB DUP3 AND PUSH1 0x0 SWAP1 DUP2 MSTORE PUSH1 0x16 PUSH1 0x20 MSTORE PUSH1 0x40 SWAP1 KECCAK256 SLOAD PUSH1 0xFF AND JUMPDEST ISZERO PUSH2 0x1314 JUMPI PUSH2 0x9BA DUP4 DUP4 DUP4 PUSH2 0x19B1 JUMP JUMPDEST PUSH1 0x64 PUSH2 0x131F PUSH1 0x2 SLOAD SWAP1 JUMP JUMPDEST PUSH2 0x1329 SWAP2 SWAP1 PUSH2 0x25EB JUMP JUMPDEST DUP2 PUSH2 0x1349 DUP5 PUSH1 0x1 PUSH1 0x1 PUSH1 0xA0 SHL SUB AND PUSH1 0x0 SWAP1 DUP2 MSTORE PUSH1 0x20 DUP2 SWAP1 MSTORE PUSH1 0x40 SWAP1 KECCAK256 SLOAD SWAP1 JUMP JUMPDEST PUSH2 0x1353 SWAP2 SWAP1 PUSH2 0x255C JUMP JUMPDEST GT ISZERO PUSH2 0x138B JUMPI PUSH1 0x40 MLOAD PUSH32 0x5107DBE700000000000000000000000000000000000000000000000000000000 DUP2 MSTORE PUSH1 0x4 ADD PUSH1 0x40 MLOAD DUP1 SWAP2 SUB SWAP1 REVERT JUMPDEST PUSH1 0x1 PUSH1 0x1 PUSH1 0xA0 SHL SUB DUP4 AND PUSH1 0x0 SWAP1 DUP2 MSTORE PUSH1 0xC PUSH1 0x20 MSTORE PUSH1 0x40 SWAP1 KECCAK256 SLOAD DUP2 SWAP1 PUSH1 0xFF AND ISZERO ISZERO PUSH1 0x1 EQ DUP1 PUSH2 0x13D6 JUMPI POP PUSH1 0x1 PUSH1 0x1 PUSH1 0xA0 SHL SUB DUP4 AND PUSH1 0x0 SWAP1 DUP2 MSTORE PUSH1 0xC PUSH1 0x20 MSTORE PUSH1 0x40 SWAP1 KECCAK256 SLOAD PUSH1 0xFF AND ISZERO ISZERO PUSH1 0x1 EQ JUMPDEST ISZERO PUSH2 0x16BA JUMPI PUSH1 0xD DUP1 SLOAD SWAP1 PUSH1 0x0 PUSH2 0x13EB DUP4 PUSH2 0x25BF JUMP JUMPDEST SWAP1 SWAP2 SSTORE POP POP PUSH1 0x10 SLOAD PUSH1 0x0 SWAP1 PUSH2 0x1401 PUSH1 0x64 DUP6 PUSH2 0x25EB JUMP JUMPDEST PUSH2 0x140B SWAP2 SWAP1 PUSH2 0x260D JUMP JUMPDEST SWAP1 POP PUSH1 0x0 PUSH1 0xF SLOAD PUSH1 0x64 DUP6 PUSH2 0x141F SWAP2 SWAP1 PUSH2 0x25EB JUMP JUMPDEST PUSH2 0x1429 SWAP2 SWAP1 PUSH2 0x260D JUMP JUMPDEST SWAP1 POP PUSH1 0x0 PUSH1 0xE SLOAD PUSH1 0x64 DUP7 PUSH2 0x143D SWAP2 SWAP1 PUSH2 0x25EB JUMP JUMPDEST PUSH2 0x1447 SWAP2 SWAP1 PUSH2 0x260D JUMP JUMPDEST SWAP1 POP DUP1 DUP3 PUSH2 0x1455 DUP6 DUP8 PUSH2 0x25D8 JUMP JUMPDEST PUSH2 0x145F SWAP2 SWAP1 PUSH2 0x25D8 JUMP JUMPDEST PUSH2 0x1469 SWAP2 SWAP1 PUSH2 0x25D8 JUMP JUMPDEST SWAP4 POP DUP3 PUSH1 0x12 PUSH1 0x0 DUP3 DUP3 SLOAD PUSH2 0x147D SWAP2 SWAP1 PUSH2 0x255C JUMP JUMPDEST SWAP3 POP POP DUP2 SWAP1 SSTORE POP DUP2 PUSH1 0x13 PUSH1 0x0 DUP3 DUP3 SLOAD PUSH2 0x1496 SWAP2 SWAP1 PUSH2 0x255C JUMP JUMPDEST SWAP3 POP POP DUP2 SWAP1 SSTORE POP DUP1 PUSH1 0x14 PUSH1 0x0 DUP3 DUP3 SLOAD PUSH2 0x14AF SWAP2 SWAP1 PUSH2 0x255C JUMP JUMPDEST SWAP1 SWAP2 SSTORE POP POP PUSH1 0x1 PUSH1 0x1 PUSH1 0xA0 SHL SUB DUP7 AND PUSH1 0x0 SWAP1 DUP2 MSTORE PUSH1 0xC PUSH1 0x20 MSTORE PUSH1 0x40 SWAP1 KECCAK256 SLOAD PUSH1 0xFF AND ISZERO ISZERO PUSH1 0x1 SUB PUSH2 0x151B JUMPI PUSH1 0x11 SLOAD PUSH1 0x0 SWAP1 PUSH2 0x14EA PUSH1 0x64 DUP9 PUSH2 0x25EB JUMP JUMPDEST PUSH2 0x14F4 SWAP2 SWAP1 PUSH2 0x260D JUMP JUMPDEST SWAP1 POP PUSH2 0x1500 DUP2 DUP7 PUSH2 0x25D8 JUMP JUMPDEST SWAP5 POP DUP1 PUSH1 0x15 PUSH1 0x0 DUP3 DUP3 SLOAD PUSH2 0x1514 SWAP2 SWAP1 PUSH2 0x255C JUMP JUMPDEST SWAP1 SWAP2 SSTORE POP POP POP JUMPDEST PUSH1 0x5 PUSH1 0xD SLOAD LT PUSH2 0x16A2 JUMPI PUSH1 0x0 PUSH1 0xD SSTORE PUSH1 0x15 SLOAD PUSH1 0x14 SLOAD PUSH1 0x13 SLOAD PUSH1 0x12 SLOAD PUSH2 0x155E SWAP4 SWAP3 SWAP2 PUSH2 0x1545 SWAP2 PUSH2 0x255C JUMP JUMPDEST PUSH2 0x154F SWAP2 SWAP1 PUSH2 0x255C JUMP JUMPDEST PUSH2 0x1559 SWAP2 SWAP1 PUSH2 0x255C JUMP JUMPDEST PUSH2 0x1C5B JUMP JUMPDEST PUSH1 0x10 SLOAD SELFBALANCE SWAP1 PUSH1 0x0 SWAP1 PUSH2 0x1571 PUSH1 0x64 DUP5 PUSH2 0x25EB JUMP JUMPDEST PUSH2 0x157B SWAP2 SWAP1 PUSH2 0x260D JUMP JUMPDEST SWAP1 POP PUSH1 0x0 PUSH1 0xF SLOAD PUSH1 0x64 DUP5 PUSH2 0x158F SWAP2 SWAP1 PUSH2 0x25EB JUMP JUMPDEST PUSH2 0x1599 SWAP2 SWAP1 PUSH2 0x260D JUMP JUMPDEST SWAP1 POP PUSH1 0x0 PUSH1 0xE SLOAD PUSH1 0x64 DUP6 PUSH2 0x15AD SWAP2 SWAP1 PUSH2 0x25EB JUMP JUMPDEST PUSH2 0x15B7 SWAP2 SWAP1 PUSH2 0x260D JUMP JUMPDEST PUSH1 0xA SLOAD PUSH1 0x40 MLOAD SWAP2 SWAP3 POP PUSH1 0x1 PUSH1 0x1 PUSH1 0xA0 SHL SUB AND SWAP1 DUP5 ISZERO PUSH2 0x8FC MUL SWAP1 DUP6 SWAP1 PUSH1 0x0 DUP2 DUP2 DUP2 DUP6 DUP9 DUP9 CALL SWAP4 POP POP POP POP ISZERO DUP1 ISZERO PUSH2 0x15F2 JUMPI RETURNDATASIZE PUSH1 0x0 DUP1 RETURNDATACOPY RETURNDATASIZE PUSH1 0x0 REVERT JUMPDEST POP PUSH1 0x9 SLOAD PUSH1 0x40 MLOAD PUSH1 0x1 PUSH1 0x1 PUSH1 0xA0 SHL SUB SWAP1 SWAP2 AND SWAP1 DUP4 ISZERO PUSH2 0x8FC MUL SWAP1 DUP5 SWAP1 PUSH1 0x0 DUP2 DUP2 DUP2 DUP6 DUP9 DUP9 CALL SWAP4 POP POP POP POP ISZERO DUP1 ISZERO PUSH2 0x162D JUMPI RETURNDATASIZE PUSH1 0x0 DUP1 RETURNDATACOPY RETURNDATASIZE PUSH1 0x0 REVERT JUMPDEST POP PUSH1 0x8 SLOAD PUSH1 0x40 MLOAD PUSH1 0x1 PUSH1 0x1 PUSH1 0xA0 SHL SUB SWAP1 SWAP2 AND SWAP1 DUP3 ISZERO PUSH2 0x8FC MUL SWAP1 DUP4 SWAP1 PUSH1 0x0 DUP2 DUP2 DUP2 DUP6 DUP9 DUP9 CALL SWAP4 POP POP POP POP ISZERO DUP1 ISZERO PUSH2 0x1668 JUMPI RETURNDATASIZE PUSH1 0x0 DUP1 RETURNDATACOPY RETURNDATASIZE PUSH1 0x0 REVERT JUMPDEST POP PUSH1 0x15 SLOAD ISZERO PUSH2 0x1689 JUMPI PUSH1 0x0 SELFBALANCE SWAP1 POP PUSH2 0x1682 DUP2 PUSH1 0x15 SLOAD PUSH2 0x1DE7 JUMP JUMPDEST POP PUSH1 0x0 PUSH1 0x15 SSTORE JUMPDEST POP POP PUSH1 0x0 PUSH1 0x12 DUP2 SWAP1 SSTORE PUSH1 0x13 DUP2 SWAP1 SSTORE PUSH1 0x14 SSTORE POP PUSH2 0x16B6 SWAP1 POP JUMP JUMPDEST PUSH2 0x16B6 DUP8 ADDRESS PUSH2 0x16B1 DUP8 DUP10 PUSH2 0x25D8 JUMP JUMPDEST PUSH2 0x19B1 JUMP JUMPDEST POP POP POP JUMPDEST PUSH2 0x1249 DUP5 DUP5 DUP4 PUSH2 0x19B1 JUMP JUMPDEST PUSH1 0x0 DUP3 DUP2 MSTORE PUSH1 0x6 PUSH1 0x20 SWAP1 DUP2 MSTORE PUSH1 0x40 DUP1 DUP4 KECCAK256 PUSH1 0x1 PUSH1 0x1 PUSH1 0xA0 SHL SUB DUP6 AND DUP5 MSTORE SWAP1 SWAP2 MSTORE SWAP1 KECCAK256 SLOAD PUSH1 0xFF AND PUSH2 0xA4C JUMPI PUSH1 0x0 DUP3 DUP2 MSTORE PUSH1 0x6 PUSH1 0x20 SWAP1 DUP2 MSTORE PUSH1 0x40 DUP1 DUP4 KECCAK256 PUSH1 0x1 PUSH1 0x1 PUSH1 0xA0 SHL SUB DUP6 AND DUP5 MSTORE SWAP1 SWAP2 MSTORE SWAP1 KECCAK256 DUP1 SLOAD PUSH1 0xFF NOT AND PUSH1 0x1 OR SWAP1 SSTORE PUSH2 0x1723 CALLER SWAP1 JUMP JUMPDEST PUSH1 0x1 PUSH1 0x1 PUSH1 0xA0 SHL SUB AND DUP2 PUSH1 0x1 PUSH1 0x1 PUSH1 0xA0 SHL SUB AND DUP4 PUSH32 0x2F8788117E7EFF1D82E926EC794901D17C78024A50270940304540A733656F0D PUSH1 0x40 MLOAD PUSH1 0x40 MLOAD DUP1 SWAP2 SUB SWAP1 LOG4 POP POP JUMP JUMPDEST PUSH1 0x0 DUP3 DUP2 MSTORE PUSH1 0x6 PUSH1 0x20 SWAP1 DUP2 MSTORE PUSH1 0x40 DUP1 DUP4 KECCAK256 PUSH1 0x1 PUSH1 0x1 PUSH1 0xA0 SHL SUB DUP6 AND DUP5 MSTORE SWAP1 SWAP2 MSTORE SWAP1 KECCAK256 SLOAD PUSH1 0xFF AND ISZERO PUSH2 0xA4C JUMPI PUSH1 0x0 DUP3 DUP2 MSTORE PUSH1 0x6 PUSH1 0x20 SWAP1 DUP2 MSTORE PUSH1 0x40 DUP1 DUP4 KECCAK256 PUSH1 0x1 PUSH1 0x1 PUSH1 0xA0 SHL SUB DUP6 AND DUP1 DUP6 MSTORE SWAP3 MSTORE DUP1 DUP4 KECCAK256 DUP1 SLOAD PUSH1 0xFF NOT AND SWAP1 SSTORE MLOAD CALLER SWAP3 DUP6 SWAP2 PUSH32 0xF6391F5C32D9C69D2A47EA670B442974B53935D1EDC7FD64EB21E047A839171B SWAP2 SWAP1 LOG4 POP POP JUMP JUMPDEST PUSH2 0x17F2 PUSH2 0x1EAA JUMP JUMPDEST PUSH1 0x5 DUP1 SLOAD PUSH1 0xFF NOT AND SWAP1 SSTORE PUSH32 0x5DB9EE0A495BF2E6FF9C91A7834C1BA4FDD244A5E8AA4E537BD38AEAE4B073AA CALLER JUMPDEST PUSH1 0x40 MLOAD PUSH1 0x1 PUSH1 0x1 PUSH1 0xA0 SHL SUB SWAP1 SWAP2 AND DUP2 MSTORE PUSH1 0x20 ADD PUSH1 0x40 MLOAD DUP1 SWAP2 SUB SWAP1 LOG1 JUMP JUMPDEST PUSH1 0x1 PUSH1 0x1 PUSH1 0xA0 SHL SUB DUP3 AND PUSH2 0x18B8 JUMPI PUSH1 0x40 MLOAD PUSH3 0x461BCD PUSH1 0xE5 SHL DUP2 MSTORE PUSH1 0x20 PUSH1 0x4 DUP3 ADD MSTORE PUSH1 0x21 PUSH1 0x24 DUP3 ADD MSTORE PUSH32 0x45524332303A206275726E2066726F6D20746865207A65726F20616464726573 PUSH1 0x44 DUP3 ADD MSTORE PUSH32 0x7300000000000000000000000000000000000000000000000000000000000000 PUSH1 0x64 DUP3 ADD MSTORE PUSH1 0x84 ADD PUSH2 0xA39 JUMP JUMPDEST PUSH2 0x18C4 DUP3 PUSH1 0x0 DUP4 PUSH2 0x1EFE JUMP JUMPDEST PUSH1 0x1 PUSH1 0x1 PUSH1 0xA0 SHL SUB DUP3 AND PUSH1 0x0 SWAP1 DUP2 MSTORE PUSH1 0x20 DUP2 SWAP1 MSTORE PUSH1 0x40 SWAP1 KECCAK256 SLOAD DUP2 DUP2 LT ISZERO PUSH2 0x1953 JUMPI PUSH1 0x40 MLOAD PUSH3 0x461BCD PUSH1 0xE5 SHL DUP2 MSTORE PUSH1 0x20 PUSH1 0x4 DUP3 ADD MSTORE PUSH1 0x22 PUSH1 0x24 DUP3 ADD MSTORE PUSH32 0x45524332303A206275726E20616D6F756E7420657863656564732062616C616E PUSH1 0x44 DUP3 ADD MSTORE PUSH32 0x6365000000000000000000000000000000000000000000000000000000000000 PUSH1 0x64 DUP3 ADD MSTORE PUSH1 0x84 ADD PUSH2 0xA39 JUMP JUMPDEST PUSH1 0x1 PUSH1 0x1 PUSH1 0xA0 SHL SUB DUP4 AND PUSH1 0x0 DUP2 DUP2 MSTORE PUSH1 0x20 DUP2 DUP2 MSTORE PUSH1 0x40 DUP1 DUP4 KECCAK256 DUP7 DUP7 SUB SWAP1 SSTORE PUSH1 0x2 DUP1 SLOAD DUP8 SWAP1 SUB SWAP1 SSTORE MLOAD DUP6 DUP2 MSTORE SWAP2 SWAP3 SWAP2 PUSH32 0xDDF252AD1BE2C89B69C2B068FC378DAA952BA7F163C4A11628F55A4DF523B3EF SWAP2 ADD PUSH1 0x40 MLOAD DUP1 SWAP2 SUB SWAP1 LOG3 POP POP POP JUMP JUMPDEST PUSH1 0x1 PUSH1 0x1 PUSH1 0xA0 SHL SUB DUP4 AND PUSH2 0x1A2D JUMPI PUSH1 0x40 MLOAD PUSH3 0x461BCD PUSH1 0xE5 SHL DUP2 MSTORE PUSH1 0x20 PUSH1 0x4 DUP3 ADD MSTORE PUSH1 0x25 PUSH1 0x24 DUP3 ADD MSTORE PUSH32 0x45524332303A207472616E736665722066726F6D20746865207A65726F206164 PUSH1 0x44 DUP3 ADD MSTORE PUSH32 0x6472657373000000000000000000000000000000000000000000000000000000 PUSH1 0x64 DUP3 ADD MSTORE PUSH1 0x84 ADD PUSH2 0xA39 JUMP JUMPDEST PUSH1 0x1 PUSH1 0x1 PUSH1 0xA0 SHL SUB DUP3 AND PUSH2 0x1AA9 JUMPI PUSH1 0x40 MLOAD PUSH3 0x461BCD PUSH1 0xE5 SHL DUP2 MSTORE PUSH1 0x20 PUSH1 0x4 DUP3 ADD MSTORE PUSH1 0x23 PUSH1 0x24 DUP3 ADD MSTORE PUSH32 0x45524332303A207472616E7366657220746F20746865207A65726F2061646472 PUSH1 0x44 DUP3 ADD MSTORE PUSH32 0x6573730000000000000000000000000000000000000000000000000000000000 PUSH1 0x64 DUP3 ADD MSTORE PUSH1 0x84 ADD PUSH2 0xA39 JUMP JUMPDEST PUSH2 0x1AB4 DUP4 DUP4 DUP4 PUSH2 0x1EFE JUMP JUMPDEST PUSH1 0x1 PUSH1 0x1 PUSH1 0xA0 SHL SUB DUP4 AND PUSH1 0x0 SWAP1 DUP2 MSTORE PUSH1 0x20 DUP2 SWAP1 MSTORE PUSH1 0x40 SWAP1 KECCAK256 SLOAD DUP2 DUP2 LT ISZERO PUSH2 0x1B43 JUMPI PUSH1 0x40 MLOAD PUSH3 0x461BCD PUSH1 0xE5 SHL DUP2 MSTORE PUSH1 0x20 PUSH1 0x4 DUP3 ADD MSTORE PUSH1 0x26 PUSH1 0x24 DUP3 ADD MSTORE PUSH32 0x45524332303A207472616E7366657220616D6F756E7420657863656564732062 PUSH1 0x44 DUP3 ADD MSTORE PUSH32 0x616C616E63650000000000000000000000000000000000000000000000000000 PUSH1 0x64 DUP3 ADD MSTORE PUSH1 0x84 ADD PUSH2 0xA39 JUMP JUMPDEST PUSH1 0x1 PUSH1 0x1 PUSH1 0xA0 SHL SUB DUP5 DUP2 AND PUSH1 0x0 DUP2 DUP2 MSTORE PUSH1 0x20 DUP2 DUP2 MSTORE PUSH1 0x40 DUP1 DUP4 KECCAK256 DUP8 DUP8 SUB SWAP1 SSTORE SWAP4 DUP8 AND DUP1 DUP4 MSTORE SWAP2 DUP5 SWAP1 KECCAK256 DUP1 SLOAD DUP8 ADD SWAP1 SSTORE SWAP3 MLOAD DUP6 DUP2 MSTORE SWAP1 SWAP3 PUSH32 0xDDF252AD1BE2C89B69C2B068FC378DAA952BA7F163C4A11628F55A4DF523B3EF SWAP2 ADD PUSH1 0x40 MLOAD DUP1 SWAP2 SUB SWAP1 LOG3 PUSH2 0x1249 JUMP JUMPDEST PUSH2 0x1BB1 PUSH2 0x1F02 JUMP JUMPDEST PUSH1 0x5 DUP1 SLOAD PUSH1 0xFF NOT AND PUSH1 0x1 OR SWAP1 SSTORE PUSH32 0x62E78CEA01BEE320CD4E420270B5EA74000D11B0C9F74754EBDBFC544B05A258 PUSH2 0x181F CALLER SWAP1 JUMP JUMPDEST PUSH1 0x0 DUP3 DUP2 MSTORE PUSH1 0x6 PUSH1 0x20 SWAP1 DUP2 MSTORE PUSH1 0x40 DUP1 DUP4 KECCAK256 PUSH1 0x1 PUSH1 0x1 PUSH1 0xA0 SHL SUB DUP6 AND DUP5 MSTORE SWAP1 SWAP2 MSTORE SWAP1 KECCAK256 SLOAD PUSH1 0xFF AND PUSH2 0xA4C JUMPI PUSH2 0x1C19 DUP2 PUSH2 0x1F55 JUMP JUMPDEST PUSH2 0x1C24 DUP4 PUSH1 0x20 PUSH2 0x1F67 JUMP JUMPDEST PUSH1 0x40 MLOAD PUSH1 0x20 ADD PUSH2 0x1C35 SWAP3 SWAP2 SWAP1 PUSH2 0x2624 JUMP JUMPDEST PUSH1 0x40 DUP1 MLOAD PUSH1 0x1F NOT DUP2 DUP5 SUB ADD DUP2 MSTORE SWAP1 DUP3 SWAP1 MSTORE PUSH3 0x461BCD PUSH1 0xE5 SHL DUP3 MSTORE PUSH2 0xA39 SWAP2 PUSH1 0x4 ADD PUSH2 0x21E7 JUMP JUMPDEST PUSH1 0x40 DUP1 MLOAD PUSH1 0x2 DUP1 DUP3 MSTORE PUSH1 0x60 DUP3 ADD DUP4 MSTORE PUSH1 0x0 SWAP3 PUSH1 0x20 DUP4 ADD SWAP1 DUP1 CALLDATASIZE DUP4 CALLDATACOPY ADD SWAP1 POP POP SWAP1 POP ADDRESS DUP2 PUSH1 0x0 DUP2 MLOAD DUP2 LT PUSH2 0x1C90 JUMPI PUSH2 0x1C90 PUSH2 0x25A9 JUMP JUMPDEST PUSH1 0x1 PUSH1 0x1 PUSH1 0xA0 SHL SUB SWAP3 DUP4 AND PUSH1 0x20 SWAP2 DUP3 MUL SWAP3 SWAP1 SWAP3 ADD DUP2 ADD SWAP2 SWAP1 SWAP2 MSTORE PUSH1 0x19 SLOAD PUSH1 0x40 DUP1 MLOAD PUSH32 0xAD5C464800000000000000000000000000000000000000000000000000000000 DUP2 MSTORE SWAP1 MLOAD SWAP2 SWAP1 SWAP4 AND SWAP3 PUSH4 0xAD5C4648 SWAP3 PUSH1 0x4 DUP1 DUP4 ADD SWAP4 SWAP2 SWAP3 DUP3 SWAP1 SUB ADD DUP2 DUP7 GAS STATICCALL ISZERO DUP1 ISZERO PUSH2 0x1D02 JUMPI RETURNDATASIZE PUSH1 0x0 DUP1 RETURNDATACOPY RETURNDATASIZE PUSH1 0x0 REVERT JUMPDEST POP POP POP POP PUSH1 0x40 MLOAD RETURNDATASIZE PUSH1 0x1F NOT PUSH1 0x1F DUP3 ADD AND DUP3 ADD DUP1 PUSH1 0x40 MSTORE POP DUP2 ADD SWAP1 PUSH2 0x1D26 SWAP2 SWAP1 PUSH2 0x26A5 JUMP JUMPDEST DUP2 PUSH1 0x1 DUP2 MLOAD DUP2 LT PUSH2 0x1D39 JUMPI PUSH2 0x1D39 PUSH2 0x25A9 JUMP JUMPDEST PUSH1 0x1 PUSH1 0x1 PUSH1 0xA0 SHL SUB SWAP3 DUP4 AND PUSH1 0x20 SWAP2 DUP3 MUL SWAP3 SWAP1 SWAP3 ADD ADD MSTORE PUSH1 0x19 SLOAD PUSH2 0x1D5F SWAP2 ADDRESS SWAP2 AND DUP5 PUSH2 0x1065 JUMP JUMPDEST PUSH1 0x19 SLOAD PUSH1 0x40 MLOAD PUSH32 0x791AC94700000000000000000000000000000000000000000000000000000000 DUP2 MSTORE PUSH1 0x1 PUSH1 0x1 PUSH1 0xA0 SHL SUB SWAP1 SWAP2 AND SWAP1 PUSH4 0x791AC947 SWAP1 PUSH2 0x1DB1 SWAP1 DUP6 SWAP1 PUSH1 0x0 SWAP1 DUP7 SWAP1 ADDRESS SWAP1 TIMESTAMP SWAP1 PUSH1 0x4 ADD PUSH2 0x26C2 JUMP JUMPDEST PUSH1 0x0 PUSH1 0x40 MLOAD DUP1 DUP4 SUB DUP2 PUSH1 0x0 DUP8 DUP1 EXTCODESIZE ISZERO DUP1 ISZERO PUSH2 0x1DCB JUMPI PUSH1 0x0 DUP1 REVERT JUMPDEST POP GAS CALL ISZERO DUP1 ISZERO PUSH2 0x1DDF JUMPI RETURNDATASIZE PUSH1 0x0 DUP1 RETURNDATACOPY RETURNDATASIZE PUSH1 0x0 REVERT JUMPDEST POP POP POP POP POP POP JUMP JUMPDEST PUSH1 0x19 SLOAD PUSH2 0x1DFF SWAP1 ADDRESS SWAP1 PUSH1 0x1 PUSH1 0x1 PUSH1 0xA0 SHL SUB AND DUP5 PUSH2 0x1065 JUMP JUMPDEST PUSH1 0x19 SLOAD PUSH1 0x40 MLOAD PUSH32 0xF305D71900000000000000000000000000000000000000000000000000000000 DUP2 MSTORE ADDRESS PUSH1 0x4 DUP3 ADD MSTORE PUSH1 0x24 DUP2 ADD DUP5 SWAP1 MSTORE PUSH1 0x0 PUSH1 0x44 DUP3 ADD DUP2 SWAP1 MSTORE PUSH1 0x64 DUP3 ADD DUP2 SWAP1 MSTORE PUSH1 0x84 DUP3 ADD MSTORE TIMESTAMP PUSH1 0xA4 DUP3 ADD MSTORE PUSH1 0x1 PUSH1 0x1 PUSH1 0xA0 SHL SUB SWAP1 SWAP2 AND SWAP1 PUSH4 0xF305D719 SWAP1 DUP4 SWAP1 PUSH1 0xC4 ADD PUSH1 0x60 PUSH1 0x40 MLOAD DUP1 DUP4 SUB DUP2 DUP6 DUP9 GAS CALL ISZERO DUP1 ISZERO PUSH2 0x1E85 JUMPI RETURNDATASIZE PUSH1 0x0 DUP1 RETURNDATACOPY RETURNDATASIZE PUSH1 0x0 REVERT JUMPDEST POP POP POP POP POP PUSH1 0x40 MLOAD RETURNDATASIZE PUSH1 0x1F NOT PUSH1 0x1F DUP3 ADD AND DUP3 ADD DUP1 PUSH1 0x40 MSTORE POP DUP2 ADD SWAP1 PUSH2 0x102F SWAP2 SWAP1 PUSH2 0x2733 JUMP JUMPDEST PUSH1 0x5 SLOAD PUSH1 0xFF AND PUSH2 0x1EFC JUMPI PUSH1 0x40 MLOAD PUSH3 0x461BCD PUSH1 0xE5 SHL DUP2 MSTORE PUSH1 0x20 PUSH1 0x4 DUP3 ADD MSTORE PUSH1 0x14 PUSH1 0x24 DUP3 ADD MSTORE PUSH32 0x5061757361626C653A206E6F7420706175736564000000000000000000000000 PUSH1 0x44 DUP3 ADD MSTORE PUSH1 0x64 ADD PUSH2 0xA39 JUMP JUMPDEST JUMP JUMPDEST PUSH2 0x9BA JUMPDEST PUSH1 0x5 SLOAD PUSH1 0xFF AND ISZERO PUSH2 0x1EFC JUMPI PUSH1 0x40 MLOAD PUSH3 0x461BCD PUSH1 0xE5 SHL DUP2 MSTORE PUSH1 0x20 PUSH1 0x4 DUP3 ADD MSTORE PUSH1 0x10 PUSH1 0x24 DUP3 ADD MSTORE PUSH32 0x5061757361626C653A2070617573656400000000000000000000000000000000 PUSH1 0x44 DUP3 ADD MSTORE PUSH1 0x64 ADD PUSH2 0xA39 JUMP JUMPDEST PUSH1 0x60 PUSH2 0x7E4 PUSH1 0x1 PUSH1 0x1 PUSH1 0xA0 SHL SUB DUP4 AND PUSH1 0x14 JUMPDEST PUSH1 0x60 PUSH1 0x0 PUSH2 0x1F76 DUP4 PUSH1 0x2 PUSH2 0x260D JUMP JUMPDEST PUSH2 0x1F81 SWAP1 PUSH1 0x2 PUSH2 0x255C JUMP JUMPDEST PUSH8 0xFFFFFFFFFFFFFFFF DUP2 GT ISZERO PUSH2 0x1F99 JUMPI PUSH2 0x1F99 PUSH2 0x2380 JUMP JUMPDEST PUSH1 0x40 MLOAD SWAP1 DUP1 DUP3 MSTORE DUP1 PUSH1 0x1F ADD PUSH1 0x1F NOT AND PUSH1 0x20 ADD DUP3 ADD PUSH1 0x40 MSTORE DUP1 ISZERO PUSH2 0x1FC3 JUMPI PUSH1 0x20 DUP3 ADD DUP2 DUP1 CALLDATASIZE DUP4 CALLDATACOPY ADD SWAP1 POP JUMPDEST POP SWAP1 POP PUSH32 0x3000000000000000000000000000000000000000000000000000000000000000 DUP2 PUSH1 0x0 DUP2 MLOAD DUP2 LT PUSH2 0x1FFA JUMPI PUSH2 0x1FFA PUSH2 0x25A9 JUMP JUMPDEST PUSH1 0x20 ADD ADD SWAP1 PUSH1 0x1 PUSH1 0x1 PUSH1 0xF8 SHL SUB NOT AND SWAP1 DUP2 PUSH1 0x0 BYTE SWAP1 MSTORE8 POP PUSH32 0x7800000000000000000000000000000000000000000000000000000000000000 DUP2 PUSH1 0x1 DUP2 MLOAD DUP2 LT PUSH2 0x2045 JUMPI PUSH2 0x2045 PUSH2 0x25A9 JUMP JUMPDEST PUSH1 0x20 ADD ADD SWAP1 PUSH1 0x1 PUSH1 0x1 PUSH1 0xF8 SHL SUB NOT AND SWAP1 DUP2 PUSH1 0x0 BYTE SWAP1 MSTORE8 POP PUSH1 0x0 PUSH2 0x2069 DUP5 PUSH1 0x2 PUSH2 0x260D JUMP JUMPDEST PUSH2 0x2074 SWAP1 PUSH1 0x1 PUSH2 0x255C JUMP JUMPDEST SWAP1 POP JUMPDEST PUSH1 0x1 DUP2 GT ISZERO PUSH2 0x20F9 JUMPI PUSH32 0x3031323334353637383961626364656600000000000000000000000000000000 DUP6 PUSH1 0xF AND PUSH1 0x10 DUP2 LT PUSH2 0x20B5 JUMPI PUSH2 0x20B5 PUSH2 0x25A9 JUMP JUMPDEST BYTE PUSH1 0xF8 SHL DUP3 DUP3 DUP2 MLOAD DUP2 LT PUSH2 0x20CB JUMPI PUSH2 0x20CB PUSH2 0x25A9 JUMP JUMPDEST PUSH1 0x20 ADD ADD SWAP1 PUSH1 0x1 PUSH1 0x1 PUSH1 0xF8 SHL SUB NOT AND SWAP1 DUP2 PUSH1 0x0 BYTE SWAP1 MSTORE8 POP PUSH1 0x4 SWAP5 SWAP1 SWAP5 SHR SWAP4 PUSH2 0x20F2 DUP2 PUSH2 0x2761 JUMP JUMPDEST SWAP1 POP PUSH2 0x2077 JUMP JUMPDEST POP DUP4 ISZERO PUSH2 0x2148 JUMPI PUSH1 0x40 MLOAD PUSH3 0x461BCD PUSH1 0xE5 SHL DUP2 MSTORE PUSH1 0x20 PUSH1 0x4 DUP3 ADD DUP2 SWAP1 MSTORE PUSH1 0x24 DUP3 ADD MSTORE PUSH32 0x537472696E67733A20686578206C656E67746820696E73756666696369656E74 PUSH1 0x44 DUP3 ADD MSTORE PUSH1 0x64 ADD PUSH2 0xA39 JUMP JUMPDEST SWAP4 SWAP3 POP POP POP JUMP JUMPDEST PUSH1 0x0 PUSH1 0x20 DUP3 DUP5 SUB SLT ISZERO PUSH2 0x2161 JUMPI PUSH1 0x0 DUP1 REVERT JUMPDEST DUP2 CALLDATALOAD PUSH32 0xFFFFFFFF00000000000000000000000000000000000000000000000000000000 DUP2 AND DUP2 EQ PUSH2 0x2148 JUMPI PUSH1 0x0 DUP1 REVERT JUMPDEST PUSH1 0x0 DUP1 PUSH1 0x0 DUP1 PUSH1 0x80 DUP6 DUP8 SUB SLT ISZERO PUSH2 0x21A7 JUMPI PUSH1 0x0 DUP1 REVERT JUMPDEST POP POP DUP3 CALLDATALOAD SWAP5 PUSH1 0x20 DUP5 ADD CALLDATALOAD SWAP5 POP PUSH1 0x40 DUP5 ADD CALLDATALOAD SWAP4 PUSH1 0x60 ADD CALLDATALOAD SWAP3 POP SWAP1 POP JUMP JUMPDEST PUSH1 0x0 JUMPDEST DUP4 DUP2 LT ISZERO PUSH2 0x21DE JUMPI DUP2 DUP2 ADD MLOAD DUP4 DUP3 ADD MSTORE PUSH1 0x20 ADD PUSH2 0x21C6 JUMP JUMPDEST POP POP PUSH1 0x0 SWAP2 ADD MSTORE JUMP JUMPDEST PUSH1 0x20 DUP2 MSTORE PUSH1 0x0 DUP3 MLOAD DUP1 PUSH1 0x20 DUP5 ADD MSTORE PUSH2 0x2206 DUP2 PUSH1 0x40 DUP6 ADD PUSH1 0x20 DUP8 ADD PUSH2 0x21C3 JUMP JUMPDEST PUSH1 0x1F ADD PUSH1 0x1F NOT AND SWAP2 SWAP1 SWAP2 ADD PUSH1 0x40 ADD SWAP3 SWAP2 POP POP JUMP JUMPDEST PUSH1 0x1 PUSH1 0x1 PUSH1 0xA0 SHL SUB DUP2 AND DUP2 EQ PUSH2 0xAC1 JUMPI PUSH1 0x0 DUP1 REVERT JUMPDEST PUSH1 0x0 DUP1 PUSH1 0x40 DUP4 DUP6 SUB SLT ISZERO PUSH2 0x2242 JUMPI PUSH1 0x0 DUP1 REVERT JUMPDEST DUP3 CALLDATALOAD PUSH2 0x224D DUP2 PUSH2 0x221A JUMP JUMPDEST SWAP5 PUSH1 0x20 SWAP4 SWAP1 SWAP4 ADD CALLDATALOAD SWAP4 POP POP POP JUMP JUMPDEST PUSH1 0x0 DUP1 PUSH1 0x0 PUSH1 0x60 DUP5 DUP7 SUB SLT ISZERO PUSH2 0x2270 JUMPI PUSH1 0x0 DUP1 REVERT JUMPDEST DUP4 CALLDATALOAD PUSH2 0x227B DUP2 PUSH2 0x221A JUMP JUMPDEST SWAP3 POP PUSH1 0x20 DUP5 ADD CALLDATALOAD PUSH2 0x228B DUP2 PUSH2 0x221A JUMP JUMPDEST SWAP2 POP PUSH1 0x40 DUP5 ADD CALLDATALOAD PUSH2 0x229B DUP2 PUSH2 0x221A JUMP JUMPDEST DUP1 SWAP2 POP POP SWAP3 POP SWAP3 POP SWAP3 JUMP JUMPDEST PUSH1 0x0 DUP1 PUSH1 0x0 PUSH1 0x60 DUP5 DUP7 SUB SLT ISZERO PUSH2 0x22BB JUMPI PUSH1 0x0 DUP1 REVERT JUMPDEST DUP4 CALLDATALOAD PUSH2 0x22C6 DUP2 PUSH2 0x221A JUMP JUMPDEST SWAP3 POP PUSH1 0x20 DUP5 ADD CALLDATALOAD PUSH2 0x22D6 DUP2 PUSH2 0x221A JUMP JUMPDEST SWAP3 SWAP6 SWAP3 SWAP5 POP POP POP PUSH1 0x40 SWAP2 SWAP1 SWAP2 ADD CALLDATALOAD SWAP1 JUMP JUMPDEST PUSH1 0x0 PUSH1 0x20 DUP3 DUP5 SUB SLT ISZERO PUSH2 0x22F9 JUMPI PUSH1 0x0 DUP1 REVERT JUMPDEST POP CALLDATALOAD SWAP2 SWAP1 POP JUMP JUMPDEST PUSH1 0x0 DUP1 PUSH1 0x40 DUP4 DUP6 SUB SLT ISZERO PUSH2 0x2313 JUMPI PUSH1 0x0 DUP1 REVERT JUMPDEST DUP3 CALLDATALOAD SWAP2 POP PUSH1 0x20 DUP4 ADD CALLDATALOAD PUSH2 0x2325 DUP2 PUSH2 0x221A JUMP JUMPDEST DUP1 SWAP2 POP POP SWAP3 POP SWAP3 SWAP1 POP JUMP JUMPDEST PUSH1 0x0 PUSH1 0x20 DUP3 DUP5 SUB SLT ISZERO PUSH2 0x2342 JUMPI PUSH1 0x0 DUP1 REVERT JUMPDEST DUP2 CALLDATALOAD PUSH2 0x2148 DUP2 PUSH2 0x221A JUMP JUMPDEST PUSH1 0x0 DUP1 PUSH1 0x40 DUP4 DUP6 SUB SLT ISZERO PUSH2 0x2360 JUMPI PUSH1 0x0 DUP1 REVERT JUMPDEST DUP3 CALLDATALOAD PUSH2 0x236B DUP2 PUSH2 0x221A JUMP JUMPDEST SWAP2 POP PUSH1 0x20 DUP4 ADD CALLDATALOAD DUP1 ISZERO ISZERO DUP2 EQ PUSH2 0x2325 JUMPI PUSH1 0x0 DUP1 REVERT JUMPDEST PUSH4 0x4E487B71 PUSH1 0xE0 SHL PUSH1 0x0 MSTORE PUSH1 0x41 PUSH1 0x4 MSTORE PUSH1 0x24 PUSH1 0x0 REVERT JUMPDEST PUSH1 0x40 MLOAD PUSH1 0x1F DUP3 ADD PUSH1 0x1F NOT AND DUP2 ADD PUSH8 0xFFFFFFFFFFFFFFFF DUP2 GT DUP3 DUP3 LT OR ISZERO PUSH2 0x23BF JUMPI PUSH2 0x23BF PUSH2 0x2380 JUMP JUMPDEST PUSH1 0x40 MSTORE SWAP2 SWAP1 POP JUMP JUMPDEST PUSH1 0x0 PUSH8 0xFFFFFFFFFFFFFFFF DUP3 GT ISZERO PUSH2 0x23E1 JUMPI PUSH2 0x23E1 PUSH2 0x2380 JUMP JUMPDEST POP PUSH1 0x5 SHL PUSH1 0x20 ADD SWAP1 JUMP JUMPDEST PUSH1 0x0 DUP3 PUSH1 0x1F DUP4 ADD SLT PUSH2 0x23FC JUMPI PUSH1 0x0 DUP1 REVERT JUMPDEST DUP2 CALLDATALOAD PUSH1 0x20 PUSH2 0x2411 PUSH2 0x240C DUP4 PUSH2 0x23C7 JUMP JUMPDEST PUSH2 0x2396 JUMP JUMPDEST DUP3 DUP2 MSTORE PUSH1 0x5 SWAP3 SWAP1 SWAP3 SHL DUP5 ADD DUP2 ADD SWAP2 DUP2 DUP2 ADD SWAP1 DUP7 DUP5 GT ISZERO PUSH2 0x2430 JUMPI PUSH1 0x0 DUP1 REVERT JUMPDEST DUP3 DUP7 ADD JUMPDEST DUP5 DUP2 LT ISZERO PUSH2 0x244B JUMPI DUP1 CALLDATALOAD DUP4 MSTORE SWAP2 DUP4 ADD SWAP2 DUP4 ADD PUSH2 0x2434 JUMP JUMPDEST POP SWAP7 SWAP6 POP POP POP POP POP POP JUMP JUMPDEST PUSH1 0x0 DUP1 PUSH1 0x40 DUP4 DUP6 SUB SLT ISZERO PUSH2 0x2469 JUMPI PUSH1 0x0 DUP1 REVERT JUMPDEST DUP3 CALLDATALOAD PUSH8 0xFFFFFFFFFFFFFFFF DUP1 DUP3 GT ISZERO PUSH2 0x2481 JUMPI PUSH1 0x0 DUP1 REVERT JUMPDEST DUP2 DUP6 ADD SWAP2 POP DUP6 PUSH1 0x1F DUP4 ADD SLT PUSH2 0x2495 JUMPI PUSH1 0x0 DUP1 REVERT JUMPDEST DUP2 CALLDATALOAD PUSH1 0x20 PUSH2 0x24A5 PUSH2 0x240C DUP4 PUSH2 0x23C7 JUMP JUMPDEST DUP3 DUP2 MSTORE PUSH1 0x5 SWAP3 SWAP1 SWAP3 SHL DUP5 ADD DUP2 ADD SWAP2 DUP2 DUP2 ADD SWAP1 DUP10 DUP5 GT ISZERO PUSH2 0x24C4 JUMPI PUSH1 0x0 DUP1 REVERT JUMPDEST SWAP5 DUP3 ADD SWAP5 JUMPDEST DUP4 DUP7 LT ISZERO PUSH2 0x24EB JUMPI DUP6 CALLDATALOAD PUSH2 0x24DC DUP2 PUSH2 0x221A JUMP JUMPDEST DUP3 MSTORE SWAP5 DUP3 ADD SWAP5 SWAP1 DUP3 ADD SWAP1 PUSH2 0x24C9 JUMP JUMPDEST SWAP7 POP POP DUP7 ADD CALLDATALOAD SWAP3 POP POP DUP1 DUP3 GT ISZERO PUSH2 0x2501 JUMPI PUSH1 0x0 DUP1 REVERT JUMPDEST POP PUSH2 0x250E DUP6 DUP3 DUP7 ADD PUSH2 0x23EB JUMP JUMPDEST SWAP2 POP POP SWAP3 POP SWAP3 SWAP1 POP JUMP JUMPDEST PUSH1 0x0 DUP1 PUSH1 0x40 DUP4 DUP6 SUB SLT ISZERO PUSH2 0x252B JUMPI PUSH1 0x0 DUP1 REVERT JUMPDEST DUP3 CALLDATALOAD PUSH2 0x2536 DUP2 PUSH2 0x221A JUMP JUMPDEST SWAP2 POP PUSH1 0x20 DUP4 ADD CALLDATALOAD PUSH2 0x2325 DUP2 PUSH2 0x221A JUMP JUMPDEST PUSH4 0x4E487B71 PUSH1 0xE0 SHL PUSH1 0x0 MSTORE PUSH1 0x11 PUSH1 0x4 MSTORE PUSH1 0x24 PUSH1 0x0 REVERT JUMPDEST DUP1 DUP3 ADD DUP1 DUP3 GT ISZERO PUSH2 0x7E4 JUMPI PUSH2 0x7E4 PUSH2 0x2546 JUMP JUMPDEST PUSH1 0x1 DUP2 DUP2 SHR SWAP1 DUP3 AND DUP1 PUSH2 0x2583 JUMPI PUSH1 0x7F DUP3 AND SWAP2 POP JUMPDEST PUSH1 0x20 DUP3 LT DUP2 SUB PUSH2 0x25A3 JUMPI PUSH4 0x4E487B71 PUSH1 0xE0 SHL PUSH1 0x0 MSTORE PUSH1 0x22 PUSH1 0x4 MSTORE PUSH1 0x24 PUSH1 0x0 REVERT JUMPDEST POP SWAP2 SWAP1 POP JUMP JUMPDEST PUSH4 0x4E487B71 PUSH1 0xE0 SHL PUSH1 0x0 MSTORE PUSH1 0x32 PUSH1 0x4 MSTORE PUSH1 0x24 PUSH1 0x0 REVERT JUMPDEST PUSH1 0x0 PUSH1 0x1 DUP3 ADD PUSH2 0x25D1 JUMPI PUSH2 0x25D1 PUSH2 0x2546 JUMP JUMPDEST POP PUSH1 0x1 ADD SWAP1 JUMP JUMPDEST DUP2 DUP2 SUB DUP2 DUP2 GT ISZERO PUSH2 0x7E4 JUMPI PUSH2 0x7E4 PUSH2 0x2546 JUMP JUMPDEST PUSH1 0x0 DUP3 PUSH2 0x2608 JUMPI PUSH4 0x4E487B71 PUSH1 0xE0 SHL PUSH1 0x0 MSTORE PUSH1 0x12 PUSH1 0x4 MSTORE PUSH1 0x24 PUSH1 0x0 REVERT JUMPDEST POP DIV SWAP1 JUMP JUMPDEST DUP1 DUP3 MUL DUP2 ISZERO DUP3 DUP3 DIV DUP5 EQ OR PUSH2 0x7E4 JUMPI PUSH2 0x7E4 PUSH2 0x2546 JUMP JUMPDEST PUSH32 0x416363657373436F6E74726F6C3A206163636F756E7420000000000000000000 DUP2 MSTORE PUSH1 0x0 DUP4 MLOAD PUSH2 0x265C DUP2 PUSH1 0x17 DUP6 ADD PUSH1 0x20 DUP9 ADD PUSH2 0x21C3 JUMP JUMPDEST PUSH32 0x206973206D697373696E6720726F6C6520000000000000000000000000000000 PUSH1 0x17 SWAP2 DUP5 ADD SWAP2 DUP3 ADD MSTORE DUP4 MLOAD PUSH2 0x2699 DUP2 PUSH1 0x28 DUP5 ADD PUSH1 0x20 DUP9 ADD PUSH2 0x21C3 JUMP JUMPDEST ADD PUSH1 0x28 ADD SWAP5 SWAP4 POP POP POP POP JUMP JUMPDEST PUSH1 0x0 PUSH1 0x20 DUP3 DUP5 SUB SLT ISZERO PUSH2 0x26B7 JUMPI PUSH1 0x0 DUP1 REVERT JUMPDEST DUP2 MLOAD PUSH2 0x2148 DUP2 PUSH2 0x221A JUMP JUMPDEST PUSH1 0x0 PUSH1 0xA0 DUP3 ADD DUP8 DUP4 MSTORE PUSH1 0x20 DUP8 DUP2 DUP6 ADD MSTORE PUSH1 0xA0 PUSH1 0x40 DUP6 ADD MSTORE DUP2 DUP8 MLOAD DUP1 DUP5 MSTORE PUSH1 0xC0 DUP7 ADD SWAP2 POP DUP3 DUP10 ADD SWAP4 POP PUSH1 0x0 JUMPDEST DUP2 DUP2 LT ISZERO PUSH2 0x2712 JUMPI DUP5 MLOAD PUSH1 0x1 PUSH1 0x1 PUSH1 0xA0 SHL SUB AND DUP4 MSTORE SWAP4 DUP4 ADD SWAP4 SWAP2 DUP4 ADD SWAP2 PUSH1 0x1 ADD PUSH2 0x26ED JUMP JUMPDEST POP POP PUSH1 0x1 PUSH1 0x1 PUSH1 0xA0 SHL SUB SWAP7 SWAP1 SWAP7 AND PUSH1 0x60 DUP6 ADD MSTORE POP POP POP PUSH1 0x80 ADD MSTORE SWAP4 SWAP3 POP POP POP JUMP JUMPDEST PUSH1 0x0 DUP1 PUSH1 0x0 PUSH1 0x60 DUP5 DUP7 SUB SLT ISZERO PUSH2 0x2748 JUMPI PUSH1 0x0 DUP1 REVERT JUMPDEST DUP4 MLOAD SWAP3 POP PUSH1 0x20 DUP5 ADD MLOAD SWAP2 POP PUSH1 0x40 DUP5 ADD MLOAD SWAP1 POP SWAP3 POP SWAP3 POP SWAP3 JUMP JUMPDEST PUSH1 0x0 DUP2 PUSH2 0x2770 JUMPI PUSH2 0x2770 PUSH2 0x2546 JUMP JUMPDEST POP PUSH1 0x0 NOT ADD SWAP1 JUMP INVALID LOG2 PUSH5 0x6970667358 0x22 SLT KECCAK256 CREATE2 SLOAD SWAP9 0xEB 0xE5 SWAP12 PUSH29 0x117B6CD925BE47B6C732EBDD1B4BA617E41A5EF8D717AA601864736F6C PUSH4 0x43000812 STOP CALLER "},"methodIdentifiers":{"DEFAULT_ADMIN_ROLE()":"a217fddf","PAUSER_ROLE()":"e63ab1e9","UPGRADER_ROLE()":"f72c0d8b","airdrop(address,uint256)":"8ba4cc3c","airdropTokens()":"91152c5c","allowance(address,address)":"dd62ed3e","approve(address,uint256)":"095ea7b3","balanceOf(address)":"70a08231","bulkAirdrop(address[],uint256[])":"cf9891fb","bulkSetAddresses(address,address,address)":"113c38d8","bulkSetFees(uint256,uint256,uint256,uint256)":"05480947","burn(uint256)":"42966c68","burnFrom(address,uint256)":"79cc6790","decimals()":"313ce567","decreaseAllowance(address,uint256)":"a457c2d7","depositAirdropTokens(uint256)":"67e2b005","devFeePercent()":"3f64a7ab","devFeeRecipient()":"cbeb5f3d","getIsBlacklisted(address)":"71344e69","getIsExcludedFee(address)":"a18648b1","getRoleAdmin(bytes32)":"248a9ca3","grantRole(bytes32,address)":"2f2ff15d","hasRole(bytes32,address)":"91d14854","increaseAllowance(address,uint256)":"39509351","liquidityFeePercent()":"6e2310b2","marketingFeePercent()":"da6fa55c","marketingFeeRecipient()":"b17b6d4a","name()":"06fdde03","ownerFeePercent()":"6998de35","ownerFeeRecipient()":"012a7388","pairAddr()":"4f4fc99b","pairAddress(address)":"adc5a972","pause()":"8456cb59","paused()":"5c975abb","renounceRole(bytes32,address)":"36568abe","revokeRole(bytes32,address)":"d547741f","setIsBlacklisted(address,bool)":"a0e38492","setIsExcludedFee(address,bool)":"731c5fe7","setPairAddress(address,bool)":"c3803660","supportsInterface(bytes4)":"01ffc9a7","symbol()":"95d89b41","totalDevAmount()":"c6d20c16","totalLiquidity()":"15770f92","totalMarketingAmount()":"d82b0fab","totalOwnerAmount()":"77e7a16e","totalSupply()":"18160ddd","transfer(address,uint256)":"a9059cbb","transferFrom(address,address,uint256)":"23b872dd","unpause()":"3f4ba83a"}},"storageLayout":{"storage":[{"astId":746,"contract":"contracts/TokenNameTwo.sol:TokenNameTwo","label":"_balances","offset":0,"slot":"0","type":"t_mapping(t_address,t_uint256)"},{"astId":752,"contract":"contracts/TokenNameTwo.sol:TokenNameTwo","label":"_allowances","offset":0,"slot":"1","type":"t_mapping(t_address,t_mapping(t_address,t_uint256))"},{"astId":754,"contract":"contracts/TokenNameTwo.sol:TokenNameTwo","label":"_totalSupply","offset":0,"slot":"2","type":"t_uint256"},{"astId":756,"contract":"contracts/TokenNameTwo.sol:TokenNameTwo","label":"_name","offset":0,"slot":"3","type":"t_string_storage"},{"astId":758,"contract":"contracts/TokenNameTwo.sol:TokenNameTwo","label":"_symbol","offset":0,"slot":"4","type":"t_string_storage"},{"astId":575,"contract":"contracts/TokenNameTwo.sol:TokenNameTwo","label":"_paused","offset":0,"slot":"5","type":"t_bool"},{"astId":24,"contract":"contracts/TokenNameTwo.sol:TokenNameTwo","label":"_roles","offset":0,"slot":"6","type":"t_mapping(t_bytes32,t_struct(RoleData)19_storage)"},{"astId":676,"contract":"contracts/TokenNameTwo.sol:TokenNameTwo","label":"_status","offset":0,"slot":"7","type":"t_uint256"},{"astId":3594,"contract":"contracts/TokenNameTwo.sol:TokenNameTwo","label":"ownerFeeRecipient","offset":0,"slot":"8","type":"t_address_payable"},{"astId":3596,"contract":"contracts/TokenNameTwo.sol:TokenNameTwo","label":"marketingFeeRecipient","offset":0,"slot":"9","type":"t_address_payable"},{"astId":3598,"contract":"contracts/TokenNameTwo.sol:TokenNameTwo","label":"devFeeRecipient","offset":0,"slot":"10","type":"t_address_payable"},{"astId":3600,"contract":"contracts/TokenNameTwo.sol:TokenNameTwo","label":"pairAddr","offset":0,"slot":"11","type":"t_address"},{"astId":3604,"contract":"contracts/TokenNameTwo.sol:TokenNameTwo","label":"pairAddress","offset":0,"slot":"12","type":"t_mapping(t_address,t_bool)"},{"astId":3606,"contract":"contracts/TokenNameTwo.sol:TokenNameTwo","label":"txCounter","offset":0,"slot":"13","type":"t_uint256"},{"astId":3608,"contract":"contracts/TokenNameTwo.sol:TokenNameTwo","label":"ownerFeePercent","offset":0,"slot":"14","type":"t_uint256"},{"astId":3610,"contract":"contracts/TokenNameTwo.sol:TokenNameTwo","label":"marketingFeePercent","offset":0,"slot":"15","type":"t_uint256"},{"astId":3612,"contract":"contracts/TokenNameTwo.sol:TokenNameTwo","label":"devFeePercent","offset":0,"slot":"16","type":"t_uint256"},{"astId":3614,"contract":"contracts/TokenNameTwo.sol:TokenNameTwo","label":"liquidityFeePercent","offset":0,"slot":"17","type":"t_uint256"},{"astId":3616,"contract":"contracts/TokenNameTwo.sol:TokenNameTwo","label":"totalDevAmount","offset":0,"slot":"18","type":"t_uint256"},{"astId":3618,"contract":"contracts/TokenNameTwo.sol:TokenNameTwo","label":"totalMarketingAmount","offset":0,"slot":"19","type":"t_uint256"},{"astId":3620,"contract":"contracts/TokenNameTwo.sol:TokenNameTwo","label":"totalOwnerAmount","offset":0,"slot":"20","type":"t_uint256"},{"astId":3622,"contract":"contracts/TokenNameTwo.sol:TokenNameTwo","label":"totalLiquidity","offset":0,"slot":"21","type":"t_uint256"},{"astId":3626,"contract":"contracts/TokenNameTwo.sol:TokenNameTwo","label":"isExcludedFee","offset":0,"slot":"22","type":"t_mapping(t_address,t_bool)"},{"astId":3630,"contract":"contracts/TokenNameTwo.sol:TokenNameTwo","label":"isBlacklisted","offset":0,"slot":"23","type":"t_mapping(t_address,t_bool)"},{"astId":3632,"contract":"contracts/TokenNameTwo.sol:TokenNameTwo","label":"airdropTokens","offset":0,"slot":"24","type":"t_uint256"},{"astId":3635,"contract":"contracts/TokenNameTwo.sol:TokenNameTwo","label":"uniswapV2Router","offset":0,"slot":"25","type":"t_contract(IUniswapV2Router02)3511"}],"types":{"t_address":{"encoding":"inplace","label":"address","numberOfBytes":"20"},"t_address_payable":{"encoding":"inplace","label":"address payable","numberOfBytes":"20"},"t_bool":{"encoding":"inplace","label":"bool","numberOfBytes":"1"},"t_bytes32":{"encoding":"inplace","label":"bytes32","numberOfBytes":"32"},"t_contract(IUniswapV2Router02)3511":{"encoding":"inplace","label":"contract IUniswapV2Router02","numberOfBytes":"20"},"t_mapping(t_address,t_bool)":{"encoding":"mapping","key":"t_address","label":"mapping(address => bool)","numberOfBytes":"32","value":"t_bool"},"t_mapping(t_address,t_mapping(t_address,t_uint256))":{"encoding":"mapping","key":"t_address","label":"mapping(address => mapping(address => uint256))","numberOfBytes":"32","value":"t_mapping(t_address,t_uint256)"},"t_mapping(t_address,t_uint256)":{"encoding":"mapping","key":"t_address","label":"mapping(address => uint256)","numberOfBytes":"32","value":"t_uint256"},"t_mapping(t_bytes32,t_struct(RoleData)19_storage)":{"encoding":"mapping","key":"t_bytes32","label":"mapping(bytes32 => struct AccessControl.RoleData)","numberOfBytes":"32","value":"t_struct(RoleData)19_storage"},"t_string_storage":{"encoding":"bytes","label":"string","numberOfBytes":"32"},"t_struct(RoleData)19_storage":{"encoding":"inplace","label":"struct AccessControl.RoleData","members":[{"astId":16,"contract":"contracts/TokenNameTwo.sol:TokenNameTwo","label":"members","offset":0,"slot":"0","type":"t_mapping(t_address,t_bool)"},{"astId":18,"contract":"contracts/TokenNameTwo.sol:TokenNameTwo","label":"adminRole","offset":0,"slot":"1","type":"t_bytes32"}],"numberOfBytes":"64"},"t_uint256":{"encoding":"inplace","label":"uint256","numberOfBytes":"32"}}}}}}