{
  "_format": "hh-sol-artifact-1",
  "contractName": "Staking",
  "sourceName": "contracts/Staking.sol",
  "abi": [
    {
      "inputs": [
        {
          "internalType": "address",
          "name": "_tokenAddress",
          "type": "address"
        },
        {
          "internalType": "address",
          "name": "owner_",
          "type": "address"
        }
      ],
      "stateMutability": "nonpayable",
      "type": "constructor"
    },
    {
      "inputs": [
        {
          "internalType": "uint256",
          "name": "_apr",
          "type": "uint256"
        }
      ],
      "name": "AprAlreadySet",
      "type": "error"
    },
    {
      "inputs": [],
      "name": "InvalidApr",
      "type": "error"
    },
    {
      "inputs": [],
      "name": "InvalidStakeDuration",
      "type": "error"
    },
    {
      "inputs": [],
      "name": "NotEnoughTokensIntoStakingPool",
      "type": "error"
    },
    {
      "inputs": [],
      "name": "NothingToWithdraw",
      "type": "error"
    },
    {
      "inputs": [],
      "name": "StakingPeriodNotOver",
      "type": "error"
    },
    {
      "anonymous": false,
      "inputs": [
        {
          "indexed": false,
          "internalType": "uint256",
          "name": "apr",
          "type": "uint256"
        }
      ],
      "name": "AprUpdated",
      "type": "event"
    },
    {
      "anonymous": false,
      "inputs": [
        {
          "indexed": false,
          "internalType": "uint256",
          "name": "aprNinetyDays",
          "type": "uint256"
        },
        {
          "indexed": false,
          "internalType": "uint256",
          "name": "aprOneEightyDays",
          "type": "uint256"
        },
        {
          "indexed": false,
          "internalType": "uint256",
          "name": "aprThreeSixtyDays",
          "type": "uint256"
        }
      ],
      "name": "BulkAprUpdated",
      "type": "event"
    },
    {
      "anonymous": false,
      "inputs": [
        {
          "indexed": false,
          "internalType": "uint256",
          "name": "amount",
          "type": "uint256"
        }
      ],
      "name": "DepositStakingPool",
      "type": "event"
    },
    {
      "anonymous": false,
      "inputs": [
        {
          "indexed": true,
          "internalType": "address",
          "name": "previousOwner",
          "type": "address"
        },
        {
          "indexed": true,
          "internalType": "address",
          "name": "newOwner",
          "type": "address"
        }
      ],
      "name": "OwnershipTransferred",
      "type": "event"
    },
    {
      "anonymous": false,
      "inputs": [
        {
          "indexed": true,
          "internalType": "address",
          "name": "user",
          "type": "address"
        },
        {
          "indexed": false,
          "internalType": "uint256",
          "name": "amount",
          "type": "uint256"
        }
      ],
      "name": "Staked",
      "type": "event"
    },
    {
      "anonymous": false,
      "inputs": [
        {
          "indexed": false,
          "internalType": "uint256",
          "name": "amount",
          "type": "uint256"
        }
      ],
      "name": "WithdrawStakingPool",
      "type": "event"
    },
    {
      "anonymous": false,
      "inputs": [
        {
          "indexed": true,
          "internalType": "address",
          "name": "user",
          "type": "address"
        },
        {
          "indexed": false,
          "internalType": "uint256",
          "name": "amount",
          "type": "uint256"
        }
      ],
      "name": "Withdrawn",
      "type": "event"
    },
    {
      "inputs": [],
      "name": "aprNinety",
      "outputs": [
        {
          "internalType": "uint256",
          "name": "",
          "type": "uint256"
        }
      ],
      "stateMutability": "view",
      "type": "function"
    },
    {
      "inputs": [],
      "name": "aprOneEighty",
      "outputs": [
        {
          "internalType": "uint256",
          "name": "",
          "type": "uint256"
        }
      ],
      "stateMutability": "view",
      "type": "function"
    },
    {
      "inputs": [],
      "name": "aprThreeSixty",
      "outputs": [
        {
          "internalType": "uint256",
          "name": "",
          "type": "uint256"
        }
      ],
      "stateMutability": "view",
      "type": "function"
    },
    {
      "inputs": [
        {
          "internalType": "uint256",
          "name": "_aprNinetyDays",
          "type": "uint256"
        },
        {
          "internalType": "uint256",
          "name": "_aprOneEightyDays",
          "type": "uint256"
        },
        {
          "internalType": "uint256",
          "name": "_aprThreeSixtyDays",
          "type": "uint256"
        }
      ],
      "name": "bulkSetApr",
      "outputs": [],
      "stateMutability": "nonpayable",
      "type": "function"
    },
    {
      "inputs": [
        {
          "internalType": "uint256",
          "name": "_amount",
          "type": "uint256"
        }
      ],
      "name": "depositStakingPoolNinetyDays",
      "outputs": [],
      "stateMutability": "nonpayable",
      "type": "function"
    },
    {
      "inputs": [
        {
          "internalType": "uint256",
          "name": "_amount",
          "type": "uint256"
        }
      ],
      "name": "depositStakingPoolOneEightyDays",
      "outputs": [],
      "stateMutability": "nonpayable",
      "type": "function"
    },
    {
      "inputs": [
        {
          "internalType": "uint256",
          "name": "_amount",
          "type": "uint256"
        }
      ],
      "name": "depositStakingPoolThreeSixtyDays",
      "outputs": [],
      "stateMutability": "nonpayable",
      "type": "function"
    },
    {
      "inputs": [],
      "name": "ercToken",
      "outputs": [
        {
          "internalType": "contract IERC20",
          "name": "",
          "type": "address"
        }
      ],
      "stateMutability": "view",
      "type": "function"
    },
    {
      "inputs": [],
      "name": "owner",
      "outputs": [
        {
          "internalType": "address",
          "name": "",
          "type": "address"
        }
      ],
      "stateMutability": "view",
      "type": "function"
    },
    {
      "inputs": [],
      "name": "renounceOwnership",
      "outputs": [],
      "stateMutability": "nonpayable",
      "type": "function"
    },
    {
      "inputs": [
        {
          "internalType": "uint256",
          "name": "_apr",
          "type": "uint256"
        }
      ],
      "name": "setAprNinetyDays",
      "outputs": [],
      "stateMutability": "nonpayable",
      "type": "function"
    },
    {
      "inputs": [
        {
          "internalType": "uint256",
          "name": "_apr",
          "type": "uint256"
        }
      ],
      "name": "setAprOneEightyDays",
      "outputs": [],
      "stateMutability": "nonpayable",
      "type": "function"
    },
    {
      "inputs": [
        {
          "internalType": "uint256",
          "name": "_apr",
          "type": "uint256"
        }
      ],
      "name": "setAprThreeSixtyDays",
      "outputs": [],
      "stateMutability": "nonpayable",
      "type": "function"
    },
    {
      "inputs": [
        {
          "internalType": "uint256",
          "name": "_amount",
          "type": "uint256"
        }
      ],
      "name": "stakeNinetyDays",
      "outputs": [],
      "stateMutability": "nonpayable",
      "type": "function"
    },
    {
      "inputs": [
        {
          "internalType": "uint256",
          "name": "_amount",
          "type": "uint256"
        }
      ],
      "name": "stakeOneEightyDays",
      "outputs": [],
      "stateMutability": "nonpayable",
      "type": "function"
    },
    {
      "inputs": [
        {
          "internalType": "uint256",
          "name": "_amount",
          "type": "uint256"
        }
      ],
      "name": "stakeThreeSixtyDays",
      "outputs": [],
      "stateMutability": "nonpayable",
      "type": "function"
    },
    {
      "inputs": [
        {
          "internalType": "address",
          "name": "_user",
          "type": "address"
        },
        {
          "internalType": "uint256",
          "name": "_stakingPeriod",
          "type": "uint256"
        }
      ],
      "name": "stakedAmountOf",
      "outputs": [
        {
          "internalType": "uint256",
          "name": "",
          "type": "uint256"
        }
      ],
      "stateMutability": "view",
      "type": "function"
    },
    {
      "inputs": [
        {
          "internalType": "address",
          "name": "",
          "type": "address"
        }
      ],
      "name": "stakesNinety",
      "outputs": [
        {
          "internalType": "uint256",
          "name": "unlockTime",
          "type": "uint256"
        },
        {
          "internalType": "uint256",
          "name": "stakedAmount",
          "type": "uint256"
        },
        {
          "internalType": "uint256",
          "name": "userReward",
          "type": "uint256"
        }
      ],
      "stateMutability": "view",
      "type": "function"
    },
    {
      "inputs": [
        {
          "internalType": "address",
          "name": "",
          "type": "address"
        }
      ],
      "name": "stakesOneEighty",
      "outputs": [
        {
          "internalType": "uint256",
          "name": "unlockTime",
          "type": "uint256"
        },
        {
          "internalType": "uint256",
          "name": "stakedAmount",
          "type": "uint256"
        },
        {
          "internalType": "uint256",
          "name": "userReward",
          "type": "uint256"
        }
      ],
      "stateMutability": "view",
      "type": "function"
    },
    {
      "inputs": [
        {
          "internalType": "address",
          "name": "",
          "type": "address"
        }
      ],
      "name": "stakesThreeSixty",
      "outputs": [
        {
          "internalType": "uint256",
          "name": "unlockTime",
          "type": "uint256"
        },
        {
          "internalType": "uint256",
          "name": "stakedAmount",
          "type": "uint256"
        },
        {
          "internalType": "uint256",
          "name": "userReward",
          "type": "uint256"
        }
      ],
      "stateMutability": "view",
      "type": "function"
    },
    {
      "inputs": [],
      "name": "stakingPoolNinety",
      "outputs": [
        {
          "internalType": "uint256",
          "name": "",
          "type": "uint256"
        }
      ],
      "stateMutability": "view",
      "type": "function"
    },
    {
      "inputs": [],
      "name": "stakingPoolOneEighty",
      "outputs": [
        {
          "internalType": "uint256",
          "name": "",
          "type": "uint256"
        }
      ],
      "stateMutability": "view",
      "type": "function"
    },
    {
      "inputs": [],
      "name": "stakingPoolThreeSixty",
      "outputs": [
        {
          "internalType": "uint256",
          "name": "",
          "type": "uint256"
        }
      ],
      "stateMutability": "view",
      "type": "function"
    },
    {
      "inputs": [
        {
          "internalType": "address",
          "name": "newOwner",
          "type": "address"
        }
      ],
      "name": "transferOwnership",
      "outputs": [],
      "stateMutability": "nonpayable",
      "type": "function"
    },
    {
      "inputs": [
        {
          "internalType": "address",
          "name": "_user",
          "type": "address"
        },
        {
          "internalType": "uint256",
          "name": "_stakingPeriod",
          "type": "uint256"
        }
      ],
      "name": "unlockTimeOf",
      "outputs": [
        {
          "internalType": "uint256",
          "name": "",
          "type": "uint256"
        }
      ],
      "stateMutability": "view",
      "type": "function"
    },
    {
      "inputs": [],
      "name": "withdrawNinetyDays",
      "outputs": [],
      "stateMutability": "nonpayable",
      "type": "function"
    },
    {
      "inputs": [],
      "name": "withdrawOneEightyDays",
      "outputs": [],
      "stateMutability": "nonpayable",
      "type": "function"
    },
    {
      "inputs": [
        {
          "internalType": "uint256",
          "name": "_amount",
          "type": "uint256"
        }
      ],
      "name": "withdrawStakingPoolNinetyDays",
      "outputs": [],
      "stateMutability": "nonpayable",
      "type": "function"
    },
    {
      "inputs": [
        {
          "internalType": "uint256",
          "name": "_amount",
          "type": "uint256"
        }
      ],
      "name": "withdrawStakingPoolOneEightyDays",
      "outputs": [],
      "stateMutability": "nonpayable",
      "type": "function"
    },
    {
      "inputs": [
        {
          "internalType": "uint256",
          "name": "_amount",
          "type": "uint256"
        }
      ],
      "name": "withdrawStakingPoolThreeSixtyDays",
      "outputs": [],
      "stateMutability": "nonpayable",
      "type": "function"
    },
    {
      "inputs": [],
      "name": "withdrawThreeSixtyDays",
      "outputs": [],
      "stateMutability": "nonpayable",
      "type": "function"
    }
  ],
  "bytecode": "0x60806040526101906002556102586003556103206004553480156200002357600080fd5b506040516200172e3803806200172e8339810160408190526200004691620001d1565b620000513362000083565b6200005c81620000d3565b50600180546001600160a01b0319166001600160a01b039290921691909117905562000209565b600080546001600160a01b038381166001600160a01b0319831681178455604051919092169283917f8be0079c531659141344cd1fd0a4f28419497f9722a3daafe3b4186f6b6457e09190a35050565b620000dd62000156565b6001600160a01b038116620001485760405162461bcd60e51b815260206004820152602660248201527f4f776e61626c653a206e6577206f776e657220697320746865207a65726f206160448201526564647265737360d01b60648201526084015b60405180910390fd5b620001538162000083565b50565b6000546001600160a01b03163314620001b25760405162461bcd60e51b815260206004820181905260248201527f4f776e61626c653a2063616c6c6572206973206e6f7420746865206f776e657260448201526064016200013f565b565b80516001600160a01b0381168114620001cc57600080fd5b919050565b60008060408385031215620001e557600080fd5b620001f083620001b4565b91506200020060208401620001b4565b90509250929050565b61151580620002196000396000f3fe608060405234801561001057600080fd5b50600436106101e55760003560e01c8063a40230ac1161010f578063dd14b617116100a2578063f84cd26211610071578063f84cd26214610432578063f8e4d1db14610445578063fbbf04f01461044e578063fe43daca1461045657600080fd5b8063dd14b617146103e6578063ecd10519146103f9578063efff5b801461040c578063f2fde38b1461041f57600080fd5b8063b550de4b116100de578063b550de4b146103a4578063b9bda860146103b7578063cabed12a146103c0578063d3522023146103d357600080fd5b8063a40230ac14610376578063aac69fb81461037f578063b09a1b9214610388578063b52ac2fe1461039b57600080fd5b8063715018a61161018757806395bf81001161015657806395bf8100146103085780639672d586146103105780639993d5c214610318578063a2ca6dde1461034757600080fd5b8063715018a6146102b15780637f2f767e146102b95780638da5cb5b146102e45780638e54b028146102f557600080fd5b80634f6bc755116101c35780634f6bc755146102615780635feeeaaf14610282578063624c19681461029557806363df0d2e146102a857600080fd5b80630af84be8146101ea5780632c290755146101ff5780633dfada6c14610212575b600080fd5b6101fd6101f836600461139b565b610469565b005b6101fd61020d36600461139b565b61058f565b6102416102203660046113d0565b60066020526000908152604090208054600182015460029092015490919083565b604080519384526020840192909252908201526060015b60405180910390f35b61027461026f3660046113f2565b6105cc565b604051908152602001610258565b6101fd61029036600461139b565b610685565b6101fd6102a336600461141c565b6106c2565b61027460025481565b6101fd610751565b6001546102cc906001600160a01b031681565b6040516001600160a01b039091168152602001610258565b6000546001600160a01b03166102cc565b6101fd61030336600461139b565b610765565b6101fd61090c565b6101fd610a66565b6102416103263660046113d0565b60076020526000908152604090208054600182015460029092015490919083565b6102416103553660046113d0565b60056020526000908152604090208054600182015460029092015490919083565b610274600a5481565b61027460085481565b6101fd61039636600461139b565b610b47565b61027460035481565b6101fd6103b236600461139b565b610bcf565b61027460095481565b6101fd6103ce36600461139b565b610ce1565b6101fd6103e136600461139b565b610d64565b6101fd6103f436600461139b565b610de7565b6101fd61040736600461139b565b610eb2565b61027461041a3660046113f2565b610f48565b6101fd61042d3660046113d0565b610fc0565b6101fd61044036600461139b565b611050565b61027460045481565b6101fd611162565b6101fd61046436600461139b565b611243565b6104716112d9565b8060095410156104945760405163dafe58cf60e01b815260040160405180910390fd5b80600960008282546104a6919061145e565b90915550506001546001600160a01b031663a9059cbb6104ce6000546001600160a01b031690565b6040517fffffffff0000000000000000000000000000000000000000000000000000000060e084901b1681526001600160a01b039091166004820152602481018490526044016020604051808303816000875af1158015610533573d6000803e3d6000fd5b505050506040513d601f19601f820116820180604052508101906105579190611471565b506040518181527fe809dd55b4b67fa036b75a1637f892a761e89bbbc256f56bbd829cbbae8e3885906020015b60405180910390a150565b6105976112d9565b8060085410156105ba5760405163dafe58cf60e01b815260040160405180910390fd5b80600860008282546104a6919061145e565b600081605a036105f857506001600160a01b03821660009081526005602052604090206001015461067f565b8160b40361062257506001600160a01b03821660009081526006602052604090206001015461067f565b816101680361064d57506001600160a01b03821660009081526007602052604090206001015461067f565b6040517f466d75a000000000000000000000000000000000000000000000000000000000815260040160405180910390fd5b92915050565b61068d6112d9565b80600a5410156106b05760405163dafe58cf60e01b815260040160405180910390fd5b80600a60008282546104a6919061145e565b6106ca6112d9565b8215806106d5575081155b806106de575080155b156106fc57604051633b61151160e11b815260040160405180910390fd5b60028390556003829055600481905560408051848152602081018490529081018290527fd628a7ee0ed3811be1211b03a539fb9dab4e2b7bad9e923d80dc2f4d4a34e8159060600160405180910390a1505050565b6107596112d9565b6107636000611333565b565b6064600454826107759190611493565b61077f91906114aa565b600a5410156107a15760405163dafe58cf60e01b815260040160405180910390fd5b6064600454826107b19190611493565b6107bb91906114aa565b600a60008282546107cc919061145e565b909155506107e090506301da9c00426114cc565b336000908152600760205260409020556004546064906108009083611493565b61080a91906114aa565b336000908152600760205260408120600201805490919061082c9084906114cc565b909155505033600090815260076020526040812060010180548392906108539084906114cc565b90915550506001546040516323b872dd60e01b8152336004820152306024820152604481018390526001600160a01b03909116906323b872dd906064016020604051808303816000875af11580156108af573d6000803e3d6000fd5b505050506040513d601f19601f820116820180604052508101906108d39190611471565b5060405181815233907f9e71bc8eea02a63969f509818f2dafb9254532904319f9dbda79b67bd34a5f3d9060200160405180910390a250565b3360009081526005602052604081206001015442910361093f57604051630686827b60e51b815260040160405180910390fd5b33600090815260056020526040902054811161096e576040516302b5059b60e41b815260040160405180910390fd5b336000908152600560205260408120600281015460019091015461099291906114cc565b3360008181526005602052604080822060018082018490556002909101929092559054905163a9059cbb60e01b81526004810192909252602482018390529192506001600160a01b039091169063a9059cbb906044015b6020604051808303816000875af1158015610a08573d6000803e3d6000fd5b505050506040513d601f19601f82011682018060405250810190610a2c9190611471565b5060405181815233907f7084f5476618d8e60b11ef0d7d3f06914655adb8793e28ff7f018d4c76d505d59060200160405180910390a25050565b33600090815260066020526040812060010154429103610a9957604051630686827b60e51b815260040160405180910390fd5b336000908152600660205260409020548111610ac8576040516302b5059b60e41b815260040160405180910390fd5b3360009081526006602052604081206002810154600190910154610aec91906114cc565b3360008181526006602052604080822060018082018490556002909101929092559054905163a9059cbb60e01b81526004810192909252602482018390529192506001600160a01b039091169063a9059cbb906044016109e9565b610b4f6112d9565b80600003610b7057604051633b61151160e11b815260040160405180910390fd5b8060035403610b9a5760405163a86c9c4360e01b8152600481018290526024015b60405180910390fd5b60038190556040518181527f16bc525116a7ec45cf36d84a97ab6b444a8c5264cc1a9468bfae78613156111590602001610584565b6004606460025483610be19190611493565b610beb91906114aa565b610bf591906114aa565b6008541015610c175760405163dafe58cf60e01b815260040160405180910390fd5b6004606460025483610c299190611493565b610c3391906114aa565b610c3d91906114aa565b60086000828254610c4e919061145e565b90915550610c6190506276a700426114cc565b33600090815260056020526040902055600254600490606490610c849084611493565b610c8e91906114aa565b610c9891906114aa565b3360009081526005602052604081206002018054909190610cba9084906114cc565b909155505033600090815260056020526040812060010180548392906108539084906114cc565b610ce96112d9565b80600003610d0a57604051633b61151160e11b815260040160405180910390fd5b8060045403610d2f5760405163a86c9c4360e01b815260048101829052602401610b91565b60048190556040518181527f16bc525116a7ec45cf36d84a97ab6b444a8c5264cc1a9468bfae78613156111590602001610584565b610d6c6112d9565b80600003610d8d57604051633b61151160e11b815260040160405180910390fd5b8060025403610db25760405163a86c9c4360e01b815260048101829052602401610b91565b60028190556040518181527f16bc525116a7ec45cf36d84a97ab6b444a8c5264cc1a9468bfae78613156111590602001610584565b610def6112d9565b6001546040516323b872dd60e01b8152336004820152306024820152604481018390526001600160a01b03909116906323b872dd906064016020604051808303816000875af1158015610e46573d6000803e3d6000fd5b505050506040513d601f19601f82011682018060405250810190610e6a9190611471565b5080600a6000828254610e7d91906114cc565b90915550506040518181527fc10e07c724e1891b970354e5e7f90d8d59ccda3ec8a132bdebe087d59e164d9290602001610584565b610eba6112d9565b6001546040516323b872dd60e01b8152336004820152306024820152604481018390526001600160a01b03909116906323b872dd906064016020604051808303816000875af1158015610f11573d6000803e3d6000fd5b505050506040513d601f19601f82011682018060405250810190610f359190611471565b508060086000828254610e7d91906114cc565b600081605a03610f7157506001600160a01b03821660009081526005602052604090205461067f565b8160b403610f9857506001600160a01b03821660009081526006602052604090205461067f565b816101680361064d57506001600160a01b03821660009081526007602052604090205461067f565b610fc86112d9565b6001600160a01b0381166110445760405162461bcd60e51b815260206004820152602660248201527f4f776e61626c653a206e6577206f776e657220697320746865207a65726f206160448201527f64647265737300000000000000000000000000000000000000000000000000006064820152608401610b91565b61104d81611333565b50565b60026064600354836110629190611493565b61106c91906114aa565b61107691906114aa565b60095410156110985760405163dafe58cf60e01b815260040160405180910390fd5b60026064600354836110aa9190611493565b6110b491906114aa565b6110be91906114aa565b600960008282546110cf919061145e565b909155506110e2905062ed4e00426114cc565b336000908152600660205260409020556003546002906064906111059084611493565b61110f91906114aa565b61111991906114aa565b336000908152600660205260408120600201805490919061113b9084906114cc565b909155505033600090815260066020526040812060010180548392906108539084906114cc565b3360009081526007602052604081206001015442910361119557604051630686827b60e51b815260040160405180910390fd5b3360009081526007602052604090205481116111c4576040516302b5059b60e41b815260040160405180910390fd5b33600090815260076020526040812060028101546001909101546111e891906114cc565b3360008181526007602052604080822060018082018490556002909101929092559054905163a9059cbb60e01b81526004810192909252602482018390529192506001600160a01b039091169063a9059cbb906044016109e9565b61124b6112d9565b6001546040516323b872dd60e01b8152336004820152306024820152604481018390526001600160a01b03909116906323b872dd906064016020604051808303816000875af11580156112a2573d6000803e3d6000fd5b505050506040513d601f19601f820116820180604052508101906112c69190611471565b508060096000828254610e7d91906114cc565b6000546001600160a01b031633146107635760405162461bcd60e51b815260206004820181905260248201527f4f776e61626c653a2063616c6c6572206973206e6f7420746865206f776e65726044820152606401610b91565b600080546001600160a01b038381167fffffffffffffffffffffffff0000000000000000000000000000000000000000831681178455604051919092169283917f8be0079c531659141344cd1fd0a4f28419497f9722a3daafe3b4186f6b6457e09190a35050565b6000602082840312156113ad57600080fd5b5035919050565b80356001600160a01b03811681146113cb57600080fd5b919050565b6000602082840312156113e257600080fd5b6113eb826113b4565b9392505050565b6000806040838503121561140557600080fd5b61140e836113b4565b946020939093013593505050565b60008060006060848603121561143157600080fd5b505081359360208301359350604090920135919050565b634e487b7160e01b600052601160045260246000fd5b8181038181111561067f5761067f611448565b60006020828403121561148357600080fd5b815180151581146113eb57600080fd5b808202811582820484141761067f5761067f611448565b6000826114c757634e487b7160e01b600052601260045260246000fd5b500490565b8082018082111561067f5761067f61144856fea2646970667358221220084a9ad47a1032cd14e9540bc963f6ca9877dcf2d92a72e50e0850a4c616aacf64736f6c63430008120033",
  "linkReferences": {},
  "deployedLinkReferences": {}
}